{
	"data": {
		"bytecode": {
			"linkReferences": {},
			"object": "608060405260016008556000600a556000601060006101000a8154816fffffffffffffffffffffffffffffffff02191690836fffffffffffffffffffffffffffffffff160217905550600060115560006015553480156200005f57600080fd5b506040516200889c3803806200889c833981810160405281019062000085919062000bee565b85858585856040518060400160405280600381526020017f42656500000000000000000000000000000000000000000000000000000000008152506040518060400160405280600381526020017f4245450000000000000000000000000000000000000000000000000000000000815250868282816000908051906020019062000111929190620009f5565b5080600190805190602001906200012a929190620009f5565b50505060006200013f6200035260201b60201c565b905080600660006101000a81548173ffffffffffffffffffffffffffffffffffffffff021916908373ffffffffffffffffffffffffffffffffffffffff1602179055508073ffffffffffffffffffffffffffffffffffffffff16600073ffffffffffffffffffffffffffffffffffffffff167f8be0079c531659141344cd1fd0a4f28419497f9722a3daafe3b4186f6b6457e060405160405180910390a35080600760006101000a81548173ffffffffffffffffffffffffffffffffffffffff021916908373ffffffffffffffffffffffffffffffffffffffff16021790555050505084600d60006101000a81548173ffffffffffffffffffffffffffffffffffffffff021916908373ffffffffffffffffffffffffffffffffffffffff160217905550806013819055506013546013546013544262000280919062000eb0565b6200028c919062000f39565b62000298919062000e1b565b60128190555081600f81905550620002fb84600081518110620002e4577f4e487b7100000000000000000000000000000000000000000000000000000000600052603260045260246000fd5b60200260200101516000806200035a60201b60201c565b6000836fffffffffffffffffffffffffffffffff1611156200032c576200032b83856001620003e660201b60201c565b5b5050505050600081116200033f57600080fd5b80601481905550505050505050620013ee565b600033905090565b60006200036e83836200067c60201b60201c565b9050620003823082620006bc60201b60201c565b604051806020016040528085815250600e60008381526020019081526020016000206000820151816000019080519060200190620003c2929190620009f5565b5090505060116000815480929190620003db90620011e5565b919050555050505050565b601060009054906101000a90046fffffffffffffffffffffffffffffffff166fffffffffffffffffffffffffffffffff16836fffffffffffffffffffffffffffffffff16116200043557600080fd5b600083600f0b136200044657600080fd5b60066002601060009054906101000a90046fffffffffffffffffffffffffffffffff168562000476919062001028565b856001601060009054906101000a90046fffffffffffffffffffffffffffffffff16620004a4919062000dce565b620004b0919062000dce565b620004bc919062000ee8565b620004c8919062000e78565b620004d4919062000ee8565b6fffffffffffffffffffffffffffffffff16818351620004f5919062001063565b146200050057600080fd5b6000836200050e9062001233565b90505b83600f0b81600f0b136200063d576000846200052d9062001233565b90505b84600f0b81600f0b1362000626576000620005528383620008a260201b60201c565b9050601060009054906101000a90046fffffffffffffffffffffffffffffffff166fffffffffffffffffffffffffffffffff1681118015620005a65750856fffffffffffffffffffffffffffffffff168111155b156200060f576200060e858580620005be90620011e5565b965081518110620005f8577f4e487b7100000000000000000000000000000000000000000000000000000000600052603260045260246000fd5b602002602001015184846200035a60201b60201c565b5b5080806200061d90620011a7565b91505062000530565b5080806200063490620011a7565b91505062000511565b5082601060006101000a8154816fffffffffffffffffffffffffffffffff02191690836fffffffffffffffffffffffffffffffff160217905550505050565b6000816fffffffffffffffffffffffffffffffff166080846fffffffffffffffffffffffffffffffff16901b620006b4919062000e1b565b905092915050565b600073ffffffffffffffffffffffffffffffffffffffff168273ffffffffffffffffffffffffffffffffffffffff1614156200072f576040517f08c379a0000000000000000000000000000000000000000000000000000000008152600401620007269062000d0d565b60405180910390fd5b62000740816200098460201b60201c565b1562000783576040517f08c379a00000000000000000000000000000000000000000000000000000000081526004016200077a9062000ceb565b60405180910390fd5b6200079760008383620009f060201b60201c565b6001600360008473ffffffffffffffffffffffffffffffffffffffff1673ffffffffffffffffffffffffffffffffffffffff1681526020019081526020016000206000828254620007e9919062000e1b565b92505081905550816002600083815260200190815260200160002060006101000a81548173ffffffffffffffffffffffffffffffffffffffff021916908373ffffffffffffffffffffffffffffffffffffffff160217905550808273ffffffffffffffffffffffffffffffffffffffff16600073ffffffffffffffffffffffffffffffffffffffff167fddf252ad1be2c89b69c2b068fc378daa952ba7f163c4a11628f55a4df523b3ef60405160405180910390a45050565b6000808284620008b29062001233565b620008be919062000f9a565b9050600084600f0b13620008de5783620008d89062001233565b620008e0565b835b9350600081600f0b13620009005780620008fa9062001233565b62000902565b805b9050600083600f0b136200092257826200091c9062001233565b62000924565b825b925080600f0b84600f0b13620009515782600f0b81600f0b136200094957826200094b565b805b62000969565b82600f0b84600f0b1362000966578262000968565b835b5b6fffffffffffffffffffffffffffffffff1691505092915050565b60008073ffffffffffffffffffffffffffffffffffffffff166002600084815260200190815260200160002060009054906101000a900473ffffffffffffffffffffffffffffffffffffffff1673ffffffffffffffffffffffffffffffffffffffff1614159050919050565b505050565b82805462000a03906200113b565b90600052602060002090601f01602090048101928262000a27576000855562000a73565b82601f1062000a4257805160ff191683800117855562000a73565b8280016001018555821562000a73579182015b8281111562000a7257825182559160200191906001019062000a55565b5b50905062000a82919062000a86565b5090565b5b8082111562000aa157600081600090555060010162000a87565b5090565b600062000abc62000ab68462000d58565b62000d2f565b9050808382526020820190508260005b8581101562000b00578151850162000ae5888262000b93565b84526020840193506020830192505060018101905062000acc565b5050509392505050565b600062000b2162000b1b8462000d87565b62000d2f565b90508281526020810184848401111562000b3a57600080fd5b62000b4784828562001105565b509392505050565b60008151905062000b6081620013a0565b92915050565b600082601f83011262000b7857600080fd5b815162000b8a84826020860162000aa5565b91505092915050565b600082601f83011262000ba557600080fd5b815162000bb784826020860162000b0a565b91505092915050565b60008151905062000bd181620013ba565b92915050565b60008151905062000be881620013d4565b92915050565b60008060008060008060c0878903121562000c0857600080fd5b600062000c1889828a0162000b4f565b965050602087015167ffffffffffffffff81111562000c3657600080fd5b62000c4489828a0162000b66565b955050604062000c5789828a0162000bc0565b945050606062000c6a89828a0162000bd7565b935050608062000c7d89828a0162000bd7565b92505060a062000c9089828a0162000bd7565b9150509295509295509295565b600062000cac601c8362000dbd565b915062000cb9826200134e565b602082019050919050565b600062000cd360208362000dbd565b915062000ce08262001377565b602082019050919050565b6000602082019050818103600083015262000d068162000c9d565b9050919050565b6000602082019050818103600083015262000d288162000cc4565b9050919050565b600062000d3b62000d4e565b905062000d49828262001171565b919050565b6000604051905090565b600067ffffffffffffffff82111562000d765762000d756200130e565b5b602082029050602081019050919050565b600067ffffffffffffffff82111562000da55762000da46200130e565b5b62000db0826200133d565b9050602081019050919050565b600082825260208201905092915050565b600062000ddb82620010bf565b915062000de883620010bf565b9250826fffffffffffffffffffffffffffffffff0382111562000e105762000e0f62001281565b5b828201905092915050565b600062000e2882620010fb565b915062000e3583620010fb565b9250827fffffffffffffffffffffffffffffffffffffffffffffffffffffffffffffffff0382111562000e6d5762000e6c62001281565b5b828201905092915050565b600062000e8582620010bf565b915062000e9283620010bf565b92508262000ea55762000ea4620012b0565b5b828204905092915050565b600062000ebd82620010fb565b915062000eca83620010fb565b92508262000edd5762000edc620012b0565b5b828204905092915050565b600062000ef582620010bf565b915062000f0283620010bf565b9250816fffffffffffffffffffffffffffffffff048311821515161562000f2e5762000f2d62001281565b5b828202905092915050565b600062000f4682620010fb565b915062000f5383620010fb565b9250817fffffffffffffffffffffffffffffffffffffffffffffffffffffffffffffffff048311821515161562000f8f5762000f8e62001281565b5b828202905092915050565b600062000fa782620010b2565b915062000fb483620010b2565b9250827fffffffffffffffffffffffffffffffff800000000000000000000000000000000182126000841215161562000ff25762000ff162001281565b5b826f7fffffffffffffffffffffffffffffff0182136000841216156200101d576200101c62001281565b5b828203905092915050565b60006200103582620010bf565b91506200104283620010bf565b92508282101562001058576200105762001281565b5b828203905092915050565b60006200107082620010fb565b91506200107d83620010fb565b92508282101562001093576200109262001281565b5b828203905092915050565b6000620010ab82620010db565b9050919050565b600081600f0b9050919050565b60006fffffffffffffffffffffffffffffffff82169050919050565b600073ffffffffffffffffffffffffffffffffffffffff82169050919050565b6000819050919050565b60005b838110156200112557808201518184015260208101905062001108565b8381111562001135576000848401525b50505050565b600060028204905060018216806200115457607f821691505b602082108114156200116b576200116a620012df565b5b50919050565b6200117c826200133d565b810181811067ffffffffffffffff821117156200119e576200119d6200130e565b5b80604052505050565b6000620011b482620010b2565b91506f7fffffffffffffffffffffffffffffff821415620011da57620011d962001281565b5b600182019050919050565b6000620011f282620010fb565b91507fffffffffffffffffffffffffffffffffffffffffffffffffffffffffffffffff82141562001228576200122762001281565b5b600182019050919050565b60006200124082620010b2565b91507fffffffffffffffffffffffffffffffff8000000000000000000000000000000082141562001276576200127562001281565b5b816000039050919050565b7f4e487b7100000000000000000000000000000000000000000000000000000000600052601160045260246000fd5b7f4e487b7100000000000000000000000000000000000000000000000000000000600052601260045260246000fd5b7f4e487b7100000000000000000000000000000000000000000000000000000000600052602260045260246000fd5b7f4e487b7100000000000000000000000000000000000000000000000000000000600052604160045260246000fd5b6000601f19601f8301169050919050565b7f4552433732313a20746f6b656e20616c7265616479206d696e74656400000000600082015250565b7f4552433732313a206d696e7420746f20746865207a65726f2061646472657373600082015250565b620013ab816200109e565b8114620013b757600080fd5b50565b620013c581620010bf565b8114620013d157600080fd5b50565b620013df81620010fb565b8114620013eb57600080fd5b50565b61749e80620013fe6000396000f3fe6080604052600436106103505760003560e01c8063857abbd4116101c6578063b994d278116100f7578063e985e9c511610095578063f2fde38b1161006f578063f2fde38b14610d78578063f3e414f814610da1578063f92c45b714610dca578063fcde263814610df557610350565b8063e985e9c514610cd3578063eb5671d814610d10578063ee36d4ab14610d3b57610350565b8063cce95e56116100d1578063cce95e5614610c03578063d19893cf14610c40578063d64b2f6214610c6b578063e38c266014610c9657610350565b8063b994d27814610b5e578063c13159bc14610b89578063c87b56dd14610bc657610350565b80639e65b01a11610164578063a4406bcd1161013e578063a4406bcd14610a9f578063a547d2e114610adc578063aaafbd0014610b19578063b88d4fde14610b3557610350565b80639e65b01a14610a0e578063a1db978214610a39578063a22cb46514610a7657610350565b80638c7939c2116101a05780638c7939c2146109525780638da5cb5b1461098f57806395d89b41146109ba5780639645337a146109e557610350565b8063857abbd414610899578063881d43d5146108d657806389525d7e1461091457610350565b80633c3a0c7b116102a0578063655951531161023e578063715018a611610218578063715018a6146107dd5780637a35110f146107f45780637b99367914610831578063853828b61461086e57610350565b8063655951531461073a578063657d128a1461076357806370a08231146107a057610350565b806344ca14951161027a57806344ca1495146106675780634789dd64146106835780636352211e146106c0578063638f1d2a146106fd57610350565b80633c3a0c7b146105ea578063427a3bd31461061357806342842e0e1461063e57610350565b80631f0669331161030d5780633050ad20116102e75780633050ad201461052e57806333df66da146105575780633536e61414610582578063382c2a22146105ad57610350565b80631f0669331461048b57806323b872dd146104c85780632e1a7d4d146104f157610350565b806301ffc9a71461035557806306fdde0314610392578063081812fc146103bd578063095ea7b3146103fa5780630b6889c714610423578063150b7a021461044e575b600080fd5b34801561036157600080fd5b5061037c60048036038101906103779190615973565b610e32565b6040516103899190616274565b60405180910390f35b34801561039e57600080fd5b506103a7610f14565b6040516103b491906162d3565b60405180910390f35b3480156103c957600080fd5b506103e460048036038101906103df9190615a66565b610fa6565b6040516103f1919061611e565b60405180910390f35b34801561040657600080fd5b50610421600480360381019061041c91906158cd565b61102b565b005b34801561042f57600080fd5b50610438611143565b6040516104459190616535565b60405180910390f35b34801561045a57600080fd5b5061047560048036038101906104709190615796565b611182565b604051610482919061628f565b60405180910390f35b34801561049757600080fd5b506104b260048036038101906104ad91906156e2565b611197565b6040516104bf9190616535565b60405180910390f35b3480156104d457600080fd5b506104ef60048036038101906104ea9190615747565b6111af565b005b3480156104fd57600080fd5b5061051860048036038101906105139190615a66565b61120f565b6040516105259190616535565b60405180910390f35b34801561053a57600080fd5b5061055560048036038101906105509190615909565b61129d565b005b34801561056357600080fd5b5061056c611448565b604051610579919061620e565b60405180910390f35b34801561058e57600080fd5b5061059761155c565b6040516105a49190616535565b60405180910390f35b3480156105b957600080fd5b506105d460048036038101906105cf91906156e2565b611562565b6040516105e19190616252565b60405180910390f35b3480156105f657600080fd5b50610611600480360381019061060c9190615a66565b61186f565b005b34801561061f57600080fd5b50610628611ac3565b6040516106359190616252565b60405180910390f35b34801561064a57600080fd5b5061066560048036038101906106609190615747565b611d85565b005b610681600480360381019061067c9190615ab8565b611da5565b005b34801561068f57600080fd5b506106aa60048036038101906106a591906159ee565b611db3565b6040516106b79190616274565b60405180910390f35b3480156106cc57600080fd5b506106e760048036038101906106e29190615a66565b611e5f565b6040516106f4919061611e565b60405180910390f35b34801561070957600080fd5b50610724600480360381019061071f9190615a66565b611f11565b6040516107319190616535565b60405180910390f35b34801561074657600080fd5b50610761600480360381019061075c9190615b30565b611f36565b005b34801561076f57600080fd5b5061078a60048036038101906107859190615a2a565b611fae565b6040516107979190616535565b60405180910390f35b3480156107ac57600080fd5b506107c760048036038101906107c291906156e2565b61207a565b6040516107d49190616535565b60405180910390f35b3480156107e957600080fd5b506107f2612132565b005b34801561080057600080fd5b5061081b60048036038101906108169190615af4565b61226f565b6040516108289190616252565b60405180910390f35b34801561083d57600080fd5b5061085860048036038101906108539190615a66565b612283565b60405161086591906162d3565b60405180910390f35b34801561087a57600080fd5b50610883612329565b6040516108909190616535565b60405180910390f35b3480156108a557600080fd5b506108c060048036038101906108bb91906156e2565b6124c3565b6040516108cd9190616535565b60405180910390f35b3480156108e257600080fd5b506108fd60048036038101906108f89190615a66565b61266b565b60405161090b9291906162aa565b60405180910390f35b34801561092057600080fd5b5061093b60048036038101906109369190615a66565b61267d565b604051610949929190616550565b60405180910390f35b34801561095e57600080fd5b5061097960048036038101906109749190615a66565b612732565b604051610986919061611e565b60405180910390f35b34801561099b57600080fd5b506109a4612771565b6040516109b1919061611e565b60405180910390f35b3480156109c657600080fd5b506109cf61279b565b6040516109dc91906162d3565b60405180910390f35b3480156109f157600080fd5b50610a0c6004803603810190610a079190615a66565b61282d565b005b348015610a1a57600080fd5b50610a236128b0565b604051610a309190616535565b60405180910390f35b348015610a4557600080fd5b50610a606004803603810190610a5b91906158cd565b6128b6565b604051610a6d9190616535565b60405180910390f35b348015610a8257600080fd5b50610a9d6004803603810190610a989190615891565b612946565b005b348015610aab57600080fd5b50610ac66004803603810190610ac19190615b84565b612ac7565b604051610ad39190616535565b60405180910390f35b348015610ae857600080fd5b50610b036004803603810190610afe9190615a2a565b612adf565b604051610b109190616535565b60405180910390f35b610b336004803603810190610b2e9190615a66565b612b1d565b005b348015610b4157600080fd5b50610b5c6004803603810190610b579190615816565b612b31565b005b348015610b6a57600080fd5b50610b73612b93565b604051610b809190616230565b60405180910390f35b348015610b9557600080fd5b50610bb06004803603810190610bab9190615b84565b612ca7565b604051610bbd9190616535565b60405180910390f35b348015610bd257600080fd5b50610bed6004803603810190610be89190615a66565b612cbf565b604051610bfa91906162d3565b60405180910390f35b348015610c0f57600080fd5b50610c2a6004803603810190610c259190615b84565b612d66565b604051610c379190616535565b60405180910390f35b348015610c4c57600080fd5b50610c55612d7d565b604051610c629190616535565b60405180910390f35b348015610c7757600080fd5b50610c80612d83565b604051610c8d9190616535565b60405180910390f35b348015610ca257600080fd5b50610cbd6004803603810190610cb891906159c5565b612e5e565b604051610cca9190616535565b60405180910390f35b348015610cdf57600080fd5b50610cfa6004803603810190610cf5919061570b565b612eca565b604051610d079190616274565b60405180910390f35b348015610d1c57600080fd5b50610d25612f5e565b604051610d329190616252565b60405180910390f35b348015610d4757600080fd5b50610d626004803603810190610d5d9190615b84565b612f6f565b604051610d6f9190616535565b60405180910390f35b348015610d8457600080fd5b50610d9f6004803603810190610d9a91906156e2565b612f86565b005b348015610dad57600080fd5b50610dc86004803603810190610dc391906158cd565b613132565b005b348015610dd657600080fd5b50610ddf6131bc565b604051610dec9190616535565b60405180910390f35b348015610e0157600080fd5b50610e1c6004803603810190610e179190615891565b6131c6565b604051610e299190616252565b60405180910390f35b60007f80ac58cd000000000000000000000000000000000000000000000000000000007bffffffffffffffffffffffffffffffffffffffffffffffffffffffff1916827bffffffffffffffffffffffffffffffffffffffffffffffffffffffff19161480610efd57507f5b5e139f000000000000000000000000000000000000000000000000000000007bffffffffffffffffffffffffffffffffffffffffffffffffffffffff1916827bffffffffffffffffffffffffffffffffffffffffffffffffffffffff1916145b80610f0d5750610f0c826131da565b5b9050919050565b606060008054610f2390616cbb565b80601f0160208091040260200160405190810160405280929190818152602001828054610f4f90616cbb565b8015610f9c5780601f10610f7157610100808354040283529160200191610f9c565b820191906000526020600020905b815481529060010190602001808311610f7f57829003601f168201915b5050505050905090565b6000610fb182613244565b610ff0576040517f08c379a0000000000000000000000000000000000000000000000000000000008152600401610fe790616475565b60405180910390fd5b6004600083815260200190815260200160002060009054906101000a900473ffffffffffffffffffffffffffffffffffffffff169050919050565b600061103682611e5f565b90508073ffffffffffffffffffffffffffffffffffffffff168373ffffffffffffffffffffffffffffffffffffffff1614156110a7576040517f08c379a000000000000000000000000000000000000000000000000000000000815260040161109e906164f5565b60405180910390fd5b8073ffffffffffffffffffffffffffffffffffffffff166110c66132b0565b73ffffffffffffffffffffffffffffffffffffffff1614806110f557506110f4816110ef6132b0565b612eca565b5b611134576040517f08c379a000000000000000000000000000000000000000000000000000000000815260040161112b906163f5565b60405180910390fd5b61113e83836132b8565b505050565b6000601060009054906101000a90046fffffffffffffffffffffffffffffffff1660026111709190616865565b60145461117d9190616a18565b905090565b600063150b7a0260e01b905095945050505050565b60176020528060005260406000206000915090505481565b6111c06111ba6132b0565b82613371565b6111ff576040517f08c379a00000000000000000000000000000000000000000000000000000000081526004016111f690616515565b60405180910390fd5b61120a83838361344f565b505050565b60006112196132b0565b73ffffffffffffffffffffffffffffffffffffffff16611237612771565b73ffffffffffffffffffffffffffffffffffffffff161461128d576040517f08c379a000000000000000000000000000000000000000000000000000000000815260040161128490616495565b60405180910390fd5b611296826136ab565b9050919050565b6112a56132b0565b73ffffffffffffffffffffffffffffffffffffffff166112c3612771565b73ffffffffffffffffffffffffffffffffffffffff1614611319576040517f08c379a000000000000000000000000000000000000000000000000000000000815260040161131090616495565b60405180910390fd5b611321611143565b6015541461132e57600080fd5b6113646001601060009054906101000a90046fffffffffffffffffffffffffffffffff1661135c9190616714565b826000613712565b600060158190555060005b6016805490508110156114365760176000601683815481106113ba577f4e487b7100000000000000000000000000000000000000000000000000000000600052603260045260246000fd5b9060005260206000200160009054906101000a900473ffffffffffffffffffffffffffffffffffffffff1673ffffffffffffffffffffffffffffffffffffffff1673ffffffffffffffffffffffffffffffffffffffff16815260200190815260200160002060009055808061142e90616d57565b91505061136f565b506016600061144591906153ab565b50565b60606000600167ffffffffffffffff81111561148d577f4e487b7100000000000000000000000000000000000000000000000000000000600052604160045260246000fd5b6040519080825280602002602001820160405280156114bb5781602001602082028036833780820191505090505b509050600d60009054906101000a900473ffffffffffffffffffffffffffffffffffffffff168160008151811061151b577f4e487b7100000000000000000000000000000000000000000000000000000000600052603260045260246000fd5b602002602001019073ffffffffffffffffffffffffffffffffffffffff16908173ffffffffffffffffffffffffffffffffffffffff16815250508091505090565b60125481565b606080600073ffffffffffffffffffffffffffffffffffffffff168373ffffffffffffffffffffffffffffffffffffffff1614156116125760115467ffffffffffffffff8111156115dc577f4e487b7100000000000000000000000000000000000000000000000000000000600052604160045260246000fd5b60405190808252806020026020018201604052801561160a5781602001602082028036833780820191505090505b50905061168c565b61161b8361207a565b67ffffffffffffffff81111561165a577f4e487b7100000000000000000000000000000000000000000000000000000000600052604160045260246000fd5b6040519080825280602002602001820160405280156116885781602001602082028036833780820191505090505b5090505b600080601060009054906101000a90046fffffffffffffffffffffffffffffffff166116b790616dd1565b90505b601060009054906101000a90046fffffffffffffffffffffffffffffffff16600f0b81600f0b131580156116ee5750825182105b15611864576000601060009054906101000a90046fffffffffffffffffffffffffffffffff1661171d90616dd1565b90505b601060009054906101000a90046fffffffffffffffffffffffffffffffff16600f0b81600f0b131580156117545750835183145b156118505760006117658383612adf565b905061177081613244565b1561183c57600073ffffffffffffffffffffffffffffffffffffffff168773ffffffffffffffffffffffffffffffffffffffff1614806117e357506117b481611e5f565b73ffffffffffffffffffffffffffffffffffffffff168773ffffffffffffffffffffffffffffffffffffffff16145b1561183b57808585806117f590616d57565b96508151811061182e577f4e487b7100000000000000000000000000000000000000000000000000000000600052603260045260246000fd5b6020026020010181815250505b5b50808061184890616d1e565b915050611720565b50808061185c90616d1e565b9150506116ba565b508192505050919050565b600060155461187c611143565b6118869190616b2a565b905080821115611894578091505b600082116118a157600080fd5b600d60009054906101000a900473ffffffffffffffffffffffffffffffffffffffff1673ffffffffffffffffffffffffffffffffffffffff166333bebb776118e76132b0565b30856040518463ffffffff1660e01b815260040161190793929190616139565b600060405180830381600087803b15801561192157600080fd5b505af1158015611935573d6000803e3d6000fd5b50505050600d60009054906101000a900473ffffffffffffffffffffffffffffffffffffffff1673ffffffffffffffffffffffffffffffffffffffff16639dc29fac30600a8561198591906167e1565b856119909190616b2a565b6040518363ffffffff1660e01b81526004016119ad9291906161e5565b600060405180830381600087803b1580156119c757600080fd5b505af11580156119db573d6000803e3d6000fd5b5050505081601560008282546119f1919061675a565b925050819055506016611a026132b0565b9080600181540180825580915050600190039060005260206000200160009091909190916101000a81548173ffffffffffffffffffffffffffffffffffffffff021916908373ffffffffffffffffffffffffffffffffffffffff1602179055508160176000611a6f6132b0565b73ffffffffffffffffffffffffffffffffffffffff1673ffffffffffffffffffffffffffffffffffffffff1681526020019081526020016000206000828254611ab8919061675a565b925050819055505050565b60606000611ad030611562565b90506000805b8251811015611ba957600073ffffffffffffffffffffffffffffffffffffffff16600c6000858481518110611b34577f4e487b7100000000000000000000000000000000000000000000000000000000600052603260045260246000fd5b6020026020010151815260200190815260200160002060009054906101000a900473ffffffffffffffffffffffffffffffffffffffff1673ffffffffffffffffffffffffffffffffffffffff161415611b96578180611b9290616d57565b9250505b8080611ba190616d57565b915050611ad6565b5060008167ffffffffffffffff811115611bec577f4e487b7100000000000000000000000000000000000000000000000000000000600052604160045260246000fd5b604051908082528060200260200182016040528015611c1a5781602001602082028036833780820191505090505b5090506000915060005b8351811015611d7b57600073ffffffffffffffffffffffffffffffffffffffff16600c6000868481518110611c82577f4e487b7100000000000000000000000000000000000000000000000000000000600052603260045260246000fd5b6020026020010151815260200190815260200160002060009054906101000a900473ffffffffffffffffffffffffffffffffffffffff1673ffffffffffffffffffffffffffffffffffffffff161415611d6857838181518110611d0e577f4e487b7100000000000000000000000000000000000000000000000000000000600052603260045260246000fd5b6020026020010151828480611d2290616d57565b955081518110611d5b577f4e487b7100000000000000000000000000000000000000000000000000000000600052603260045260246000fd5b6020026020010181815250505b8080611d7390616d57565b915050611c24565b5080935050505090565b611da083838360405180602001604052806000815250612b31565b505050565b611daf8282613976565b5050565b60003073ffffffffffffffffffffffffffffffffffffffff168373ffffffffffffffffffffffffffffffffffffffff161415611e5457600073ffffffffffffffffffffffffffffffffffffffff16600c600084815260200190815260200160002060009054906101000a900473ffffffffffffffffffffffffffffffffffffffff1673ffffffffffffffffffffffffffffffffffffffff1614159050611e59565b600090505b92915050565b6000806002600084815260200190815260200160002060009054906101000a900473ffffffffffffffffffffffffffffffffffffffff169050600073ffffffffffffffffffffffffffffffffffffffff168173ffffffffffffffffffffffffffffffffffffffff161415611f08576040517f08c379a0000000000000000000000000000000000000000000000000000000008152600401611eff90616435565b60405180910390fd5b80915050919050565b6000806000611f1f8461266b565b91509150611f2d8282611fae565b92505050919050565b81611f4081611e5f565b73ffffffffffffffffffffffffffffffffffffffff16611f5e6132b0565b73ffffffffffffffffffffffffffffffffffffffff1614611f7e57600080fd5b81600e60008581526020019081526020016000206000019080519060200190611fa89291906153cc565b50505050565b6000808284611fbc90616dd1565b611fc69190616a72565b9050600084600f0b13611fe25783611fdd90616dd1565b611fe4565b835b9350600081600f0b136120005780611ffb90616dd1565b612002565b805b9050600083600f0b1361201e578261201990616dd1565b612020565b825b925080600f0b84600f0b136120495782600f0b81600f0b136120425782612044565b805b61205f565b82600f0b84600f0b1361205c578261205e565b835b5b6fffffffffffffffffffffffffffffffff1691505092915050565b60008073ffffffffffffffffffffffffffffffffffffffff168273ffffffffffffffffffffffffffffffffffffffff1614156120eb576040517f08c379a00000000000000000000000000000000000000000000000000000000081526004016120e290616415565b60405180910390fd5b600360008373ffffffffffffffffffffffffffffffffffffffff1673ffffffffffffffffffffffffffffffffffffffff168152602001908152602001600020549050919050565b61213a6132b0565b73ffffffffffffffffffffffffffffffffffffffff16612158612771565b73ffffffffffffffffffffffffffffffffffffffff16146121ae576040517f08c379a00000000000000000000000000000000000000000000000000000000081526004016121a590616495565b60405180910390fd5b600073ffffffffffffffffffffffffffffffffffffffff16600660009054906101000a900473ffffffffffffffffffffffffffffffffffffffff1673ffffffffffffffffffffffffffffffffffffffff167f8be0079c531659141344cd1fd0a4f28419497f9722a3daafe3b4186f6b6457e060405160405180910390a36000600660006101000a81548173ffffffffffffffffffffffffffffffffffffffff021916908373ffffffffffffffffffffffffffffffffffffffff160217905550565b606061227b8383613b2f565b905092915050565b600e6020528060005260406000206000915090508060000180546122a690616cbb565b80601f01602080910402602001604051908101604052809291908181526020018280546122d290616cbb565b801561231f5780601f106122f45761010080835404028352916020019161231f565b820191906000526020600020905b81548152906001019060200180831161230257829003601f168201915b5050505050905081565b60006123336132b0565b73ffffffffffffffffffffffffffffffffffffffff16612351612771565b73ffffffffffffffffffffffffffffffffffffffff16146123a7576040517f08c379a000000000000000000000000000000000000000000000000000000000815260040161239e90616495565b60405180910390fd5b60006123b1612b93565b905060005b8151811015612493578181815181106123f8577f4e487b7100000000000000000000000000000000000000000000000000000000600052603260045260246000fd5b602002602001015173ffffffffffffffffffffffffffffffffffffffff1663853828b66040518163ffffffff1660e01b8152600401602060405180830381600087803b15801561244757600080fd5b505af115801561245b573d6000803e3d6000fd5b505050506040513d601f19601f8201168201806040525081019061247f9190615a8f565b50808061248b90616d57565b9150506123b6565b506124bd7fffffffffffffffffffffffffffffffffffffffffffffffffffffffffffffffff6136ab565b91505090565b60006124cd6132b0565b73ffffffffffffffffffffffffffffffffffffffff166124eb612771565b73ffffffffffffffffffffffffffffffffffffffff1614612541576040517f08c379a000000000000000000000000000000000000000000000000000000000815260040161253890616495565b60405180910390fd5b600061254b611448565b905060005b815181101561263857818181518110612592577f4e487b7100000000000000000000000000000000000000000000000000000000600052603260045260246000fd5b602002602001015173ffffffffffffffffffffffffffffffffffffffff1663857abbd4856040518263ffffffff1660e01b81526004016125d2919061611e565b602060405180830381600087803b1580156125ec57600080fd5b505af1158015612600573d6000803e3d6000fd5b505050506040513d601f19601f820116820180604052508101906126249190615a8f565b50808061263090616d57565b915050612550565b50612663837fffffffffffffffffffffffffffffffffffffffffffffffffffffffffffffffff613dde565b915050919050565b600080608083901c8391509150915091565b600080600061268b84611f11565b9050601060009054906101000a90046fffffffffffffffffffffffffffffffff166fffffffffffffffffffffffffffffffff168111156126ce576000905061270d565b80601060009054906101000a90046fffffffffffffffffffffffffffffffff166fffffffffffffffffffffffffffffffff1661270a9190616b2a565b90505b8081600261271b91906168b0565b600f546127289190616a18565b9250925050915091565b6016818154811061274257600080fd5b906000526020600020016000915054906101000a900473ffffffffffffffffffffffffffffffffffffffff1681565b6000600660009054906101000a900473ffffffffffffffffffffffffffffffffffffffff16905090565b6060600180546127aa90616cbb565b80601f01602080910402602001604051908101604052809291908181526020018280546127d690616cbb565b80156128235780601f106127f857610100808354040283529160200191612823565b820191906000526020600020905b81548152906001019060200180831161280657829003601f168201915b5050505050905090565b6128356132b0565b73ffffffffffffffffffffffffffffffffffffffff166009600083815260200190815260200160002060000160019054906101000a900473ffffffffffffffffffffffffffffffffffffffff1673ffffffffffffffffffffffffffffffffffffffff16146128a257600080fd5b6128ad816001613fdf565b50565b60155481565b60006128c06132b0565b73ffffffffffffffffffffffffffffffffffffffff166128de612771565b73ffffffffffffffffffffffffffffffffffffffff1614612934576040517f08c379a000000000000000000000000000000000000000000000000000000000815260040161292b90616495565b60405180910390fd5b61293e8383613dde565b905092915050565b61294e6132b0565b73ffffffffffffffffffffffffffffffffffffffff168273ffffffffffffffffffffffffffffffffffffffff1614156129bc576040517f08c379a00000000000000000000000000000000000000000000000000000000081526004016129b390616375565b60405180910390fd5b80600560006129c96132b0565b73ffffffffffffffffffffffffffffffffffffffff1673ffffffffffffffffffffffffffffffffffffffff16815260200190815260200160002060008473ffffffffffffffffffffffffffffffffffffffff1673ffffffffffffffffffffffffffffffffffffffff16815260200190815260200160002060006101000a81548160ff0219169083151502179055508173ffffffffffffffffffffffffffffffffffffffff16612a766132b0565b73ffffffffffffffffffffffffffffffffffffffff167f17307eab39ab6107e8899845ad3d59bd9653f200f220920489ca2b5937696c3183604051612abb9190616274565b60405180910390a35050565b6000612ad7600160008486614320565b905092915050565b6000816fffffffffffffffffffffffffffffffff166080846fffffffffffffffffffffffffffffffff16901b612b15919061675a565b905092915050565b612b2e81612b296132b0565b613976565b50565b612b42612b3c6132b0565b83613371565b612b81576040517f08c379a0000000000000000000000000000000000000000000000000000000008152600401612b7890616515565b60405180910390fd5b612b8d8484848461462b565b50505050565b60606000600167ffffffffffffffff811115612bd8577f4e487b7100000000000000000000000000000000000000000000000000000000600052604160045260246000fd5b604051908082528060200260200182016040528015612c065781602001602082028036833780820191505090505b509050600d60009054906101000a900473ffffffffffffffffffffffffffffffffffffffff1681600081518110612c66577f4e487b7100000000000000000000000000000000000000000000000000000000600052603260045260246000fd5b602002602001019073ffffffffffffffffffffffffffffffffffffffff16908173ffffffffffffffffffffffffffffffffffffffff16815250508091505090565b6000612cb7600060018486614320565b905092915050565b6060612cca82613244565b612d09576040517f08c379a0000000000000000000000000000000000000000000000000000000008152600401612d00906164d5565b60405180910390fd5b6000612d13614687565b90506000815111612d335760405180602001604052806000815250612d5e565b80612d3d8461469e565b604051602001612d4e9291906160e5565b6040516020818303038152906040525b915050919050565b6000612d756001808486614320565b905092915050565b60135481565b60006012544211612d9357600080fd5b60135460126000828254612da7919061675a565b92505081905550600d60009054906101000a900473ffffffffffffffffffffffffffffffffffffffff1673ffffffffffffffffffffffffffffffffffffffff166340c10f19612df46132b0565b600a6040518363ffffffff1660e01b8152600401612e139291906161bc565b600060405180830381600087803b158015612e2d57600080fd5b505af1158015612e41573d6000803e3d6000fd5b50505050600a612e4f61484b565b612e59919061675a565b905090565b60008173ffffffffffffffffffffffffffffffffffffffff16600760009054906101000a900473ffffffffffffffffffffffffffffffffffffffff1673ffffffffffffffffffffffffffffffffffffffff161415612ec057600b549050612ec5565b600090505b919050565b6000600560008473ffffffffffffffffffffffffffffffffffffffff1673ffffffffffffffffffffffffffffffffffffffff16815260200190815260200160002060008373ffffffffffffffffffffffffffffffffffffffff1673ffffffffffffffffffffffffffffffffffffffff16815260200190815260200160002060009054906101000a900460ff16905092915050565b6060612f6a6000611562565b905090565b6000612f7e6000808486614320565b905092915050565b612f8e6132b0565b73ffffffffffffffffffffffffffffffffffffffff16612fac612771565b73ffffffffffffffffffffffffffffffffffffffff1614613002576040517f08c379a0000000000000000000000000000000000000000000000000000000008152600401612ff990616495565b60405180910390fd5b600073ffffffffffffffffffffffffffffffffffffffff168173ffffffffffffffffffffffffffffffffffffffff161415613072576040517f08c379a000000000000000000000000000000000000000000000000000000000815260040161306990616315565b60405180910390fd5b8073ffffffffffffffffffffffffffffffffffffffff16600660009054906101000a900473ffffffffffffffffffffffffffffffffffffffff1673ffffffffffffffffffffffffffffffffffffffff167f8be0079c531659141344cd1fd0a4f28419497f9722a3daafe3b4186f6b6457e060405160405180910390a380600660006101000a81548173ffffffffffffffffffffffffffffffffffffffff021916908373ffffffffffffffffffffffffffffffffffffffff16021790555050565b61313a6132b0565b73ffffffffffffffffffffffffffffffffffffffff16613158612771565b73ffffffffffffffffffffffffffffffffffffffff16146131ae576040517f08c379a00000000000000000000000000000000000000000000000000000000081526004016131a590616495565b60405180910390fd5b6131b88282614a47565b5050565b6000600a54905090565b60606131d28383614b7f565b905092915050565b60007f01ffc9a7000000000000000000000000000000000000000000000000000000007bffffffffffffffffffffffffffffffffffffffffffffffffffffffff1916827bffffffffffffffffffffffffffffffffffffffffffffffffffffffff1916149050919050565b60008073ffffffffffffffffffffffffffffffffffffffff166002600084815260200190815260200160002060009054906101000a900473ffffffffffffffffffffffffffffffffffffffff1673ffffffffffffffffffffffffffffffffffffffff1614159050919050565b600033905090565b816004600083815260200190815260200160002060006101000a81548173ffffffffffffffffffffffffffffffffffffffff021916908373ffffffffffffffffffffffffffffffffffffffff160217905550808273ffffffffffffffffffffffffffffffffffffffff1661332b83611e5f565b73ffffffffffffffffffffffffffffffffffffffff167f8c5be1e5ebec7d5bd14f71427d1e84f3dd0314c0f7b2291e5b200ac8c7c3b92560405160405180910390a45050565b600061337c82613244565b6133bb576040517f08c379a00000000000000000000000000000000000000000000000000000000081526004016133b2906163d5565b60405180910390fd5b60006133c683611e5f565b90508073ffffffffffffffffffffffffffffffffffffffff168473ffffffffffffffffffffffffffffffffffffffff16148061343557508373ffffffffffffffffffffffffffffffffffffffff1661341d84610fa6565b73ffffffffffffffffffffffffffffffffffffffff16145b8061344657506134458185612eca565b5b91505092915050565b8273ffffffffffffffffffffffffffffffffffffffff1661346f82611e5f565b73ffffffffffffffffffffffffffffffffffffffff16146134c5576040517f08c379a00000000000000000000000000000000000000000000000000000000081526004016134bc906164b5565b60405180910390fd5b600073ffffffffffffffffffffffffffffffffffffffff168273ffffffffffffffffffffffffffffffffffffffff161415613535576040517f08c379a000000000000000000000000000000000000000000000000000000000815260040161352c90616355565b60405180910390fd5b613540838383614e22565b61354b6000826132b8565b6001600360008573ffffffffffffffffffffffffffffffffffffffff1673ffffffffffffffffffffffffffffffffffffffff168152602001908152602001600020600082825461359b9190616b2a565b925050819055506001600360008473ffffffffffffffffffffffffffffffffffffffff1673ffffffffffffffffffffffffffffffffffffffff16815260200190815260200160002060008282546135f2919061675a565b92505081905550816002600083815260200190815260200160002060006101000a81548173ffffffffffffffffffffffffffffffffffffffff021916908373ffffffffffffffffffffffffffffffffffffffff160217905550808273ffffffffffffffffffffffffffffffffffffffff168473ffffffffffffffffffffffffffffffffffffffff167fddf252ad1be2c89b69c2b068fc378daa952ba7f163c4a11628f55a4df523b3ef60405160405180910390a4505050565b6000806136b66131bc565b476136c19190616b2a565b9050808310156136cf578290505b600081111561370957613708816136e4612771565b73ffffffffffffffffffffffffffffffffffffffff16614e2790919063ffffffff16565b5b80915050919050565b601060009054906101000a90046fffffffffffffffffffffffffffffffff166fffffffffffffffffffffffffffffffff16836fffffffffffffffffffffffffffffffff161161376057600080fd5b600083600f0b1361377057600080fd5b60066002601060009054906101000a90046fffffffffffffffffffffffffffffffff168561379e9190616af6565b856001601060009054906101000a90046fffffffffffffffffffffffffffffffff166137ca9190616714565b6137d49190616714565b6137de91906169ce565b6137e891906167b0565b6137f291906169ce565b6fffffffffffffffffffffffffffffffff168183516138119190616b2a565b1461381b57600080fd5b60008361382790616dd1565b90505b83600f0b81600f0b136139375760008461384390616dd1565b90505b84600f0b81600f0b1361392357600061385f8383611fae565b9050601060009054906101000a90046fffffffffffffffffffffffffffffffff166fffffffffffffffffffffffffffffffff16811180156138b25750856fffffffffffffffffffffffffffffffff168111155b1561390f5761390e8585806138c690616d57565b9650815181106138ff577f4e487b7100000000000000000000000000000000000000000000000000000000600052603260045260246000fd5b60200260200101518484614f1b565b5b50808061391b90616d1e565b915050613846565b50808061392f90616d1e565b91505061382a565b5082601060006101000a8154816fffffffffffffffffffffffffffffffff02191690836fffffffffffffffffffffffffffffffff160217905550505050565b3073ffffffffffffffffffffffffffffffffffffffff1661399683611e5f565b73ffffffffffffffffffffffffffffffffffffffff16146139b657600080fd5b600073ffffffffffffffffffffffffffffffffffffffff16600c600084815260200190815260200160002060009054906101000a900473ffffffffffffffffffffffffffffffffffffffff1673ffffffffffffffffffffffffffffffffffffffff1614613a2257600080fd5b600080613a2e8461267d565b9150915080341015613a3f57600080fd5b80341115613a8357613a828134613a569190616b2a565b613a5e6132b0565b73ffffffffffffffffffffffffffffffffffffffff16614e2790919063ffffffff16565b5b613a8e308486611d85565b600d60009054906101000a900473ffffffffffffffffffffffffffffffffffffffff1673ffffffffffffffffffffffffffffffffffffffff166340c10f1984600185613ada919061675a565b6040518363ffffffff1660e01b8152600401613af79291906161e5565b600060405180830381600087803b158015613b1157600080fd5b505af1158015613b25573d6000803e3d6000fd5b5050505050505050565b6060600080600190505b600854811015613c2457600073ffffffffffffffffffffffffffffffffffffffff166009600083815260200190815260200160002060000160019054906101000a900473ffffffffffffffffffffffffffffffffffffffff1673ffffffffffffffffffffffffffffffffffffffff1614158015613bcb5750846009600083815260200190815260200160002060020154145b8015613bfd57508315156009600083815260200190815260200160002060000160159054906101000a900460ff161515145b15613c11578180613c0d90616d57565b9250505b8080613c1c90616d57565b915050613b39565b5060008167ffffffffffffffff811115613c67577f4e487b7100000000000000000000000000000000000000000000000000000000600052604160045260246000fd5b604051908082528060200260200182016040528015613c955781602001602082028036833780820191505090505b509050600091506000600190505b600854811015613dd257600073ffffffffffffffffffffffffffffffffffffffff166009600083815260200190815260200160002060000160019054906101000a900473ffffffffffffffffffffffffffffffffffffffff1673ffffffffffffffffffffffffffffffffffffffff1614158015613d355750856009600083815260200190815260200160002060020154145b8015613d6757508415156009600083815260200190815260200160002060000160159054906101000a900460ff161515145b15613dbf5780828480613d7990616d57565b955081518110613db2577f4e487b7100000000000000000000000000000000000000000000000000000000600052603260045260246000fd5b6020026020010181815250505b8080613dca90616d57565b915050613ca3565b50809250505092915050565b6000613de86132b0565b73ffffffffffffffffffffffffffffffffffffffff16613e06612771565b73ffffffffffffffffffffffffffffffffffffffff1614613e5c576040517f08c379a0000000000000000000000000000000000000000000000000000000008152600401613e5390616495565b60405180910390fd5b613e7b8373ffffffffffffffffffffffffffffffffffffffff16614f93565b613e8457600080fd5b60008390506000613e9482612e5e565b8273ffffffffffffffffffffffffffffffffffffffff166370a08231306040518263ffffffff1660e01b8152600401613ecd919061611e565b60206040518083038186803b158015613ee557600080fd5b505afa158015613ef9573d6000803e3d6000fd5b505050506040513d601f19601f82011682018060405250810190613f1d9190615a8f565b613f279190616b2a565b905080841015613f35578390505b6000811115613fd4578173ffffffffffffffffffffffffffffffffffffffff1663a9059cbb613f62612771565b836040518363ffffffff1660e01b8152600401613f809291906161e5565b602060405180830381600087803b158015613f9a57600080fd5b505af1158015613fae573d6000803e3d6000fd5b505050506040513d601f19601f82011682018060405250810190613fd2919061594a565b505b809250505092915050565b80156142a7576009600083815260200190815260200160002060000160009054906101000a900460ff16156140c657614075306009600085815260200190815260200160002060000160019054906101000a900473ffffffffffffffffffffffffffffffffffffffff1660096000868152602001908152602001600020600201546040518060200160405280600081525061462b565b600c60006009600085815260200190815260200160002060020154815260200190815260200160002060006101000a81549073ffffffffffffffffffffffffffffffffffffffff02191690556142a6565b6009600083815260200190815260200160002060000160159054906101000a900460ff161561420057600760009054906101000a900473ffffffffffffffffffffffffffffffffffffffff1673ffffffffffffffffffffffffffffffffffffffff166333bebb77306009600086815260200190815260200160002060000160019054906101000a900473ffffffffffffffffffffffffffffffffffffffff1660096000878152602001908152602001600020600101546040518463ffffffff1660e01b815260040161419a93929190616139565b600060405180830381600087803b1580156141b457600080fd5b505af11580156141c8573d6000803e3d6000fd5b505050506009600083815260200190815260200160002060010154600b60008282546141f49190616b2a565b925050819055506142a5565b61427560096000848152602001908152602001600020600101546009600085815260200190815260200160002060000160019054906101000a900473ffffffffffffffffffffffffffffffffffffffff1673ffffffffffffffffffffffffffffffffffffffff16614e2790919063ffffffff16565b6009600083815260200190815260200160002060010154600a600082825461429d9190616b2a565b925050819055505b5b5b60096000838152602001908152602001600020600080820160006101000a81549060ff02191690556000820160016101000a81549073ffffffffffffffffffffffffffffffffffffffff02191690556000820160156101000a81549060ff02191690556001820160009055600282016000905550505050565b600080831161432e57600080fd5b6040518060a0016040528086151581526020016143496132b0565b73ffffffffffffffffffffffffffffffffffffffff168152602001851515815260200184815260200183815250600960006008600081548092919061438d90616d57565b91905055815260200190815260200160002060008201518160000160006101000a81548160ff02191690831515021790555060208201518160000160016101000a81548173ffffffffffffffffffffffffffffffffffffffff021916908373ffffffffffffffffffffffffffffffffffffffff16021790555060408201518160000160156101000a81548160ff0219169083151502179055506060820151816001015560808201518160020155905050841561452f57600073ffffffffffffffffffffffffffffffffffffffff16600c600084815260200190815260200160002060009054906101000a900473ffffffffffffffffffffffffffffffffffffffff1673ffffffffffffffffffffffffffffffffffffffff16146144af57600080fd5b6144d16144ba6132b0565b30846040518060200160405280600081525061462b565b6144d96132b0565b600c600084815260200190815260200160002060006101000a81548173ffffffffffffffffffffffffffffffffffffffff021916908373ffffffffffffffffffffffffffffffffffffffff160217905550614612565b83156145eb57600760009054906101000a900473ffffffffffffffffffffffffffffffffffffffff1673ffffffffffffffffffffffffffffffffffffffff166333bebb7761457b6132b0565b30866040518463ffffffff1660e01b815260040161459b93929190616139565b600060405180830381600087803b1580156145b557600080fd5b505af11580156145c9573d6000803e3d6000fd5b5050505082600b60008282546145df919061675a565b92505081905550614611565b8234146145f757600080fd5b82600a6000828254614609919061675a565b925050819055505b5b60016008546146219190616b2a565b9050949350505050565b61463684848461344f565b61464284848484614fa6565b614681576040517f08c379a0000000000000000000000000000000000000000000000000000000008152600401614678906162f5565b60405180910390fd5b50505050565b606060405180602001604052806000815250905090565b606060008214156146e6576040518060400160405280600181526020017f30000000000000000000000000000000000000000000000000000000000000008152509050614846565b600082905060005b6000821461471857808061470190616d57565b915050600a8261471191906167e1565b91506146ee565b60008167ffffffffffffffff81111561475a577f4e487b7100000000000000000000000000000000000000000000000000000000600052604160045260246000fd5b6040519080825280601f01601f19166020018201604052801561478c5781602001600182028036833780820191505090505b5090505b6000851461483f576001826147a59190616b2a565b9150600a856147b49190616da0565b60306147c0919061675a565b60f81b8183815181106147fc577f4e487b7100000000000000000000000000000000000000000000000000000000600052603260045260246000fd5b60200101907effffffffffffffffffffffffffffffffffffffffffffffffffffffffffffff1916908160001a905350600a8561483891906167e1565b9450614790565b8093505050505b919050565b600080600090506000601060009054906101000a90046fffffffffffffffffffffffffffffffff1661487c90616dd1565b90505b601060009054906101000a90046fffffffffffffffffffffffffffffffff16600f0b81600f0b13614a3f576000601060009054906101000a90046fffffffffffffffffffffffffffffffff166148d490616dd1565b90505b601060009054906101000a90046fffffffffffffffffffffffffffffffff16600f0b81600f0b13614a2b57600061490e8383612adf565b9050600061491b8261513d565b9050600073ffffffffffffffffffffffffffffffffffffffff168173ffffffffffffffffffffffffffffffffffffffff1614614a1657600061495c8361267d565b509050600d60009054906101000a900473ffffffffffffffffffffffffffffffffffffffff1673ffffffffffffffffffffffffffffffffffffffff166340c10f19836001846149ab919061675a565b6040518363ffffffff1660e01b81526004016149c89291906161e5565b600060405180830381600087803b1580156149e257600080fd5b505af11580156149f6573d6000803e3d6000fd5b50505050600181614a07919061675a565b86614a12919061675a565b9550505b50508080614a2390616d1e565b9150506148d7565b508080614a3790616d1e565b91505061487f565b508091505090565b614a4f6132b0565b73ffffffffffffffffffffffffffffffffffffffff16614a6d612771565b73ffffffffffffffffffffffffffffffffffffffff1614614ac3576040517f08c379a0000000000000000000000000000000000000000000000000000000008152600401614aba90616495565b60405180910390fd5b614ae28273ffffffffffffffffffffffffffffffffffffffff16614f93565b614aeb57600080fd5b6000829050614afa8183611db3565b15614b0457600080fd5b8073ffffffffffffffffffffffffffffffffffffffff166342842e0e30614b29612771565b856040518463ffffffff1660e01b8152600401614b4893929190616139565b600060405180830381600087803b158015614b6257600080fd5b505af1158015614b76573d6000803e3d6000fd5b50505050505050565b6060600073ffffffffffffffffffffffffffffffffffffffff168373ffffffffffffffffffffffffffffffffffffffff161415614bbb57600080fd5b600080600190505b600854811015614c8b578473ffffffffffffffffffffffffffffffffffffffff166009600083815260200190815260200160002060000160019054906101000a900473ffffffffffffffffffffffffffffffffffffffff1673ffffffffffffffffffffffffffffffffffffffff16148015614c6457508315156009600083815260200190815260200160002060000160159054906101000a900460ff161515145b15614c78578180614c7490616d57565b9250505b8080614c8390616d57565b915050614bc3565b5060008167ffffffffffffffff811115614cce577f4e487b7100000000000000000000000000000000000000000000000000000000600052604160045260246000fd5b604051908082528060200260200182016040528015614cfc5781602001602082028036833780820191505090505b509050600091506000600190505b600854811015614e16578573ffffffffffffffffffffffffffffffffffffffff166009600083815260200190815260200160002060000160019054906101000a900473ffffffffffffffffffffffffffffffffffffffff1673ffffffffffffffffffffffffffffffffffffffff16148015614dab57508415156009600083815260200190815260200160002060000160159054906101000a900460ff161515145b15614e035780828480614dbd90616d57565b955081518110614df6577f4e487b7100000000000000000000000000000000000000000000000000000000600052603260045260246000fd5b6020026020010181815250505b8080614e0e90616d57565b915050614d0a565b50809250505092915050565b505050565b80471015614e6a576040517f08c379a0000000000000000000000000000000000000000000000000000000008152600401614e61906163b5565b60405180910390fd5b60008273ffffffffffffffffffffffffffffffffffffffff1682604051614e9090616109565b60006040518083038185875af1925050503d8060008114614ecd576040519150601f19603f3d011682016040523d82523d6000602084013e614ed2565b606091505b5050905080614f16576040517f08c379a0000000000000000000000000000000000000000000000000000000008152600401614f0d90616395565b60405180910390fd5b505050565b6000614f278383612adf565b9050614f3330826151dd565b604051806020016040528085815250600e60008381526020019081526020016000206000820151816000019080519060200190614f719291906153cc565b5090505060116000815480929190614f8890616d57565b919050555050505050565b600080823b905060008111915050919050565b6000614fc78473ffffffffffffffffffffffffffffffffffffffff16614f93565b15615130578373ffffffffffffffffffffffffffffffffffffffff1663150b7a02614ff06132b0565b8786866040518563ffffffff1660e01b81526004016150129493929190616170565b602060405180830381600087803b15801561502c57600080fd5b505af192505050801561505d57506040513d601f19601f8201168201806040525081019061505a919061599c565b60015b6150e0573d806000811461508d576040519150601f19603f3d011682016040523d82523d6000602084013e615092565b606091505b506000815114156150d8576040517f08c379a00000000000000000000000000000000000000000000000000000000081526004016150cf906162f5565b60405180910390fd5b805181602001fd5b63150b7a0260e01b7bffffffffffffffffffffffffffffffffffffffffffffffffffffffff1916817bffffffffffffffffffffffffffffffffffffffffffffffffffffffff191614915050615135565b600190505b949350505050565b600061514882613244565b61515557600090506151d8565b3073ffffffffffffffffffffffffffffffffffffffff1661517583611e5f565b73ffffffffffffffffffffffffffffffffffffffff1614156151cc57600c600083815260200190815260200160002060009054906101000a900473ffffffffffffffffffffffffffffffffffffffff1690506151d8565b6151d582611e5f565b90505b919050565b600073ffffffffffffffffffffffffffffffffffffffff168273ffffffffffffffffffffffffffffffffffffffff16141561524d576040517f08c379a000000000000000000000000000000000000000000000000000000000815260040161524490616455565b60405180910390fd5b61525681613244565b15615296576040517f08c379a000000000000000000000000000000000000000000000000000000000815260040161528d90616335565b60405180910390fd5b6152a260008383614e22565b6001600360008473ffffffffffffffffffffffffffffffffffffffff1673ffffffffffffffffffffffffffffffffffffffff16815260200190815260200160002060008282546152f2919061675a565b92505081905550816002600083815260200190815260200160002060006101000a81548173ffffffffffffffffffffffffffffffffffffffff021916908373ffffffffffffffffffffffffffffffffffffffff160217905550808273ffffffffffffffffffffffffffffffffffffffff16600073ffffffffffffffffffffffffffffffffffffffff167fddf252ad1be2c89b69c2b068fc378daa952ba7f163c4a11628f55a4df523b3ef60405160405180910390a45050565b50805460008255906000526020600020908101906153c99190615452565b50565b8280546153d890616cbb565b90600052602060002090601f0160209004810192826153fa5760008555615441565b82601f1061541357805160ff1916838001178555615441565b82800160010185558215615441579182015b82811115615440578251825591602001919060010190615425565b5b50905061544e9190615452565b5090565b5b8082111561546b576000816000905550600101615453565b5090565b600061548261547d8461659e565b616579565b9050808382526020820190508260005b858110156154c257813585016154a8888261568e565b845260208401935060208301925050600181019050615492565b5050509392505050565b60006154df6154da846165ca565b616579565b9050828152602081018484840111156154f757600080fd5b615502848285616c79565b509392505050565b600061551d615518846165fb565b616579565b90508281526020810184848401111561553557600080fd5b615540848285616c79565b509392505050565b600081359050615557816173c7565b92915050565b600082601f83011261556e57600080fd5b813561557e84826020860161546f565b91505092915050565b600081359050615596816173de565b92915050565b6000815190506155ab816173de565b92915050565b6000813590506155c0816173f5565b92915050565b6000815190506155d5816173f5565b92915050565b60008083601f8401126155ed57600080fd5b8235905067ffffffffffffffff81111561560657600080fd5b60208301915083600182028301111561561e57600080fd5b9250929050565b600082601f83011261563657600080fd5b81356156468482602086016154cc565b91505092915050565b60008135905061565e8161740c565b92915050565b60008135905061567381617423565b92915050565b6000813590506156888161743a565b92915050565b600082601f83011261569f57600080fd5b81356156af84826020860161550a565b91505092915050565b6000813590506156c781617451565b92915050565b6000815190506156dc81617451565b92915050565b6000602082840312156156f457600080fd5b600061570284828501615548565b91505092915050565b6000806040838503121561571e57600080fd5b600061572c85828601615548565b925050602061573d85828601615548565b9150509250929050565b60008060006060848603121561575c57600080fd5b600061576a86828701615548565b935050602061577b86828701615548565b925050604061578c868287016156b8565b9150509250925092565b6000806000806000608086880312156157ae57600080fd5b60006157bc88828901615548565b95505060206157cd88828901615548565b94505060406157de888289016156b8565b935050606086013567ffffffffffffffff8111156157fb57600080fd5b615807888289016155db565b92509250509295509295909350565b6000806000806080858703121561582c57600080fd5b600061583a87828801615548565b945050602061584b87828801615548565b935050604061585c878288016156b8565b925050606085013567ffffffffffffffff81111561587957600080fd5b61588587828801615625565b91505092959194509250565b600080604083850312156158a457600080fd5b60006158b285828601615548565b92505060206158c385828601615587565b9150509250929050565b600080604083850312156158e057600080fd5b60006158ee85828601615548565b92505060206158ff858286016156b8565b9150509250929050565b60006020828403121561591b57600080fd5b600082013567ffffffffffffffff81111561593557600080fd5b6159418482850161555d565b91505092915050565b60006020828403121561595c57600080fd5b600061596a8482850161559c565b91505092915050565b60006020828403121561598557600080fd5b6000615993848285016155b1565b91505092915050565b6000602082840312156159ae57600080fd5b60006159bc848285016155c6565b91505092915050565b6000602082840312156159d757600080fd5b60006159e58482850161564f565b91505092915050565b60008060408385031215615a0157600080fd5b6000615a0f85828601615664565b9250506020615a20858286016156b8565b9150509250929050565b60008060408385031215615a3d57600080fd5b6000615a4b85828601615679565b9250506020615a5c85828601615679565b9150509250929050565b600060208284031215615a7857600080fd5b6000615a86848285016156b8565b91505092915050565b600060208284031215615aa157600080fd5b6000615aaf848285016156cd565b91505092915050565b60008060408385031215615acb57600080fd5b6000615ad9858286016156b8565b9250506020615aea85828601615548565b9150509250929050565b60008060408385031215615b0757600080fd5b6000615b15858286016156b8565b9250506020615b2685828601615587565b9150509250929050565b60008060408385031215615b4357600080fd5b6000615b51858286016156b8565b925050602083013567ffffffffffffffff811115615b6e57600080fd5b615b7a8582860161568e565b9150509250929050565b60008060408385031215615b9757600080fd5b6000615ba5858286016156b8565b9250506020615bb6858286016156b8565b9150509250929050565b6000615bcc8383615d88565b60208301905092915050565b6000615be48383615d97565b60208301905092915050565b6000615bfc83836160c7565b60208301905092915050565b615c1181616b5e565b82525050565b6000615c228261665c565b615c2c81856166ba565b9350615c378361662c565b8060005b83811015615c68578151615c4f8882615bc0565b9750615c5a83616693565b925050600181019050615c3b565b5085935050505092915050565b6000615c8082616667565b615c8a81856166ba565b9350615c958361663c565b8060005b83811015615cc6578151615cad8882615bd8565b9750615cb8836166a0565b925050600181019050615c99565b5085935050505092915050565b6000615cde82616672565b615ce881856166cb565b9350615cf38361664c565b8060005b83811015615d24578151615d0b8882615bf0565b9750615d16836166ad565b925050600181019050615cf7565b5085935050505092915050565b615d3a81616b70565b82525050565b615d4981616b7c565b82525050565b6000615d5a8261667d565b615d6481856166dc565b9350615d74818560208601616c88565b615d7d81616ed6565b840191505092915050565b615d9181616c1f565b82525050565b615da081616c43565b82525050565b615daf81616bcc565b82525050565b615dbe81616c67565b82525050565b6000615dcf82616688565b615dd981856166f8565b9350615de9818560208601616c88565b615df281616ed6565b840191505092915050565b6000615e0882616688565b615e128185616709565b9350615e22818560208601616c88565b80840191505092915050565b6000615e3b6032836166f8565b9150615e4682616ef4565b604082019050919050565b6000615e5e6026836166f8565b9150615e6982616f43565b604082019050919050565b6000615e81601c836166f8565b9150615e8c82616f92565b602082019050919050565b6000615ea46024836166f8565b9150615eaf82616fbb565b604082019050919050565b6000615ec76019836166f8565b9150615ed28261700a565b602082019050919050565b6000615eea603a836166f8565b9150615ef582617033565b604082019050919050565b6000615f0d601d836166f8565b9150615f1882617082565b602082019050919050565b6000615f30602c836166f8565b9150615f3b826170ab565b604082019050919050565b6000615f536038836166f8565b9150615f5e826170fa565b604082019050919050565b6000615f76602a836166f8565b9150615f8182617149565b604082019050919050565b6000615f996029836166f8565b9150615fa482617198565b604082019050919050565b6000615fbc6020836166f8565b9150615fc7826171e7565b602082019050919050565b6000615fdf602c836166f8565b9150615fea82617210565b604082019050919050565b60006160026020836166f8565b915061600d8261725f565b602082019050919050565b60006160256029836166f8565b915061603082617288565b604082019050919050565b6000616048602f836166f8565b9150616053826172d7565b604082019050919050565b600061606b6021836166f8565b915061607682617326565b604082019050919050565b600061608e6000836166ed565b915061609982617375565b600082019050919050565b60006160b16031836166f8565b91506160bc82617378565b604082019050919050565b6160d081616c15565b82525050565b6160df81616c15565b82525050565b60006160f18285615dfd565b91506160fd8284615dfd565b91508190509392505050565b600061611482616081565b9150819050919050565b60006020820190506161336000830184615c08565b92915050565b600060608201905061614e6000830186615c08565b61615b6020830185615c08565b61616860408301846160d6565b949350505050565b60006080820190506161856000830187615c08565b6161926020830186615c08565b61619f60408301856160d6565b81810360608301526161b18184615d4f565b905095945050505050565b60006040820190506161d16000830185615c08565b6161de6020830184615db5565b9392505050565b60006040820190506161fa6000830185615c08565b61620760208301846160d6565b9392505050565b600060208201905081810360008301526162288184615c17565b905092915050565b6000602082019050818103600083015261624a8184615c75565b905092915050565b6000602082019050818103600083015261626c8184615cd3565b905092915050565b60006020820190506162896000830184615d31565b92915050565b60006020820190506162a46000830184615d40565b92915050565b60006040820190506162bf6000830185615da6565b6162cc6020830184615da6565b9392505050565b600060208201905081810360008301526162ed8184615dc4565b905092915050565b6000602082019050818103600083015261630e81615e2e565b9050919050565b6000602082019050818103600083015261632e81615e51565b9050919050565b6000602082019050818103600083015261634e81615e74565b9050919050565b6000602082019050818103600083015261636e81615e97565b9050919050565b6000602082019050818103600083015261638e81615eba565b9050919050565b600060208201905081810360008301526163ae81615edd565b9050919050565b600060208201905081810360008301526163ce81615f00565b9050919050565b600060208201905081810360008301526163ee81615f23565b9050919050565b6000602082019050818103600083015261640e81615f46565b9050919050565b6000602082019050818103600083015261642e81615f69565b9050919050565b6000602082019050818103600083015261644e81615f8c565b9050919050565b6000602082019050818103600083015261646e81615faf565b9050919050565b6000602082019050818103600083015261648e81615fd2565b9050919050565b600060208201905081810360008301526164ae81615ff5565b9050919050565b600060208201905081810360008301526164ce81616018565b9050919050565b600060208201905081810360008301526164ee8161603b565b9050919050565b6000602082019050818103600083015261650e8161605e565b9050919050565b6000602082019050818103600083015261652e816160a4565b9050919050565b600060208201905061654a60008301846160d6565b92915050565b600060408201905061656560008301856160d6565b61657260208301846160d6565b9392505050565b6000616583616594565b905061658f8282616ced565b919050565b6000604051905090565b600067ffffffffffffffff8211156165b9576165b8616ea7565b5b602082029050602081019050919050565b600067ffffffffffffffff8211156165e5576165e4616ea7565b5b6165ee82616ed6565b9050602081019050919050565b600067ffffffffffffffff82111561661657616615616ea7565b5b61661f82616ed6565b9050602081019050919050565b6000819050602082019050919050565b6000819050602082019050919050565b6000819050602082019050919050565b600081519050919050565b600081519050919050565b600081519050919050565b600081519050919050565b600081519050919050565b6000602082019050919050565b6000602082019050919050565b6000602082019050919050565b600082825260208201905092915050565b600082825260208201905092915050565b600082825260208201905092915050565b600081905092915050565b600082825260208201905092915050565b600081905092915050565b600061671f82616bd9565b915061672a83616bd9565b9250826fffffffffffffffffffffffffffffffff0382111561674f5761674e616e1a565b5b828201905092915050565b600061676582616c15565b915061677083616c15565b9250827fffffffffffffffffffffffffffffffffffffffffffffffffffffffffffffffff038211156167a5576167a4616e1a565b5b828201905092915050565b60006167bb82616bd9565b91506167c683616bd9565b9250826167d6576167d5616e49565b5b828204905092915050565b60006167ec82616c15565b91506167f783616c15565b92508261680757616806616e49565b5b828204905092915050565b6000808291508390505b600185111561685c5780860481111561683857616837616e1a565b5b60018516156168475780820291505b808102905061685585616ee7565b945061681c565b94509492505050565b600061687082616c15565b915061687b83616bd9565b92506168a87fffffffffffffffffffffffffffffffffffffffffffffffffffffffffffffffff84846168fb565b905092915050565b60006168bb82616c15565b91506168c683616c15565b92506168f37fffffffffffffffffffffffffffffffffffffffffffffffffffffffffffffffff84846168fb565b905092915050565b60008261690b57600190506169c7565b8161691957600090506169c7565b816001811461692f576002811461693957616968565b60019150506169c7565b60ff84111561694b5761694a616e1a565b5b8360020a91508482111561696257616961616e1a565b5b506169c7565b5060208310610133831016604e8410600b841016171561699d5782820a90508381111561699857616997616e1a565b5b6169c7565b6169aa8484846001616812565b925090508184048111156169c1576169c0616e1a565b5b81810290505b9392505050565b60006169d982616bd9565b91506169e483616bd9565b9250816fffffffffffffffffffffffffffffffff0483118215151615616a0d57616a0c616e1a565b5b828202905092915050565b6000616a2382616c15565b9150616a2e83616c15565b9250817fffffffffffffffffffffffffffffffffffffffffffffffffffffffffffffffff0483118215151615616a6757616a66616e1a565b5b828202905092915050565b6000616a7d82616bcc565b9150616a8883616bcc565b9250827fffffffffffffffffffffffffffffffff8000000000000000000000000000000001821260008412151615616ac357616ac2616e1a565b5b826f7fffffffffffffffffffffffffffffff018213600084121615616aeb57616aea616e1a565b5b828203905092915050565b6000616b0182616bd9565b9150616b0c83616bd9565b925082821015616b1f57616b1e616e1a565b5b828203905092915050565b6000616b3582616c15565b9150616b4083616c15565b925082821015616b5357616b52616e1a565b5b828203905092915050565b6000616b6982616bf5565b9050919050565b60008115159050919050565b60007fffffffff0000000000000000000000000000000000000000000000000000000082169050919050565b6000616bb382616b5e565b9050919050565b6000616bc582616b5e565b9050919050565b600081600f0b9050919050565b60006fffffffffffffffffffffffffffffffff82169050919050565b600073ffffffffffffffffffffffffffffffffffffffff82169050919050565b6000819050919050565b6000616c2a82616c31565b9050919050565b6000616c3c82616bf5565b9050919050565b6000616c4e82616c55565b9050919050565b6000616c6082616bf5565b9050919050565b6000616c7282616c15565b9050919050565b82818337600083830152505050565b60005b83811015616ca6578082015181840152602081019050616c8b565b83811115616cb5576000848401525b50505050565b60006002820490506001821680616cd357607f821691505b60208210811415616ce757616ce6616e78565b5b50919050565b616cf682616ed6565b810181811067ffffffffffffffff82111715616d1557616d14616ea7565b5b80604052505050565b6000616d2982616bcc565b91506f7fffffffffffffffffffffffffffffff821415616d4c57616d4b616e1a565b5b600182019050919050565b6000616d6282616c15565b91507fffffffffffffffffffffffffffffffffffffffffffffffffffffffffffffffff821415616d9557616d94616e1a565b5b600182019050919050565b6000616dab82616c15565b9150616db683616c15565b925082616dc657616dc5616e49565b5b828206905092915050565b6000616ddc82616bcc565b91507fffffffffffffffffffffffffffffffff80000000000000000000000000000000821415616e0f57616e0e616e1a565b5b816000039050919050565b7f4e487b7100000000000000000000000000000000000000000000000000000000600052601160045260246000fd5b7f4e487b7100000000000000000000000000000000000000000000000000000000600052601260045260246000fd5b7f4e487b7100000000000000000000000000000000000000000000000000000000600052602260045260246000fd5b7f4e487b7100000000000000000000000000000000000000000000000000000000600052604160045260246000fd5b6000601f19601f8301169050919050565b60008160011c9050919050565b7f4552433732313a207472616e7366657220746f206e6f6e20455243373231526560008201527f63656976657220696d706c656d656e7465720000000000000000000000000000602082015250565b7f4f776e61626c653a206e6577206f776e657220697320746865207a65726f206160008201527f6464726573730000000000000000000000000000000000000000000000000000602082015250565b7f4552433732313a20746f6b656e20616c7265616479206d696e74656400000000600082015250565b7f4552433732313a207472616e7366657220746f20746865207a65726f2061646460008201527f7265737300000000000000000000000000000000000000000000000000000000602082015250565b7f4552433732313a20617070726f766520746f2063616c6c657200000000000000600082015250565b7f416464726573733a20756e61626c6520746f2073656e642076616c75652c207260008201527f6563697069656e74206d61792068617665207265766572746564000000000000602082015250565b7f416464726573733a20696e73756666696369656e742062616c616e6365000000600082015250565b7f4552433732313a206f70657261746f7220717565727920666f72206e6f6e657860008201527f697374656e7420746f6b656e0000000000000000000000000000000000000000602082015250565b7f4552433732313a20617070726f76652063616c6c6572206973206e6f74206f7760008201527f6e6572206e6f7220617070726f76656420666f7220616c6c0000000000000000602082015250565b7f4552433732313a2062616c616e636520717565727920666f7220746865207a6560008201527f726f206164647265737300000000000000000000000000000000000000000000602082015250565b7f4552433732313a206f776e657220717565727920666f72206e6f6e657869737460008201527f656e7420746f6b656e0000000000000000000000000000000000000000000000602082015250565b7f4552433732313a206d696e7420746f20746865207a65726f2061646472657373600082015250565b7f4552433732313a20617070726f76656420717565727920666f72206e6f6e657860008201527f697374656e7420746f6b656e0000000000000000000000000000000000000000602082015250565b7f4f776e61626c653a2063616c6c6572206973206e6f7420746865206f776e6572600082015250565b7f4552433732313a207472616e73666572206f6620746f6b656e2074686174206960008201527f73206e6f74206f776e0000000000000000000000000000000000000000000000602082015250565b7f4552433732314d657461646174613a2055524920717565727920666f72206e6f60008201527f6e6578697374656e7420746f6b656e0000000000000000000000000000000000602082015250565b7f4552433732313a20617070726f76616c20746f2063757272656e74206f776e6560008201527f7200000000000000000000000000000000000000000000000000000000000000602082015250565b50565b7f4552433732313a207472616e736665722063616c6c6572206973206e6f74206f60008201527f776e6572206e6f7220617070726f766564000000000000000000000000000000602082015250565b6173d081616b5e565b81146173db57600080fd5b50565b6173e781616b70565b81146173f257600080fd5b50565b6173fe81616b7c565b811461740957600080fd5b50565b61741581616ba8565b811461742057600080fd5b50565b61742c81616bba565b811461743757600080fd5b50565b61744381616bcc565b811461744e57600080fd5b50565b61745a81616c15565b811461746557600080fd5b5056fea26469706673582212204b499d89f22c63d92267d916506e76597aef5b3c8978c09c21bd6525291403fd64736f6c63430008010033",
			"opcodes": "PUSH1 0x80 PUSH1 0x40 MSTORE PUSH1 0x1 PUSH1 0x8 SSTORE PUSH1 0x0 PUSH1 0xA SSTORE PUSH1 0x0 PUSH1 0x10 PUSH1 0x0 PUSH2 0x100 EXP DUP2 SLOAD DUP2 PUSH16 0xFFFFFFFFFFFFFFFFFFFFFFFFFFFFFFFF MUL NOT AND SWAP1 DUP4 PUSH16 0xFFFFFFFFFFFFFFFFFFFFFFFFFFFFFFFF AND MUL OR SWAP1 SSTORE POP PUSH1 0x0 PUSH1 0x11 SSTORE PUSH1 0x0 PUSH1 0x15 SSTORE CALLVALUE DUP1 ISZERO PUSH3 0x5F JUMPI PUSH1 0x0 DUP1 REVERT JUMPDEST POP PUSH1 0x40 MLOAD PUSH3 0x889C CODESIZE SUB DUP1 PUSH3 0x889C DUP4 CODECOPY DUP2 DUP2 ADD PUSH1 0x40 MSTORE DUP2 ADD SWAP1 PUSH3 0x85 SWAP2 SWAP1 PUSH3 0xBEE JUMP JUMPDEST DUP6 DUP6 DUP6 DUP6 DUP6 PUSH1 0x40 MLOAD DUP1 PUSH1 0x40 ADD PUSH1 0x40 MSTORE DUP1 PUSH1 0x3 DUP2 MSTORE PUSH1 0x20 ADD PUSH32 0x4265650000000000000000000000000000000000000000000000000000000000 DUP2 MSTORE POP PUSH1 0x40 MLOAD DUP1 PUSH1 0x40 ADD PUSH1 0x40 MSTORE DUP1 PUSH1 0x3 DUP2 MSTORE PUSH1 0x20 ADD PUSH32 0x4245450000000000000000000000000000000000000000000000000000000000 DUP2 MSTORE POP DUP7 DUP3 DUP3 DUP2 PUSH1 0x0 SWAP1 DUP1 MLOAD SWAP1 PUSH1 0x20 ADD SWAP1 PUSH3 0x111 SWAP3 SWAP2 SWAP1 PUSH3 0x9F5 JUMP JUMPDEST POP DUP1 PUSH1 0x1 SWAP1 DUP1 MLOAD SWAP1 PUSH1 0x20 ADD SWAP1 PUSH3 0x12A SWAP3 SWAP2 SWAP1 PUSH3 0x9F5 JUMP JUMPDEST POP POP POP PUSH1 0x0 PUSH3 0x13F PUSH3 0x352 PUSH1 0x20 SHL PUSH1 0x20 SHR JUMP JUMPDEST SWAP1 POP DUP1 PUSH1 0x6 PUSH1 0x0 PUSH2 0x100 EXP DUP2 SLOAD DUP2 PUSH20 0xFFFFFFFFFFFFFFFFFFFFFFFFFFFFFFFFFFFFFFFF MUL NOT AND SWAP1 DUP4 PUSH20 0xFFFFFFFFFFFFFFFFFFFFFFFFFFFFFFFFFFFFFFFF AND MUL OR SWAP1 SSTORE POP DUP1 PUSH20 0xFFFFFFFFFFFFFFFFFFFFFFFFFFFFFFFFFFFFFFFF AND PUSH1 0x0 PUSH20 0xFFFFFFFFFFFFFFFFFFFFFFFFFFFFFFFFFFFFFFFF AND PUSH32 0x8BE0079C531659141344CD1FD0A4F28419497F9722A3DAAFE3B4186F6B6457E0 PUSH1 0x40 MLOAD PUSH1 0x40 MLOAD DUP1 SWAP2 SUB SWAP1 LOG3 POP DUP1 PUSH1 0x7 PUSH1 0x0 PUSH2 0x100 EXP DUP2 SLOAD DUP2 PUSH20 0xFFFFFFFFFFFFFFFFFFFFFFFFFFFFFFFFFFFFFFFF MUL NOT AND SWAP1 DUP4 PUSH20 0xFFFFFFFFFFFFFFFFFFFFFFFFFFFFFFFFFFFFFFFF AND MUL OR SWAP1 SSTORE POP POP POP POP DUP5 PUSH1 0xD PUSH1 0x0 PUSH2 0x100 EXP DUP2 SLOAD DUP2 PUSH20 0xFFFFFFFFFFFFFFFFFFFFFFFFFFFFFFFFFFFFFFFF MUL NOT AND SWAP1 DUP4 PUSH20 0xFFFFFFFFFFFFFFFFFFFFFFFFFFFFFFFFFFFFFFFF AND MUL OR SWAP1 SSTORE POP DUP1 PUSH1 0x13 DUP2 SWAP1 SSTORE POP PUSH1 0x13 SLOAD PUSH1 0x13 SLOAD PUSH1 0x13 SLOAD TIMESTAMP PUSH3 0x280 SWAP2 SWAP1 PUSH3 0xEB0 JUMP JUMPDEST PUSH3 0x28C SWAP2 SWAP1 PUSH3 0xF39 JUMP JUMPDEST PUSH3 0x298 SWAP2 SWAP1 PUSH3 0xE1B JUMP JUMPDEST PUSH1 0x12 DUP2 SWAP1 SSTORE POP DUP2 PUSH1 0xF DUP2 SWAP1 SSTORE POP PUSH3 0x2FB DUP5 PUSH1 0x0 DUP2 MLOAD DUP2 LT PUSH3 0x2E4 JUMPI PUSH32 0x4E487B7100000000000000000000000000000000000000000000000000000000 PUSH1 0x0 MSTORE PUSH1 0x32 PUSH1 0x4 MSTORE PUSH1 0x24 PUSH1 0x0 REVERT JUMPDEST PUSH1 0x20 MUL PUSH1 0x20 ADD ADD MLOAD PUSH1 0x0 DUP1 PUSH3 0x35A PUSH1 0x20 SHL PUSH1 0x20 SHR JUMP JUMPDEST PUSH1 0x0 DUP4 PUSH16 0xFFFFFFFFFFFFFFFFFFFFFFFFFFFFFFFF AND GT ISZERO PUSH3 0x32C JUMPI PUSH3 0x32B DUP4 DUP6 PUSH1 0x1 PUSH3 0x3E6 PUSH1 0x20 SHL PUSH1 0x20 SHR JUMP JUMPDEST JUMPDEST POP POP POP POP POP PUSH1 0x0 DUP2 GT PUSH3 0x33F JUMPI PUSH1 0x0 DUP1 REVERT JUMPDEST DUP1 PUSH1 0x14 DUP2 SWAP1 SSTORE POP POP POP POP POP POP POP PUSH3 0x13EE JUMP JUMPDEST PUSH1 0x0 CALLER SWAP1 POP SWAP1 JUMP JUMPDEST PUSH1 0x0 PUSH3 0x36E DUP4 DUP4 PUSH3 0x67C PUSH1 0x20 SHL PUSH1 0x20 SHR JUMP JUMPDEST SWAP1 POP PUSH3 0x382 ADDRESS DUP3 PUSH3 0x6BC PUSH1 0x20 SHL PUSH1 0x20 SHR JUMP JUMPDEST PUSH1 0x40 MLOAD DUP1 PUSH1 0x20 ADD PUSH1 0x40 MSTORE DUP1 DUP6 DUP2 MSTORE POP PUSH1 0xE PUSH1 0x0 DUP4 DUP2 MSTORE PUSH1 0x20 ADD SWAP1 DUP2 MSTORE PUSH1 0x20 ADD PUSH1 0x0 KECCAK256 PUSH1 0x0 DUP3 ADD MLOAD DUP2 PUSH1 0x0 ADD SWAP1 DUP1 MLOAD SWAP1 PUSH1 0x20 ADD SWAP1 PUSH3 0x3C2 SWAP3 SWAP2 SWAP1 PUSH3 0x9F5 JUMP JUMPDEST POP SWAP1 POP POP PUSH1 0x11 PUSH1 0x0 DUP2 SLOAD DUP1 SWAP3 SWAP2 SWAP1 PUSH3 0x3DB SWAP1 PUSH3 0x11E5 JUMP JUMPDEST SWAP2 SWAP1 POP SSTORE POP POP POP POP POP JUMP JUMPDEST PUSH1 0x10 PUSH1 0x0 SWAP1 SLOAD SWAP1 PUSH2 0x100 EXP SWAP1 DIV PUSH16 0xFFFFFFFFFFFFFFFFFFFFFFFFFFFFFFFF AND PUSH16 0xFFFFFFFFFFFFFFFFFFFFFFFFFFFFFFFF AND DUP4 PUSH16 0xFFFFFFFFFFFFFFFFFFFFFFFFFFFFFFFF AND GT PUSH3 0x435 JUMPI PUSH1 0x0 DUP1 REVERT JUMPDEST PUSH1 0x0 DUP4 PUSH1 0xF SIGNEXTEND SGT PUSH3 0x446 JUMPI PUSH1 0x0 DUP1 REVERT JUMPDEST PUSH1 0x6 PUSH1 0x2 PUSH1 0x10 PUSH1 0x0 SWAP1 SLOAD SWAP1 PUSH2 0x100 EXP SWAP1 DIV PUSH16 0xFFFFFFFFFFFFFFFFFFFFFFFFFFFFFFFF AND DUP6 PUSH3 0x476 SWAP2 SWAP1 PUSH3 0x1028 JUMP JUMPDEST DUP6 PUSH1 0x1 PUSH1 0x10 PUSH1 0x0 SWAP1 SLOAD SWAP1 PUSH2 0x100 EXP SWAP1 DIV PUSH16 0xFFFFFFFFFFFFFFFFFFFFFFFFFFFFFFFF AND PUSH3 0x4A4 SWAP2 SWAP1 PUSH3 0xDCE JUMP JUMPDEST PUSH3 0x4B0 SWAP2 SWAP1 PUSH3 0xDCE JUMP JUMPDEST PUSH3 0x4BC SWAP2 SWAP1 PUSH3 0xEE8 JUMP JUMPDEST PUSH3 0x4C8 SWAP2 SWAP1 PUSH3 0xE78 JUMP JUMPDEST PUSH3 0x4D4 SWAP2 SWAP1 PUSH3 0xEE8 JUMP JUMPDEST PUSH16 0xFFFFFFFFFFFFFFFFFFFFFFFFFFFFFFFF AND DUP2 DUP4 MLOAD PUSH3 0x4F5 SWAP2 SWAP1 PUSH3 0x1063 JUMP JUMPDEST EQ PUSH3 0x500 JUMPI PUSH1 0x0 DUP1 REVERT JUMPDEST PUSH1 0x0 DUP4 PUSH3 0x50E SWAP1 PUSH3 0x1233 JUMP JUMPDEST SWAP1 POP JUMPDEST DUP4 PUSH1 0xF SIGNEXTEND DUP2 PUSH1 0xF SIGNEXTEND SGT PUSH3 0x63D JUMPI PUSH1 0x0 DUP5 PUSH3 0x52D SWAP1 PUSH3 0x1233 JUMP JUMPDEST SWAP1 POP JUMPDEST DUP5 PUSH1 0xF SIGNEXTEND DUP2 PUSH1 0xF SIGNEXTEND SGT PUSH3 0x626 JUMPI PUSH1 0x0 PUSH3 0x552 DUP4 DUP4 PUSH3 0x8A2 PUSH1 0x20 SHL PUSH1 0x20 SHR JUMP JUMPDEST SWAP1 POP PUSH1 0x10 PUSH1 0x0 SWAP1 SLOAD SWAP1 PUSH2 0x100 EXP SWAP1 DIV PUSH16 0xFFFFFFFFFFFFFFFFFFFFFFFFFFFFFFFF AND PUSH16 0xFFFFFFFFFFFFFFFFFFFFFFFFFFFFFFFF AND DUP2 GT DUP1 ISZERO PUSH3 0x5A6 JUMPI POP DUP6 PUSH16 0xFFFFFFFFFFFFFFFFFFFFFFFFFFFFFFFF AND DUP2 GT ISZERO JUMPDEST ISZERO PUSH3 0x60F JUMPI PUSH3 0x60E DUP6 DUP6 DUP1 PUSH3 0x5BE SWAP1 PUSH3 0x11E5 JUMP JUMPDEST SWAP7 POP DUP2 MLOAD DUP2 LT PUSH3 0x5F8 JUMPI PUSH32 0x4E487B7100000000000000000000000000000000000000000000000000000000 PUSH1 0x0 MSTORE PUSH1 0x32 PUSH1 0x4 MSTORE PUSH1 0x24 PUSH1 0x0 REVERT JUMPDEST PUSH1 0x20 MUL PUSH1 0x20 ADD ADD MLOAD DUP5 DUP5 PUSH3 0x35A PUSH1 0x20 SHL PUSH1 0x20 SHR JUMP JUMPDEST JUMPDEST POP DUP1 DUP1 PUSH3 0x61D SWAP1 PUSH3 0x11A7 JUMP JUMPDEST SWAP2 POP POP PUSH3 0x530 JUMP JUMPDEST POP DUP1 DUP1 PUSH3 0x634 SWAP1 PUSH3 0x11A7 JUMP JUMPDEST SWAP2 POP POP PUSH3 0x511 JUMP JUMPDEST POP DUP3 PUSH1 0x10 PUSH1 0x0 PUSH2 0x100 EXP DUP2 SLOAD DUP2 PUSH16 0xFFFFFFFFFFFFFFFFFFFFFFFFFFFFFFFF MUL NOT AND SWAP1 DUP4 PUSH16 0xFFFFFFFFFFFFFFFFFFFFFFFFFFFFFFFF AND MUL OR SWAP1 SSTORE POP POP POP POP JUMP JUMPDEST PUSH1 0x0 DUP2 PUSH16 0xFFFFFFFFFFFFFFFFFFFFFFFFFFFFFFFF AND PUSH1 0x80 DUP5 PUSH16 0xFFFFFFFFFFFFFFFFFFFFFFFFFFFFFFFF AND SWAP1 SHL PUSH3 0x6B4 SWAP2 SWAP1 PUSH3 0xE1B JUMP JUMPDEST SWAP1 POP SWAP3 SWAP2 POP POP JUMP JUMPDEST PUSH1 0x0 PUSH20 0xFFFFFFFFFFFFFFFFFFFFFFFFFFFFFFFFFFFFFFFF AND DUP3 PUSH20 0xFFFFFFFFFFFFFFFFFFFFFFFFFFFFFFFFFFFFFFFF AND EQ ISZERO PUSH3 0x72F JUMPI PUSH1 0x40 MLOAD PUSH32 0x8C379A000000000000000000000000000000000000000000000000000000000 DUP2 MSTORE PUSH1 0x4 ADD PUSH3 0x726 SWAP1 PUSH3 0xD0D JUMP JUMPDEST PUSH1 0x40 MLOAD DUP1 SWAP2 SUB SWAP1 REVERT JUMPDEST PUSH3 0x740 DUP2 PUSH3 0x984 PUSH1 0x20 SHL PUSH1 0x20 SHR JUMP JUMPDEST ISZERO PUSH3 0x783 JUMPI PUSH1 0x40 MLOAD PUSH32 0x8C379A000000000000000000000000000000000000000000000000000000000 DUP2 MSTORE PUSH1 0x4 ADD PUSH3 0x77A SWAP1 PUSH3 0xCEB JUMP JUMPDEST PUSH1 0x40 MLOAD DUP1 SWAP2 SUB SWAP1 REVERT JUMPDEST PUSH3 0x797 PUSH1 0x0 DUP4 DUP4 PUSH3 0x9F0 PUSH1 0x20 SHL PUSH1 0x20 SHR JUMP JUMPDEST PUSH1 0x1 PUSH1 0x3 PUSH1 0x0 DUP5 PUSH20 0xFFFFFFFFFFFFFFFFFFFFFFFFFFFFFFFFFFFFFFFF AND PUSH20 0xFFFFFFFFFFFFFFFFFFFFFFFFFFFFFFFFFFFFFFFF AND DUP2 MSTORE PUSH1 0x20 ADD SWAP1 DUP2 MSTORE PUSH1 0x20 ADD PUSH1 0x0 KECCAK256 PUSH1 0x0 DUP3 DUP3 SLOAD PUSH3 0x7E9 SWAP2 SWAP1 PUSH3 0xE1B JUMP JUMPDEST SWAP3 POP POP DUP2 SWAP1 SSTORE POP DUP2 PUSH1 0x2 PUSH1 0x0 DUP4 DUP2 MSTORE PUSH1 0x20 ADD SWAP1 DUP2 MSTORE PUSH1 0x20 ADD PUSH1 0x0 KECCAK256 PUSH1 0x0 PUSH2 0x100 EXP DUP2 SLOAD DUP2 PUSH20 0xFFFFFFFFFFFFFFFFFFFFFFFFFFFFFFFFFFFFFFFF MUL NOT AND SWAP1 DUP4 PUSH20 0xFFFFFFFFFFFFFFFFFFFFFFFFFFFFFFFFFFFFFFFF AND MUL OR SWAP1 SSTORE POP DUP1 DUP3 PUSH20 0xFFFFFFFFFFFFFFFFFFFFFFFFFFFFFFFFFFFFFFFF AND PUSH1 0x0 PUSH20 0xFFFFFFFFFFFFFFFFFFFFFFFFFFFFFFFFFFFFFFFF AND PUSH32 0xDDF252AD1BE2C89B69C2B068FC378DAA952BA7F163C4A11628F55A4DF523B3EF PUSH1 0x40 MLOAD PUSH1 0x40 MLOAD DUP1 SWAP2 SUB SWAP1 LOG4 POP POP JUMP JUMPDEST PUSH1 0x0 DUP1 DUP3 DUP5 PUSH3 0x8B2 SWAP1 PUSH3 0x1233 JUMP JUMPDEST PUSH3 0x8BE SWAP2 SWAP1 PUSH3 0xF9A JUMP JUMPDEST SWAP1 POP PUSH1 0x0 DUP5 PUSH1 0xF SIGNEXTEND SGT PUSH3 0x8DE JUMPI DUP4 PUSH3 0x8D8 SWAP1 PUSH3 0x1233 JUMP JUMPDEST PUSH3 0x8E0 JUMP JUMPDEST DUP4 JUMPDEST SWAP4 POP PUSH1 0x0 DUP2 PUSH1 0xF SIGNEXTEND SGT PUSH3 0x900 JUMPI DUP1 PUSH3 0x8FA SWAP1 PUSH3 0x1233 JUMP JUMPDEST PUSH3 0x902 JUMP JUMPDEST DUP1 JUMPDEST SWAP1 POP PUSH1 0x0 DUP4 PUSH1 0xF SIGNEXTEND SGT PUSH3 0x922 JUMPI DUP3 PUSH3 0x91C SWAP1 PUSH3 0x1233 JUMP JUMPDEST PUSH3 0x924 JUMP JUMPDEST DUP3 JUMPDEST SWAP3 POP DUP1 PUSH1 0xF SIGNEXTEND DUP5 PUSH1 0xF SIGNEXTEND SGT PUSH3 0x951 JUMPI DUP3 PUSH1 0xF SIGNEXTEND DUP2 PUSH1 0xF SIGNEXTEND SGT PUSH3 0x949 JUMPI DUP3 PUSH3 0x94B JUMP JUMPDEST DUP1 JUMPDEST PUSH3 0x969 JUMP JUMPDEST DUP3 PUSH1 0xF SIGNEXTEND DUP5 PUSH1 0xF SIGNEXTEND SGT PUSH3 0x966 JUMPI DUP3 PUSH3 0x968 JUMP JUMPDEST DUP4 JUMPDEST JUMPDEST PUSH16 0xFFFFFFFFFFFFFFFFFFFFFFFFFFFFFFFF AND SWAP2 POP POP SWAP3 SWAP2 POP POP JUMP JUMPDEST PUSH1 0x0 DUP1 PUSH20 0xFFFFFFFFFFFFFFFFFFFFFFFFFFFFFFFFFFFFFFFF AND PUSH1 0x2 PUSH1 0x0 DUP5 DUP2 MSTORE PUSH1 0x20 ADD SWAP1 DUP2 MSTORE PUSH1 0x20 ADD PUSH1 0x0 KECCAK256 PUSH1 0x0 SWAP1 SLOAD SWAP1 PUSH2 0x100 EXP SWAP1 DIV PUSH20 0xFFFFFFFFFFFFFFFFFFFFFFFFFFFFFFFFFFFFFFFF AND PUSH20 0xFFFFFFFFFFFFFFFFFFFFFFFFFFFFFFFFFFFFFFFF AND EQ ISZERO SWAP1 POP SWAP2 SWAP1 POP JUMP JUMPDEST POP POP POP JUMP JUMPDEST DUP3 DUP1 SLOAD PUSH3 0xA03 SWAP1 PUSH3 0x113B JUMP JUMPDEST SWAP1 PUSH1 0x0 MSTORE PUSH1 0x20 PUSH1 0x0 KECCAK256 SWAP1 PUSH1 0x1F ADD PUSH1 0x20 SWAP1 DIV DUP2 ADD SWAP3 DUP3 PUSH3 0xA27 JUMPI PUSH1 0x0 DUP6 SSTORE PUSH3 0xA73 JUMP JUMPDEST DUP3 PUSH1 0x1F LT PUSH3 0xA42 JUMPI DUP1 MLOAD PUSH1 0xFF NOT AND DUP4 DUP1 ADD OR DUP6 SSTORE PUSH3 0xA73 JUMP JUMPDEST DUP3 DUP1 ADD PUSH1 0x1 ADD DUP6 SSTORE DUP3 ISZERO PUSH3 0xA73 JUMPI SWAP2 DUP3 ADD JUMPDEST DUP3 DUP2 GT ISZERO PUSH3 0xA72 JUMPI DUP3 MLOAD DUP3 SSTORE SWAP2 PUSH1 0x20 ADD SWAP2 SWAP1 PUSH1 0x1 ADD SWAP1 PUSH3 0xA55 JUMP JUMPDEST JUMPDEST POP SWAP1 POP PUSH3 0xA82 SWAP2 SWAP1 PUSH3 0xA86 JUMP JUMPDEST POP SWAP1 JUMP JUMPDEST JUMPDEST DUP1 DUP3 GT ISZERO PUSH3 0xAA1 JUMPI PUSH1 0x0 DUP2 PUSH1 0x0 SWAP1 SSTORE POP PUSH1 0x1 ADD PUSH3 0xA87 JUMP JUMPDEST POP SWAP1 JUMP JUMPDEST PUSH1 0x0 PUSH3 0xABC PUSH3 0xAB6 DUP5 PUSH3 0xD58 JUMP JUMPDEST PUSH3 0xD2F JUMP JUMPDEST SWAP1 POP DUP1 DUP4 DUP3 MSTORE PUSH1 0x20 DUP3 ADD SWAP1 POP DUP3 PUSH1 0x0 JUMPDEST DUP6 DUP2 LT ISZERO PUSH3 0xB00 JUMPI DUP2 MLOAD DUP6 ADD PUSH3 0xAE5 DUP9 DUP3 PUSH3 0xB93 JUMP JUMPDEST DUP5 MSTORE PUSH1 0x20 DUP5 ADD SWAP4 POP PUSH1 0x20 DUP4 ADD SWAP3 POP POP PUSH1 0x1 DUP2 ADD SWAP1 POP PUSH3 0xACC JUMP JUMPDEST POP POP POP SWAP4 SWAP3 POP POP POP JUMP JUMPDEST PUSH1 0x0 PUSH3 0xB21 PUSH3 0xB1B DUP5 PUSH3 0xD87 JUMP JUMPDEST PUSH3 0xD2F JUMP JUMPDEST SWAP1 POP DUP3 DUP2 MSTORE PUSH1 0x20 DUP2 ADD DUP5 DUP5 DUP5 ADD GT ISZERO PUSH3 0xB3A JUMPI PUSH1 0x0 DUP1 REVERT JUMPDEST PUSH3 0xB47 DUP5 DUP3 DUP6 PUSH3 0x1105 JUMP JUMPDEST POP SWAP4 SWAP3 POP POP POP JUMP JUMPDEST PUSH1 0x0 DUP2 MLOAD SWAP1 POP PUSH3 0xB60 DUP2 PUSH3 0x13A0 JUMP JUMPDEST SWAP3 SWAP2 POP POP JUMP JUMPDEST PUSH1 0x0 DUP3 PUSH1 0x1F DUP4 ADD SLT PUSH3 0xB78 JUMPI PUSH1 0x0 DUP1 REVERT JUMPDEST DUP2 MLOAD PUSH3 0xB8A DUP5 DUP3 PUSH1 0x20 DUP7 ADD PUSH3 0xAA5 JUMP JUMPDEST SWAP2 POP POP SWAP3 SWAP2 POP POP JUMP JUMPDEST PUSH1 0x0 DUP3 PUSH1 0x1F DUP4 ADD SLT PUSH3 0xBA5 JUMPI PUSH1 0x0 DUP1 REVERT JUMPDEST DUP2 MLOAD PUSH3 0xBB7 DUP5 DUP3 PUSH1 0x20 DUP7 ADD PUSH3 0xB0A JUMP JUMPDEST SWAP2 POP POP SWAP3 SWAP2 POP POP JUMP JUMPDEST PUSH1 0x0 DUP2 MLOAD SWAP1 POP PUSH3 0xBD1 DUP2 PUSH3 0x13BA JUMP JUMPDEST SWAP3 SWAP2 POP POP JUMP JUMPDEST PUSH1 0x0 DUP2 MLOAD SWAP1 POP PUSH3 0xBE8 DUP2 PUSH3 0x13D4 JUMP JUMPDEST SWAP3 SWAP2 POP POP JUMP JUMPDEST PUSH1 0x0 DUP1 PUSH1 0x0 DUP1 PUSH1 0x0 DUP1 PUSH1 0xC0 DUP8 DUP10 SUB SLT ISZERO PUSH3 0xC08 JUMPI PUSH1 0x0 DUP1 REVERT JUMPDEST PUSH1 0x0 PUSH3 0xC18 DUP10 DUP3 DUP11 ADD PUSH3 0xB4F JUMP JUMPDEST SWAP7 POP POP PUSH1 0x20 DUP8 ADD MLOAD PUSH8 0xFFFFFFFFFFFFFFFF DUP2 GT ISZERO PUSH3 0xC36 JUMPI PUSH1 0x0 DUP1 REVERT JUMPDEST PUSH3 0xC44 DUP10 DUP3 DUP11 ADD PUSH3 0xB66 JUMP JUMPDEST SWAP6 POP POP PUSH1 0x40 PUSH3 0xC57 DUP10 DUP3 DUP11 ADD PUSH3 0xBC0 JUMP JUMPDEST SWAP5 POP POP PUSH1 0x60 PUSH3 0xC6A DUP10 DUP3 DUP11 ADD PUSH3 0xBD7 JUMP JUMPDEST SWAP4 POP POP PUSH1 0x80 PUSH3 0xC7D DUP10 DUP3 DUP11 ADD PUSH3 0xBD7 JUMP JUMPDEST SWAP3 POP POP PUSH1 0xA0 PUSH3 0xC90 DUP10 DUP3 DUP11 ADD PUSH3 0xBD7 JUMP JUMPDEST SWAP2 POP POP SWAP3 SWAP6 POP SWAP3 SWAP6 POP SWAP3 SWAP6 JUMP JUMPDEST PUSH1 0x0 PUSH3 0xCAC PUSH1 0x1C DUP4 PUSH3 0xDBD JUMP JUMPDEST SWAP2 POP PUSH3 0xCB9 DUP3 PUSH3 0x134E JUMP JUMPDEST PUSH1 0x20 DUP3 ADD SWAP1 POP SWAP2 SWAP1 POP JUMP JUMPDEST PUSH1 0x0 PUSH3 0xCD3 PUSH1 0x20 DUP4 PUSH3 0xDBD JUMP JUMPDEST SWAP2 POP PUSH3 0xCE0 DUP3 PUSH3 0x1377 JUMP JUMPDEST PUSH1 0x20 DUP3 ADD SWAP1 POP SWAP2 SWAP1 POP JUMP JUMPDEST PUSH1 0x0 PUSH1 0x20 DUP3 ADD SWAP1 POP DUP2 DUP2 SUB PUSH1 0x0 DUP4 ADD MSTORE PUSH3 0xD06 DUP2 PUSH3 0xC9D JUMP JUMPDEST SWAP1 POP SWAP2 SWAP1 POP JUMP JUMPDEST PUSH1 0x0 PUSH1 0x20 DUP3 ADD SWAP1 POP DUP2 DUP2 SUB PUSH1 0x0 DUP4 ADD MSTORE PUSH3 0xD28 DUP2 PUSH3 0xCC4 JUMP JUMPDEST SWAP1 POP SWAP2 SWAP1 POP JUMP JUMPDEST PUSH1 0x0 PUSH3 0xD3B PUSH3 0xD4E JUMP JUMPDEST SWAP1 POP PUSH3 0xD49 DUP3 DUP3 PUSH3 0x1171 JUMP JUMPDEST SWAP2 SWAP1 POP JUMP JUMPDEST PUSH1 0x0 PUSH1 0x40 MLOAD SWAP1 POP SWAP1 JUMP JUMPDEST PUSH1 0x0 PUSH8 0xFFFFFFFFFFFFFFFF DUP3 GT ISZERO PUSH3 0xD76 JUMPI PUSH3 0xD75 PUSH3 0x130E JUMP JUMPDEST JUMPDEST PUSH1 0x20 DUP3 MUL SWAP1 POP PUSH1 0x20 DUP2 ADD SWAP1 POP SWAP2 SWAP1 POP JUMP JUMPDEST PUSH1 0x0 PUSH8 0xFFFFFFFFFFFFFFFF DUP3 GT ISZERO PUSH3 0xDA5 JUMPI PUSH3 0xDA4 PUSH3 0x130E JUMP JUMPDEST JUMPDEST PUSH3 0xDB0 DUP3 PUSH3 0x133D JUMP JUMPDEST SWAP1 POP PUSH1 0x20 DUP2 ADD SWAP1 POP SWAP2 SWAP1 POP JUMP JUMPDEST PUSH1 0x0 DUP3 DUP3 MSTORE PUSH1 0x20 DUP3 ADD SWAP1 POP SWAP3 SWAP2 POP POP JUMP JUMPDEST PUSH1 0x0 PUSH3 0xDDB DUP3 PUSH3 0x10BF JUMP JUMPDEST SWAP2 POP PUSH3 0xDE8 DUP4 PUSH3 0x10BF JUMP JUMPDEST SWAP3 POP DUP3 PUSH16 0xFFFFFFFFFFFFFFFFFFFFFFFFFFFFFFFF SUB DUP3 GT ISZERO PUSH3 0xE10 JUMPI PUSH3 0xE0F PUSH3 0x1281 JUMP JUMPDEST JUMPDEST DUP3 DUP3 ADD SWAP1 POP SWAP3 SWAP2 POP POP JUMP JUMPDEST PUSH1 0x0 PUSH3 0xE28 DUP3 PUSH3 0x10FB JUMP JUMPDEST SWAP2 POP PUSH3 0xE35 DUP4 PUSH3 0x10FB JUMP JUMPDEST SWAP3 POP DUP3 PUSH32 0xFFFFFFFFFFFFFFFFFFFFFFFFFFFFFFFFFFFFFFFFFFFFFFFFFFFFFFFFFFFFFFFF SUB DUP3 GT ISZERO PUSH3 0xE6D JUMPI PUSH3 0xE6C PUSH3 0x1281 JUMP JUMPDEST JUMPDEST DUP3 DUP3 ADD SWAP1 POP SWAP3 SWAP2 POP POP JUMP JUMPDEST PUSH1 0x0 PUSH3 0xE85 DUP3 PUSH3 0x10BF JUMP JUMPDEST SWAP2 POP PUSH3 0xE92 DUP4 PUSH3 0x10BF JUMP JUMPDEST SWAP3 POP DUP3 PUSH3 0xEA5 JUMPI PUSH3 0xEA4 PUSH3 0x12B0 JUMP JUMPDEST JUMPDEST DUP3 DUP3 DIV SWAP1 POP SWAP3 SWAP2 POP POP JUMP JUMPDEST PUSH1 0x0 PUSH3 0xEBD DUP3 PUSH3 0x10FB JUMP JUMPDEST SWAP2 POP PUSH3 0xECA DUP4 PUSH3 0x10FB JUMP JUMPDEST SWAP3 POP DUP3 PUSH3 0xEDD JUMPI PUSH3 0xEDC PUSH3 0x12B0 JUMP JUMPDEST JUMPDEST DUP3 DUP3 DIV SWAP1 POP SWAP3 SWAP2 POP POP JUMP JUMPDEST PUSH1 0x0 PUSH3 0xEF5 DUP3 PUSH3 0x10BF JUMP JUMPDEST SWAP2 POP PUSH3 0xF02 DUP4 PUSH3 0x10BF JUMP JUMPDEST SWAP3 POP DUP2 PUSH16 0xFFFFFFFFFFFFFFFFFFFFFFFFFFFFFFFF DIV DUP4 GT DUP3 ISZERO ISZERO AND ISZERO PUSH3 0xF2E JUMPI PUSH3 0xF2D PUSH3 0x1281 JUMP JUMPDEST JUMPDEST DUP3 DUP3 MUL SWAP1 POP SWAP3 SWAP2 POP POP JUMP JUMPDEST PUSH1 0x0 PUSH3 0xF46 DUP3 PUSH3 0x10FB JUMP JUMPDEST SWAP2 POP PUSH3 0xF53 DUP4 PUSH3 0x10FB JUMP JUMPDEST SWAP3 POP DUP2 PUSH32 0xFFFFFFFFFFFFFFFFFFFFFFFFFFFFFFFFFFFFFFFFFFFFFFFFFFFFFFFFFFFFFFFF DIV DUP4 GT DUP3 ISZERO ISZERO AND ISZERO PUSH3 0xF8F JUMPI PUSH3 0xF8E PUSH3 0x1281 JUMP JUMPDEST JUMPDEST DUP3 DUP3 MUL SWAP1 POP SWAP3 SWAP2 POP POP JUMP JUMPDEST PUSH1 0x0 PUSH3 0xFA7 DUP3 PUSH3 0x10B2 JUMP JUMPDEST SWAP2 POP PUSH3 0xFB4 DUP4 PUSH3 0x10B2 JUMP JUMPDEST SWAP3 POP DUP3 PUSH32 0xFFFFFFFFFFFFFFFFFFFFFFFFFFFFFFFF80000000000000000000000000000000 ADD DUP3 SLT PUSH1 0x0 DUP5 SLT ISZERO AND ISZERO PUSH3 0xFF2 JUMPI PUSH3 0xFF1 PUSH3 0x1281 JUMP JUMPDEST JUMPDEST DUP3 PUSH16 0x7FFFFFFFFFFFFFFFFFFFFFFFFFFFFFFF ADD DUP3 SGT PUSH1 0x0 DUP5 SLT AND ISZERO PUSH3 0x101D JUMPI PUSH3 0x101C PUSH3 0x1281 JUMP JUMPDEST JUMPDEST DUP3 DUP3 SUB SWAP1 POP SWAP3 SWAP2 POP POP JUMP JUMPDEST PUSH1 0x0 PUSH3 0x1035 DUP3 PUSH3 0x10BF JUMP JUMPDEST SWAP2 POP PUSH3 0x1042 DUP4 PUSH3 0x10BF JUMP JUMPDEST SWAP3 POP DUP3 DUP3 LT ISZERO PUSH3 0x1058 JUMPI PUSH3 0x1057 PUSH3 0x1281 JUMP JUMPDEST JUMPDEST DUP3 DUP3 SUB SWAP1 POP SWAP3 SWAP2 POP POP JUMP JUMPDEST PUSH1 0x0 PUSH3 0x1070 DUP3 PUSH3 0x10FB JUMP JUMPDEST SWAP2 POP PUSH3 0x107D DUP4 PUSH3 0x10FB JUMP JUMPDEST SWAP3 POP DUP3 DUP3 LT ISZERO PUSH3 0x1093 JUMPI PUSH3 0x1092 PUSH3 0x1281 JUMP JUMPDEST JUMPDEST DUP3 DUP3 SUB SWAP1 POP SWAP3 SWAP2 POP POP JUMP JUMPDEST PUSH1 0x0 PUSH3 0x10AB DUP3 PUSH3 0x10DB JUMP JUMPDEST SWAP1 POP SWAP2 SWAP1 POP JUMP JUMPDEST PUSH1 0x0 DUP2 PUSH1 0xF SIGNEXTEND SWAP1 POP SWAP2 SWAP1 POP JUMP JUMPDEST PUSH1 0x0 PUSH16 0xFFFFFFFFFFFFFFFFFFFFFFFFFFFFFFFF DUP3 AND SWAP1 POP SWAP2 SWAP1 POP JUMP JUMPDEST PUSH1 0x0 PUSH20 0xFFFFFFFFFFFFFFFFFFFFFFFFFFFFFFFFFFFFFFFF DUP3 AND SWAP1 POP SWAP2 SWAP1 POP JUMP JUMPDEST PUSH1 0x0 DUP2 SWAP1 POP SWAP2 SWAP1 POP JUMP JUMPDEST PUSH1 0x0 JUMPDEST DUP4 DUP2 LT ISZERO PUSH3 0x1125 JUMPI DUP1 DUP3 ADD MLOAD DUP2 DUP5 ADD MSTORE PUSH1 0x20 DUP2 ADD SWAP1 POP PUSH3 0x1108 JUMP JUMPDEST DUP4 DUP2 GT ISZERO PUSH3 0x1135 JUMPI PUSH1 0x0 DUP5 DUP5 ADD MSTORE JUMPDEST POP POP POP POP JUMP JUMPDEST PUSH1 0x0 PUSH1 0x2 DUP3 DIV SWAP1 POP PUSH1 0x1 DUP3 AND DUP1 PUSH3 0x1154 JUMPI PUSH1 0x7F DUP3 AND SWAP2 POP JUMPDEST PUSH1 0x20 DUP3 LT DUP2 EQ ISZERO PUSH3 0x116B JUMPI PUSH3 0x116A PUSH3 0x12DF JUMP JUMPDEST JUMPDEST POP SWAP2 SWAP1 POP JUMP JUMPDEST PUSH3 0x117C DUP3 PUSH3 0x133D JUMP JUMPDEST DUP2 ADD DUP2 DUP2 LT PUSH8 0xFFFFFFFFFFFFFFFF DUP3 GT OR ISZERO PUSH3 0x119E JUMPI PUSH3 0x119D PUSH3 0x130E JUMP JUMPDEST JUMPDEST DUP1 PUSH1 0x40 MSTORE POP POP POP JUMP JUMPDEST PUSH1 0x0 PUSH3 0x11B4 DUP3 PUSH3 0x10B2 JUMP JUMPDEST SWAP2 POP PUSH16 0x7FFFFFFFFFFFFFFFFFFFFFFFFFFFFFFF DUP3 EQ ISZERO PUSH3 0x11DA JUMPI PUSH3 0x11D9 PUSH3 0x1281 JUMP JUMPDEST JUMPDEST PUSH1 0x1 DUP3 ADD SWAP1 POP SWAP2 SWAP1 POP JUMP JUMPDEST PUSH1 0x0 PUSH3 0x11F2 DUP3 PUSH3 0x10FB JUMP JUMPDEST SWAP2 POP PUSH32 0xFFFFFFFFFFFFFFFFFFFFFFFFFFFFFFFFFFFFFFFFFFFFFFFFFFFFFFFFFFFFFFFF DUP3 EQ ISZERO PUSH3 0x1228 JUMPI PUSH3 0x1227 PUSH3 0x1281 JUMP JUMPDEST JUMPDEST PUSH1 0x1 DUP3 ADD SWAP1 POP SWAP2 SWAP1 POP JUMP JUMPDEST PUSH1 0x0 PUSH3 0x1240 DUP3 PUSH3 0x10B2 JUMP JUMPDEST SWAP2 POP PUSH32 0xFFFFFFFFFFFFFFFFFFFFFFFFFFFFFFFF80000000000000000000000000000000 DUP3 EQ ISZERO PUSH3 0x1276 JUMPI PUSH3 0x1275 PUSH3 0x1281 JUMP JUMPDEST JUMPDEST DUP2 PUSH1 0x0 SUB SWAP1 POP SWAP2 SWAP1 POP JUMP JUMPDEST PUSH32 0x4E487B7100000000000000000000000000000000000000000000000000000000 PUSH1 0x0 MSTORE PUSH1 0x11 PUSH1 0x4 MSTORE PUSH1 0x24 PUSH1 0x0 REVERT JUMPDEST PUSH32 0x4E487B7100000000000000000000000000000000000000000000000000000000 PUSH1 0x0 MSTORE PUSH1 0x12 PUSH1 0x4 MSTORE PUSH1 0x24 PUSH1 0x0 REVERT JUMPDEST PUSH32 0x4E487B7100000000000000000000000000000000000000000000000000000000 PUSH1 0x0 MSTORE PUSH1 0x22 PUSH1 0x4 MSTORE PUSH1 0x24 PUSH1 0x0 REVERT JUMPDEST PUSH32 0x4E487B7100000000000000000000000000000000000000000000000000000000 PUSH1 0x0 MSTORE PUSH1 0x41 PUSH1 0x4 MSTORE PUSH1 0x24 PUSH1 0x0 REVERT JUMPDEST PUSH1 0x0 PUSH1 0x1F NOT PUSH1 0x1F DUP4 ADD AND SWAP1 POP SWAP2 SWAP1 POP JUMP JUMPDEST PUSH32 0x4552433732313A20746F6B656E20616C7265616479206D696E74656400000000 PUSH1 0x0 DUP3 ADD MSTORE POP JUMP JUMPDEST PUSH32 0x4552433732313A206D696E7420746F20746865207A65726F2061646472657373 PUSH1 0x0 DUP3 ADD MSTORE POP JUMP JUMPDEST PUSH3 0x13AB DUP2 PUSH3 0x109E JUMP JUMPDEST DUP2 EQ PUSH3 0x13B7 JUMPI PUSH1 0x0 DUP1 REVERT JUMPDEST POP JUMP JUMPDEST PUSH3 0x13C5 DUP2 PUSH3 0x10BF JUMP JUMPDEST DUP2 EQ PUSH3 0x13D1 JUMPI PUSH1 0x0 DUP1 REVERT JUMPDEST POP JUMP JUMPDEST PUSH3 0x13DF DUP2 PUSH3 0x10FB JUMP JUMPDEST DUP2 EQ PUSH3 0x13EB JUMPI PUSH1 0x0 DUP1 REVERT JUMPDEST POP JUMP JUMPDEST PUSH2 0x749E DUP1 PUSH3 0x13FE PUSH1 0x0 CODECOPY PUSH1 0x0 RETURN INVALID PUSH1 0x80 PUSH1 0x40 MSTORE PUSH1 0x4 CALLDATASIZE LT PUSH2 0x350 JUMPI PUSH1 0x0 CALLDATALOAD PUSH1 0xE0 SHR DUP1 PUSH4 0x857ABBD4 GT PUSH2 0x1C6 JUMPI DUP1 PUSH4 0xB994D278 GT PUSH2 0xF7 JUMPI DUP1 PUSH4 0xE985E9C5 GT PUSH2 0x95 JUMPI DUP1 PUSH4 0xF2FDE38B GT PUSH2 0x6F JUMPI DUP1 PUSH4 0xF2FDE38B EQ PUSH2 0xD78 JUMPI DUP1 PUSH4 0xF3E414F8 EQ PUSH2 0xDA1 JUMPI DUP1 PUSH4 0xF92C45B7 EQ PUSH2 0xDCA JUMPI DUP1 PUSH4 0xFCDE2638 EQ PUSH2 0xDF5 JUMPI PUSH2 0x350 JUMP JUMPDEST DUP1 PUSH4 0xE985E9C5 EQ PUSH2 0xCD3 JUMPI DUP1 PUSH4 0xEB5671D8 EQ PUSH2 0xD10 JUMPI DUP1 PUSH4 0xEE36D4AB EQ PUSH2 0xD3B JUMPI PUSH2 0x350 JUMP JUMPDEST DUP1 PUSH4 0xCCE95E56 GT PUSH2 0xD1 JUMPI DUP1 PUSH4 0xCCE95E56 EQ PUSH2 0xC03 JUMPI DUP1 PUSH4 0xD19893CF EQ PUSH2 0xC40 JUMPI DUP1 PUSH4 0xD64B2F62 EQ PUSH2 0xC6B JUMPI DUP1 PUSH4 0xE38C2660 EQ PUSH2 0xC96 JUMPI PUSH2 0x350 JUMP JUMPDEST DUP1 PUSH4 0xB994D278 EQ PUSH2 0xB5E JUMPI DUP1 PUSH4 0xC13159BC EQ PUSH2 0xB89 JUMPI DUP1 PUSH4 0xC87B56DD EQ PUSH2 0xBC6 JUMPI PUSH2 0x350 JUMP JUMPDEST DUP1 PUSH4 0x9E65B01A GT PUSH2 0x164 JUMPI DUP1 PUSH4 0xA4406BCD GT PUSH2 0x13E JUMPI DUP1 PUSH4 0xA4406BCD EQ PUSH2 0xA9F JUMPI DUP1 PUSH4 0xA547D2E1 EQ PUSH2 0xADC JUMPI DUP1 PUSH4 0xAAAFBD00 EQ PUSH2 0xB19 JUMPI DUP1 PUSH4 0xB88D4FDE EQ PUSH2 0xB35 JUMPI PUSH2 0x350 JUMP JUMPDEST DUP1 PUSH4 0x9E65B01A EQ PUSH2 0xA0E JUMPI DUP1 PUSH4 0xA1DB9782 EQ PUSH2 0xA39 JUMPI DUP1 PUSH4 0xA22CB465 EQ PUSH2 0xA76 JUMPI PUSH2 0x350 JUMP JUMPDEST DUP1 PUSH4 0x8C7939C2 GT PUSH2 0x1A0 JUMPI DUP1 PUSH4 0x8C7939C2 EQ PUSH2 0x952 JUMPI DUP1 PUSH4 0x8DA5CB5B EQ PUSH2 0x98F JUMPI DUP1 PUSH4 0x95D89B41 EQ PUSH2 0x9BA JUMPI DUP1 PUSH4 0x9645337A EQ PUSH2 0x9E5 JUMPI PUSH2 0x350 JUMP JUMPDEST DUP1 PUSH4 0x857ABBD4 EQ PUSH2 0x899 JUMPI DUP1 PUSH4 0x881D43D5 EQ PUSH2 0x8D6 JUMPI DUP1 PUSH4 0x89525D7E EQ PUSH2 0x914 JUMPI PUSH2 0x350 JUMP JUMPDEST DUP1 PUSH4 0x3C3A0C7B GT PUSH2 0x2A0 JUMPI DUP1 PUSH4 0x65595153 GT PUSH2 0x23E JUMPI DUP1 PUSH4 0x715018A6 GT PUSH2 0x218 JUMPI DUP1 PUSH4 0x715018A6 EQ PUSH2 0x7DD JUMPI DUP1 PUSH4 0x7A35110F EQ PUSH2 0x7F4 JUMPI DUP1 PUSH4 0x7B993679 EQ PUSH2 0x831 JUMPI DUP1 PUSH4 0x853828B6 EQ PUSH2 0x86E JUMPI PUSH2 0x350 JUMP JUMPDEST DUP1 PUSH4 0x65595153 EQ PUSH2 0x73A JUMPI DUP1 PUSH4 0x657D128A EQ PUSH2 0x763 JUMPI DUP1 PUSH4 0x70A08231 EQ PUSH2 0x7A0 JUMPI PUSH2 0x350 JUMP JUMPDEST DUP1 PUSH4 0x44CA1495 GT PUSH2 0x27A JUMPI DUP1 PUSH4 0x44CA1495 EQ PUSH2 0x667 JUMPI DUP1 PUSH4 0x4789DD64 EQ PUSH2 0x683 JUMPI DUP1 PUSH4 0x6352211E EQ PUSH2 0x6C0 JUMPI DUP1 PUSH4 0x638F1D2A EQ PUSH2 0x6FD JUMPI PUSH2 0x350 JUMP JUMPDEST DUP1 PUSH4 0x3C3A0C7B EQ PUSH2 0x5EA JUMPI DUP1 PUSH4 0x427A3BD3 EQ PUSH2 0x613 JUMPI DUP1 PUSH4 0x42842E0E EQ PUSH2 0x63E JUMPI PUSH2 0x350 JUMP JUMPDEST DUP1 PUSH4 0x1F066933 GT PUSH2 0x30D JUMPI DUP1 PUSH4 0x3050AD20 GT PUSH2 0x2E7 JUMPI DUP1 PUSH4 0x3050AD20 EQ PUSH2 0x52E JUMPI DUP1 PUSH4 0x33DF66DA EQ PUSH2 0x557 JUMPI DUP1 PUSH4 0x3536E614 EQ PUSH2 0x582 JUMPI DUP1 PUSH4 0x382C2A22 EQ PUSH2 0x5AD JUMPI PUSH2 0x350 JUMP JUMPDEST DUP1 PUSH4 0x1F066933 EQ PUSH2 0x48B JUMPI DUP1 PUSH4 0x23B872DD EQ PUSH2 0x4C8 JUMPI DUP1 PUSH4 0x2E1A7D4D EQ PUSH2 0x4F1 JUMPI PUSH2 0x350 JUMP JUMPDEST DUP1 PUSH4 0x1FFC9A7 EQ PUSH2 0x355 JUMPI DUP1 PUSH4 0x6FDDE03 EQ PUSH2 0x392 JUMPI DUP1 PUSH4 0x81812FC EQ PUSH2 0x3BD JUMPI DUP1 PUSH4 0x95EA7B3 EQ PUSH2 0x3FA JUMPI DUP1 PUSH4 0xB6889C7 EQ PUSH2 0x423 JUMPI DUP1 PUSH4 0x150B7A02 EQ PUSH2 0x44E JUMPI JUMPDEST PUSH1 0x0 DUP1 REVERT JUMPDEST CALLVALUE DUP1 ISZERO PUSH2 0x361 JUMPI PUSH1 0x0 DUP1 REVERT JUMPDEST POP PUSH2 0x37C PUSH1 0x4 DUP1 CALLDATASIZE SUB DUP2 ADD SWAP1 PUSH2 0x377 SWAP2 SWAP1 PUSH2 0x5973 JUMP JUMPDEST PUSH2 0xE32 JUMP JUMPDEST PUSH1 0x40 MLOAD PUSH2 0x389 SWAP2 SWAP1 PUSH2 0x6274 JUMP JUMPDEST PUSH1 0x40 MLOAD DUP1 SWAP2 SUB SWAP1 RETURN JUMPDEST CALLVALUE DUP1 ISZERO PUSH2 0x39E JUMPI PUSH1 0x0 DUP1 REVERT JUMPDEST POP PUSH2 0x3A7 PUSH2 0xF14 JUMP JUMPDEST PUSH1 0x40 MLOAD PUSH2 0x3B4 SWAP2 SWAP1 PUSH2 0x62D3 JUMP JUMPDEST PUSH1 0x40 MLOAD DUP1 SWAP2 SUB SWAP1 RETURN JUMPDEST CALLVALUE DUP1 ISZERO PUSH2 0x3C9 JUMPI PUSH1 0x0 DUP1 REVERT JUMPDEST POP PUSH2 0x3E4 PUSH1 0x4 DUP1 CALLDATASIZE SUB DUP2 ADD SWAP1 PUSH2 0x3DF SWAP2 SWAP1 PUSH2 0x5A66 JUMP JUMPDEST PUSH2 0xFA6 JUMP JUMPDEST PUSH1 0x40 MLOAD PUSH2 0x3F1 SWAP2 SWAP1 PUSH2 0x611E JUMP JUMPDEST PUSH1 0x40 MLOAD DUP1 SWAP2 SUB SWAP1 RETURN JUMPDEST CALLVALUE DUP1 ISZERO PUSH2 0x406 JUMPI PUSH1 0x0 DUP1 REVERT JUMPDEST POP PUSH2 0x421 PUSH1 0x4 DUP1 CALLDATASIZE SUB DUP2 ADD SWAP1 PUSH2 0x41C SWAP2 SWAP1 PUSH2 0x58CD JUMP JUMPDEST PUSH2 0x102B JUMP JUMPDEST STOP JUMPDEST CALLVALUE DUP1 ISZERO PUSH2 0x42F JUMPI PUSH1 0x0 DUP1 REVERT JUMPDEST POP PUSH2 0x438 PUSH2 0x1143 JUMP JUMPDEST PUSH1 0x40 MLOAD PUSH2 0x445 SWAP2 SWAP1 PUSH2 0x6535 JUMP JUMPDEST PUSH1 0x40 MLOAD DUP1 SWAP2 SUB SWAP1 RETURN JUMPDEST CALLVALUE DUP1 ISZERO PUSH2 0x45A JUMPI PUSH1 0x0 DUP1 REVERT JUMPDEST POP PUSH2 0x475 PUSH1 0x4 DUP1 CALLDATASIZE SUB DUP2 ADD SWAP1 PUSH2 0x470 SWAP2 SWAP1 PUSH2 0x5796 JUMP JUMPDEST PUSH2 0x1182 JUMP JUMPDEST PUSH1 0x40 MLOAD PUSH2 0x482 SWAP2 SWAP1 PUSH2 0x628F JUMP JUMPDEST PUSH1 0x40 MLOAD DUP1 SWAP2 SUB SWAP1 RETURN JUMPDEST CALLVALUE DUP1 ISZERO PUSH2 0x497 JUMPI PUSH1 0x0 DUP1 REVERT JUMPDEST POP PUSH2 0x4B2 PUSH1 0x4 DUP1 CALLDATASIZE SUB DUP2 ADD SWAP1 PUSH2 0x4AD SWAP2 SWAP1 PUSH2 0x56E2 JUMP JUMPDEST PUSH2 0x1197 JUMP JUMPDEST PUSH1 0x40 MLOAD PUSH2 0x4BF SWAP2 SWAP1 PUSH2 0x6535 JUMP JUMPDEST PUSH1 0x40 MLOAD DUP1 SWAP2 SUB SWAP1 RETURN JUMPDEST CALLVALUE DUP1 ISZERO PUSH2 0x4D4 JUMPI PUSH1 0x0 DUP1 REVERT JUMPDEST POP PUSH2 0x4EF PUSH1 0x4 DUP1 CALLDATASIZE SUB DUP2 ADD SWAP1 PUSH2 0x4EA SWAP2 SWAP1 PUSH2 0x5747 JUMP JUMPDEST PUSH2 0x11AF JUMP JUMPDEST STOP JUMPDEST CALLVALUE DUP1 ISZERO PUSH2 0x4FD JUMPI PUSH1 0x0 DUP1 REVERT JUMPDEST POP PUSH2 0x518 PUSH1 0x4 DUP1 CALLDATASIZE SUB DUP2 ADD SWAP1 PUSH2 0x513 SWAP2 SWAP1 PUSH2 0x5A66 JUMP JUMPDEST PUSH2 0x120F JUMP JUMPDEST PUSH1 0x40 MLOAD PUSH2 0x525 SWAP2 SWAP1 PUSH2 0x6535 JUMP JUMPDEST PUSH1 0x40 MLOAD DUP1 SWAP2 SUB SWAP1 RETURN JUMPDEST CALLVALUE DUP1 ISZERO PUSH2 0x53A JUMPI PUSH1 0x0 DUP1 REVERT JUMPDEST POP PUSH2 0x555 PUSH1 0x4 DUP1 CALLDATASIZE SUB DUP2 ADD SWAP1 PUSH2 0x550 SWAP2 SWAP1 PUSH2 0x5909 JUMP JUMPDEST PUSH2 0x129D JUMP JUMPDEST STOP JUMPDEST CALLVALUE DUP1 ISZERO PUSH2 0x563 JUMPI PUSH1 0x0 DUP1 REVERT JUMPDEST POP PUSH2 0x56C PUSH2 0x1448 JUMP JUMPDEST PUSH1 0x40 MLOAD PUSH2 0x579 SWAP2 SWAP1 PUSH2 0x620E JUMP JUMPDEST PUSH1 0x40 MLOAD DUP1 SWAP2 SUB SWAP1 RETURN JUMPDEST CALLVALUE DUP1 ISZERO PUSH2 0x58E JUMPI PUSH1 0x0 DUP1 REVERT JUMPDEST POP PUSH2 0x597 PUSH2 0x155C JUMP JUMPDEST PUSH1 0x40 MLOAD PUSH2 0x5A4 SWAP2 SWAP1 PUSH2 0x6535 JUMP JUMPDEST PUSH1 0x40 MLOAD DUP1 SWAP2 SUB SWAP1 RETURN JUMPDEST CALLVALUE DUP1 ISZERO PUSH2 0x5B9 JUMPI PUSH1 0x0 DUP1 REVERT JUMPDEST POP PUSH2 0x5D4 PUSH1 0x4 DUP1 CALLDATASIZE SUB DUP2 ADD SWAP1 PUSH2 0x5CF SWAP2 SWAP1 PUSH2 0x56E2 JUMP JUMPDEST PUSH2 0x1562 JUMP JUMPDEST PUSH1 0x40 MLOAD PUSH2 0x5E1 SWAP2 SWAP1 PUSH2 0x6252 JUMP JUMPDEST PUSH1 0x40 MLOAD DUP1 SWAP2 SUB SWAP1 RETURN JUMPDEST CALLVALUE DUP1 ISZERO PUSH2 0x5F6 JUMPI PUSH1 0x0 DUP1 REVERT JUMPDEST POP PUSH2 0x611 PUSH1 0x4 DUP1 CALLDATASIZE SUB DUP2 ADD SWAP1 PUSH2 0x60C SWAP2 SWAP1 PUSH2 0x5A66 JUMP JUMPDEST PUSH2 0x186F JUMP JUMPDEST STOP JUMPDEST CALLVALUE DUP1 ISZERO PUSH2 0x61F JUMPI PUSH1 0x0 DUP1 REVERT JUMPDEST POP PUSH2 0x628 PUSH2 0x1AC3 JUMP JUMPDEST PUSH1 0x40 MLOAD PUSH2 0x635 SWAP2 SWAP1 PUSH2 0x6252 JUMP JUMPDEST PUSH1 0x40 MLOAD DUP1 SWAP2 SUB SWAP1 RETURN JUMPDEST CALLVALUE DUP1 ISZERO PUSH2 0x64A JUMPI PUSH1 0x0 DUP1 REVERT JUMPDEST POP PUSH2 0x665 PUSH1 0x4 DUP1 CALLDATASIZE SUB DUP2 ADD SWAP1 PUSH2 0x660 SWAP2 SWAP1 PUSH2 0x5747 JUMP JUMPDEST PUSH2 0x1D85 JUMP JUMPDEST STOP JUMPDEST PUSH2 0x681 PUSH1 0x4 DUP1 CALLDATASIZE SUB DUP2 ADD SWAP1 PUSH2 0x67C SWAP2 SWAP1 PUSH2 0x5AB8 JUMP JUMPDEST PUSH2 0x1DA5 JUMP JUMPDEST STOP JUMPDEST CALLVALUE DUP1 ISZERO PUSH2 0x68F JUMPI PUSH1 0x0 DUP1 REVERT JUMPDEST POP PUSH2 0x6AA PUSH1 0x4 DUP1 CALLDATASIZE SUB DUP2 ADD SWAP1 PUSH2 0x6A5 SWAP2 SWAP1 PUSH2 0x59EE JUMP JUMPDEST PUSH2 0x1DB3 JUMP JUMPDEST PUSH1 0x40 MLOAD PUSH2 0x6B7 SWAP2 SWAP1 PUSH2 0x6274 JUMP JUMPDEST PUSH1 0x40 MLOAD DUP1 SWAP2 SUB SWAP1 RETURN JUMPDEST CALLVALUE DUP1 ISZERO PUSH2 0x6CC JUMPI PUSH1 0x0 DUP1 REVERT JUMPDEST POP PUSH2 0x6E7 PUSH1 0x4 DUP1 CALLDATASIZE SUB DUP2 ADD SWAP1 PUSH2 0x6E2 SWAP2 SWAP1 PUSH2 0x5A66 JUMP JUMPDEST PUSH2 0x1E5F JUMP JUMPDEST PUSH1 0x40 MLOAD PUSH2 0x6F4 SWAP2 SWAP1 PUSH2 0x611E JUMP JUMPDEST PUSH1 0x40 MLOAD DUP1 SWAP2 SUB SWAP1 RETURN JUMPDEST CALLVALUE DUP1 ISZERO PUSH2 0x709 JUMPI PUSH1 0x0 DUP1 REVERT JUMPDEST POP PUSH2 0x724 PUSH1 0x4 DUP1 CALLDATASIZE SUB DUP2 ADD SWAP1 PUSH2 0x71F SWAP2 SWAP1 PUSH2 0x5A66 JUMP JUMPDEST PUSH2 0x1F11 JUMP JUMPDEST PUSH1 0x40 MLOAD PUSH2 0x731 SWAP2 SWAP1 PUSH2 0x6535 JUMP JUMPDEST PUSH1 0x40 MLOAD DUP1 SWAP2 SUB SWAP1 RETURN JUMPDEST CALLVALUE DUP1 ISZERO PUSH2 0x746 JUMPI PUSH1 0x0 DUP1 REVERT JUMPDEST POP PUSH2 0x761 PUSH1 0x4 DUP1 CALLDATASIZE SUB DUP2 ADD SWAP1 PUSH2 0x75C SWAP2 SWAP1 PUSH2 0x5B30 JUMP JUMPDEST PUSH2 0x1F36 JUMP JUMPDEST STOP JUMPDEST CALLVALUE DUP1 ISZERO PUSH2 0x76F JUMPI PUSH1 0x0 DUP1 REVERT JUMPDEST POP PUSH2 0x78A PUSH1 0x4 DUP1 CALLDATASIZE SUB DUP2 ADD SWAP1 PUSH2 0x785 SWAP2 SWAP1 PUSH2 0x5A2A JUMP JUMPDEST PUSH2 0x1FAE JUMP JUMPDEST PUSH1 0x40 MLOAD PUSH2 0x797 SWAP2 SWAP1 PUSH2 0x6535 JUMP JUMPDEST PUSH1 0x40 MLOAD DUP1 SWAP2 SUB SWAP1 RETURN JUMPDEST CALLVALUE DUP1 ISZERO PUSH2 0x7AC JUMPI PUSH1 0x0 DUP1 REVERT JUMPDEST POP PUSH2 0x7C7 PUSH1 0x4 DUP1 CALLDATASIZE SUB DUP2 ADD SWAP1 PUSH2 0x7C2 SWAP2 SWAP1 PUSH2 0x56E2 JUMP JUMPDEST PUSH2 0x207A JUMP JUMPDEST PUSH1 0x40 MLOAD PUSH2 0x7D4 SWAP2 SWAP1 PUSH2 0x6535 JUMP JUMPDEST PUSH1 0x40 MLOAD DUP1 SWAP2 SUB SWAP1 RETURN JUMPDEST CALLVALUE DUP1 ISZERO PUSH2 0x7E9 JUMPI PUSH1 0x0 DUP1 REVERT JUMPDEST POP PUSH2 0x7F2 PUSH2 0x2132 JUMP JUMPDEST STOP JUMPDEST CALLVALUE DUP1 ISZERO PUSH2 0x800 JUMPI PUSH1 0x0 DUP1 REVERT JUMPDEST POP PUSH2 0x81B PUSH1 0x4 DUP1 CALLDATASIZE SUB DUP2 ADD SWAP1 PUSH2 0x816 SWAP2 SWAP1 PUSH2 0x5AF4 JUMP JUMPDEST PUSH2 0x226F JUMP JUMPDEST PUSH1 0x40 MLOAD PUSH2 0x828 SWAP2 SWAP1 PUSH2 0x6252 JUMP JUMPDEST PUSH1 0x40 MLOAD DUP1 SWAP2 SUB SWAP1 RETURN JUMPDEST CALLVALUE DUP1 ISZERO PUSH2 0x83D JUMPI PUSH1 0x0 DUP1 REVERT JUMPDEST POP PUSH2 0x858 PUSH1 0x4 DUP1 CALLDATASIZE SUB DUP2 ADD SWAP1 PUSH2 0x853 SWAP2 SWAP1 PUSH2 0x5A66 JUMP JUMPDEST PUSH2 0x2283 JUMP JUMPDEST PUSH1 0x40 MLOAD PUSH2 0x865 SWAP2 SWAP1 PUSH2 0x62D3 JUMP JUMPDEST PUSH1 0x40 MLOAD DUP1 SWAP2 SUB SWAP1 RETURN JUMPDEST CALLVALUE DUP1 ISZERO PUSH2 0x87A JUMPI PUSH1 0x0 DUP1 REVERT JUMPDEST POP PUSH2 0x883 PUSH2 0x2329 JUMP JUMPDEST PUSH1 0x40 MLOAD PUSH2 0x890 SWAP2 SWAP1 PUSH2 0x6535 JUMP JUMPDEST PUSH1 0x40 MLOAD DUP1 SWAP2 SUB SWAP1 RETURN JUMPDEST CALLVALUE DUP1 ISZERO PUSH2 0x8A5 JUMPI PUSH1 0x0 DUP1 REVERT JUMPDEST POP PUSH2 0x8C0 PUSH1 0x4 DUP1 CALLDATASIZE SUB DUP2 ADD SWAP1 PUSH2 0x8BB SWAP2 SWAP1 PUSH2 0x56E2 JUMP JUMPDEST PUSH2 0x24C3 JUMP JUMPDEST PUSH1 0x40 MLOAD PUSH2 0x8CD SWAP2 SWAP1 PUSH2 0x6535 JUMP JUMPDEST PUSH1 0x40 MLOAD DUP1 SWAP2 SUB SWAP1 RETURN JUMPDEST CALLVALUE DUP1 ISZERO PUSH2 0x8E2 JUMPI PUSH1 0x0 DUP1 REVERT JUMPDEST POP PUSH2 0x8FD PUSH1 0x4 DUP1 CALLDATASIZE SUB DUP2 ADD SWAP1 PUSH2 0x8F8 SWAP2 SWAP1 PUSH2 0x5A66 JUMP JUMPDEST PUSH2 0x266B JUMP JUMPDEST PUSH1 0x40 MLOAD PUSH2 0x90B SWAP3 SWAP2 SWAP1 PUSH2 0x62AA JUMP JUMPDEST PUSH1 0x40 MLOAD DUP1 SWAP2 SUB SWAP1 RETURN JUMPDEST CALLVALUE DUP1 ISZERO PUSH2 0x920 JUMPI PUSH1 0x0 DUP1 REVERT JUMPDEST POP PUSH2 0x93B PUSH1 0x4 DUP1 CALLDATASIZE SUB DUP2 ADD SWAP1 PUSH2 0x936 SWAP2 SWAP1 PUSH2 0x5A66 JUMP JUMPDEST PUSH2 0x267D JUMP JUMPDEST PUSH1 0x40 MLOAD PUSH2 0x949 SWAP3 SWAP2 SWAP1 PUSH2 0x6550 JUMP JUMPDEST PUSH1 0x40 MLOAD DUP1 SWAP2 SUB SWAP1 RETURN JUMPDEST CALLVALUE DUP1 ISZERO PUSH2 0x95E JUMPI PUSH1 0x0 DUP1 REVERT JUMPDEST POP PUSH2 0x979 PUSH1 0x4 DUP1 CALLDATASIZE SUB DUP2 ADD SWAP1 PUSH2 0x974 SWAP2 SWAP1 PUSH2 0x5A66 JUMP JUMPDEST PUSH2 0x2732 JUMP JUMPDEST PUSH1 0x40 MLOAD PUSH2 0x986 SWAP2 SWAP1 PUSH2 0x611E JUMP JUMPDEST PUSH1 0x40 MLOAD DUP1 SWAP2 SUB SWAP1 RETURN JUMPDEST CALLVALUE DUP1 ISZERO PUSH2 0x99B JUMPI PUSH1 0x0 DUP1 REVERT JUMPDEST POP PUSH2 0x9A4 PUSH2 0x2771 JUMP JUMPDEST PUSH1 0x40 MLOAD PUSH2 0x9B1 SWAP2 SWAP1 PUSH2 0x611E JUMP JUMPDEST PUSH1 0x40 MLOAD DUP1 SWAP2 SUB SWAP1 RETURN JUMPDEST CALLVALUE DUP1 ISZERO PUSH2 0x9C6 JUMPI PUSH1 0x0 DUP1 REVERT JUMPDEST POP PUSH2 0x9CF PUSH2 0x279B JUMP JUMPDEST PUSH1 0x40 MLOAD PUSH2 0x9DC SWAP2 SWAP1 PUSH2 0x62D3 JUMP JUMPDEST PUSH1 0x40 MLOAD DUP1 SWAP2 SUB SWAP1 RETURN JUMPDEST CALLVALUE DUP1 ISZERO PUSH2 0x9F1 JUMPI PUSH1 0x0 DUP1 REVERT JUMPDEST POP PUSH2 0xA0C PUSH1 0x4 DUP1 CALLDATASIZE SUB DUP2 ADD SWAP1 PUSH2 0xA07 SWAP2 SWAP1 PUSH2 0x5A66 JUMP JUMPDEST PUSH2 0x282D JUMP JUMPDEST STOP JUMPDEST CALLVALUE DUP1 ISZERO PUSH2 0xA1A JUMPI PUSH1 0x0 DUP1 REVERT JUMPDEST POP PUSH2 0xA23 PUSH2 0x28B0 JUMP JUMPDEST PUSH1 0x40 MLOAD PUSH2 0xA30 SWAP2 SWAP1 PUSH2 0x6535 JUMP JUMPDEST PUSH1 0x40 MLOAD DUP1 SWAP2 SUB SWAP1 RETURN JUMPDEST CALLVALUE DUP1 ISZERO PUSH2 0xA45 JUMPI PUSH1 0x0 DUP1 REVERT JUMPDEST POP PUSH2 0xA60 PUSH1 0x4 DUP1 CALLDATASIZE SUB DUP2 ADD SWAP1 PUSH2 0xA5B SWAP2 SWAP1 PUSH2 0x58CD JUMP JUMPDEST PUSH2 0x28B6 JUMP JUMPDEST PUSH1 0x40 MLOAD PUSH2 0xA6D SWAP2 SWAP1 PUSH2 0x6535 JUMP JUMPDEST PUSH1 0x40 MLOAD DUP1 SWAP2 SUB SWAP1 RETURN JUMPDEST CALLVALUE DUP1 ISZERO PUSH2 0xA82 JUMPI PUSH1 0x0 DUP1 REVERT JUMPDEST POP PUSH2 0xA9D PUSH1 0x4 DUP1 CALLDATASIZE SUB DUP2 ADD SWAP1 PUSH2 0xA98 SWAP2 SWAP1 PUSH2 0x5891 JUMP JUMPDEST PUSH2 0x2946 JUMP JUMPDEST STOP JUMPDEST CALLVALUE DUP1 ISZERO PUSH2 0xAAB JUMPI PUSH1 0x0 DUP1 REVERT JUMPDEST POP PUSH2 0xAC6 PUSH1 0x4 DUP1 CALLDATASIZE SUB DUP2 ADD SWAP1 PUSH2 0xAC1 SWAP2 SWAP1 PUSH2 0x5B84 JUMP JUMPDEST PUSH2 0x2AC7 JUMP JUMPDEST PUSH1 0x40 MLOAD PUSH2 0xAD3 SWAP2 SWAP1 PUSH2 0x6535 JUMP JUMPDEST PUSH1 0x40 MLOAD DUP1 SWAP2 SUB SWAP1 RETURN JUMPDEST CALLVALUE DUP1 ISZERO PUSH2 0xAE8 JUMPI PUSH1 0x0 DUP1 REVERT JUMPDEST POP PUSH2 0xB03 PUSH1 0x4 DUP1 CALLDATASIZE SUB DUP2 ADD SWAP1 PUSH2 0xAFE SWAP2 SWAP1 PUSH2 0x5A2A JUMP JUMPDEST PUSH2 0x2ADF JUMP JUMPDEST PUSH1 0x40 MLOAD PUSH2 0xB10 SWAP2 SWAP1 PUSH2 0x6535 JUMP JUMPDEST PUSH1 0x40 MLOAD DUP1 SWAP2 SUB SWAP1 RETURN JUMPDEST PUSH2 0xB33 PUSH1 0x4 DUP1 CALLDATASIZE SUB DUP2 ADD SWAP1 PUSH2 0xB2E SWAP2 SWAP1 PUSH2 0x5A66 JUMP JUMPDEST PUSH2 0x2B1D JUMP JUMPDEST STOP JUMPDEST CALLVALUE DUP1 ISZERO PUSH2 0xB41 JUMPI PUSH1 0x0 DUP1 REVERT JUMPDEST POP PUSH2 0xB5C PUSH1 0x4 DUP1 CALLDATASIZE SUB DUP2 ADD SWAP1 PUSH2 0xB57 SWAP2 SWAP1 PUSH2 0x5816 JUMP JUMPDEST PUSH2 0x2B31 JUMP JUMPDEST STOP JUMPDEST CALLVALUE DUP1 ISZERO PUSH2 0xB6A JUMPI PUSH1 0x0 DUP1 REVERT JUMPDEST POP PUSH2 0xB73 PUSH2 0x2B93 JUMP JUMPDEST PUSH1 0x40 MLOAD PUSH2 0xB80 SWAP2 SWAP1 PUSH2 0x6230 JUMP JUMPDEST PUSH1 0x40 MLOAD DUP1 SWAP2 SUB SWAP1 RETURN JUMPDEST CALLVALUE DUP1 ISZERO PUSH2 0xB95 JUMPI PUSH1 0x0 DUP1 REVERT JUMPDEST POP PUSH2 0xBB0 PUSH1 0x4 DUP1 CALLDATASIZE SUB DUP2 ADD SWAP1 PUSH2 0xBAB SWAP2 SWAP1 PUSH2 0x5B84 JUMP JUMPDEST PUSH2 0x2CA7 JUMP JUMPDEST PUSH1 0x40 MLOAD PUSH2 0xBBD SWAP2 SWAP1 PUSH2 0x6535 JUMP JUMPDEST PUSH1 0x40 MLOAD DUP1 SWAP2 SUB SWAP1 RETURN JUMPDEST CALLVALUE DUP1 ISZERO PUSH2 0xBD2 JUMPI PUSH1 0x0 DUP1 REVERT JUMPDEST POP PUSH2 0xBED PUSH1 0x4 DUP1 CALLDATASIZE SUB DUP2 ADD SWAP1 PUSH2 0xBE8 SWAP2 SWAP1 PUSH2 0x5A66 JUMP JUMPDEST PUSH2 0x2CBF JUMP JUMPDEST PUSH1 0x40 MLOAD PUSH2 0xBFA SWAP2 SWAP1 PUSH2 0x62D3 JUMP JUMPDEST PUSH1 0x40 MLOAD DUP1 SWAP2 SUB SWAP1 RETURN JUMPDEST CALLVALUE DUP1 ISZERO PUSH2 0xC0F JUMPI PUSH1 0x0 DUP1 REVERT JUMPDEST POP PUSH2 0xC2A PUSH1 0x4 DUP1 CALLDATASIZE SUB DUP2 ADD SWAP1 PUSH2 0xC25 SWAP2 SWAP1 PUSH2 0x5B84 JUMP JUMPDEST PUSH2 0x2D66 JUMP JUMPDEST PUSH1 0x40 MLOAD PUSH2 0xC37 SWAP2 SWAP1 PUSH2 0x6535 JUMP JUMPDEST PUSH1 0x40 MLOAD DUP1 SWAP2 SUB SWAP1 RETURN JUMPDEST CALLVALUE DUP1 ISZERO PUSH2 0xC4C JUMPI PUSH1 0x0 DUP1 REVERT JUMPDEST POP PUSH2 0xC55 PUSH2 0x2D7D JUMP JUMPDEST PUSH1 0x40 MLOAD PUSH2 0xC62 SWAP2 SWAP1 PUSH2 0x6535 JUMP JUMPDEST PUSH1 0x40 MLOAD DUP1 SWAP2 SUB SWAP1 RETURN JUMPDEST CALLVALUE DUP1 ISZERO PUSH2 0xC77 JUMPI PUSH1 0x0 DUP1 REVERT JUMPDEST POP PUSH2 0xC80 PUSH2 0x2D83 JUMP JUMPDEST PUSH1 0x40 MLOAD PUSH2 0xC8D SWAP2 SWAP1 PUSH2 0x6535 JUMP JUMPDEST PUSH1 0x40 MLOAD DUP1 SWAP2 SUB SWAP1 RETURN JUMPDEST CALLVALUE DUP1 ISZERO PUSH2 0xCA2 JUMPI PUSH1 0x0 DUP1 REVERT JUMPDEST POP PUSH2 0xCBD PUSH1 0x4 DUP1 CALLDATASIZE SUB DUP2 ADD SWAP1 PUSH2 0xCB8 SWAP2 SWAP1 PUSH2 0x59C5 JUMP JUMPDEST PUSH2 0x2E5E JUMP JUMPDEST PUSH1 0x40 MLOAD PUSH2 0xCCA SWAP2 SWAP1 PUSH2 0x6535 JUMP JUMPDEST PUSH1 0x40 MLOAD DUP1 SWAP2 SUB SWAP1 RETURN JUMPDEST CALLVALUE DUP1 ISZERO PUSH2 0xCDF JUMPI PUSH1 0x0 DUP1 REVERT JUMPDEST POP PUSH2 0xCFA PUSH1 0x4 DUP1 CALLDATASIZE SUB DUP2 ADD SWAP1 PUSH2 0xCF5 SWAP2 SWAP1 PUSH2 0x570B JUMP JUMPDEST PUSH2 0x2ECA JUMP JUMPDEST PUSH1 0x40 MLOAD PUSH2 0xD07 SWAP2 SWAP1 PUSH2 0x6274 JUMP JUMPDEST PUSH1 0x40 MLOAD DUP1 SWAP2 SUB SWAP1 RETURN JUMPDEST CALLVALUE DUP1 ISZERO PUSH2 0xD1C JUMPI PUSH1 0x0 DUP1 REVERT JUMPDEST POP PUSH2 0xD25 PUSH2 0x2F5E JUMP JUMPDEST PUSH1 0x40 MLOAD PUSH2 0xD32 SWAP2 SWAP1 PUSH2 0x6252 JUMP JUMPDEST PUSH1 0x40 MLOAD DUP1 SWAP2 SUB SWAP1 RETURN JUMPDEST CALLVALUE DUP1 ISZERO PUSH2 0xD47 JUMPI PUSH1 0x0 DUP1 REVERT JUMPDEST POP PUSH2 0xD62 PUSH1 0x4 DUP1 CALLDATASIZE SUB DUP2 ADD SWAP1 PUSH2 0xD5D SWAP2 SWAP1 PUSH2 0x5B84 JUMP JUMPDEST PUSH2 0x2F6F JUMP JUMPDEST PUSH1 0x40 MLOAD PUSH2 0xD6F SWAP2 SWAP1 PUSH2 0x6535 JUMP JUMPDEST PUSH1 0x40 MLOAD DUP1 SWAP2 SUB SWAP1 RETURN JUMPDEST CALLVALUE DUP1 ISZERO PUSH2 0xD84 JUMPI PUSH1 0x0 DUP1 REVERT JUMPDEST POP PUSH2 0xD9F PUSH1 0x4 DUP1 CALLDATASIZE SUB DUP2 ADD SWAP1 PUSH2 0xD9A SWAP2 SWAP1 PUSH2 0x56E2 JUMP JUMPDEST PUSH2 0x2F86 JUMP JUMPDEST STOP JUMPDEST CALLVALUE DUP1 ISZERO PUSH2 0xDAD JUMPI PUSH1 0x0 DUP1 REVERT JUMPDEST POP PUSH2 0xDC8 PUSH1 0x4 DUP1 CALLDATASIZE SUB DUP2 ADD SWAP1 PUSH2 0xDC3 SWAP2 SWAP1 PUSH2 0x58CD JUMP JUMPDEST PUSH2 0x3132 JUMP JUMPDEST STOP JUMPDEST CALLVALUE DUP1 ISZERO PUSH2 0xDD6 JUMPI PUSH1 0x0 DUP1 REVERT JUMPDEST POP PUSH2 0xDDF PUSH2 0x31BC JUMP JUMPDEST PUSH1 0x40 MLOAD PUSH2 0xDEC SWAP2 SWAP1 PUSH2 0x6535 JUMP JUMPDEST PUSH1 0x40 MLOAD DUP1 SWAP2 SUB SWAP1 RETURN JUMPDEST CALLVALUE DUP1 ISZERO PUSH2 0xE01 JUMPI PUSH1 0x0 DUP1 REVERT JUMPDEST POP PUSH2 0xE1C PUSH1 0x4 DUP1 CALLDATASIZE SUB DUP2 ADD SWAP1 PUSH2 0xE17 SWAP2 SWAP1 PUSH2 0x5891 JUMP JUMPDEST PUSH2 0x31C6 JUMP JUMPDEST PUSH1 0x40 MLOAD PUSH2 0xE29 SWAP2 SWAP1 PUSH2 0x6252 JUMP JUMPDEST PUSH1 0x40 MLOAD DUP1 SWAP2 SUB SWAP1 RETURN JUMPDEST PUSH1 0x0 PUSH32 0x80AC58CD00000000000000000000000000000000000000000000000000000000 PUSH28 0xFFFFFFFFFFFFFFFFFFFFFFFFFFFFFFFFFFFFFFFFFFFFFFFFFFFFFFFF NOT AND DUP3 PUSH28 0xFFFFFFFFFFFFFFFFFFFFFFFFFFFFFFFFFFFFFFFFFFFFFFFFFFFFFFFF NOT AND EQ DUP1 PUSH2 0xEFD JUMPI POP PUSH32 0x5B5E139F00000000000000000000000000000000000000000000000000000000 PUSH28 0xFFFFFFFFFFFFFFFFFFFFFFFFFFFFFFFFFFFFFFFFFFFFFFFFFFFFFFFF NOT AND DUP3 PUSH28 0xFFFFFFFFFFFFFFFFFFFFFFFFFFFFFFFFFFFFFFFFFFFFFFFFFFFFFFFF NOT AND EQ JUMPDEST DUP1 PUSH2 0xF0D JUMPI POP PUSH2 0xF0C DUP3 PUSH2 0x31DA JUMP JUMPDEST JUMPDEST SWAP1 POP SWAP2 SWAP1 POP JUMP JUMPDEST PUSH1 0x60 PUSH1 0x0 DUP1 SLOAD PUSH2 0xF23 SWAP1 PUSH2 0x6CBB JUMP JUMPDEST DUP1 PUSH1 0x1F ADD PUSH1 0x20 DUP1 SWAP2 DIV MUL PUSH1 0x20 ADD PUSH1 0x40 MLOAD SWAP1 DUP2 ADD PUSH1 0x40 MSTORE DUP1 SWAP3 SWAP2 SWAP1 DUP2 DUP2 MSTORE PUSH1 0x20 ADD DUP3 DUP1 SLOAD PUSH2 0xF4F SWAP1 PUSH2 0x6CBB JUMP JUMPDEST DUP1 ISZERO PUSH2 0xF9C JUMPI DUP1 PUSH1 0x1F LT PUSH2 0xF71 JUMPI PUSH2 0x100 DUP1 DUP4 SLOAD DIV MUL DUP4 MSTORE SWAP2 PUSH1 0x20 ADD SWAP2 PUSH2 0xF9C JUMP JUMPDEST DUP3 ADD SWAP2 SWAP1 PUSH1 0x0 MSTORE PUSH1 0x20 PUSH1 0x0 KECCAK256 SWAP1 JUMPDEST DUP2 SLOAD DUP2 MSTORE SWAP1 PUSH1 0x1 ADD SWAP1 PUSH1 0x20 ADD DUP1 DUP4 GT PUSH2 0xF7F JUMPI DUP3 SWAP1 SUB PUSH1 0x1F AND DUP3 ADD SWAP2 JUMPDEST POP POP POP POP POP SWAP1 POP SWAP1 JUMP JUMPDEST PUSH1 0x0 PUSH2 0xFB1 DUP3 PUSH2 0x3244 JUMP JUMPDEST PUSH2 0xFF0 JUMPI PUSH1 0x40 MLOAD PUSH32 0x8C379A000000000000000000000000000000000000000000000000000000000 DUP2 MSTORE PUSH1 0x4 ADD PUSH2 0xFE7 SWAP1 PUSH2 0x6475 JUMP JUMPDEST PUSH1 0x40 MLOAD DUP1 SWAP2 SUB SWAP1 REVERT JUMPDEST PUSH1 0x4 PUSH1 0x0 DUP4 DUP2 MSTORE PUSH1 0x20 ADD SWAP1 DUP2 MSTORE PUSH1 0x20 ADD PUSH1 0x0 KECCAK256 PUSH1 0x0 SWAP1 SLOAD SWAP1 PUSH2 0x100 EXP SWAP1 DIV PUSH20 0xFFFFFFFFFFFFFFFFFFFFFFFFFFFFFFFFFFFFFFFF AND SWAP1 POP SWAP2 SWAP1 POP JUMP JUMPDEST PUSH1 0x0 PUSH2 0x1036 DUP3 PUSH2 0x1E5F JUMP JUMPDEST SWAP1 POP DUP1 PUSH20 0xFFFFFFFFFFFFFFFFFFFFFFFFFFFFFFFFFFFFFFFF AND DUP4 PUSH20 0xFFFFFFFFFFFFFFFFFFFFFFFFFFFFFFFFFFFFFFFF AND EQ ISZERO PUSH2 0x10A7 JUMPI PUSH1 0x40 MLOAD PUSH32 0x8C379A000000000000000000000000000000000000000000000000000000000 DUP2 MSTORE PUSH1 0x4 ADD PUSH2 0x109E SWAP1 PUSH2 0x64F5 JUMP JUMPDEST PUSH1 0x40 MLOAD DUP1 SWAP2 SUB SWAP1 REVERT JUMPDEST DUP1 PUSH20 0xFFFFFFFFFFFFFFFFFFFFFFFFFFFFFFFFFFFFFFFF AND PUSH2 0x10C6 PUSH2 0x32B0 JUMP JUMPDEST PUSH20 0xFFFFFFFFFFFFFFFFFFFFFFFFFFFFFFFFFFFFFFFF AND EQ DUP1 PUSH2 0x10F5 JUMPI POP PUSH2 0x10F4 DUP2 PUSH2 0x10EF PUSH2 0x32B0 JUMP JUMPDEST PUSH2 0x2ECA JUMP JUMPDEST JUMPDEST PUSH2 0x1134 JUMPI PUSH1 0x40 MLOAD PUSH32 0x8C379A000000000000000000000000000000000000000000000000000000000 DUP2 MSTORE PUSH1 0x4 ADD PUSH2 0x112B SWAP1 PUSH2 0x63F5 JUMP JUMPDEST PUSH1 0x40 MLOAD DUP1 SWAP2 SUB SWAP1 REVERT JUMPDEST PUSH2 0x113E DUP4 DUP4 PUSH2 0x32B8 JUMP JUMPDEST POP POP POP JUMP JUMPDEST PUSH1 0x0 PUSH1 0x10 PUSH1 0x0 SWAP1 SLOAD SWAP1 PUSH2 0x100 EXP SWAP1 DIV PUSH16 0xFFFFFFFFFFFFFFFFFFFFFFFFFFFFFFFF AND PUSH1 0x2 PUSH2 0x1170 SWAP2 SWAP1 PUSH2 0x6865 JUMP JUMPDEST PUSH1 0x14 SLOAD PUSH2 0x117D SWAP2 SWAP1 PUSH2 0x6A18 JUMP JUMPDEST SWAP1 POP SWAP1 JUMP JUMPDEST PUSH1 0x0 PUSH4 0x150B7A02 PUSH1 0xE0 SHL SWAP1 POP SWAP6 SWAP5 POP POP POP POP POP JUMP JUMPDEST PUSH1 0x17 PUSH1 0x20 MSTORE DUP1 PUSH1 0x0 MSTORE PUSH1 0x40 PUSH1 0x0 KECCAK256 PUSH1 0x0 SWAP2 POP SWAP1 POP SLOAD DUP2 JUMP JUMPDEST PUSH2 0x11C0 PUSH2 0x11BA PUSH2 0x32B0 JUMP JUMPDEST DUP3 PUSH2 0x3371 JUMP JUMPDEST PUSH2 0x11FF JUMPI PUSH1 0x40 MLOAD PUSH32 0x8C379A000000000000000000000000000000000000000000000000000000000 DUP2 MSTORE PUSH1 0x4 ADD PUSH2 0x11F6 SWAP1 PUSH2 0x6515 JUMP JUMPDEST PUSH1 0x40 MLOAD DUP1 SWAP2 SUB SWAP1 REVERT JUMPDEST PUSH2 0x120A DUP4 DUP4 DUP4 PUSH2 0x344F JUMP JUMPDEST POP POP POP JUMP JUMPDEST PUSH1 0x0 PUSH2 0x1219 PUSH2 0x32B0 JUMP JUMPDEST PUSH20 0xFFFFFFFFFFFFFFFFFFFFFFFFFFFFFFFFFFFFFFFF AND PUSH2 0x1237 PUSH2 0x2771 JUMP JUMPDEST PUSH20 0xFFFFFFFFFFFFFFFFFFFFFFFFFFFFFFFFFFFFFFFF AND EQ PUSH2 0x128D JUMPI PUSH1 0x40 MLOAD PUSH32 0x8C379A000000000000000000000000000000000000000000000000000000000 DUP2 MSTORE PUSH1 0x4 ADD PUSH2 0x1284 SWAP1 PUSH2 0x6495 JUMP JUMPDEST PUSH1 0x40 MLOAD DUP1 SWAP2 SUB SWAP1 REVERT JUMPDEST PUSH2 0x1296 DUP3 PUSH2 0x36AB JUMP JUMPDEST SWAP1 POP SWAP2 SWAP1 POP JUMP JUMPDEST PUSH2 0x12A5 PUSH2 0x32B0 JUMP JUMPDEST PUSH20 0xFFFFFFFFFFFFFFFFFFFFFFFFFFFFFFFFFFFFFFFF AND PUSH2 0x12C3 PUSH2 0x2771 JUMP JUMPDEST PUSH20 0xFFFFFFFFFFFFFFFFFFFFFFFFFFFFFFFFFFFFFFFF AND EQ PUSH2 0x1319 JUMPI PUSH1 0x40 MLOAD PUSH32 0x8C379A000000000000000000000000000000000000000000000000000000000 DUP2 MSTORE PUSH1 0x4 ADD PUSH2 0x1310 SWAP1 PUSH2 0x6495 JUMP JUMPDEST PUSH1 0x40 MLOAD DUP1 SWAP2 SUB SWAP1 REVERT JUMPDEST PUSH2 0x1321 PUSH2 0x1143 JUMP JUMPDEST PUSH1 0x15 SLOAD EQ PUSH2 0x132E JUMPI PUSH1 0x0 DUP1 REVERT JUMPDEST PUSH2 0x1364 PUSH1 0x1 PUSH1 0x10 PUSH1 0x0 SWAP1 SLOAD SWAP1 PUSH2 0x100 EXP SWAP1 DIV PUSH16 0xFFFFFFFFFFFFFFFFFFFFFFFFFFFFFFFF AND PUSH2 0x135C SWAP2 SWAP1 PUSH2 0x6714 JUMP JUMPDEST DUP3 PUSH1 0x0 PUSH2 0x3712 JUMP JUMPDEST PUSH1 0x0 PUSH1 0x15 DUP2 SWAP1 SSTORE POP PUSH1 0x0 JUMPDEST PUSH1 0x16 DUP1 SLOAD SWAP1 POP DUP2 LT ISZERO PUSH2 0x1436 JUMPI PUSH1 0x17 PUSH1 0x0 PUSH1 0x16 DUP4 DUP2 SLOAD DUP2 LT PUSH2 0x13BA JUMPI PUSH32 0x4E487B7100000000000000000000000000000000000000000000000000000000 PUSH1 0x0 MSTORE PUSH1 0x32 PUSH1 0x4 MSTORE PUSH1 0x24 PUSH1 0x0 REVERT JUMPDEST SWAP1 PUSH1 0x0 MSTORE PUSH1 0x20 PUSH1 0x0 KECCAK256 ADD PUSH1 0x0 SWAP1 SLOAD SWAP1 PUSH2 0x100 EXP SWAP1 DIV PUSH20 0xFFFFFFFFFFFFFFFFFFFFFFFFFFFFFFFFFFFFFFFF AND PUSH20 0xFFFFFFFFFFFFFFFFFFFFFFFFFFFFFFFFFFFFFFFF AND PUSH20 0xFFFFFFFFFFFFFFFFFFFFFFFFFFFFFFFFFFFFFFFF AND DUP2 MSTORE PUSH1 0x20 ADD SWAP1 DUP2 MSTORE PUSH1 0x20 ADD PUSH1 0x0 KECCAK256 PUSH1 0x0 SWAP1 SSTORE DUP1 DUP1 PUSH2 0x142E SWAP1 PUSH2 0x6D57 JUMP JUMPDEST SWAP2 POP POP PUSH2 0x136F JUMP JUMPDEST POP PUSH1 0x16 PUSH1 0x0 PUSH2 0x1445 SWAP2 SWAP1 PUSH2 0x53AB JUMP JUMPDEST POP JUMP JUMPDEST PUSH1 0x60 PUSH1 0x0 PUSH1 0x1 PUSH8 0xFFFFFFFFFFFFFFFF DUP2 GT ISZERO PUSH2 0x148D JUMPI PUSH32 0x4E487B7100000000000000000000000000000000000000000000000000000000 PUSH1 0x0 MSTORE PUSH1 0x41 PUSH1 0x4 MSTORE PUSH1 0x24 PUSH1 0x0 REVERT JUMPDEST PUSH1 0x40 MLOAD SWAP1 DUP1 DUP3 MSTORE DUP1 PUSH1 0x20 MUL PUSH1 0x20 ADD DUP3 ADD PUSH1 0x40 MSTORE DUP1 ISZERO PUSH2 0x14BB JUMPI DUP2 PUSH1 0x20 ADD PUSH1 0x20 DUP3 MUL DUP1 CALLDATASIZE DUP4 CALLDATACOPY DUP1 DUP3 ADD SWAP2 POP POP SWAP1 POP JUMPDEST POP SWAP1 POP PUSH1 0xD PUSH1 0x0 SWAP1 SLOAD SWAP1 PUSH2 0x100 EXP SWAP1 DIV PUSH20 0xFFFFFFFFFFFFFFFFFFFFFFFFFFFFFFFFFFFFFFFF AND DUP2 PUSH1 0x0 DUP2 MLOAD DUP2 LT PUSH2 0x151B JUMPI PUSH32 0x4E487B7100000000000000000000000000000000000000000000000000000000 PUSH1 0x0 MSTORE PUSH1 0x32 PUSH1 0x4 MSTORE PUSH1 0x24 PUSH1 0x0 REVERT JUMPDEST PUSH1 0x20 MUL PUSH1 0x20 ADD ADD SWAP1 PUSH20 0xFFFFFFFFFFFFFFFFFFFFFFFFFFFFFFFFFFFFFFFF AND SWAP1 DUP2 PUSH20 0xFFFFFFFFFFFFFFFFFFFFFFFFFFFFFFFFFFFFFFFF AND DUP2 MSTORE POP POP DUP1 SWAP2 POP POP SWAP1 JUMP JUMPDEST PUSH1 0x12 SLOAD DUP2 JUMP JUMPDEST PUSH1 0x60 DUP1 PUSH1 0x0 PUSH20 0xFFFFFFFFFFFFFFFFFFFFFFFFFFFFFFFFFFFFFFFF AND DUP4 PUSH20 0xFFFFFFFFFFFFFFFFFFFFFFFFFFFFFFFFFFFFFFFF AND EQ ISZERO PUSH2 0x1612 JUMPI PUSH1 0x11 SLOAD PUSH8 0xFFFFFFFFFFFFFFFF DUP2 GT ISZERO PUSH2 0x15DC JUMPI PUSH32 0x4E487B7100000000000000000000000000000000000000000000000000000000 PUSH1 0x0 MSTORE PUSH1 0x41 PUSH1 0x4 MSTORE PUSH1 0x24 PUSH1 0x0 REVERT JUMPDEST PUSH1 0x40 MLOAD SWAP1 DUP1 DUP3 MSTORE DUP1 PUSH1 0x20 MUL PUSH1 0x20 ADD DUP3 ADD PUSH1 0x40 MSTORE DUP1 ISZERO PUSH2 0x160A JUMPI DUP2 PUSH1 0x20 ADD PUSH1 0x20 DUP3 MUL DUP1 CALLDATASIZE DUP4 CALLDATACOPY DUP1 DUP3 ADD SWAP2 POP POP SWAP1 POP JUMPDEST POP SWAP1 POP PUSH2 0x168C JUMP JUMPDEST PUSH2 0x161B DUP4 PUSH2 0x207A JUMP JUMPDEST PUSH8 0xFFFFFFFFFFFFFFFF DUP2 GT ISZERO PUSH2 0x165A JUMPI PUSH32 0x4E487B7100000000000000000000000000000000000000000000000000000000 PUSH1 0x0 MSTORE PUSH1 0x41 PUSH1 0x4 MSTORE PUSH1 0x24 PUSH1 0x0 REVERT JUMPDEST PUSH1 0x40 MLOAD SWAP1 DUP1 DUP3 MSTORE DUP1 PUSH1 0x20 MUL PUSH1 0x20 ADD DUP3 ADD PUSH1 0x40 MSTORE DUP1 ISZERO PUSH2 0x1688 JUMPI DUP2 PUSH1 0x20 ADD PUSH1 0x20 DUP3 MUL DUP1 CALLDATASIZE DUP4 CALLDATACOPY DUP1 DUP3 ADD SWAP2 POP POP SWAP1 POP JUMPDEST POP SWAP1 POP JUMPDEST PUSH1 0x0 DUP1 PUSH1 0x10 PUSH1 0x0 SWAP1 SLOAD SWAP1 PUSH2 0x100 EXP SWAP1 DIV PUSH16 0xFFFFFFFFFFFFFFFFFFFFFFFFFFFFFFFF AND PUSH2 0x16B7 SWAP1 PUSH2 0x6DD1 JUMP JUMPDEST SWAP1 POP JUMPDEST PUSH1 0x10 PUSH1 0x0 SWAP1 SLOAD SWAP1 PUSH2 0x100 EXP SWAP1 DIV PUSH16 0xFFFFFFFFFFFFFFFFFFFFFFFFFFFFFFFF AND PUSH1 0xF SIGNEXTEND DUP2 PUSH1 0xF SIGNEXTEND SGT ISZERO DUP1 ISZERO PUSH2 0x16EE JUMPI POP DUP3 MLOAD DUP3 LT JUMPDEST ISZERO PUSH2 0x1864 JUMPI PUSH1 0x0 PUSH1 0x10 PUSH1 0x0 SWAP1 SLOAD SWAP1 PUSH2 0x100 EXP SWAP1 DIV PUSH16 0xFFFFFFFFFFFFFFFFFFFFFFFFFFFFFFFF AND PUSH2 0x171D SWAP1 PUSH2 0x6DD1 JUMP JUMPDEST SWAP1 POP JUMPDEST PUSH1 0x10 PUSH1 0x0 SWAP1 SLOAD SWAP1 PUSH2 0x100 EXP SWAP1 DIV PUSH16 0xFFFFFFFFFFFFFFFFFFFFFFFFFFFFFFFF AND PUSH1 0xF SIGNEXTEND DUP2 PUSH1 0xF SIGNEXTEND SGT ISZERO DUP1 ISZERO PUSH2 0x1754 JUMPI POP DUP4 MLOAD DUP4 EQ JUMPDEST ISZERO PUSH2 0x1850 JUMPI PUSH1 0x0 PUSH2 0x1765 DUP4 DUP4 PUSH2 0x2ADF JUMP JUMPDEST SWAP1 POP PUSH2 0x1770 DUP2 PUSH2 0x3244 JUMP JUMPDEST ISZERO PUSH2 0x183C JUMPI PUSH1 0x0 PUSH20 0xFFFFFFFFFFFFFFFFFFFFFFFFFFFFFFFFFFFFFFFF AND DUP8 PUSH20 0xFFFFFFFFFFFFFFFFFFFFFFFFFFFFFFFFFFFFFFFF AND EQ DUP1 PUSH2 0x17E3 JUMPI POP PUSH2 0x17B4 DUP2 PUSH2 0x1E5F JUMP JUMPDEST PUSH20 0xFFFFFFFFFFFFFFFFFFFFFFFFFFFFFFFFFFFFFFFF AND DUP8 PUSH20 0xFFFFFFFFFFFFFFFFFFFFFFFFFFFFFFFFFFFFFFFF AND EQ JUMPDEST ISZERO PUSH2 0x183B JUMPI DUP1 DUP6 DUP6 DUP1 PUSH2 0x17F5 SWAP1 PUSH2 0x6D57 JUMP JUMPDEST SWAP7 POP DUP2 MLOAD DUP2 LT PUSH2 0x182E JUMPI PUSH32 0x4E487B7100000000000000000000000000000000000000000000000000000000 PUSH1 0x0 MSTORE PUSH1 0x32 PUSH1 0x4 MSTORE PUSH1 0x24 PUSH1 0x0 REVERT JUMPDEST PUSH1 0x20 MUL PUSH1 0x20 ADD ADD DUP2 DUP2 MSTORE POP POP JUMPDEST JUMPDEST POP DUP1 DUP1 PUSH2 0x1848 SWAP1 PUSH2 0x6D1E JUMP JUMPDEST SWAP2 POP POP PUSH2 0x1720 JUMP JUMPDEST POP DUP1 DUP1 PUSH2 0x185C SWAP1 PUSH2 0x6D1E JUMP JUMPDEST SWAP2 POP POP PUSH2 0x16BA JUMP JUMPDEST POP DUP2 SWAP3 POP POP POP SWAP2 SWAP1 POP JUMP JUMPDEST PUSH1 0x0 PUSH1 0x15 SLOAD PUSH2 0x187C PUSH2 0x1143 JUMP JUMPDEST PUSH2 0x1886 SWAP2 SWAP1 PUSH2 0x6B2A JUMP JUMPDEST SWAP1 POP DUP1 DUP3 GT ISZERO PUSH2 0x1894 JUMPI DUP1 SWAP2 POP JUMPDEST PUSH1 0x0 DUP3 GT PUSH2 0x18A1 JUMPI PUSH1 0x0 DUP1 REVERT JUMPDEST PUSH1 0xD PUSH1 0x0 SWAP1 SLOAD SWAP1 PUSH2 0x100 EXP SWAP1 DIV PUSH20 0xFFFFFFFFFFFFFFFFFFFFFFFFFFFFFFFFFFFFFFFF AND PUSH20 0xFFFFFFFFFFFFFFFFFFFFFFFFFFFFFFFFFFFFFFFF AND PUSH4 0x33BEBB77 PUSH2 0x18E7 PUSH2 0x32B0 JUMP JUMPDEST ADDRESS DUP6 PUSH1 0x40 MLOAD DUP5 PUSH4 0xFFFFFFFF AND PUSH1 0xE0 SHL DUP2 MSTORE PUSH1 0x4 ADD PUSH2 0x1907 SWAP4 SWAP3 SWAP2 SWAP1 PUSH2 0x6139 JUMP JUMPDEST PUSH1 0x0 PUSH1 0x40 MLOAD DUP1 DUP4 SUB DUP2 PUSH1 0x0 DUP8 DUP1 EXTCODESIZE ISZERO DUP1 ISZERO PUSH2 0x1921 JUMPI PUSH1 0x0 DUP1 REVERT JUMPDEST POP GAS CALL ISZERO DUP1 ISZERO PUSH2 0x1935 JUMPI RETURNDATASIZE PUSH1 0x0 DUP1 RETURNDATACOPY RETURNDATASIZE PUSH1 0x0 REVERT JUMPDEST POP POP POP POP PUSH1 0xD PUSH1 0x0 SWAP1 SLOAD SWAP1 PUSH2 0x100 EXP SWAP1 DIV PUSH20 0xFFFFFFFFFFFFFFFFFFFFFFFFFFFFFFFFFFFFFFFF AND PUSH20 0xFFFFFFFFFFFFFFFFFFFFFFFFFFFFFFFFFFFFFFFF AND PUSH4 0x9DC29FAC ADDRESS PUSH1 0xA DUP6 PUSH2 0x1985 SWAP2 SWAP1 PUSH2 0x67E1 JUMP JUMPDEST DUP6 PUSH2 0x1990 SWAP2 SWAP1 PUSH2 0x6B2A JUMP JUMPDEST PUSH1 0x40 MLOAD DUP4 PUSH4 0xFFFFFFFF AND PUSH1 0xE0 SHL DUP2 MSTORE PUSH1 0x4 ADD PUSH2 0x19AD SWAP3 SWAP2 SWAP1 PUSH2 0x61E5 JUMP JUMPDEST PUSH1 0x0 PUSH1 0x40 MLOAD DUP1 DUP4 SUB DUP2 PUSH1 0x0 DUP8 DUP1 EXTCODESIZE ISZERO DUP1 ISZERO PUSH2 0x19C7 JUMPI PUSH1 0x0 DUP1 REVERT JUMPDEST POP GAS CALL ISZERO DUP1 ISZERO PUSH2 0x19DB JUMPI RETURNDATASIZE PUSH1 0x0 DUP1 RETURNDATACOPY RETURNDATASIZE PUSH1 0x0 REVERT JUMPDEST POP POP POP POP DUP2 PUSH1 0x15 PUSH1 0x0 DUP3 DUP3 SLOAD PUSH2 0x19F1 SWAP2 SWAP1 PUSH2 0x675A JUMP JUMPDEST SWAP3 POP POP DUP2 SWAP1 SSTORE POP PUSH1 0x16 PUSH2 0x1A02 PUSH2 0x32B0 JUMP JUMPDEST SWAP1 DUP1 PUSH1 0x1 DUP2 SLOAD ADD DUP1 DUP3 SSTORE DUP1 SWAP2 POP POP PUSH1 0x1 SWAP1 SUB SWAP1 PUSH1 0x0 MSTORE PUSH1 0x20 PUSH1 0x0 KECCAK256 ADD PUSH1 0x0 SWAP1 SWAP2 SWAP1 SWAP2 SWAP1 SWAP2 PUSH2 0x100 EXP DUP2 SLOAD DUP2 PUSH20 0xFFFFFFFFFFFFFFFFFFFFFFFFFFFFFFFFFFFFFFFF MUL NOT AND SWAP1 DUP4 PUSH20 0xFFFFFFFFFFFFFFFFFFFFFFFFFFFFFFFFFFFFFFFF AND MUL OR SWAP1 SSTORE POP DUP2 PUSH1 0x17 PUSH1 0x0 PUSH2 0x1A6F PUSH2 0x32B0 JUMP JUMPDEST PUSH20 0xFFFFFFFFFFFFFFFFFFFFFFFFFFFFFFFFFFFFFFFF AND PUSH20 0xFFFFFFFFFFFFFFFFFFFFFFFFFFFFFFFFFFFFFFFF AND DUP2 MSTORE PUSH1 0x20 ADD SWAP1 DUP2 MSTORE PUSH1 0x20 ADD PUSH1 0x0 KECCAK256 PUSH1 0x0 DUP3 DUP3 SLOAD PUSH2 0x1AB8 SWAP2 SWAP1 PUSH2 0x675A JUMP JUMPDEST SWAP3 POP POP DUP2 SWAP1 SSTORE POP POP POP JUMP JUMPDEST PUSH1 0x60 PUSH1 0x0 PUSH2 0x1AD0 ADDRESS PUSH2 0x1562 JUMP JUMPDEST SWAP1 POP PUSH1 0x0 DUP1 JUMPDEST DUP3 MLOAD DUP2 LT ISZERO PUSH2 0x1BA9 JUMPI PUSH1 0x0 PUSH20 0xFFFFFFFFFFFFFFFFFFFFFFFFFFFFFFFFFFFFFFFF AND PUSH1 0xC PUSH1 0x0 DUP6 DUP5 DUP2 MLOAD DUP2 LT PUSH2 0x1B34 JUMPI PUSH32 0x4E487B7100000000000000000000000000000000000000000000000000000000 PUSH1 0x0 MSTORE PUSH1 0x32 PUSH1 0x4 MSTORE PUSH1 0x24 PUSH1 0x0 REVERT JUMPDEST PUSH1 0x20 MUL PUSH1 0x20 ADD ADD MLOAD DUP2 MSTORE PUSH1 0x20 ADD SWAP1 DUP2 MSTORE PUSH1 0x20 ADD PUSH1 0x0 KECCAK256 PUSH1 0x0 SWAP1 SLOAD SWAP1 PUSH2 0x100 EXP SWAP1 DIV PUSH20 0xFFFFFFFFFFFFFFFFFFFFFFFFFFFFFFFFFFFFFFFF AND PUSH20 0xFFFFFFFFFFFFFFFFFFFFFFFFFFFFFFFFFFFFFFFF AND EQ ISZERO PUSH2 0x1B96 JUMPI DUP2 DUP1 PUSH2 0x1B92 SWAP1 PUSH2 0x6D57 JUMP JUMPDEST SWAP3 POP POP JUMPDEST DUP1 DUP1 PUSH2 0x1BA1 SWAP1 PUSH2 0x6D57 JUMP JUMPDEST SWAP2 POP POP PUSH2 0x1AD6 JUMP JUMPDEST POP PUSH1 0x0 DUP2 PUSH8 0xFFFFFFFFFFFFFFFF DUP2 GT ISZERO PUSH2 0x1BEC JUMPI PUSH32 0x4E487B7100000000000000000000000000000000000000000000000000000000 PUSH1 0x0 MSTORE PUSH1 0x41 PUSH1 0x4 MSTORE PUSH1 0x24 PUSH1 0x0 REVERT JUMPDEST PUSH1 0x40 MLOAD SWAP1 DUP1 DUP3 MSTORE DUP1 PUSH1 0x20 MUL PUSH1 0x20 ADD DUP3 ADD PUSH1 0x40 MSTORE DUP1 ISZERO PUSH2 0x1C1A JUMPI DUP2 PUSH1 0x20 ADD PUSH1 0x20 DUP3 MUL DUP1 CALLDATASIZE DUP4 CALLDATACOPY DUP1 DUP3 ADD SWAP2 POP POP SWAP1 POP JUMPDEST POP SWAP1 POP PUSH1 0x0 SWAP2 POP PUSH1 0x0 JUMPDEST DUP4 MLOAD DUP2 LT ISZERO PUSH2 0x1D7B JUMPI PUSH1 0x0 PUSH20 0xFFFFFFFFFFFFFFFFFFFFFFFFFFFFFFFFFFFFFFFF AND PUSH1 0xC PUSH1 0x0 DUP7 DUP5 DUP2 MLOAD DUP2 LT PUSH2 0x1C82 JUMPI PUSH32 0x4E487B7100000000000000000000000000000000000000000000000000000000 PUSH1 0x0 MSTORE PUSH1 0x32 PUSH1 0x4 MSTORE PUSH1 0x24 PUSH1 0x0 REVERT JUMPDEST PUSH1 0x20 MUL PUSH1 0x20 ADD ADD MLOAD DUP2 MSTORE PUSH1 0x20 ADD SWAP1 DUP2 MSTORE PUSH1 0x20 ADD PUSH1 0x0 KECCAK256 PUSH1 0x0 SWAP1 SLOAD SWAP1 PUSH2 0x100 EXP SWAP1 DIV PUSH20 0xFFFFFFFFFFFFFFFFFFFFFFFFFFFFFFFFFFFFFFFF AND PUSH20 0xFFFFFFFFFFFFFFFFFFFFFFFFFFFFFFFFFFFFFFFF AND EQ ISZERO PUSH2 0x1D68 JUMPI DUP4 DUP2 DUP2 MLOAD DUP2 LT PUSH2 0x1D0E JUMPI PUSH32 0x4E487B7100000000000000000000000000000000000000000000000000000000 PUSH1 0x0 MSTORE PUSH1 0x32 PUSH1 0x4 MSTORE PUSH1 0x24 PUSH1 0x0 REVERT JUMPDEST PUSH1 0x20 MUL PUSH1 0x20 ADD ADD MLOAD DUP3 DUP5 DUP1 PUSH2 0x1D22 SWAP1 PUSH2 0x6D57 JUMP JUMPDEST SWAP6 POP DUP2 MLOAD DUP2 LT PUSH2 0x1D5B JUMPI PUSH32 0x4E487B7100000000000000000000000000000000000000000000000000000000 PUSH1 0x0 MSTORE PUSH1 0x32 PUSH1 0x4 MSTORE PUSH1 0x24 PUSH1 0x0 REVERT JUMPDEST PUSH1 0x20 MUL PUSH1 0x20 ADD ADD DUP2 DUP2 MSTORE POP POP JUMPDEST DUP1 DUP1 PUSH2 0x1D73 SWAP1 PUSH2 0x6D57 JUMP JUMPDEST SWAP2 POP POP PUSH2 0x1C24 JUMP JUMPDEST POP DUP1 SWAP4 POP POP POP POP SWAP1 JUMP JUMPDEST PUSH2 0x1DA0 DUP4 DUP4 DUP4 PUSH1 0x40 MLOAD DUP1 PUSH1 0x20 ADD PUSH1 0x40 MSTORE DUP1 PUSH1 0x0 DUP2 MSTORE POP PUSH2 0x2B31 JUMP JUMPDEST POP POP POP JUMP JUMPDEST PUSH2 0x1DAF DUP3 DUP3 PUSH2 0x3976 JUMP JUMPDEST POP POP JUMP JUMPDEST PUSH1 0x0 ADDRESS PUSH20 0xFFFFFFFFFFFFFFFFFFFFFFFFFFFFFFFFFFFFFFFF AND DUP4 PUSH20 0xFFFFFFFFFFFFFFFFFFFFFFFFFFFFFFFFFFFFFFFF AND EQ ISZERO PUSH2 0x1E54 JUMPI PUSH1 0x0 PUSH20 0xFFFFFFFFFFFFFFFFFFFFFFFFFFFFFFFFFFFFFFFF AND PUSH1 0xC PUSH1 0x0 DUP5 DUP2 MSTORE PUSH1 0x20 ADD SWAP1 DUP2 MSTORE PUSH1 0x20 ADD PUSH1 0x0 KECCAK256 PUSH1 0x0 SWAP1 SLOAD SWAP1 PUSH2 0x100 EXP SWAP1 DIV PUSH20 0xFFFFFFFFFFFFFFFFFFFFFFFFFFFFFFFFFFFFFFFF AND PUSH20 0xFFFFFFFFFFFFFFFFFFFFFFFFFFFFFFFFFFFFFFFF AND EQ ISZERO SWAP1 POP PUSH2 0x1E59 JUMP JUMPDEST PUSH1 0x0 SWAP1 POP JUMPDEST SWAP3 SWAP2 POP POP JUMP JUMPDEST PUSH1 0x0 DUP1 PUSH1 0x2 PUSH1 0x0 DUP5 DUP2 MSTORE PUSH1 0x20 ADD SWAP1 DUP2 MSTORE PUSH1 0x20 ADD PUSH1 0x0 KECCAK256 PUSH1 0x0 SWAP1 SLOAD SWAP1 PUSH2 0x100 EXP SWAP1 DIV PUSH20 0xFFFFFFFFFFFFFFFFFFFFFFFFFFFFFFFFFFFFFFFF AND SWAP1 POP PUSH1 0x0 PUSH20 0xFFFFFFFFFFFFFFFFFFFFFFFFFFFFFFFFFFFFFFFF AND DUP2 PUSH20 0xFFFFFFFFFFFFFFFFFFFFFFFFFFFFFFFFFFFFFFFF AND EQ ISZERO PUSH2 0x1F08 JUMPI PUSH1 0x40 MLOAD PUSH32 0x8C379A000000000000000000000000000000000000000000000000000000000 DUP2 MSTORE PUSH1 0x4 ADD PUSH2 0x1EFF SWAP1 PUSH2 0x6435 JUMP JUMPDEST PUSH1 0x40 MLOAD DUP1 SWAP2 SUB SWAP1 REVERT JUMPDEST DUP1 SWAP2 POP POP SWAP2 SWAP1 POP JUMP JUMPDEST PUSH1 0x0 DUP1 PUSH1 0x0 PUSH2 0x1F1F DUP5 PUSH2 0x266B JUMP JUMPDEST SWAP2 POP SWAP2 POP PUSH2 0x1F2D DUP3 DUP3 PUSH2 0x1FAE JUMP JUMPDEST SWAP3 POP POP POP SWAP2 SWAP1 POP JUMP JUMPDEST DUP2 PUSH2 0x1F40 DUP2 PUSH2 0x1E5F JUMP JUMPDEST PUSH20 0xFFFFFFFFFFFFFFFFFFFFFFFFFFFFFFFFFFFFFFFF AND PUSH2 0x1F5E PUSH2 0x32B0 JUMP JUMPDEST PUSH20 0xFFFFFFFFFFFFFFFFFFFFFFFFFFFFFFFFFFFFFFFF AND EQ PUSH2 0x1F7E JUMPI PUSH1 0x0 DUP1 REVERT JUMPDEST DUP2 PUSH1 0xE PUSH1 0x0 DUP6 DUP2 MSTORE PUSH1 0x20 ADD SWAP1 DUP2 MSTORE PUSH1 0x20 ADD PUSH1 0x0 KECCAK256 PUSH1 0x0 ADD SWAP1 DUP1 MLOAD SWAP1 PUSH1 0x20 ADD SWAP1 PUSH2 0x1FA8 SWAP3 SWAP2 SWAP1 PUSH2 0x53CC JUMP JUMPDEST POP POP POP POP JUMP JUMPDEST PUSH1 0x0 DUP1 DUP3 DUP5 PUSH2 0x1FBC SWAP1 PUSH2 0x6DD1 JUMP JUMPDEST PUSH2 0x1FC6 SWAP2 SWAP1 PUSH2 0x6A72 JUMP JUMPDEST SWAP1 POP PUSH1 0x0 DUP5 PUSH1 0xF SIGNEXTEND SGT PUSH2 0x1FE2 JUMPI DUP4 PUSH2 0x1FDD SWAP1 PUSH2 0x6DD1 JUMP JUMPDEST PUSH2 0x1FE4 JUMP JUMPDEST DUP4 JUMPDEST SWAP4 POP PUSH1 0x0 DUP2 PUSH1 0xF SIGNEXTEND SGT PUSH2 0x2000 JUMPI DUP1 PUSH2 0x1FFB SWAP1 PUSH2 0x6DD1 JUMP JUMPDEST PUSH2 0x2002 JUMP JUMPDEST DUP1 JUMPDEST SWAP1 POP PUSH1 0x0 DUP4 PUSH1 0xF SIGNEXTEND SGT PUSH2 0x201E JUMPI DUP3 PUSH2 0x2019 SWAP1 PUSH2 0x6DD1 JUMP JUMPDEST PUSH2 0x2020 JUMP JUMPDEST DUP3 JUMPDEST SWAP3 POP DUP1 PUSH1 0xF SIGNEXTEND DUP5 PUSH1 0xF SIGNEXTEND SGT PUSH2 0x2049 JUMPI DUP3 PUSH1 0xF SIGNEXTEND DUP2 PUSH1 0xF SIGNEXTEND SGT PUSH2 0x2042 JUMPI DUP3 PUSH2 0x2044 JUMP JUMPDEST DUP1 JUMPDEST PUSH2 0x205F JUMP JUMPDEST DUP3 PUSH1 0xF SIGNEXTEND DUP5 PUSH1 0xF SIGNEXTEND SGT PUSH2 0x205C JUMPI DUP3 PUSH2 0x205E JUMP JUMPDEST DUP4 JUMPDEST JUMPDEST PUSH16 0xFFFFFFFFFFFFFFFFFFFFFFFFFFFFFFFF AND SWAP2 POP POP SWAP3 SWAP2 POP POP JUMP JUMPDEST PUSH1 0x0 DUP1 PUSH20 0xFFFFFFFFFFFFFFFFFFFFFFFFFFFFFFFFFFFFFFFF AND DUP3 PUSH20 0xFFFFFFFFFFFFFFFFFFFFFFFFFFFFFFFFFFFFFFFF AND EQ ISZERO PUSH2 0x20EB JUMPI PUSH1 0x40 MLOAD PUSH32 0x8C379A000000000000000000000000000000000000000000000000000000000 DUP2 MSTORE PUSH1 0x4 ADD PUSH2 0x20E2 SWAP1 PUSH2 0x6415 JUMP JUMPDEST PUSH1 0x40 MLOAD DUP1 SWAP2 SUB SWAP1 REVERT JUMPDEST PUSH1 0x3 PUSH1 0x0 DUP4 PUSH20 0xFFFFFFFFFFFFFFFFFFFFFFFFFFFFFFFFFFFFFFFF AND PUSH20 0xFFFFFFFFFFFFFFFFFFFFFFFFFFFFFFFFFFFFFFFF AND DUP2 MSTORE PUSH1 0x20 ADD SWAP1 DUP2 MSTORE PUSH1 0x20 ADD PUSH1 0x0 KECCAK256 SLOAD SWAP1 POP SWAP2 SWAP1 POP JUMP JUMPDEST PUSH2 0x213A PUSH2 0x32B0 JUMP JUMPDEST PUSH20 0xFFFFFFFFFFFFFFFFFFFFFFFFFFFFFFFFFFFFFFFF AND PUSH2 0x2158 PUSH2 0x2771 JUMP JUMPDEST PUSH20 0xFFFFFFFFFFFFFFFFFFFFFFFFFFFFFFFFFFFFFFFF AND EQ PUSH2 0x21AE JUMPI PUSH1 0x40 MLOAD PUSH32 0x8C379A000000000000000000000000000000000000000000000000000000000 DUP2 MSTORE PUSH1 0x4 ADD PUSH2 0x21A5 SWAP1 PUSH2 0x6495 JUMP JUMPDEST PUSH1 0x40 MLOAD DUP1 SWAP2 SUB SWAP1 REVERT JUMPDEST PUSH1 0x0 PUSH20 0xFFFFFFFFFFFFFFFFFFFFFFFFFFFFFFFFFFFFFFFF AND PUSH1 0x6 PUSH1 0x0 SWAP1 SLOAD SWAP1 PUSH2 0x100 EXP SWAP1 DIV PUSH20 0xFFFFFFFFFFFFFFFFFFFFFFFFFFFFFFFFFFFFFFFF AND PUSH20 0xFFFFFFFFFFFFFFFFFFFFFFFFFFFFFFFFFFFFFFFF AND PUSH32 0x8BE0079C531659141344CD1FD0A4F28419497F9722A3DAAFE3B4186F6B6457E0 PUSH1 0x40 MLOAD PUSH1 0x40 MLOAD DUP1 SWAP2 SUB SWAP1 LOG3 PUSH1 0x0 PUSH1 0x6 PUSH1 0x0 PUSH2 0x100 EXP DUP2 SLOAD DUP2 PUSH20 0xFFFFFFFFFFFFFFFFFFFFFFFFFFFFFFFFFFFFFFFF MUL NOT AND SWAP1 DUP4 PUSH20 0xFFFFFFFFFFFFFFFFFFFFFFFFFFFFFFFFFFFFFFFF AND MUL OR SWAP1 SSTORE POP JUMP JUMPDEST PUSH1 0x60 PUSH2 0x227B DUP4 DUP4 PUSH2 0x3B2F JUMP JUMPDEST SWAP1 POP SWAP3 SWAP2 POP POP JUMP JUMPDEST PUSH1 0xE PUSH1 0x20 MSTORE DUP1 PUSH1 0x0 MSTORE PUSH1 0x40 PUSH1 0x0 KECCAK256 PUSH1 0x0 SWAP2 POP SWAP1 POP DUP1 PUSH1 0x0 ADD DUP1 SLOAD PUSH2 0x22A6 SWAP1 PUSH2 0x6CBB JUMP JUMPDEST DUP1 PUSH1 0x1F ADD PUSH1 0x20 DUP1 SWAP2 DIV MUL PUSH1 0x20 ADD PUSH1 0x40 MLOAD SWAP1 DUP2 ADD PUSH1 0x40 MSTORE DUP1 SWAP3 SWAP2 SWAP1 DUP2 DUP2 MSTORE PUSH1 0x20 ADD DUP3 DUP1 SLOAD PUSH2 0x22D2 SWAP1 PUSH2 0x6CBB JUMP JUMPDEST DUP1 ISZERO PUSH2 0x231F JUMPI DUP1 PUSH1 0x1F LT PUSH2 0x22F4 JUMPI PUSH2 0x100 DUP1 DUP4 SLOAD DIV MUL DUP4 MSTORE SWAP2 PUSH1 0x20 ADD SWAP2 PUSH2 0x231F JUMP JUMPDEST DUP3 ADD SWAP2 SWAP1 PUSH1 0x0 MSTORE PUSH1 0x20 PUSH1 0x0 KECCAK256 SWAP1 JUMPDEST DUP2 SLOAD DUP2 MSTORE SWAP1 PUSH1 0x1 ADD SWAP1 PUSH1 0x20 ADD DUP1 DUP4 GT PUSH2 0x2302 JUMPI DUP3 SWAP1 SUB PUSH1 0x1F AND DUP3 ADD SWAP2 JUMPDEST POP POP POP POP POP SWAP1 POP DUP2 JUMP JUMPDEST PUSH1 0x0 PUSH2 0x2333 PUSH2 0x32B0 JUMP JUMPDEST PUSH20 0xFFFFFFFFFFFFFFFFFFFFFFFFFFFFFFFFFFFFFFFF AND PUSH2 0x2351 PUSH2 0x2771 JUMP JUMPDEST PUSH20 0xFFFFFFFFFFFFFFFFFFFFFFFFFFFFFFFFFFFFFFFF AND EQ PUSH2 0x23A7 JUMPI PUSH1 0x40 MLOAD PUSH32 0x8C379A000000000000000000000000000000000000000000000000000000000 DUP2 MSTORE PUSH1 0x4 ADD PUSH2 0x239E SWAP1 PUSH2 0x6495 JUMP JUMPDEST PUSH1 0x40 MLOAD DUP1 SWAP2 SUB SWAP1 REVERT JUMPDEST PUSH1 0x0 PUSH2 0x23B1 PUSH2 0x2B93 JUMP JUMPDEST SWAP1 POP PUSH1 0x0 JUMPDEST DUP2 MLOAD DUP2 LT ISZERO PUSH2 0x2493 JUMPI DUP2 DUP2 DUP2 MLOAD DUP2 LT PUSH2 0x23F8 JUMPI PUSH32 0x4E487B7100000000000000000000000000000000000000000000000000000000 PUSH1 0x0 MSTORE PUSH1 0x32 PUSH1 0x4 MSTORE PUSH1 0x24 PUSH1 0x0 REVERT JUMPDEST PUSH1 0x20 MUL PUSH1 0x20 ADD ADD MLOAD PUSH20 0xFFFFFFFFFFFFFFFFFFFFFFFFFFFFFFFFFFFFFFFF AND PUSH4 0x853828B6 PUSH1 0x40 MLOAD DUP2 PUSH4 0xFFFFFFFF AND PUSH1 0xE0 SHL DUP2 MSTORE PUSH1 0x4 ADD PUSH1 0x20 PUSH1 0x40 MLOAD DUP1 DUP4 SUB DUP2 PUSH1 0x0 DUP8 DUP1 EXTCODESIZE ISZERO DUP1 ISZERO PUSH2 0x2447 JUMPI PUSH1 0x0 DUP1 REVERT JUMPDEST POP GAS CALL ISZERO DUP1 ISZERO PUSH2 0x245B JUMPI RETURNDATASIZE PUSH1 0x0 DUP1 RETURNDATACOPY RETURNDATASIZE PUSH1 0x0 REVERT JUMPDEST POP POP POP POP PUSH1 0x40 MLOAD RETURNDATASIZE PUSH1 0x1F NOT PUSH1 0x1F DUP3 ADD AND DUP3 ADD DUP1 PUSH1 0x40 MSTORE POP DUP2 ADD SWAP1 PUSH2 0x247F SWAP2 SWAP1 PUSH2 0x5A8F JUMP JUMPDEST POP DUP1 DUP1 PUSH2 0x248B SWAP1 PUSH2 0x6D57 JUMP JUMPDEST SWAP2 POP POP PUSH2 0x23B6 JUMP JUMPDEST POP PUSH2 0x24BD PUSH32 0xFFFFFFFFFFFFFFFFFFFFFFFFFFFFFFFFFFFFFFFFFFFFFFFFFFFFFFFFFFFFFFFF PUSH2 0x36AB JUMP JUMPDEST SWAP2 POP POP SWAP1 JUMP JUMPDEST PUSH1 0x0 PUSH2 0x24CD PUSH2 0x32B0 JUMP JUMPDEST PUSH20 0xFFFFFFFFFFFFFFFFFFFFFFFFFFFFFFFFFFFFFFFF AND PUSH2 0x24EB PUSH2 0x2771 JUMP JUMPDEST PUSH20 0xFFFFFFFFFFFFFFFFFFFFFFFFFFFFFFFFFFFFFFFF AND EQ PUSH2 0x2541 JUMPI PUSH1 0x40 MLOAD PUSH32 0x8C379A000000000000000000000000000000000000000000000000000000000 DUP2 MSTORE PUSH1 0x4 ADD PUSH2 0x2538 SWAP1 PUSH2 0x6495 JUMP JUMPDEST PUSH1 0x40 MLOAD DUP1 SWAP2 SUB SWAP1 REVERT JUMPDEST PUSH1 0x0 PUSH2 0x254B PUSH2 0x1448 JUMP JUMPDEST SWAP1 POP PUSH1 0x0 JUMPDEST DUP2 MLOAD DUP2 LT ISZERO PUSH2 0x2638 JUMPI DUP2 DUP2 DUP2 MLOAD DUP2 LT PUSH2 0x2592 JUMPI PUSH32 0x4E487B7100000000000000000000000000000000000000000000000000000000 PUSH1 0x0 MSTORE PUSH1 0x32 PUSH1 0x4 MSTORE PUSH1 0x24 PUSH1 0x0 REVERT JUMPDEST PUSH1 0x20 MUL PUSH1 0x20 ADD ADD MLOAD PUSH20 0xFFFFFFFFFFFFFFFFFFFFFFFFFFFFFFFFFFFFFFFF AND PUSH4 0x857ABBD4 DUP6 PUSH1 0x40 MLOAD DUP3 PUSH4 0xFFFFFFFF AND PUSH1 0xE0 SHL DUP2 MSTORE PUSH1 0x4 ADD PUSH2 0x25D2 SWAP2 SWAP1 PUSH2 0x611E JUMP JUMPDEST PUSH1 0x20 PUSH1 0x40 MLOAD DUP1 DUP4 SUB DUP2 PUSH1 0x0 DUP8 DUP1 EXTCODESIZE ISZERO DUP1 ISZERO PUSH2 0x25EC JUMPI PUSH1 0x0 DUP1 REVERT JUMPDEST POP GAS CALL ISZERO DUP1 ISZERO PUSH2 0x2600 JUMPI RETURNDATASIZE PUSH1 0x0 DUP1 RETURNDATACOPY RETURNDATASIZE PUSH1 0x0 REVERT JUMPDEST POP POP POP POP PUSH1 0x40 MLOAD RETURNDATASIZE PUSH1 0x1F NOT PUSH1 0x1F DUP3 ADD AND DUP3 ADD DUP1 PUSH1 0x40 MSTORE POP DUP2 ADD SWAP1 PUSH2 0x2624 SWAP2 SWAP1 PUSH2 0x5A8F JUMP JUMPDEST POP DUP1 DUP1 PUSH2 0x2630 SWAP1 PUSH2 0x6D57 JUMP JUMPDEST SWAP2 POP POP PUSH2 0x2550 JUMP JUMPDEST POP PUSH2 0x2663 DUP4 PUSH32 0xFFFFFFFFFFFFFFFFFFFFFFFFFFFFFFFFFFFFFFFFFFFFFFFFFFFFFFFFFFFFFFFF PUSH2 0x3DDE JUMP JUMPDEST SWAP2 POP POP SWAP2 SWAP1 POP JUMP JUMPDEST PUSH1 0x0 DUP1 PUSH1 0x80 DUP4 SWAP1 SHR DUP4 SWAP2 POP SWAP2 POP SWAP2 POP SWAP2 JUMP JUMPDEST PUSH1 0x0 DUP1 PUSH1 0x0 PUSH2 0x268B DUP5 PUSH2 0x1F11 JUMP JUMPDEST SWAP1 POP PUSH1 0x10 PUSH1 0x0 SWAP1 SLOAD SWAP1 PUSH2 0x100 EXP SWAP1 DIV PUSH16 0xFFFFFFFFFFFFFFFFFFFFFFFFFFFFFFFF AND PUSH16 0xFFFFFFFFFFFFFFFFFFFFFFFFFFFFFFFF AND DUP2 GT ISZERO PUSH2 0x26CE JUMPI PUSH1 0x0 SWAP1 POP PUSH2 0x270D JUMP JUMPDEST DUP1 PUSH1 0x10 PUSH1 0x0 SWAP1 SLOAD SWAP1 PUSH2 0x100 EXP SWAP1 DIV PUSH16 0xFFFFFFFFFFFFFFFFFFFFFFFFFFFFFFFF AND PUSH16 0xFFFFFFFFFFFFFFFFFFFFFFFFFFFFFFFF AND PUSH2 0x270A SWAP2 SWAP1 PUSH2 0x6B2A JUMP JUMPDEST SWAP1 POP JUMPDEST DUP1 DUP2 PUSH1 0x2 PUSH2 0x271B SWAP2 SWAP1 PUSH2 0x68B0 JUMP JUMPDEST PUSH1 0xF SLOAD PUSH2 0x2728 SWAP2 SWAP1 PUSH2 0x6A18 JUMP JUMPDEST SWAP3 POP SWAP3 POP POP SWAP2 POP SWAP2 JUMP JUMPDEST PUSH1 0x16 DUP2 DUP2 SLOAD DUP2 LT PUSH2 0x2742 JUMPI PUSH1 0x0 DUP1 REVERT JUMPDEST SWAP1 PUSH1 0x0 MSTORE PUSH1 0x20 PUSH1 0x0 KECCAK256 ADD PUSH1 0x0 SWAP2 POP SLOAD SWAP1 PUSH2 0x100 EXP SWAP1 DIV PUSH20 0xFFFFFFFFFFFFFFFFFFFFFFFFFFFFFFFFFFFFFFFF AND DUP2 JUMP JUMPDEST PUSH1 0x0 PUSH1 0x6 PUSH1 0x0 SWAP1 SLOAD SWAP1 PUSH2 0x100 EXP SWAP1 DIV PUSH20 0xFFFFFFFFFFFFFFFFFFFFFFFFFFFFFFFFFFFFFFFF AND SWAP1 POP SWAP1 JUMP JUMPDEST PUSH1 0x60 PUSH1 0x1 DUP1 SLOAD PUSH2 0x27AA SWAP1 PUSH2 0x6CBB JUMP JUMPDEST DUP1 PUSH1 0x1F ADD PUSH1 0x20 DUP1 SWAP2 DIV MUL PUSH1 0x20 ADD PUSH1 0x40 MLOAD SWAP1 DUP2 ADD PUSH1 0x40 MSTORE DUP1 SWAP3 SWAP2 SWAP1 DUP2 DUP2 MSTORE PUSH1 0x20 ADD DUP3 DUP1 SLOAD PUSH2 0x27D6 SWAP1 PUSH2 0x6CBB JUMP JUMPDEST DUP1 ISZERO PUSH2 0x2823 JUMPI DUP1 PUSH1 0x1F LT PUSH2 0x27F8 JUMPI PUSH2 0x100 DUP1 DUP4 SLOAD DIV MUL DUP4 MSTORE SWAP2 PUSH1 0x20 ADD SWAP2 PUSH2 0x2823 JUMP JUMPDEST DUP3 ADD SWAP2 SWAP1 PUSH1 0x0 MSTORE PUSH1 0x20 PUSH1 0x0 KECCAK256 SWAP1 JUMPDEST DUP2 SLOAD DUP2 MSTORE SWAP1 PUSH1 0x1 ADD SWAP1 PUSH1 0x20 ADD DUP1 DUP4 GT PUSH2 0x2806 JUMPI DUP3 SWAP1 SUB PUSH1 0x1F AND DUP3 ADD SWAP2 JUMPDEST POP POP POP POP POP SWAP1 POP SWAP1 JUMP JUMPDEST PUSH2 0x2835 PUSH2 0x32B0 JUMP JUMPDEST PUSH20 0xFFFFFFFFFFFFFFFFFFFFFFFFFFFFFFFFFFFFFFFF AND PUSH1 0x9 PUSH1 0x0 DUP4 DUP2 MSTORE PUSH1 0x20 ADD SWAP1 DUP2 MSTORE PUSH1 0x20 ADD PUSH1 0x0 KECCAK256 PUSH1 0x0 ADD PUSH1 0x1 SWAP1 SLOAD SWAP1 PUSH2 0x100 EXP SWAP1 DIV PUSH20 0xFFFFFFFFFFFFFFFFFFFFFFFFFFFFFFFFFFFFFFFF AND PUSH20 0xFFFFFFFFFFFFFFFFFFFFFFFFFFFFFFFFFFFFFFFF AND EQ PUSH2 0x28A2 JUMPI PUSH1 0x0 DUP1 REVERT JUMPDEST PUSH2 0x28AD DUP2 PUSH1 0x1 PUSH2 0x3FDF JUMP JUMPDEST POP JUMP JUMPDEST PUSH1 0x15 SLOAD DUP2 JUMP JUMPDEST PUSH1 0x0 PUSH2 0x28C0 PUSH2 0x32B0 JUMP JUMPDEST PUSH20 0xFFFFFFFFFFFFFFFFFFFFFFFFFFFFFFFFFFFFFFFF AND PUSH2 0x28DE PUSH2 0x2771 JUMP JUMPDEST PUSH20 0xFFFFFFFFFFFFFFFFFFFFFFFFFFFFFFFFFFFFFFFF AND EQ PUSH2 0x2934 JUMPI PUSH1 0x40 MLOAD PUSH32 0x8C379A000000000000000000000000000000000000000000000000000000000 DUP2 MSTORE PUSH1 0x4 ADD PUSH2 0x292B SWAP1 PUSH2 0x6495 JUMP JUMPDEST PUSH1 0x40 MLOAD DUP1 SWAP2 SUB SWAP1 REVERT JUMPDEST PUSH2 0x293E DUP4 DUP4 PUSH2 0x3DDE JUMP JUMPDEST SWAP1 POP SWAP3 SWAP2 POP POP JUMP JUMPDEST PUSH2 0x294E PUSH2 0x32B0 JUMP JUMPDEST PUSH20 0xFFFFFFFFFFFFFFFFFFFFFFFFFFFFFFFFFFFFFFFF AND DUP3 PUSH20 0xFFFFFFFFFFFFFFFFFFFFFFFFFFFFFFFFFFFFFFFF AND EQ ISZERO PUSH2 0x29BC JUMPI PUSH1 0x40 MLOAD PUSH32 0x8C379A000000000000000000000000000000000000000000000000000000000 DUP2 MSTORE PUSH1 0x4 ADD PUSH2 0x29B3 SWAP1 PUSH2 0x6375 JUMP JUMPDEST PUSH1 0x40 MLOAD DUP1 SWAP2 SUB SWAP1 REVERT JUMPDEST DUP1 PUSH1 0x5 PUSH1 0x0 PUSH2 0x29C9 PUSH2 0x32B0 JUMP JUMPDEST PUSH20 0xFFFFFFFFFFFFFFFFFFFFFFFFFFFFFFFFFFFFFFFF AND PUSH20 0xFFFFFFFFFFFFFFFFFFFFFFFFFFFFFFFFFFFFFFFF AND DUP2 MSTORE PUSH1 0x20 ADD SWAP1 DUP2 MSTORE PUSH1 0x20 ADD PUSH1 0x0 KECCAK256 PUSH1 0x0 DUP5 PUSH20 0xFFFFFFFFFFFFFFFFFFFFFFFFFFFFFFFFFFFFFFFF AND PUSH20 0xFFFFFFFFFFFFFFFFFFFFFFFFFFFFFFFFFFFFFFFF AND DUP2 MSTORE PUSH1 0x20 ADD SWAP1 DUP2 MSTORE PUSH1 0x20 ADD PUSH1 0x0 KECCAK256 PUSH1 0x0 PUSH2 0x100 EXP DUP2 SLOAD DUP2 PUSH1 0xFF MUL NOT AND SWAP1 DUP4 ISZERO ISZERO MUL OR SWAP1 SSTORE POP DUP2 PUSH20 0xFFFFFFFFFFFFFFFFFFFFFFFFFFFFFFFFFFFFFFFF AND PUSH2 0x2A76 PUSH2 0x32B0 JUMP JUMPDEST PUSH20 0xFFFFFFFFFFFFFFFFFFFFFFFFFFFFFFFFFFFFFFFF AND PUSH32 0x17307EAB39AB6107E8899845AD3D59BD9653F200F220920489CA2B5937696C31 DUP4 PUSH1 0x40 MLOAD PUSH2 0x2ABB SWAP2 SWAP1 PUSH2 0x6274 JUMP JUMPDEST PUSH1 0x40 MLOAD DUP1 SWAP2 SUB SWAP1 LOG3 POP POP JUMP JUMPDEST PUSH1 0x0 PUSH2 0x2AD7 PUSH1 0x1 PUSH1 0x0 DUP5 DUP7 PUSH2 0x4320 JUMP JUMPDEST SWAP1 POP SWAP3 SWAP2 POP POP JUMP JUMPDEST PUSH1 0x0 DUP2 PUSH16 0xFFFFFFFFFFFFFFFFFFFFFFFFFFFFFFFF AND PUSH1 0x80 DUP5 PUSH16 0xFFFFFFFFFFFFFFFFFFFFFFFFFFFFFFFF AND SWAP1 SHL PUSH2 0x2B15 SWAP2 SWAP1 PUSH2 0x675A JUMP JUMPDEST SWAP1 POP SWAP3 SWAP2 POP POP JUMP JUMPDEST PUSH2 0x2B2E DUP2 PUSH2 0x2B29 PUSH2 0x32B0 JUMP JUMPDEST PUSH2 0x3976 JUMP JUMPDEST POP JUMP JUMPDEST PUSH2 0x2B42 PUSH2 0x2B3C PUSH2 0x32B0 JUMP JUMPDEST DUP4 PUSH2 0x3371 JUMP JUMPDEST PUSH2 0x2B81 JUMPI PUSH1 0x40 MLOAD PUSH32 0x8C379A000000000000000000000000000000000000000000000000000000000 DUP2 MSTORE PUSH1 0x4 ADD PUSH2 0x2B78 SWAP1 PUSH2 0x6515 JUMP JUMPDEST PUSH1 0x40 MLOAD DUP1 SWAP2 SUB SWAP1 REVERT JUMPDEST PUSH2 0x2B8D DUP5 DUP5 DUP5 DUP5 PUSH2 0x462B JUMP JUMPDEST POP POP POP POP JUMP JUMPDEST PUSH1 0x60 PUSH1 0x0 PUSH1 0x1 PUSH8 0xFFFFFFFFFFFFFFFF DUP2 GT ISZERO PUSH2 0x2BD8 JUMPI PUSH32 0x4E487B7100000000000000000000000000000000000000000000000000000000 PUSH1 0x0 MSTORE PUSH1 0x41 PUSH1 0x4 MSTORE PUSH1 0x24 PUSH1 0x0 REVERT JUMPDEST PUSH1 0x40 MLOAD SWAP1 DUP1 DUP3 MSTORE DUP1 PUSH1 0x20 MUL PUSH1 0x20 ADD DUP3 ADD PUSH1 0x40 MSTORE DUP1 ISZERO PUSH2 0x2C06 JUMPI DUP2 PUSH1 0x20 ADD PUSH1 0x20 DUP3 MUL DUP1 CALLDATASIZE DUP4 CALLDATACOPY DUP1 DUP3 ADD SWAP2 POP POP SWAP1 POP JUMPDEST POP SWAP1 POP PUSH1 0xD PUSH1 0x0 SWAP1 SLOAD SWAP1 PUSH2 0x100 EXP SWAP1 DIV PUSH20 0xFFFFFFFFFFFFFFFFFFFFFFFFFFFFFFFFFFFFFFFF AND DUP2 PUSH1 0x0 DUP2 MLOAD DUP2 LT PUSH2 0x2C66 JUMPI PUSH32 0x4E487B7100000000000000000000000000000000000000000000000000000000 PUSH1 0x0 MSTORE PUSH1 0x32 PUSH1 0x4 MSTORE PUSH1 0x24 PUSH1 0x0 REVERT JUMPDEST PUSH1 0x20 MUL PUSH1 0x20 ADD ADD SWAP1 PUSH20 0xFFFFFFFFFFFFFFFFFFFFFFFFFFFFFFFFFFFFFFFF AND SWAP1 DUP2 PUSH20 0xFFFFFFFFFFFFFFFFFFFFFFFFFFFFFFFFFFFFFFFF AND DUP2 MSTORE POP POP DUP1 SWAP2 POP POP SWAP1 JUMP JUMPDEST PUSH1 0x0 PUSH2 0x2CB7 PUSH1 0x0 PUSH1 0x1 DUP5 DUP7 PUSH2 0x4320 JUMP JUMPDEST SWAP1 POP SWAP3 SWAP2 POP POP JUMP JUMPDEST PUSH1 0x60 PUSH2 0x2CCA DUP3 PUSH2 0x3244 JUMP JUMPDEST PUSH2 0x2D09 JUMPI PUSH1 0x40 MLOAD PUSH32 0x8C379A000000000000000000000000000000000000000000000000000000000 DUP2 MSTORE PUSH1 0x4 ADD PUSH2 0x2D00 SWAP1 PUSH2 0x64D5 JUMP JUMPDEST PUSH1 0x40 MLOAD DUP1 SWAP2 SUB SWAP1 REVERT JUMPDEST PUSH1 0x0 PUSH2 0x2D13 PUSH2 0x4687 JUMP JUMPDEST SWAP1 POP PUSH1 0x0 DUP2 MLOAD GT PUSH2 0x2D33 JUMPI PUSH1 0x40 MLOAD DUP1 PUSH1 0x20 ADD PUSH1 0x40 MSTORE DUP1 PUSH1 0x0 DUP2 MSTORE POP PUSH2 0x2D5E JUMP JUMPDEST DUP1 PUSH2 0x2D3D DUP5 PUSH2 0x469E JUMP JUMPDEST PUSH1 0x40 MLOAD PUSH1 0x20 ADD PUSH2 0x2D4E SWAP3 SWAP2 SWAP1 PUSH2 0x60E5 JUMP JUMPDEST PUSH1 0x40 MLOAD PUSH1 0x20 DUP2 DUP4 SUB SUB DUP2 MSTORE SWAP1 PUSH1 0x40 MSTORE JUMPDEST SWAP2 POP POP SWAP2 SWAP1 POP JUMP JUMPDEST PUSH1 0x0 PUSH2 0x2D75 PUSH1 0x1 DUP1 DUP5 DUP7 PUSH2 0x4320 JUMP JUMPDEST SWAP1 POP SWAP3 SWAP2 POP POP JUMP JUMPDEST PUSH1 0x13 SLOAD DUP2 JUMP JUMPDEST PUSH1 0x0 PUSH1 0x12 SLOAD TIMESTAMP GT PUSH2 0x2D93 JUMPI PUSH1 0x0 DUP1 REVERT JUMPDEST PUSH1 0x13 SLOAD PUSH1 0x12 PUSH1 0x0 DUP3 DUP3 SLOAD PUSH2 0x2DA7 SWAP2 SWAP1 PUSH2 0x675A JUMP JUMPDEST SWAP3 POP POP DUP2 SWAP1 SSTORE POP PUSH1 0xD PUSH1 0x0 SWAP1 SLOAD SWAP1 PUSH2 0x100 EXP SWAP1 DIV PUSH20 0xFFFFFFFFFFFFFFFFFFFFFFFFFFFFFFFFFFFFFFFF AND PUSH20 0xFFFFFFFFFFFFFFFFFFFFFFFFFFFFFFFFFFFFFFFF AND PUSH4 0x40C10F19 PUSH2 0x2DF4 PUSH2 0x32B0 JUMP JUMPDEST PUSH1 0xA PUSH1 0x40 MLOAD DUP4 PUSH4 0xFFFFFFFF AND PUSH1 0xE0 SHL DUP2 MSTORE PUSH1 0x4 ADD PUSH2 0x2E13 SWAP3 SWAP2 SWAP1 PUSH2 0x61BC JUMP JUMPDEST PUSH1 0x0 PUSH1 0x40 MLOAD DUP1 DUP4 SUB DUP2 PUSH1 0x0 DUP8 DUP1 EXTCODESIZE ISZERO DUP1 ISZERO PUSH2 0x2E2D JUMPI PUSH1 0x0 DUP1 REVERT JUMPDEST POP GAS CALL ISZERO DUP1 ISZERO PUSH2 0x2E41 JUMPI RETURNDATASIZE PUSH1 0x0 DUP1 RETURNDATACOPY RETURNDATASIZE PUSH1 0x0 REVERT JUMPDEST POP POP POP POP PUSH1 0xA PUSH2 0x2E4F PUSH2 0x484B JUMP JUMPDEST PUSH2 0x2E59 SWAP2 SWAP1 PUSH2 0x675A JUMP JUMPDEST SWAP1 POP SWAP1 JUMP JUMPDEST PUSH1 0x0 DUP2 PUSH20 0xFFFFFFFFFFFFFFFFFFFFFFFFFFFFFFFFFFFFFFFF AND PUSH1 0x7 PUSH1 0x0 SWAP1 SLOAD SWAP1 PUSH2 0x100 EXP SWAP1 DIV PUSH20 0xFFFFFFFFFFFFFFFFFFFFFFFFFFFFFFFFFFFFFFFF AND PUSH20 0xFFFFFFFFFFFFFFFFFFFFFFFFFFFFFFFFFFFFFFFF AND EQ ISZERO PUSH2 0x2EC0 JUMPI PUSH1 0xB SLOAD SWAP1 POP PUSH2 0x2EC5 JUMP JUMPDEST PUSH1 0x0 SWAP1 POP JUMPDEST SWAP2 SWAP1 POP JUMP JUMPDEST PUSH1 0x0 PUSH1 0x5 PUSH1 0x0 DUP5 PUSH20 0xFFFFFFFFFFFFFFFFFFFFFFFFFFFFFFFFFFFFFFFF AND PUSH20 0xFFFFFFFFFFFFFFFFFFFFFFFFFFFFFFFFFFFFFFFF AND DUP2 MSTORE PUSH1 0x20 ADD SWAP1 DUP2 MSTORE PUSH1 0x20 ADD PUSH1 0x0 KECCAK256 PUSH1 0x0 DUP4 PUSH20 0xFFFFFFFFFFFFFFFFFFFFFFFFFFFFFFFFFFFFFFFF AND PUSH20 0xFFFFFFFFFFFFFFFFFFFFFFFFFFFFFFFFFFFFFFFF AND DUP2 MSTORE PUSH1 0x20 ADD SWAP1 DUP2 MSTORE PUSH1 0x20 ADD PUSH1 0x0 KECCAK256 PUSH1 0x0 SWAP1 SLOAD SWAP1 PUSH2 0x100 EXP SWAP1 DIV PUSH1 0xFF AND SWAP1 POP SWAP3 SWAP2 POP POP JUMP JUMPDEST PUSH1 0x60 PUSH2 0x2F6A PUSH1 0x0 PUSH2 0x1562 JUMP JUMPDEST SWAP1 POP SWAP1 JUMP JUMPDEST PUSH1 0x0 PUSH2 0x2F7E PUSH1 0x0 DUP1 DUP5 DUP7 PUSH2 0x4320 JUMP JUMPDEST SWAP1 POP SWAP3 SWAP2 POP POP JUMP JUMPDEST PUSH2 0x2F8E PUSH2 0x32B0 JUMP JUMPDEST PUSH20 0xFFFFFFFFFFFFFFFFFFFFFFFFFFFFFFFFFFFFFFFF AND PUSH2 0x2FAC PUSH2 0x2771 JUMP JUMPDEST PUSH20 0xFFFFFFFFFFFFFFFFFFFFFFFFFFFFFFFFFFFFFFFF AND EQ PUSH2 0x3002 JUMPI PUSH1 0x40 MLOAD PUSH32 0x8C379A000000000000000000000000000000000000000000000000000000000 DUP2 MSTORE PUSH1 0x4 ADD PUSH2 0x2FF9 SWAP1 PUSH2 0x6495 JUMP JUMPDEST PUSH1 0x40 MLOAD DUP1 SWAP2 SUB SWAP1 REVERT JUMPDEST PUSH1 0x0 PUSH20 0xFFFFFFFFFFFFFFFFFFFFFFFFFFFFFFFFFFFFFFFF AND DUP2 PUSH20 0xFFFFFFFFFFFFFFFFFFFFFFFFFFFFFFFFFFFFFFFF AND EQ ISZERO PUSH2 0x3072 JUMPI PUSH1 0x40 MLOAD PUSH32 0x8C379A000000000000000000000000000000000000000000000000000000000 DUP2 MSTORE PUSH1 0x4 ADD PUSH2 0x3069 SWAP1 PUSH2 0x6315 JUMP JUMPDEST PUSH1 0x40 MLOAD DUP1 SWAP2 SUB SWAP1 REVERT JUMPDEST DUP1 PUSH20 0xFFFFFFFFFFFFFFFFFFFFFFFFFFFFFFFFFFFFFFFF AND PUSH1 0x6 PUSH1 0x0 SWAP1 SLOAD SWAP1 PUSH2 0x100 EXP SWAP1 DIV PUSH20 0xFFFFFFFFFFFFFFFFFFFFFFFFFFFFFFFFFFFFFFFF AND PUSH20 0xFFFFFFFFFFFFFFFFFFFFFFFFFFFFFFFFFFFFFFFF AND PUSH32 0x8BE0079C531659141344CD1FD0A4F28419497F9722A3DAAFE3B4186F6B6457E0 PUSH1 0x40 MLOAD PUSH1 0x40 MLOAD DUP1 SWAP2 SUB SWAP1 LOG3 DUP1 PUSH1 0x6 PUSH1 0x0 PUSH2 0x100 EXP DUP2 SLOAD DUP2 PUSH20 0xFFFFFFFFFFFFFFFFFFFFFFFFFFFFFFFFFFFFFFFF MUL NOT AND SWAP1 DUP4 PUSH20 0xFFFFFFFFFFFFFFFFFFFFFFFFFFFFFFFFFFFFFFFF AND MUL OR SWAP1 SSTORE POP POP JUMP JUMPDEST PUSH2 0x313A PUSH2 0x32B0 JUMP JUMPDEST PUSH20 0xFFFFFFFFFFFFFFFFFFFFFFFFFFFFFFFFFFFFFFFF AND PUSH2 0x3158 PUSH2 0x2771 JUMP JUMPDEST PUSH20 0xFFFFFFFFFFFFFFFFFFFFFFFFFFFFFFFFFFFFFFFF AND EQ PUSH2 0x31AE JUMPI PUSH1 0x40 MLOAD PUSH32 0x8C379A000000000000000000000000000000000000000000000000000000000 DUP2 MSTORE PUSH1 0x4 ADD PUSH2 0x31A5 SWAP1 PUSH2 0x6495 JUMP JUMPDEST PUSH1 0x40 MLOAD DUP1 SWAP2 SUB SWAP1 REVERT JUMPDEST PUSH2 0x31B8 DUP3 DUP3 PUSH2 0x4A47 JUMP JUMPDEST POP POP JUMP JUMPDEST PUSH1 0x0 PUSH1 0xA SLOAD SWAP1 POP SWAP1 JUMP JUMPDEST PUSH1 0x60 PUSH2 0x31D2 DUP4 DUP4 PUSH2 0x4B7F JUMP JUMPDEST SWAP1 POP SWAP3 SWAP2 POP POP JUMP JUMPDEST PUSH1 0x0 PUSH32 0x1FFC9A700000000000000000000000000000000000000000000000000000000 PUSH28 0xFFFFFFFFFFFFFFFFFFFFFFFFFFFFFFFFFFFFFFFFFFFFFFFFFFFFFFFF NOT AND DUP3 PUSH28 0xFFFFFFFFFFFFFFFFFFFFFFFFFFFFFFFFFFFFFFFFFFFFFFFFFFFFFFFF NOT AND EQ SWAP1 POP SWAP2 SWAP1 POP JUMP JUMPDEST PUSH1 0x0 DUP1 PUSH20 0xFFFFFFFFFFFFFFFFFFFFFFFFFFFFFFFFFFFFFFFF AND PUSH1 0x2 PUSH1 0x0 DUP5 DUP2 MSTORE PUSH1 0x20 ADD SWAP1 DUP2 MSTORE PUSH1 0x20 ADD PUSH1 0x0 KECCAK256 PUSH1 0x0 SWAP1 SLOAD SWAP1 PUSH2 0x100 EXP SWAP1 DIV PUSH20 0xFFFFFFFFFFFFFFFFFFFFFFFFFFFFFFFFFFFFFFFF AND PUSH20 0xFFFFFFFFFFFFFFFFFFFFFFFFFFFFFFFFFFFFFFFF AND EQ ISZERO SWAP1 POP SWAP2 SWAP1 POP JUMP JUMPDEST PUSH1 0x0 CALLER SWAP1 POP SWAP1 JUMP JUMPDEST DUP2 PUSH1 0x4 PUSH1 0x0 DUP4 DUP2 MSTORE PUSH1 0x20 ADD SWAP1 DUP2 MSTORE PUSH1 0x20 ADD PUSH1 0x0 KECCAK256 PUSH1 0x0 PUSH2 0x100 EXP DUP2 SLOAD DUP2 PUSH20 0xFFFFFFFFFFFFFFFFFFFFFFFFFFFFFFFFFFFFFFFF MUL NOT AND SWAP1 DUP4 PUSH20 0xFFFFFFFFFFFFFFFFFFFFFFFFFFFFFFFFFFFFFFFF AND MUL OR SWAP1 SSTORE POP DUP1 DUP3 PUSH20 0xFFFFFFFFFFFFFFFFFFFFFFFFFFFFFFFFFFFFFFFF AND PUSH2 0x332B DUP4 PUSH2 0x1E5F JUMP JUMPDEST PUSH20 0xFFFFFFFFFFFFFFFFFFFFFFFFFFFFFFFFFFFFFFFF AND PUSH32 0x8C5BE1E5EBEC7D5BD14F71427D1E84F3DD0314C0F7B2291E5B200AC8C7C3B925 PUSH1 0x40 MLOAD PUSH1 0x40 MLOAD DUP1 SWAP2 SUB SWAP1 LOG4 POP POP JUMP JUMPDEST PUSH1 0x0 PUSH2 0x337C DUP3 PUSH2 0x3244 JUMP JUMPDEST PUSH2 0x33BB JUMPI PUSH1 0x40 MLOAD PUSH32 0x8C379A000000000000000000000000000000000000000000000000000000000 DUP2 MSTORE PUSH1 0x4 ADD PUSH2 0x33B2 SWAP1 PUSH2 0x63D5 JUMP JUMPDEST PUSH1 0x40 MLOAD DUP1 SWAP2 SUB SWAP1 REVERT JUMPDEST PUSH1 0x0 PUSH2 0x33C6 DUP4 PUSH2 0x1E5F JUMP JUMPDEST SWAP1 POP DUP1 PUSH20 0xFFFFFFFFFFFFFFFFFFFFFFFFFFFFFFFFFFFFFFFF AND DUP5 PUSH20 0xFFFFFFFFFFFFFFFFFFFFFFFFFFFFFFFFFFFFFFFF AND EQ DUP1 PUSH2 0x3435 JUMPI POP DUP4 PUSH20 0xFFFFFFFFFFFFFFFFFFFFFFFFFFFFFFFFFFFFFFFF AND PUSH2 0x341D DUP5 PUSH2 0xFA6 JUMP JUMPDEST PUSH20 0xFFFFFFFFFFFFFFFFFFFFFFFFFFFFFFFFFFFFFFFF AND EQ JUMPDEST DUP1 PUSH2 0x3446 JUMPI POP PUSH2 0x3445 DUP2 DUP6 PUSH2 0x2ECA JUMP JUMPDEST JUMPDEST SWAP2 POP POP SWAP3 SWAP2 POP POP JUMP JUMPDEST DUP3 PUSH20 0xFFFFFFFFFFFFFFFFFFFFFFFFFFFFFFFFFFFFFFFF AND PUSH2 0x346F DUP3 PUSH2 0x1E5F JUMP JUMPDEST PUSH20 0xFFFFFFFFFFFFFFFFFFFFFFFFFFFFFFFFFFFFFFFF AND EQ PUSH2 0x34C5 JUMPI PUSH1 0x40 MLOAD PUSH32 0x8C379A000000000000000000000000000000000000000000000000000000000 DUP2 MSTORE PUSH1 0x4 ADD PUSH2 0x34BC SWAP1 PUSH2 0x64B5 JUMP JUMPDEST PUSH1 0x40 MLOAD DUP1 SWAP2 SUB SWAP1 REVERT JUMPDEST PUSH1 0x0 PUSH20 0xFFFFFFFFFFFFFFFFFFFFFFFFFFFFFFFFFFFFFFFF AND DUP3 PUSH20 0xFFFFFFFFFFFFFFFFFFFFFFFFFFFFFFFFFFFFFFFF AND EQ ISZERO PUSH2 0x3535 JUMPI PUSH1 0x40 MLOAD PUSH32 0x8C379A000000000000000000000000000000000000000000000000000000000 DUP2 MSTORE PUSH1 0x4 ADD PUSH2 0x352C SWAP1 PUSH2 0x6355 JUMP JUMPDEST PUSH1 0x40 MLOAD DUP1 SWAP2 SUB SWAP1 REVERT JUMPDEST PUSH2 0x3540 DUP4 DUP4 DUP4 PUSH2 0x4E22 JUMP JUMPDEST PUSH2 0x354B PUSH1 0x0 DUP3 PUSH2 0x32B8 JUMP JUMPDEST PUSH1 0x1 PUSH1 0x3 PUSH1 0x0 DUP6 PUSH20 0xFFFFFFFFFFFFFFFFFFFFFFFFFFFFFFFFFFFFFFFF AND PUSH20 0xFFFFFFFFFFFFFFFFFFFFFFFFFFFFFFFFFFFFFFFF AND DUP2 MSTORE PUSH1 0x20 ADD SWAP1 DUP2 MSTORE PUSH1 0x20 ADD PUSH1 0x0 KECCAK256 PUSH1 0x0 DUP3 DUP3 SLOAD PUSH2 0x359B SWAP2 SWAP1 PUSH2 0x6B2A JUMP JUMPDEST SWAP3 POP POP DUP2 SWAP1 SSTORE POP PUSH1 0x1 PUSH1 0x3 PUSH1 0x0 DUP5 PUSH20 0xFFFFFFFFFFFFFFFFFFFFFFFFFFFFFFFFFFFFFFFF AND PUSH20 0xFFFFFFFFFFFFFFFFFFFFFFFFFFFFFFFFFFFFFFFF AND DUP2 MSTORE PUSH1 0x20 ADD SWAP1 DUP2 MSTORE PUSH1 0x20 ADD PUSH1 0x0 KECCAK256 PUSH1 0x0 DUP3 DUP3 SLOAD PUSH2 0x35F2 SWAP2 SWAP1 PUSH2 0x675A JUMP JUMPDEST SWAP3 POP POP DUP2 SWAP1 SSTORE POP DUP2 PUSH1 0x2 PUSH1 0x0 DUP4 DUP2 MSTORE PUSH1 0x20 ADD SWAP1 DUP2 MSTORE PUSH1 0x20 ADD PUSH1 0x0 KECCAK256 PUSH1 0x0 PUSH2 0x100 EXP DUP2 SLOAD DUP2 PUSH20 0xFFFFFFFFFFFFFFFFFFFFFFFFFFFFFFFFFFFFFFFF MUL NOT AND SWAP1 DUP4 PUSH20 0xFFFFFFFFFFFFFFFFFFFFFFFFFFFFFFFFFFFFFFFF AND MUL OR SWAP1 SSTORE POP DUP1 DUP3 PUSH20 0xFFFFFFFFFFFFFFFFFFFFFFFFFFFFFFFFFFFFFFFF AND DUP5 PUSH20 0xFFFFFFFFFFFFFFFFFFFFFFFFFFFFFFFFFFFFFFFF AND PUSH32 0xDDF252AD1BE2C89B69C2B068FC378DAA952BA7F163C4A11628F55A4DF523B3EF PUSH1 0x40 MLOAD PUSH1 0x40 MLOAD DUP1 SWAP2 SUB SWAP1 LOG4 POP POP POP JUMP JUMPDEST PUSH1 0x0 DUP1 PUSH2 0x36B6 PUSH2 0x31BC JUMP JUMPDEST SELFBALANCE PUSH2 0x36C1 SWAP2 SWAP1 PUSH2 0x6B2A JUMP JUMPDEST SWAP1 POP DUP1 DUP4 LT ISZERO PUSH2 0x36CF JUMPI DUP3 SWAP1 POP JUMPDEST PUSH1 0x0 DUP2 GT ISZERO PUSH2 0x3709 JUMPI PUSH2 0x3708 DUP2 PUSH2 0x36E4 PUSH2 0x2771 JUMP JUMPDEST PUSH20 0xFFFFFFFFFFFFFFFFFFFFFFFFFFFFFFFFFFFFFFFF AND PUSH2 0x4E27 SWAP1 SWAP2 SWAP1 PUSH4 0xFFFFFFFF AND JUMP JUMPDEST JUMPDEST DUP1 SWAP2 POP POP SWAP2 SWAP1 POP JUMP JUMPDEST PUSH1 0x10 PUSH1 0x0 SWAP1 SLOAD SWAP1 PUSH2 0x100 EXP SWAP1 DIV PUSH16 0xFFFFFFFFFFFFFFFFFFFFFFFFFFFFFFFF AND PUSH16 0xFFFFFFFFFFFFFFFFFFFFFFFFFFFFFFFF AND DUP4 PUSH16 0xFFFFFFFFFFFFFFFFFFFFFFFFFFFFFFFF AND GT PUSH2 0x3760 JUMPI PUSH1 0x0 DUP1 REVERT JUMPDEST PUSH1 0x0 DUP4 PUSH1 0xF SIGNEXTEND SGT PUSH2 0x3770 JUMPI PUSH1 0x0 DUP1 REVERT JUMPDEST PUSH1 0x6 PUSH1 0x2 PUSH1 0x10 PUSH1 0x0 SWAP1 SLOAD SWAP1 PUSH2 0x100 EXP SWAP1 DIV PUSH16 0xFFFFFFFFFFFFFFFFFFFFFFFFFFFFFFFF AND DUP6 PUSH2 0x379E SWAP2 SWAP1 PUSH2 0x6AF6 JUMP JUMPDEST DUP6 PUSH1 0x1 PUSH1 0x10 PUSH1 0x0 SWAP1 SLOAD SWAP1 PUSH2 0x100 EXP SWAP1 DIV PUSH16 0xFFFFFFFFFFFFFFFFFFFFFFFFFFFFFFFF AND PUSH2 0x37CA SWAP2 SWAP1 PUSH2 0x6714 JUMP JUMPDEST PUSH2 0x37D4 SWAP2 SWAP1 PUSH2 0x6714 JUMP JUMPDEST PUSH2 0x37DE SWAP2 SWAP1 PUSH2 0x69CE JUMP JUMPDEST PUSH2 0x37E8 SWAP2 SWAP1 PUSH2 0x67B0 JUMP JUMPDEST PUSH2 0x37F2 SWAP2 SWAP1 PUSH2 0x69CE JUMP JUMPDEST PUSH16 0xFFFFFFFFFFFFFFFFFFFFFFFFFFFFFFFF AND DUP2 DUP4 MLOAD PUSH2 0x3811 SWAP2 SWAP1 PUSH2 0x6B2A JUMP JUMPDEST EQ PUSH2 0x381B JUMPI PUSH1 0x0 DUP1 REVERT JUMPDEST PUSH1 0x0 DUP4 PUSH2 0x3827 SWAP1 PUSH2 0x6DD1 JUMP JUMPDEST SWAP1 POP JUMPDEST DUP4 PUSH1 0xF SIGNEXTEND DUP2 PUSH1 0xF SIGNEXTEND SGT PUSH2 0x3937 JUMPI PUSH1 0x0 DUP5 PUSH2 0x3843 SWAP1 PUSH2 0x6DD1 JUMP JUMPDEST SWAP1 POP JUMPDEST DUP5 PUSH1 0xF SIGNEXTEND DUP2 PUSH1 0xF SIGNEXTEND SGT PUSH2 0x3923 JUMPI PUSH1 0x0 PUSH2 0x385F DUP4 DUP4 PUSH2 0x1FAE JUMP JUMPDEST SWAP1 POP PUSH1 0x10 PUSH1 0x0 SWAP1 SLOAD SWAP1 PUSH2 0x100 EXP SWAP1 DIV PUSH16 0xFFFFFFFFFFFFFFFFFFFFFFFFFFFFFFFF AND PUSH16 0xFFFFFFFFFFFFFFFFFFFFFFFFFFFFFFFF AND DUP2 GT DUP1 ISZERO PUSH2 0x38B2 JUMPI POP DUP6 PUSH16 0xFFFFFFFFFFFFFFFFFFFFFFFFFFFFFFFF AND DUP2 GT ISZERO JUMPDEST ISZERO PUSH2 0x390F JUMPI PUSH2 0x390E DUP6 DUP6 DUP1 PUSH2 0x38C6 SWAP1 PUSH2 0x6D57 JUMP JUMPDEST SWAP7 POP DUP2 MLOAD DUP2 LT PUSH2 0x38FF JUMPI PUSH32 0x4E487B7100000000000000000000000000000000000000000000000000000000 PUSH1 0x0 MSTORE PUSH1 0x32 PUSH1 0x4 MSTORE PUSH1 0x24 PUSH1 0x0 REVERT JUMPDEST PUSH1 0x20 MUL PUSH1 0x20 ADD ADD MLOAD DUP5 DUP5 PUSH2 0x4F1B JUMP JUMPDEST JUMPDEST POP DUP1 DUP1 PUSH2 0x391B SWAP1 PUSH2 0x6D1E JUMP JUMPDEST SWAP2 POP POP PUSH2 0x3846 JUMP JUMPDEST POP DUP1 DUP1 PUSH2 0x392F SWAP1 PUSH2 0x6D1E JUMP JUMPDEST SWAP2 POP POP PUSH2 0x382A JUMP JUMPDEST POP DUP3 PUSH1 0x10 PUSH1 0x0 PUSH2 0x100 EXP DUP2 SLOAD DUP2 PUSH16 0xFFFFFFFFFFFFFFFFFFFFFFFFFFFFFFFF MUL NOT AND SWAP1 DUP4 PUSH16 0xFFFFFFFFFFFFFFFFFFFFFFFFFFFFFFFF AND MUL OR SWAP1 SSTORE POP POP POP POP JUMP JUMPDEST ADDRESS PUSH20 0xFFFFFFFFFFFFFFFFFFFFFFFFFFFFFFFFFFFFFFFF AND PUSH2 0x3996 DUP4 PUSH2 0x1E5F JUMP JUMPDEST PUSH20 0xFFFFFFFFFFFFFFFFFFFFFFFFFFFFFFFFFFFFFFFF AND EQ PUSH2 0x39B6 JUMPI PUSH1 0x0 DUP1 REVERT JUMPDEST PUSH1 0x0 PUSH20 0xFFFFFFFFFFFFFFFFFFFFFFFFFFFFFFFFFFFFFFFF AND PUSH1 0xC PUSH1 0x0 DUP5 DUP2 MSTORE PUSH1 0x20 ADD SWAP1 DUP2 MSTORE PUSH1 0x20 ADD PUSH1 0x0 KECCAK256 PUSH1 0x0 SWAP1 SLOAD SWAP1 PUSH2 0x100 EXP SWAP1 DIV PUSH20 0xFFFFFFFFFFFFFFFFFFFFFFFFFFFFFFFFFFFFFFFF AND PUSH20 0xFFFFFFFFFFFFFFFFFFFFFFFFFFFFFFFFFFFFFFFF AND EQ PUSH2 0x3A22 JUMPI PUSH1 0x0 DUP1 REVERT JUMPDEST PUSH1 0x0 DUP1 PUSH2 0x3A2E DUP5 PUSH2 0x267D JUMP JUMPDEST SWAP2 POP SWAP2 POP DUP1 CALLVALUE LT ISZERO PUSH2 0x3A3F JUMPI PUSH1 0x0 DUP1 REVERT JUMPDEST DUP1 CALLVALUE GT ISZERO PUSH2 0x3A83 JUMPI PUSH2 0x3A82 DUP2 CALLVALUE PUSH2 0x3A56 SWAP2 SWAP1 PUSH2 0x6B2A JUMP JUMPDEST PUSH2 0x3A5E PUSH2 0x32B0 JUMP JUMPDEST PUSH20 0xFFFFFFFFFFFFFFFFFFFFFFFFFFFFFFFFFFFFFFFF AND PUSH2 0x4E27 SWAP1 SWAP2 SWAP1 PUSH4 0xFFFFFFFF AND JUMP JUMPDEST JUMPDEST PUSH2 0x3A8E ADDRESS DUP5 DUP7 PUSH2 0x1D85 JUMP JUMPDEST PUSH1 0xD PUSH1 0x0 SWAP1 SLOAD SWAP1 PUSH2 0x100 EXP SWAP1 DIV PUSH20 0xFFFFFFFFFFFFFFFFFFFFFFFFFFFFFFFFFFFFFFFF AND PUSH20 0xFFFFFFFFFFFFFFFFFFFFFFFFFFFFFFFFFFFFFFFF AND PUSH4 0x40C10F19 DUP5 PUSH1 0x1 DUP6 PUSH2 0x3ADA SWAP2 SWAP1 PUSH2 0x675A JUMP JUMPDEST PUSH1 0x40 MLOAD DUP4 PUSH4 0xFFFFFFFF AND PUSH1 0xE0 SHL DUP2 MSTORE PUSH1 0x4 ADD PUSH2 0x3AF7 SWAP3 SWAP2 SWAP1 PUSH2 0x61E5 JUMP JUMPDEST PUSH1 0x0 PUSH1 0x40 MLOAD DUP1 DUP4 SUB DUP2 PUSH1 0x0 DUP8 DUP1 EXTCODESIZE ISZERO DUP1 ISZERO PUSH2 0x3B11 JUMPI PUSH1 0x0 DUP1 REVERT JUMPDEST POP GAS CALL ISZERO DUP1 ISZERO PUSH2 0x3B25 JUMPI RETURNDATASIZE PUSH1 0x0 DUP1 RETURNDATACOPY RETURNDATASIZE PUSH1 0x0 REVERT JUMPDEST POP POP POP POP POP POP POP POP JUMP JUMPDEST PUSH1 0x60 PUSH1 0x0 DUP1 PUSH1 0x1 SWAP1 POP JUMPDEST PUSH1 0x8 SLOAD DUP2 LT ISZERO PUSH2 0x3C24 JUMPI PUSH1 0x0 PUSH20 0xFFFFFFFFFFFFFFFFFFFFFFFFFFFFFFFFFFFFFFFF AND PUSH1 0x9 PUSH1 0x0 DUP4 DUP2 MSTORE PUSH1 0x20 ADD SWAP1 DUP2 MSTORE PUSH1 0x20 ADD PUSH1 0x0 KECCAK256 PUSH1 0x0 ADD PUSH1 0x1 SWAP1 SLOAD SWAP1 PUSH2 0x100 EXP SWAP1 DIV PUSH20 0xFFFFFFFFFFFFFFFFFFFFFFFFFFFFFFFFFFFFFFFF AND PUSH20 0xFFFFFFFFFFFFFFFFFFFFFFFFFFFFFFFFFFFFFFFF AND EQ ISZERO DUP1 ISZERO PUSH2 0x3BCB JUMPI POP DUP5 PUSH1 0x9 PUSH1 0x0 DUP4 DUP2 MSTORE PUSH1 0x20 ADD SWAP1 DUP2 MSTORE PUSH1 0x20 ADD PUSH1 0x0 KECCAK256 PUSH1 0x2 ADD SLOAD EQ JUMPDEST DUP1 ISZERO PUSH2 0x3BFD JUMPI POP DUP4 ISZERO ISZERO PUSH1 0x9 PUSH1 0x0 DUP4 DUP2 MSTORE PUSH1 0x20 ADD SWAP1 DUP2 MSTORE PUSH1 0x20 ADD PUSH1 0x0 KECCAK256 PUSH1 0x0 ADD PUSH1 0x15 SWAP1 SLOAD SWAP1 PUSH2 0x100 EXP SWAP1 DIV PUSH1 0xFF AND ISZERO ISZERO EQ JUMPDEST ISZERO PUSH2 0x3C11 JUMPI DUP2 DUP1 PUSH2 0x3C0D SWAP1 PUSH2 0x6D57 JUMP JUMPDEST SWAP3 POP POP JUMPDEST DUP1 DUP1 PUSH2 0x3C1C SWAP1 PUSH2 0x6D57 JUMP JUMPDEST SWAP2 POP POP PUSH2 0x3B39 JUMP JUMPDEST POP PUSH1 0x0 DUP2 PUSH8 0xFFFFFFFFFFFFFFFF DUP2 GT ISZERO PUSH2 0x3C67 JUMPI PUSH32 0x4E487B7100000000000000000000000000000000000000000000000000000000 PUSH1 0x0 MSTORE PUSH1 0x41 PUSH1 0x4 MSTORE PUSH1 0x24 PUSH1 0x0 REVERT JUMPDEST PUSH1 0x40 MLOAD SWAP1 DUP1 DUP3 MSTORE DUP1 PUSH1 0x20 MUL PUSH1 0x20 ADD DUP3 ADD PUSH1 0x40 MSTORE DUP1 ISZERO PUSH2 0x3C95 JUMPI DUP2 PUSH1 0x20 ADD PUSH1 0x20 DUP3 MUL DUP1 CALLDATASIZE DUP4 CALLDATACOPY DUP1 DUP3 ADD SWAP2 POP POP SWAP1 POP JUMPDEST POP SWAP1 POP PUSH1 0x0 SWAP2 POP PUSH1 0x0 PUSH1 0x1 SWAP1 POP JUMPDEST PUSH1 0x8 SLOAD DUP2 LT ISZERO PUSH2 0x3DD2 JUMPI PUSH1 0x0 PUSH20 0xFFFFFFFFFFFFFFFFFFFFFFFFFFFFFFFFFFFFFFFF AND PUSH1 0x9 PUSH1 0x0 DUP4 DUP2 MSTORE PUSH1 0x20 ADD SWAP1 DUP2 MSTORE PUSH1 0x20 ADD PUSH1 0x0 KECCAK256 PUSH1 0x0 ADD PUSH1 0x1 SWAP1 SLOAD SWAP1 PUSH2 0x100 EXP SWAP1 DIV PUSH20 0xFFFFFFFFFFFFFFFFFFFFFFFFFFFFFFFFFFFFFFFF AND PUSH20 0xFFFFFFFFFFFFFFFFFFFFFFFFFFFFFFFFFFFFFFFF AND EQ ISZERO DUP1 ISZERO PUSH2 0x3D35 JUMPI POP DUP6 PUSH1 0x9 PUSH1 0x0 DUP4 DUP2 MSTORE PUSH1 0x20 ADD SWAP1 DUP2 MSTORE PUSH1 0x20 ADD PUSH1 0x0 KECCAK256 PUSH1 0x2 ADD SLOAD EQ JUMPDEST DUP1 ISZERO PUSH2 0x3D67 JUMPI POP DUP5 ISZERO ISZERO PUSH1 0x9 PUSH1 0x0 DUP4 DUP2 MSTORE PUSH1 0x20 ADD SWAP1 DUP2 MSTORE PUSH1 0x20 ADD PUSH1 0x0 KECCAK256 PUSH1 0x0 ADD PUSH1 0x15 SWAP1 SLOAD SWAP1 PUSH2 0x100 EXP SWAP1 DIV PUSH1 0xFF AND ISZERO ISZERO EQ JUMPDEST ISZERO PUSH2 0x3DBF JUMPI DUP1 DUP3 DUP5 DUP1 PUSH2 0x3D79 SWAP1 PUSH2 0x6D57 JUMP JUMPDEST SWAP6 POP DUP2 MLOAD DUP2 LT PUSH2 0x3DB2 JUMPI PUSH32 0x4E487B7100000000000000000000000000000000000000000000000000000000 PUSH1 0x0 MSTORE PUSH1 0x32 PUSH1 0x4 MSTORE PUSH1 0x24 PUSH1 0x0 REVERT JUMPDEST PUSH1 0x20 MUL PUSH1 0x20 ADD ADD DUP2 DUP2 MSTORE POP POP JUMPDEST DUP1 DUP1 PUSH2 0x3DCA SWAP1 PUSH2 0x6D57 JUMP JUMPDEST SWAP2 POP POP PUSH2 0x3CA3 JUMP JUMPDEST POP DUP1 SWAP3 POP POP POP SWAP3 SWAP2 POP POP JUMP JUMPDEST PUSH1 0x0 PUSH2 0x3DE8 PUSH2 0x32B0 JUMP JUMPDEST PUSH20 0xFFFFFFFFFFFFFFFFFFFFFFFFFFFFFFFFFFFFFFFF AND PUSH2 0x3E06 PUSH2 0x2771 JUMP JUMPDEST PUSH20 0xFFFFFFFFFFFFFFFFFFFFFFFFFFFFFFFFFFFFFFFF AND EQ PUSH2 0x3E5C JUMPI PUSH1 0x40 MLOAD PUSH32 0x8C379A000000000000000000000000000000000000000000000000000000000 DUP2 MSTORE PUSH1 0x4 ADD PUSH2 0x3E53 SWAP1 PUSH2 0x6495 JUMP JUMPDEST PUSH1 0x40 MLOAD DUP1 SWAP2 SUB SWAP1 REVERT JUMPDEST PUSH2 0x3E7B DUP4 PUSH20 0xFFFFFFFFFFFFFFFFFFFFFFFFFFFFFFFFFFFFFFFF AND PUSH2 0x4F93 JUMP JUMPDEST PUSH2 0x3E84 JUMPI PUSH1 0x0 DUP1 REVERT JUMPDEST PUSH1 0x0 DUP4 SWAP1 POP PUSH1 0x0 PUSH2 0x3E94 DUP3 PUSH2 0x2E5E JUMP JUMPDEST DUP3 PUSH20 0xFFFFFFFFFFFFFFFFFFFFFFFFFFFFFFFFFFFFFFFF AND PUSH4 0x70A08231 ADDRESS PUSH1 0x40 MLOAD DUP3 PUSH4 0xFFFFFFFF AND PUSH1 0xE0 SHL DUP2 MSTORE PUSH1 0x4 ADD PUSH2 0x3ECD SWAP2 SWAP1 PUSH2 0x611E JUMP JUMPDEST PUSH1 0x20 PUSH1 0x40 MLOAD DUP1 DUP4 SUB DUP2 DUP7 DUP1 EXTCODESIZE ISZERO DUP1 ISZERO PUSH2 0x3EE5 JUMPI PUSH1 0x0 DUP1 REVERT JUMPDEST POP GAS STATICCALL ISZERO DUP1 ISZERO PUSH2 0x3EF9 JUMPI RETURNDATASIZE PUSH1 0x0 DUP1 RETURNDATACOPY RETURNDATASIZE PUSH1 0x0 REVERT JUMPDEST POP POP POP POP PUSH1 0x40 MLOAD RETURNDATASIZE PUSH1 0x1F NOT PUSH1 0x1F DUP3 ADD AND DUP3 ADD DUP1 PUSH1 0x40 MSTORE POP DUP2 ADD SWAP1 PUSH2 0x3F1D SWAP2 SWAP1 PUSH2 0x5A8F JUMP JUMPDEST PUSH2 0x3F27 SWAP2 SWAP1 PUSH2 0x6B2A JUMP JUMPDEST SWAP1 POP DUP1 DUP5 LT ISZERO PUSH2 0x3F35 JUMPI DUP4 SWAP1 POP JUMPDEST PUSH1 0x0 DUP2 GT ISZERO PUSH2 0x3FD4 JUMPI DUP2 PUSH20 0xFFFFFFFFFFFFFFFFFFFFFFFFFFFFFFFFFFFFFFFF AND PUSH4 0xA9059CBB PUSH2 0x3F62 PUSH2 0x2771 JUMP JUMPDEST DUP4 PUSH1 0x40 MLOAD DUP4 PUSH4 0xFFFFFFFF AND PUSH1 0xE0 SHL DUP2 MSTORE PUSH1 0x4 ADD PUSH2 0x3F80 SWAP3 SWAP2 SWAP1 PUSH2 0x61E5 JUMP JUMPDEST PUSH1 0x20 PUSH1 0x40 MLOAD DUP1 DUP4 SUB DUP2 PUSH1 0x0 DUP8 DUP1 EXTCODESIZE ISZERO DUP1 ISZERO PUSH2 0x3F9A JUMPI PUSH1 0x0 DUP1 REVERT JUMPDEST POP GAS CALL ISZERO DUP1 ISZERO PUSH2 0x3FAE JUMPI RETURNDATASIZE PUSH1 0x0 DUP1 RETURNDATACOPY RETURNDATASIZE PUSH1 0x0 REVERT JUMPDEST POP POP POP POP PUSH1 0x40 MLOAD RETURNDATASIZE PUSH1 0x1F NOT PUSH1 0x1F DUP3 ADD AND DUP3 ADD DUP1 PUSH1 0x40 MSTORE POP DUP2 ADD SWAP1 PUSH2 0x3FD2 SWAP2 SWAP1 PUSH2 0x594A JUMP JUMPDEST POP JUMPDEST DUP1 SWAP3 POP POP POP SWAP3 SWAP2 POP POP JUMP JUMPDEST DUP1 ISZERO PUSH2 0x42A7 JUMPI PUSH1 0x9 PUSH1 0x0 DUP4 DUP2 MSTORE PUSH1 0x20 ADD SWAP1 DUP2 MSTORE PUSH1 0x20 ADD PUSH1 0x0 KECCAK256 PUSH1 0x0 ADD PUSH1 0x0 SWAP1 SLOAD SWAP1 PUSH2 0x100 EXP SWAP1 DIV PUSH1 0xFF AND ISZERO PUSH2 0x40C6 JUMPI PUSH2 0x4075 ADDRESS PUSH1 0x9 PUSH1 0x0 DUP6 DUP2 MSTORE PUSH1 0x20 ADD SWAP1 DUP2 MSTORE PUSH1 0x20 ADD PUSH1 0x0 KECCAK256 PUSH1 0x0 ADD PUSH1 0x1 SWAP1 SLOAD SWAP1 PUSH2 0x100 EXP SWAP1 DIV PUSH20 0xFFFFFFFFFFFFFFFFFFFFFFFFFFFFFFFFFFFFFFFF AND PUSH1 0x9 PUSH1 0x0 DUP7 DUP2 MSTORE PUSH1 0x20 ADD SWAP1 DUP2 MSTORE PUSH1 0x20 ADD PUSH1 0x0 KECCAK256 PUSH1 0x2 ADD SLOAD PUSH1 0x40 MLOAD DUP1 PUSH1 0x20 ADD PUSH1 0x40 MSTORE DUP1 PUSH1 0x0 DUP2 MSTORE POP PUSH2 0x462B JUMP JUMPDEST PUSH1 0xC PUSH1 0x0 PUSH1 0x9 PUSH1 0x0 DUP6 DUP2 MSTORE PUSH1 0x20 ADD SWAP1 DUP2 MSTORE PUSH1 0x20 ADD PUSH1 0x0 KECCAK256 PUSH1 0x2 ADD SLOAD DUP2 MSTORE PUSH1 0x20 ADD SWAP1 DUP2 MSTORE PUSH1 0x20 ADD PUSH1 0x0 KECCAK256 PUSH1 0x0 PUSH2 0x100 EXP DUP2 SLOAD SWAP1 PUSH20 0xFFFFFFFFFFFFFFFFFFFFFFFFFFFFFFFFFFFFFFFF MUL NOT AND SWAP1 SSTORE PUSH2 0x42A6 JUMP JUMPDEST PUSH1 0x9 PUSH1 0x0 DUP4 DUP2 MSTORE PUSH1 0x20 ADD SWAP1 DUP2 MSTORE PUSH1 0x20 ADD PUSH1 0x0 KECCAK256 PUSH1 0x0 ADD PUSH1 0x15 SWAP1 SLOAD SWAP1 PUSH2 0x100 EXP SWAP1 DIV PUSH1 0xFF AND ISZERO PUSH2 0x4200 JUMPI PUSH1 0x7 PUSH1 0x0 SWAP1 SLOAD SWAP1 PUSH2 0x100 EXP SWAP1 DIV PUSH20 0xFFFFFFFFFFFFFFFFFFFFFFFFFFFFFFFFFFFFFFFF AND PUSH20 0xFFFFFFFFFFFFFFFFFFFFFFFFFFFFFFFFFFFFFFFF AND PUSH4 0x33BEBB77 ADDRESS PUSH1 0x9 PUSH1 0x0 DUP7 DUP2 MSTORE PUSH1 0x20 ADD SWAP1 DUP2 MSTORE PUSH1 0x20 ADD PUSH1 0x0 KECCAK256 PUSH1 0x0 ADD PUSH1 0x1 SWAP1 SLOAD SWAP1 PUSH2 0x100 EXP SWAP1 DIV PUSH20 0xFFFFFFFFFFFFFFFFFFFFFFFFFFFFFFFFFFFFFFFF AND PUSH1 0x9 PUSH1 0x0 DUP8 DUP2 MSTORE PUSH1 0x20 ADD SWAP1 DUP2 MSTORE PUSH1 0x20 ADD PUSH1 0x0 KECCAK256 PUSH1 0x1 ADD SLOAD PUSH1 0x40 MLOAD DUP5 PUSH4 0xFFFFFFFF AND PUSH1 0xE0 SHL DUP2 MSTORE PUSH1 0x4 ADD PUSH2 0x419A SWAP4 SWAP3 SWAP2 SWAP1 PUSH2 0x6139 JUMP JUMPDEST PUSH1 0x0 PUSH1 0x40 MLOAD DUP1 DUP4 SUB DUP2 PUSH1 0x0 DUP8 DUP1 EXTCODESIZE ISZERO DUP1 ISZERO PUSH2 0x41B4 JUMPI PUSH1 0x0 DUP1 REVERT JUMPDEST POP GAS CALL ISZERO DUP1 ISZERO PUSH2 0x41C8 JUMPI RETURNDATASIZE PUSH1 0x0 DUP1 RETURNDATACOPY RETURNDATASIZE PUSH1 0x0 REVERT JUMPDEST POP POP POP POP PUSH1 0x9 PUSH1 0x0 DUP4 DUP2 MSTORE PUSH1 0x20 ADD SWAP1 DUP2 MSTORE PUSH1 0x20 ADD PUSH1 0x0 KECCAK256 PUSH1 0x1 ADD SLOAD PUSH1 0xB PUSH1 0x0 DUP3 DUP3 SLOAD PUSH2 0x41F4 SWAP2 SWAP1 PUSH2 0x6B2A JUMP JUMPDEST SWAP3 POP POP DUP2 SWAP1 SSTORE POP PUSH2 0x42A5 JUMP JUMPDEST PUSH2 0x4275 PUSH1 0x9 PUSH1 0x0 DUP5 DUP2 MSTORE PUSH1 0x20 ADD SWAP1 DUP2 MSTORE PUSH1 0x20 ADD PUSH1 0x0 KECCAK256 PUSH1 0x1 ADD SLOAD PUSH1 0x9 PUSH1 0x0 DUP6 DUP2 MSTORE PUSH1 0x20 ADD SWAP1 DUP2 MSTORE PUSH1 0x20 ADD PUSH1 0x0 KECCAK256 PUSH1 0x0 ADD PUSH1 0x1 SWAP1 SLOAD SWAP1 PUSH2 0x100 EXP SWAP1 DIV PUSH20 0xFFFFFFFFFFFFFFFFFFFFFFFFFFFFFFFFFFFFFFFF AND PUSH20 0xFFFFFFFFFFFFFFFFFFFFFFFFFFFFFFFFFFFFFFFF AND PUSH2 0x4E27 SWAP1 SWAP2 SWAP1 PUSH4 0xFFFFFFFF AND JUMP JUMPDEST PUSH1 0x9 PUSH1 0x0 DUP4 DUP2 MSTORE PUSH1 0x20 ADD SWAP1 DUP2 MSTORE PUSH1 0x20 ADD PUSH1 0x0 KECCAK256 PUSH1 0x1 ADD SLOAD PUSH1 0xA PUSH1 0x0 DUP3 DUP3 SLOAD PUSH2 0x429D SWAP2 SWAP1 PUSH2 0x6B2A JUMP JUMPDEST SWAP3 POP POP DUP2 SWAP1 SSTORE POP JUMPDEST JUMPDEST JUMPDEST PUSH1 0x9 PUSH1 0x0 DUP4 DUP2 MSTORE PUSH1 0x20 ADD SWAP1 DUP2 MSTORE PUSH1 0x20 ADD PUSH1 0x0 KECCAK256 PUSH1 0x0 DUP1 DUP3 ADD PUSH1 0x0 PUSH2 0x100 EXP DUP2 SLOAD SWAP1 PUSH1 0xFF MUL NOT AND SWAP1 SSTORE PUSH1 0x0 DUP3 ADD PUSH1 0x1 PUSH2 0x100 EXP DUP2 SLOAD SWAP1 PUSH20 0xFFFFFFFFFFFFFFFFFFFFFFFFFFFFFFFFFFFFFFFF MUL NOT AND SWAP1 SSTORE PUSH1 0x0 DUP3 ADD PUSH1 0x15 PUSH2 0x100 EXP DUP2 SLOAD SWAP1 PUSH1 0xFF MUL NOT AND SWAP1 SSTORE PUSH1 0x1 DUP3 ADD PUSH1 0x0 SWAP1 SSTORE PUSH1 0x2 DUP3 ADD PUSH1 0x0 SWAP1 SSTORE POP POP POP POP JUMP JUMPDEST PUSH1 0x0 DUP1 DUP4 GT PUSH2 0x432E JUMPI PUSH1 0x0 DUP1 REVERT JUMPDEST PUSH1 0x40 MLOAD DUP1 PUSH1 0xA0 ADD PUSH1 0x40 MSTORE DUP1 DUP7 ISZERO ISZERO DUP2 MSTORE PUSH1 0x20 ADD PUSH2 0x4349 PUSH2 0x32B0 JUMP JUMPDEST PUSH20 0xFFFFFFFFFFFFFFFFFFFFFFFFFFFFFFFFFFFFFFFF AND DUP2 MSTORE PUSH1 0x20 ADD DUP6 ISZERO ISZERO DUP2 MSTORE PUSH1 0x20 ADD DUP5 DUP2 MSTORE PUSH1 0x20 ADD DUP4 DUP2 MSTORE POP PUSH1 0x9 PUSH1 0x0 PUSH1 0x8 PUSH1 0x0 DUP2 SLOAD DUP1 SWAP3 SWAP2 SWAP1 PUSH2 0x438D SWAP1 PUSH2 0x6D57 JUMP JUMPDEST SWAP2 SWAP1 POP SSTORE DUP2 MSTORE PUSH1 0x20 ADD SWAP1 DUP2 MSTORE PUSH1 0x20 ADD PUSH1 0x0 KECCAK256 PUSH1 0x0 DUP3 ADD MLOAD DUP2 PUSH1 0x0 ADD PUSH1 0x0 PUSH2 0x100 EXP DUP2 SLOAD DUP2 PUSH1 0xFF MUL NOT AND SWAP1 DUP4 ISZERO ISZERO MUL OR SWAP1 SSTORE POP PUSH1 0x20 DUP3 ADD MLOAD DUP2 PUSH1 0x0 ADD PUSH1 0x1 PUSH2 0x100 EXP DUP2 SLOAD DUP2 PUSH20 0xFFFFFFFFFFFFFFFFFFFFFFFFFFFFFFFFFFFFFFFF MUL NOT AND SWAP1 DUP4 PUSH20 0xFFFFFFFFFFFFFFFFFFFFFFFFFFFFFFFFFFFFFFFF AND MUL OR SWAP1 SSTORE POP PUSH1 0x40 DUP3 ADD MLOAD DUP2 PUSH1 0x0 ADD PUSH1 0x15 PUSH2 0x100 EXP DUP2 SLOAD DUP2 PUSH1 0xFF MUL NOT AND SWAP1 DUP4 ISZERO ISZERO MUL OR SWAP1 SSTORE POP PUSH1 0x60 DUP3 ADD MLOAD DUP2 PUSH1 0x1 ADD SSTORE PUSH1 0x80 DUP3 ADD MLOAD DUP2 PUSH1 0x2 ADD SSTORE SWAP1 POP POP DUP5 ISZERO PUSH2 0x452F JUMPI PUSH1 0x0 PUSH20 0xFFFFFFFFFFFFFFFFFFFFFFFFFFFFFFFFFFFFFFFF AND PUSH1 0xC PUSH1 0x0 DUP5 DUP2 MSTORE PUSH1 0x20 ADD SWAP1 DUP2 MSTORE PUSH1 0x20 ADD PUSH1 0x0 KECCAK256 PUSH1 0x0 SWAP1 SLOAD SWAP1 PUSH2 0x100 EXP SWAP1 DIV PUSH20 0xFFFFFFFFFFFFFFFFFFFFFFFFFFFFFFFFFFFFFFFF AND PUSH20 0xFFFFFFFFFFFFFFFFFFFFFFFFFFFFFFFFFFFFFFFF AND EQ PUSH2 0x44AF JUMPI PUSH1 0x0 DUP1 REVERT JUMPDEST PUSH2 0x44D1 PUSH2 0x44BA PUSH2 0x32B0 JUMP JUMPDEST ADDRESS DUP5 PUSH1 0x40 MLOAD DUP1 PUSH1 0x20 ADD PUSH1 0x40 MSTORE DUP1 PUSH1 0x0 DUP2 MSTORE POP PUSH2 0x462B JUMP JUMPDEST PUSH2 0x44D9 PUSH2 0x32B0 JUMP JUMPDEST PUSH1 0xC PUSH1 0x0 DUP5 DUP2 MSTORE PUSH1 0x20 ADD SWAP1 DUP2 MSTORE PUSH1 0x20 ADD PUSH1 0x0 KECCAK256 PUSH1 0x0 PUSH2 0x100 EXP DUP2 SLOAD DUP2 PUSH20 0xFFFFFFFFFFFFFFFFFFFFFFFFFFFFFFFFFFFFFFFF MUL NOT AND SWAP1 DUP4 PUSH20 0xFFFFFFFFFFFFFFFFFFFFFFFFFFFFFFFFFFFFFFFF AND MUL OR SWAP1 SSTORE POP PUSH2 0x4612 JUMP JUMPDEST DUP4 ISZERO PUSH2 0x45EB JUMPI PUSH1 0x7 PUSH1 0x0 SWAP1 SLOAD SWAP1 PUSH2 0x100 EXP SWAP1 DIV PUSH20 0xFFFFFFFFFFFFFFFFFFFFFFFFFFFFFFFFFFFFFFFF AND PUSH20 0xFFFFFFFFFFFFFFFFFFFFFFFFFFFFFFFFFFFFFFFF AND PUSH4 0x33BEBB77 PUSH2 0x457B PUSH2 0x32B0 JUMP JUMPDEST ADDRESS DUP7 PUSH1 0x40 MLOAD DUP5 PUSH4 0xFFFFFFFF AND PUSH1 0xE0 SHL DUP2 MSTORE PUSH1 0x4 ADD PUSH2 0x459B SWAP4 SWAP3 SWAP2 SWAP1 PUSH2 0x6139 JUMP JUMPDEST PUSH1 0x0 PUSH1 0x40 MLOAD DUP1 DUP4 SUB DUP2 PUSH1 0x0 DUP8 DUP1 EXTCODESIZE ISZERO DUP1 ISZERO PUSH2 0x45B5 JUMPI PUSH1 0x0 DUP1 REVERT JUMPDEST POP GAS CALL ISZERO DUP1 ISZERO PUSH2 0x45C9 JUMPI RETURNDATASIZE PUSH1 0x0 DUP1 RETURNDATACOPY RETURNDATASIZE PUSH1 0x0 REVERT JUMPDEST POP POP POP POP DUP3 PUSH1 0xB PUSH1 0x0 DUP3 DUP3 SLOAD PUSH2 0x45DF SWAP2 SWAP1 PUSH2 0x675A JUMP JUMPDEST SWAP3 POP POP DUP2 SWAP1 SSTORE POP PUSH2 0x4611 JUMP JUMPDEST DUP3 CALLVALUE EQ PUSH2 0x45F7 JUMPI PUSH1 0x0 DUP1 REVERT JUMPDEST DUP3 PUSH1 0xA PUSH1 0x0 DUP3 DUP3 SLOAD PUSH2 0x4609 SWAP2 SWAP1 PUSH2 0x675A JUMP JUMPDEST SWAP3 POP POP DUP2 SWAP1 SSTORE POP JUMPDEST JUMPDEST PUSH1 0x1 PUSH1 0x8 SLOAD PUSH2 0x4621 SWAP2 SWAP1 PUSH2 0x6B2A JUMP JUMPDEST SWAP1 POP SWAP5 SWAP4 POP POP POP POP JUMP JUMPDEST PUSH2 0x4636 DUP5 DUP5 DUP5 PUSH2 0x344F JUMP JUMPDEST PUSH2 0x4642 DUP5 DUP5 DUP5 DUP5 PUSH2 0x4FA6 JUMP JUMPDEST PUSH2 0x4681 JUMPI PUSH1 0x40 MLOAD PUSH32 0x8C379A000000000000000000000000000000000000000000000000000000000 DUP2 MSTORE PUSH1 0x4 ADD PUSH2 0x4678 SWAP1 PUSH2 0x62F5 JUMP JUMPDEST PUSH1 0x40 MLOAD DUP1 SWAP2 SUB SWAP1 REVERT JUMPDEST POP POP POP POP JUMP JUMPDEST PUSH1 0x60 PUSH1 0x40 MLOAD DUP1 PUSH1 0x20 ADD PUSH1 0x40 MSTORE DUP1 PUSH1 0x0 DUP2 MSTORE POP SWAP1 POP SWAP1 JUMP JUMPDEST PUSH1 0x60 PUSH1 0x0 DUP3 EQ ISZERO PUSH2 0x46E6 JUMPI PUSH1 0x40 MLOAD DUP1 PUSH1 0x40 ADD PUSH1 0x40 MSTORE DUP1 PUSH1 0x1 DUP2 MSTORE PUSH1 0x20 ADD PUSH32 0x3000000000000000000000000000000000000000000000000000000000000000 DUP2 MSTORE POP SWAP1 POP PUSH2 0x4846 JUMP JUMPDEST PUSH1 0x0 DUP3 SWAP1 POP PUSH1 0x0 JUMPDEST PUSH1 0x0 DUP3 EQ PUSH2 0x4718 JUMPI DUP1 DUP1 PUSH2 0x4701 SWAP1 PUSH2 0x6D57 JUMP JUMPDEST SWAP2 POP POP PUSH1 0xA DUP3 PUSH2 0x4711 SWAP2 SWAP1 PUSH2 0x67E1 JUMP JUMPDEST SWAP2 POP PUSH2 0x46EE JUMP JUMPDEST PUSH1 0x0 DUP2 PUSH8 0xFFFFFFFFFFFFFFFF DUP2 GT ISZERO PUSH2 0x475A JUMPI PUSH32 0x4E487B7100000000000000000000000000000000000000000000000000000000 PUSH1 0x0 MSTORE PUSH1 0x41 PUSH1 0x4 MSTORE PUSH1 0x24 PUSH1 0x0 REVERT JUMPDEST PUSH1 0x40 MLOAD SWAP1 DUP1 DUP3 MSTORE DUP1 PUSH1 0x1F ADD PUSH1 0x1F NOT AND PUSH1 0x20 ADD DUP3 ADD PUSH1 0x40 MSTORE DUP1 ISZERO PUSH2 0x478C JUMPI DUP2 PUSH1 0x20 ADD PUSH1 0x1 DUP3 MUL DUP1 CALLDATASIZE DUP4 CALLDATACOPY DUP1 DUP3 ADD SWAP2 POP POP SWAP1 POP JUMPDEST POP SWAP1 POP JUMPDEST PUSH1 0x0 DUP6 EQ PUSH2 0x483F JUMPI PUSH1 0x1 DUP3 PUSH2 0x47A5 SWAP2 SWAP1 PUSH2 0x6B2A JUMP JUMPDEST SWAP2 POP PUSH1 0xA DUP6 PUSH2 0x47B4 SWAP2 SWAP1 PUSH2 0x6DA0 JUMP JUMPDEST PUSH1 0x30 PUSH2 0x47C0 SWAP2 SWAP1 PUSH2 0x675A JUMP JUMPDEST PUSH1 0xF8 SHL DUP2 DUP4 DUP2 MLOAD DUP2 LT PUSH2 0x47FC JUMPI PUSH32 0x4E487B7100000000000000000000000000000000000000000000000000000000 PUSH1 0x0 MSTORE PUSH1 0x32 PUSH1 0x4 MSTORE PUSH1 0x24 PUSH1 0x0 REVERT JUMPDEST PUSH1 0x20 ADD ADD SWAP1 PUSH31 0xFFFFFFFFFFFFFFFFFFFFFFFFFFFFFFFFFFFFFFFFFFFFFFFFFFFFFFFFFFFFFF NOT AND SWAP1 DUP2 PUSH1 0x0 BYTE SWAP1 MSTORE8 POP PUSH1 0xA DUP6 PUSH2 0x4838 SWAP2 SWAP1 PUSH2 0x67E1 JUMP JUMPDEST SWAP5 POP PUSH2 0x4790 JUMP JUMPDEST DUP1 SWAP4 POP POP POP POP JUMPDEST SWAP2 SWAP1 POP JUMP JUMPDEST PUSH1 0x0 DUP1 PUSH1 0x0 SWAP1 POP PUSH1 0x0 PUSH1 0x10 PUSH1 0x0 SWAP1 SLOAD SWAP1 PUSH2 0x100 EXP SWAP1 DIV PUSH16 0xFFFFFFFFFFFFFFFFFFFFFFFFFFFFFFFF AND PUSH2 0x487C SWAP1 PUSH2 0x6DD1 JUMP JUMPDEST SWAP1 POP JUMPDEST PUSH1 0x10 PUSH1 0x0 SWAP1 SLOAD SWAP1 PUSH2 0x100 EXP SWAP1 DIV PUSH16 0xFFFFFFFFFFFFFFFFFFFFFFFFFFFFFFFF AND PUSH1 0xF SIGNEXTEND DUP2 PUSH1 0xF SIGNEXTEND SGT PUSH2 0x4A3F JUMPI PUSH1 0x0 PUSH1 0x10 PUSH1 0x0 SWAP1 SLOAD SWAP1 PUSH2 0x100 EXP SWAP1 DIV PUSH16 0xFFFFFFFFFFFFFFFFFFFFFFFFFFFFFFFF AND PUSH2 0x48D4 SWAP1 PUSH2 0x6DD1 JUMP JUMPDEST SWAP1 POP JUMPDEST PUSH1 0x10 PUSH1 0x0 SWAP1 SLOAD SWAP1 PUSH2 0x100 EXP SWAP1 DIV PUSH16 0xFFFFFFFFFFFFFFFFFFFFFFFFFFFFFFFF AND PUSH1 0xF SIGNEXTEND DUP2 PUSH1 0xF SIGNEXTEND SGT PUSH2 0x4A2B JUMPI PUSH1 0x0 PUSH2 0x490E DUP4 DUP4 PUSH2 0x2ADF JUMP JUMPDEST SWAP1 POP PUSH1 0x0 PUSH2 0x491B DUP3 PUSH2 0x513D JUMP JUMPDEST SWAP1 POP PUSH1 0x0 PUSH20 0xFFFFFFFFFFFFFFFFFFFFFFFFFFFFFFFFFFFFFFFF AND DUP2 PUSH20 0xFFFFFFFFFFFFFFFFFFFFFFFFFFFFFFFFFFFFFFFF AND EQ PUSH2 0x4A16 JUMPI PUSH1 0x0 PUSH2 0x495C DUP4 PUSH2 0x267D JUMP JUMPDEST POP SWAP1 POP PUSH1 0xD PUSH1 0x0 SWAP1 SLOAD SWAP1 PUSH2 0x100 EXP SWAP1 DIV PUSH20 0xFFFFFFFFFFFFFFFFFFFFFFFFFFFFFFFFFFFFFFFF AND PUSH20 0xFFFFFFFFFFFFFFFFFFFFFFFFFFFFFFFFFFFFFFFF AND PUSH4 0x40C10F19 DUP4 PUSH1 0x1 DUP5 PUSH2 0x49AB SWAP2 SWAP1 PUSH2 0x675A JUMP JUMPDEST PUSH1 0x40 MLOAD DUP4 PUSH4 0xFFFFFFFF AND PUSH1 0xE0 SHL DUP2 MSTORE PUSH1 0x4 ADD PUSH2 0x49C8 SWAP3 SWAP2 SWAP1 PUSH2 0x61E5 JUMP JUMPDEST PUSH1 0x0 PUSH1 0x40 MLOAD DUP1 DUP4 SUB DUP2 PUSH1 0x0 DUP8 DUP1 EXTCODESIZE ISZERO DUP1 ISZERO PUSH2 0x49E2 JUMPI PUSH1 0x0 DUP1 REVERT JUMPDEST POP GAS CALL ISZERO DUP1 ISZERO PUSH2 0x49F6 JUMPI RETURNDATASIZE PUSH1 0x0 DUP1 RETURNDATACOPY RETURNDATASIZE PUSH1 0x0 REVERT JUMPDEST POP POP POP POP PUSH1 0x1 DUP2 PUSH2 0x4A07 SWAP2 SWAP1 PUSH2 0x675A JUMP JUMPDEST DUP7 PUSH2 0x4A12 SWAP2 SWAP1 PUSH2 0x675A JUMP JUMPDEST SWAP6 POP POP JUMPDEST POP POP DUP1 DUP1 PUSH2 0x4A23 SWAP1 PUSH2 0x6D1E JUMP JUMPDEST SWAP2 POP POP PUSH2 0x48D7 JUMP JUMPDEST POP DUP1 DUP1 PUSH2 0x4A37 SWAP1 PUSH2 0x6D1E JUMP JUMPDEST SWAP2 POP POP PUSH2 0x487F JUMP JUMPDEST POP DUP1 SWAP2 POP POP SWAP1 JUMP JUMPDEST PUSH2 0x4A4F PUSH2 0x32B0 JUMP JUMPDEST PUSH20 0xFFFFFFFFFFFFFFFFFFFFFFFFFFFFFFFFFFFFFFFF AND PUSH2 0x4A6D PUSH2 0x2771 JUMP JUMPDEST PUSH20 0xFFFFFFFFFFFFFFFFFFFFFFFFFFFFFFFFFFFFFFFF AND EQ PUSH2 0x4AC3 JUMPI PUSH1 0x40 MLOAD PUSH32 0x8C379A000000000000000000000000000000000000000000000000000000000 DUP2 MSTORE PUSH1 0x4 ADD PUSH2 0x4ABA SWAP1 PUSH2 0x6495 JUMP JUMPDEST PUSH1 0x40 MLOAD DUP1 SWAP2 SUB SWAP1 REVERT JUMPDEST PUSH2 0x4AE2 DUP3 PUSH20 0xFFFFFFFFFFFFFFFFFFFFFFFFFFFFFFFFFFFFFFFF AND PUSH2 0x4F93 JUMP JUMPDEST PUSH2 0x4AEB JUMPI PUSH1 0x0 DUP1 REVERT JUMPDEST PUSH1 0x0 DUP3 SWAP1 POP PUSH2 0x4AFA DUP2 DUP4 PUSH2 0x1DB3 JUMP JUMPDEST ISZERO PUSH2 0x4B04 JUMPI PUSH1 0x0 DUP1 REVERT JUMPDEST DUP1 PUSH20 0xFFFFFFFFFFFFFFFFFFFFFFFFFFFFFFFFFFFFFFFF AND PUSH4 0x42842E0E ADDRESS PUSH2 0x4B29 PUSH2 0x2771 JUMP JUMPDEST DUP6 PUSH1 0x40 MLOAD DUP5 PUSH4 0xFFFFFFFF AND PUSH1 0xE0 SHL DUP2 MSTORE PUSH1 0x4 ADD PUSH2 0x4B48 SWAP4 SWAP3 SWAP2 SWAP1 PUSH2 0x6139 JUMP JUMPDEST PUSH1 0x0 PUSH1 0x40 MLOAD DUP1 DUP4 SUB DUP2 PUSH1 0x0 DUP8 DUP1 EXTCODESIZE ISZERO DUP1 ISZERO PUSH2 0x4B62 JUMPI PUSH1 0x0 DUP1 REVERT JUMPDEST POP GAS CALL ISZERO DUP1 ISZERO PUSH2 0x4B76 JUMPI RETURNDATASIZE PUSH1 0x0 DUP1 RETURNDATACOPY RETURNDATASIZE PUSH1 0x0 REVERT JUMPDEST POP POP POP POP POP POP POP JUMP JUMPDEST PUSH1 0x60 PUSH1 0x0 PUSH20 0xFFFFFFFFFFFFFFFFFFFFFFFFFFFFFFFFFFFFFFFF AND DUP4 PUSH20 0xFFFFFFFFFFFFFFFFFFFFFFFFFFFFFFFFFFFFFFFF AND EQ ISZERO PUSH2 0x4BBB JUMPI PUSH1 0x0 DUP1 REVERT JUMPDEST PUSH1 0x0 DUP1 PUSH1 0x1 SWAP1 POP JUMPDEST PUSH1 0x8 SLOAD DUP2 LT ISZERO PUSH2 0x4C8B JUMPI DUP5 PUSH20 0xFFFFFFFFFFFFFFFFFFFFFFFFFFFFFFFFFFFFFFFF AND PUSH1 0x9 PUSH1 0x0 DUP4 DUP2 MSTORE PUSH1 0x20 ADD SWAP1 DUP2 MSTORE PUSH1 0x20 ADD PUSH1 0x0 KECCAK256 PUSH1 0x0 ADD PUSH1 0x1 SWAP1 SLOAD SWAP1 PUSH2 0x100 EXP SWAP1 DIV PUSH20 0xFFFFFFFFFFFFFFFFFFFFFFFFFFFFFFFFFFFFFFFF AND PUSH20 0xFFFFFFFFFFFFFFFFFFFFFFFFFFFFFFFFFFFFFFFF AND EQ DUP1 ISZERO PUSH2 0x4C64 JUMPI POP DUP4 ISZERO ISZERO PUSH1 0x9 PUSH1 0x0 DUP4 DUP2 MSTORE PUSH1 0x20 ADD SWAP1 DUP2 MSTORE PUSH1 0x20 ADD PUSH1 0x0 KECCAK256 PUSH1 0x0 ADD PUSH1 0x15 SWAP1 SLOAD SWAP1 PUSH2 0x100 EXP SWAP1 DIV PUSH1 0xFF AND ISZERO ISZERO EQ JUMPDEST ISZERO PUSH2 0x4C78 JUMPI DUP2 DUP1 PUSH2 0x4C74 SWAP1 PUSH2 0x6D57 JUMP JUMPDEST SWAP3 POP POP JUMPDEST DUP1 DUP1 PUSH2 0x4C83 SWAP1 PUSH2 0x6D57 JUMP JUMPDEST SWAP2 POP POP PUSH2 0x4BC3 JUMP JUMPDEST POP PUSH1 0x0 DUP2 PUSH8 0xFFFFFFFFFFFFFFFF DUP2 GT ISZERO PUSH2 0x4CCE JUMPI PUSH32 0x4E487B7100000000000000000000000000000000000000000000000000000000 PUSH1 0x0 MSTORE PUSH1 0x41 PUSH1 0x4 MSTORE PUSH1 0x24 PUSH1 0x0 REVERT JUMPDEST PUSH1 0x40 MLOAD SWAP1 DUP1 DUP3 MSTORE DUP1 PUSH1 0x20 MUL PUSH1 0x20 ADD DUP3 ADD PUSH1 0x40 MSTORE DUP1 ISZERO PUSH2 0x4CFC JUMPI DUP2 PUSH1 0x20 ADD PUSH1 0x20 DUP3 MUL DUP1 CALLDATASIZE DUP4 CALLDATACOPY DUP1 DUP3 ADD SWAP2 POP POP SWAP1 POP JUMPDEST POP SWAP1 POP PUSH1 0x0 SWAP2 POP PUSH1 0x0 PUSH1 0x1 SWAP1 POP JUMPDEST PUSH1 0x8 SLOAD DUP2 LT ISZERO PUSH2 0x4E16 JUMPI DUP6 PUSH20 0xFFFFFFFFFFFFFFFFFFFFFFFFFFFFFFFFFFFFFFFF AND PUSH1 0x9 PUSH1 0x0 DUP4 DUP2 MSTORE PUSH1 0x20 ADD SWAP1 DUP2 MSTORE PUSH1 0x20 ADD PUSH1 0x0 KECCAK256 PUSH1 0x0 ADD PUSH1 0x1 SWAP1 SLOAD SWAP1 PUSH2 0x100 EXP SWAP1 DIV PUSH20 0xFFFFFFFFFFFFFFFFFFFFFFFFFFFFFFFFFFFFFFFF AND PUSH20 0xFFFFFFFFFFFFFFFFFFFFFFFFFFFFFFFFFFFFFFFF AND EQ DUP1 ISZERO PUSH2 0x4DAB JUMPI POP DUP5 ISZERO ISZERO PUSH1 0x9 PUSH1 0x0 DUP4 DUP2 MSTORE PUSH1 0x20 ADD SWAP1 DUP2 MSTORE PUSH1 0x20 ADD PUSH1 0x0 KECCAK256 PUSH1 0x0 ADD PUSH1 0x15 SWAP1 SLOAD SWAP1 PUSH2 0x100 EXP SWAP1 DIV PUSH1 0xFF AND ISZERO ISZERO EQ JUMPDEST ISZERO PUSH2 0x4E03 JUMPI DUP1 DUP3 DUP5 DUP1 PUSH2 0x4DBD SWAP1 PUSH2 0x6D57 JUMP JUMPDEST SWAP6 POP DUP2 MLOAD DUP2 LT PUSH2 0x4DF6 JUMPI PUSH32 0x4E487B7100000000000000000000000000000000000000000000000000000000 PUSH1 0x0 MSTORE PUSH1 0x32 PUSH1 0x4 MSTORE PUSH1 0x24 PUSH1 0x0 REVERT JUMPDEST PUSH1 0x20 MUL PUSH1 0x20 ADD ADD DUP2 DUP2 MSTORE POP POP JUMPDEST DUP1 DUP1 PUSH2 0x4E0E SWAP1 PUSH2 0x6D57 JUMP JUMPDEST SWAP2 POP POP PUSH2 0x4D0A JUMP JUMPDEST POP DUP1 SWAP3 POP POP POP SWAP3 SWAP2 POP POP JUMP JUMPDEST POP POP POP JUMP JUMPDEST DUP1 SELFBALANCE LT ISZERO PUSH2 0x4E6A JUMPI PUSH1 0x40 MLOAD PUSH32 0x8C379A000000000000000000000000000000000000000000000000000000000 DUP2 MSTORE PUSH1 0x4 ADD PUSH2 0x4E61 SWAP1 PUSH2 0x63B5 JUMP JUMPDEST PUSH1 0x40 MLOAD DUP1 SWAP2 SUB SWAP1 REVERT JUMPDEST PUSH1 0x0 DUP3 PUSH20 0xFFFFFFFFFFFFFFFFFFFFFFFFFFFFFFFFFFFFFFFF AND DUP3 PUSH1 0x40 MLOAD PUSH2 0x4E90 SWAP1 PUSH2 0x6109 JUMP JUMPDEST PUSH1 0x0 PUSH1 0x40 MLOAD DUP1 DUP4 SUB DUP2 DUP6 DUP8 GAS CALL SWAP3 POP POP POP RETURNDATASIZE DUP1 PUSH1 0x0 DUP2 EQ PUSH2 0x4ECD JUMPI PUSH1 0x40 MLOAD SWAP2 POP PUSH1 0x1F NOT PUSH1 0x3F RETURNDATASIZE ADD AND DUP3 ADD PUSH1 0x40 MSTORE RETURNDATASIZE DUP3 MSTORE RETURNDATASIZE PUSH1 0x0 PUSH1 0x20 DUP5 ADD RETURNDATACOPY PUSH2 0x4ED2 JUMP JUMPDEST PUSH1 0x60 SWAP2 POP JUMPDEST POP POP SWAP1 POP DUP1 PUSH2 0x4F16 JUMPI PUSH1 0x40 MLOAD PUSH32 0x8C379A000000000000000000000000000000000000000000000000000000000 DUP2 MSTORE PUSH1 0x4 ADD PUSH2 0x4F0D SWAP1 PUSH2 0x6395 JUMP JUMPDEST PUSH1 0x40 MLOAD DUP1 SWAP2 SUB SWAP1 REVERT JUMPDEST POP POP POP JUMP JUMPDEST PUSH1 0x0 PUSH2 0x4F27 DUP4 DUP4 PUSH2 0x2ADF JUMP JUMPDEST SWAP1 POP PUSH2 0x4F33 ADDRESS DUP3 PUSH2 0x51DD JUMP JUMPDEST PUSH1 0x40 MLOAD DUP1 PUSH1 0x20 ADD PUSH1 0x40 MSTORE DUP1 DUP6 DUP2 MSTORE POP PUSH1 0xE PUSH1 0x0 DUP4 DUP2 MSTORE PUSH1 0x20 ADD SWAP1 DUP2 MSTORE PUSH1 0x20 ADD PUSH1 0x0 KECCAK256 PUSH1 0x0 DUP3 ADD MLOAD DUP2 PUSH1 0x0 ADD SWAP1 DUP1 MLOAD SWAP1 PUSH1 0x20 ADD SWAP1 PUSH2 0x4F71 SWAP3 SWAP2 SWAP1 PUSH2 0x53CC JUMP JUMPDEST POP SWAP1 POP POP PUSH1 0x11 PUSH1 0x0 DUP2 SLOAD DUP1 SWAP3 SWAP2 SWAP1 PUSH2 0x4F88 SWAP1 PUSH2 0x6D57 JUMP JUMPDEST SWAP2 SWAP1 POP SSTORE POP POP POP POP POP JUMP JUMPDEST PUSH1 0x0 DUP1 DUP3 EXTCODESIZE SWAP1 POP PUSH1 0x0 DUP2 GT SWAP2 POP POP SWAP2 SWAP1 POP JUMP JUMPDEST PUSH1 0x0 PUSH2 0x4FC7 DUP5 PUSH20 0xFFFFFFFFFFFFFFFFFFFFFFFFFFFFFFFFFFFFFFFF AND PUSH2 0x4F93 JUMP JUMPDEST ISZERO PUSH2 0x5130 JUMPI DUP4 PUSH20 0xFFFFFFFFFFFFFFFFFFFFFFFFFFFFFFFFFFFFFFFF AND PUSH4 0x150B7A02 PUSH2 0x4FF0 PUSH2 0x32B0 JUMP JUMPDEST DUP8 DUP7 DUP7 PUSH1 0x40 MLOAD DUP6 PUSH4 0xFFFFFFFF AND PUSH1 0xE0 SHL DUP2 MSTORE PUSH1 0x4 ADD PUSH2 0x5012 SWAP5 SWAP4 SWAP3 SWAP2 SWAP1 PUSH2 0x6170 JUMP JUMPDEST PUSH1 0x20 PUSH1 0x40 MLOAD DUP1 DUP4 SUB DUP2 PUSH1 0x0 DUP8 DUP1 EXTCODESIZE ISZERO DUP1 ISZERO PUSH2 0x502C JUMPI PUSH1 0x0 DUP1 REVERT JUMPDEST POP GAS CALL SWAP3 POP POP POP DUP1 ISZERO PUSH2 0x505D JUMPI POP PUSH1 0x40 MLOAD RETURNDATASIZE PUSH1 0x1F NOT PUSH1 0x1F DUP3 ADD AND DUP3 ADD DUP1 PUSH1 0x40 MSTORE POP DUP2 ADD SWAP1 PUSH2 0x505A SWAP2 SWAP1 PUSH2 0x599C JUMP JUMPDEST PUSH1 0x1 JUMPDEST PUSH2 0x50E0 JUMPI RETURNDATASIZE DUP1 PUSH1 0x0 DUP2 EQ PUSH2 0x508D JUMPI PUSH1 0x40 MLOAD SWAP2 POP PUSH1 0x1F NOT PUSH1 0x3F RETURNDATASIZE ADD AND DUP3 ADD PUSH1 0x40 MSTORE RETURNDATASIZE DUP3 MSTORE RETURNDATASIZE PUSH1 0x0 PUSH1 0x20 DUP5 ADD RETURNDATACOPY PUSH2 0x5092 JUMP JUMPDEST PUSH1 0x60 SWAP2 POP JUMPDEST POP PUSH1 0x0 DUP2 MLOAD EQ ISZERO PUSH2 0x50D8 JUMPI PUSH1 0x40 MLOAD PUSH32 0x8C379A000000000000000000000000000000000000000000000000000000000 DUP2 MSTORE PUSH1 0x4 ADD PUSH2 0x50CF SWAP1 PUSH2 0x62F5 JUMP JUMPDEST PUSH1 0x40 MLOAD DUP1 SWAP2 SUB SWAP1 REVERT JUMPDEST DUP1 MLOAD DUP2 PUSH1 0x20 ADD REVERT JUMPDEST PUSH4 0x150B7A02 PUSH1 0xE0 SHL PUSH28 0xFFFFFFFFFFFFFFFFFFFFFFFFFFFFFFFFFFFFFFFFFFFFFFFFFFFFFFFF NOT AND DUP2 PUSH28 0xFFFFFFFFFFFFFFFFFFFFFFFFFFFFFFFFFFFFFFFFFFFFFFFFFFFFFFFF NOT AND EQ SWAP2 POP POP PUSH2 0x5135 JUMP JUMPDEST PUSH1 0x1 SWAP1 POP JUMPDEST SWAP5 SWAP4 POP POP POP POP JUMP JUMPDEST PUSH1 0x0 PUSH2 0x5148 DUP3 PUSH2 0x3244 JUMP JUMPDEST PUSH2 0x5155 JUMPI PUSH1 0x0 SWAP1 POP PUSH2 0x51D8 JUMP JUMPDEST ADDRESS PUSH20 0xFFFFFFFFFFFFFFFFFFFFFFFFFFFFFFFFFFFFFFFF AND PUSH2 0x5175 DUP4 PUSH2 0x1E5F JUMP JUMPDEST PUSH20 0xFFFFFFFFFFFFFFFFFFFFFFFFFFFFFFFFFFFFFFFF AND EQ ISZERO PUSH2 0x51CC JUMPI PUSH1 0xC PUSH1 0x0 DUP4 DUP2 MSTORE PUSH1 0x20 ADD SWAP1 DUP2 MSTORE PUSH1 0x20 ADD PUSH1 0x0 KECCAK256 PUSH1 0x0 SWAP1 SLOAD SWAP1 PUSH2 0x100 EXP SWAP1 DIV PUSH20 0xFFFFFFFFFFFFFFFFFFFFFFFFFFFFFFFFFFFFFFFF AND SWAP1 POP PUSH2 0x51D8 JUMP JUMPDEST PUSH2 0x51D5 DUP3 PUSH2 0x1E5F JUMP JUMPDEST SWAP1 POP JUMPDEST SWAP2 SWAP1 POP JUMP JUMPDEST PUSH1 0x0 PUSH20 0xFFFFFFFFFFFFFFFFFFFFFFFFFFFFFFFFFFFFFFFF AND DUP3 PUSH20 0xFFFFFFFFFFFFFFFFFFFFFFFFFFFFFFFFFFFFFFFF AND EQ ISZERO PUSH2 0x524D JUMPI PUSH1 0x40 MLOAD PUSH32 0x8C379A000000000000000000000000000000000000000000000000000000000 DUP2 MSTORE PUSH1 0x4 ADD PUSH2 0x5244 SWAP1 PUSH2 0x6455 JUMP JUMPDEST PUSH1 0x40 MLOAD DUP1 SWAP2 SUB SWAP1 REVERT JUMPDEST PUSH2 0x5256 DUP2 PUSH2 0x3244 JUMP JUMPDEST ISZERO PUSH2 0x5296 JUMPI PUSH1 0x40 MLOAD PUSH32 0x8C379A000000000000000000000000000000000000000000000000000000000 DUP2 MSTORE PUSH1 0x4 ADD PUSH2 0x528D SWAP1 PUSH2 0x6335 JUMP JUMPDEST PUSH1 0x40 MLOAD DUP1 SWAP2 SUB SWAP1 REVERT JUMPDEST PUSH2 0x52A2 PUSH1 0x0 DUP4 DUP4 PUSH2 0x4E22 JUMP JUMPDEST PUSH1 0x1 PUSH1 0x3 PUSH1 0x0 DUP5 PUSH20 0xFFFFFFFFFFFFFFFFFFFFFFFFFFFFFFFFFFFFFFFF AND PUSH20 0xFFFFFFFFFFFFFFFFFFFFFFFFFFFFFFFFFFFFFFFF AND DUP2 MSTORE PUSH1 0x20 ADD SWAP1 DUP2 MSTORE PUSH1 0x20 ADD PUSH1 0x0 KECCAK256 PUSH1 0x0 DUP3 DUP3 SLOAD PUSH2 0x52F2 SWAP2 SWAP1 PUSH2 0x675A JUMP JUMPDEST SWAP3 POP POP DUP2 SWAP1 SSTORE POP DUP2 PUSH1 0x2 PUSH1 0x0 DUP4 DUP2 MSTORE PUSH1 0x20 ADD SWAP1 DUP2 MSTORE PUSH1 0x20 ADD PUSH1 0x0 KECCAK256 PUSH1 0x0 PUSH2 0x100 EXP DUP2 SLOAD DUP2 PUSH20 0xFFFFFFFFFFFFFFFFFFFFFFFFFFFFFFFFFFFFFFFF MUL NOT AND SWAP1 DUP4 PUSH20 0xFFFFFFFFFFFFFFFFFFFFFFFFFFFFFFFFFFFFFFFF AND MUL OR SWAP1 SSTORE POP DUP1 DUP3 PUSH20 0xFFFFFFFFFFFFFFFFFFFFFFFFFFFFFFFFFFFFFFFF AND PUSH1 0x0 PUSH20 0xFFFFFFFFFFFFFFFFFFFFFFFFFFFFFFFFFFFFFFFF AND PUSH32 0xDDF252AD1BE2C89B69C2B068FC378DAA952BA7F163C4A11628F55A4DF523B3EF PUSH1 0x40 MLOAD PUSH1 0x40 MLOAD DUP1 SWAP2 SUB SWAP1 LOG4 POP POP JUMP JUMPDEST POP DUP1 SLOAD PUSH1 0x0 DUP3 SSTORE SWAP1 PUSH1 0x0 MSTORE PUSH1 0x20 PUSH1 0x0 KECCAK256 SWAP1 DUP2 ADD SWAP1 PUSH2 0x53C9 SWAP2 SWAP1 PUSH2 0x5452 JUMP JUMPDEST POP JUMP JUMPDEST DUP3 DUP1 SLOAD PUSH2 0x53D8 SWAP1 PUSH2 0x6CBB JUMP JUMPDEST SWAP1 PUSH1 0x0 MSTORE PUSH1 0x20 PUSH1 0x0 KECCAK256 SWAP1 PUSH1 0x1F ADD PUSH1 0x20 SWAP1 DIV DUP2 ADD SWAP3 DUP3 PUSH2 0x53FA JUMPI PUSH1 0x0 DUP6 SSTORE PUSH2 0x5441 JUMP JUMPDEST DUP3 PUSH1 0x1F LT PUSH2 0x5413 JUMPI DUP1 MLOAD PUSH1 0xFF NOT AND DUP4 DUP1 ADD OR DUP6 SSTORE PUSH2 0x5441 JUMP JUMPDEST DUP3 DUP1 ADD PUSH1 0x1 ADD DUP6 SSTORE DUP3 ISZERO PUSH2 0x5441 JUMPI SWAP2 DUP3 ADD JUMPDEST DUP3 DUP2 GT ISZERO PUSH2 0x5440 JUMPI DUP3 MLOAD DUP3 SSTORE SWAP2 PUSH1 0x20 ADD SWAP2 SWAP1 PUSH1 0x1 ADD SWAP1 PUSH2 0x5425 JUMP JUMPDEST JUMPDEST POP SWAP1 POP PUSH2 0x544E SWAP2 SWAP1 PUSH2 0x5452 JUMP JUMPDEST POP SWAP1 JUMP JUMPDEST JUMPDEST DUP1 DUP3 GT ISZERO PUSH2 0x546B JUMPI PUSH1 0x0 DUP2 PUSH1 0x0 SWAP1 SSTORE POP PUSH1 0x1 ADD PUSH2 0x5453 JUMP JUMPDEST POP SWAP1 JUMP JUMPDEST PUSH1 0x0 PUSH2 0x5482 PUSH2 0x547D DUP5 PUSH2 0x659E JUMP JUMPDEST PUSH2 0x6579 JUMP JUMPDEST SWAP1 POP DUP1 DUP4 DUP3 MSTORE PUSH1 0x20 DUP3 ADD SWAP1 POP DUP3 PUSH1 0x0 JUMPDEST DUP6 DUP2 LT ISZERO PUSH2 0x54C2 JUMPI DUP2 CALLDATALOAD DUP6 ADD PUSH2 0x54A8 DUP9 DUP3 PUSH2 0x568E JUMP JUMPDEST DUP5 MSTORE PUSH1 0x20 DUP5 ADD SWAP4 POP PUSH1 0x20 DUP4 ADD SWAP3 POP POP PUSH1 0x1 DUP2 ADD SWAP1 POP PUSH2 0x5492 JUMP JUMPDEST POP POP POP SWAP4 SWAP3 POP POP POP JUMP JUMPDEST PUSH1 0x0 PUSH2 0x54DF PUSH2 0x54DA DUP5 PUSH2 0x65CA JUMP JUMPDEST PUSH2 0x6579 JUMP JUMPDEST SWAP1 POP DUP3 DUP2 MSTORE PUSH1 0x20 DUP2 ADD DUP5 DUP5 DUP5 ADD GT ISZERO PUSH2 0x54F7 JUMPI PUSH1 0x0 DUP1 REVERT JUMPDEST PUSH2 0x5502 DUP5 DUP3 DUP6 PUSH2 0x6C79 JUMP JUMPDEST POP SWAP4 SWAP3 POP POP POP JUMP JUMPDEST PUSH1 0x0 PUSH2 0x551D PUSH2 0x5518 DUP5 PUSH2 0x65FB JUMP JUMPDEST PUSH2 0x6579 JUMP JUMPDEST SWAP1 POP DUP3 DUP2 MSTORE PUSH1 0x20 DUP2 ADD DUP5 DUP5 DUP5 ADD GT ISZERO PUSH2 0x5535 JUMPI PUSH1 0x0 DUP1 REVERT JUMPDEST PUSH2 0x5540 DUP5 DUP3 DUP6 PUSH2 0x6C79 JUMP JUMPDEST POP SWAP4 SWAP3 POP POP POP JUMP JUMPDEST PUSH1 0x0 DUP2 CALLDATALOAD SWAP1 POP PUSH2 0x5557 DUP2 PUSH2 0x73C7 JUMP JUMPDEST SWAP3 SWAP2 POP POP JUMP JUMPDEST PUSH1 0x0 DUP3 PUSH1 0x1F DUP4 ADD SLT PUSH2 0x556E JUMPI PUSH1 0x0 DUP1 REVERT JUMPDEST DUP2 CALLDATALOAD PUSH2 0x557E DUP5 DUP3 PUSH1 0x20 DUP7 ADD PUSH2 0x546F JUMP JUMPDEST SWAP2 POP POP SWAP3 SWAP2 POP POP JUMP JUMPDEST PUSH1 0x0 DUP2 CALLDATALOAD SWAP1 POP PUSH2 0x5596 DUP2 PUSH2 0x73DE JUMP JUMPDEST SWAP3 SWAP2 POP POP JUMP JUMPDEST PUSH1 0x0 DUP2 MLOAD SWAP1 POP PUSH2 0x55AB DUP2 PUSH2 0x73DE JUMP JUMPDEST SWAP3 SWAP2 POP POP JUMP JUMPDEST PUSH1 0x0 DUP2 CALLDATALOAD SWAP1 POP PUSH2 0x55C0 DUP2 PUSH2 0x73F5 JUMP JUMPDEST SWAP3 SWAP2 POP POP JUMP JUMPDEST PUSH1 0x0 DUP2 MLOAD SWAP1 POP PUSH2 0x55D5 DUP2 PUSH2 0x73F5 JUMP JUMPDEST SWAP3 SWAP2 POP POP JUMP JUMPDEST PUSH1 0x0 DUP1 DUP4 PUSH1 0x1F DUP5 ADD SLT PUSH2 0x55ED JUMPI PUSH1 0x0 DUP1 REVERT JUMPDEST DUP3 CALLDATALOAD SWAP1 POP PUSH8 0xFFFFFFFFFFFFFFFF DUP2 GT ISZERO PUSH2 0x5606 JUMPI PUSH1 0x0 DUP1 REVERT JUMPDEST PUSH1 0x20 DUP4 ADD SWAP2 POP DUP4 PUSH1 0x1 DUP3 MUL DUP4 ADD GT ISZERO PUSH2 0x561E JUMPI PUSH1 0x0 DUP1 REVERT JUMPDEST SWAP3 POP SWAP3 SWAP1 POP JUMP JUMPDEST PUSH1 0x0 DUP3 PUSH1 0x1F DUP4 ADD SLT PUSH2 0x5636 JUMPI PUSH1 0x0 DUP1 REVERT JUMPDEST DUP2 CALLDATALOAD PUSH2 0x5646 DUP5 DUP3 PUSH1 0x20 DUP7 ADD PUSH2 0x54CC JUMP JUMPDEST SWAP2 POP POP SWAP3 SWAP2 POP POP JUMP JUMPDEST PUSH1 0x0 DUP2 CALLDATALOAD SWAP1 POP PUSH2 0x565E DUP2 PUSH2 0x740C JUMP JUMPDEST SWAP3 SWAP2 POP POP JUMP JUMPDEST PUSH1 0x0 DUP2 CALLDATALOAD SWAP1 POP PUSH2 0x5673 DUP2 PUSH2 0x7423 JUMP JUMPDEST SWAP3 SWAP2 POP POP JUMP JUMPDEST PUSH1 0x0 DUP2 CALLDATALOAD SWAP1 POP PUSH2 0x5688 DUP2 PUSH2 0x743A JUMP JUMPDEST SWAP3 SWAP2 POP POP JUMP JUMPDEST PUSH1 0x0 DUP3 PUSH1 0x1F DUP4 ADD SLT PUSH2 0x569F JUMPI PUSH1 0x0 DUP1 REVERT JUMPDEST DUP2 CALLDATALOAD PUSH2 0x56AF DUP5 DUP3 PUSH1 0x20 DUP7 ADD PUSH2 0x550A JUMP JUMPDEST SWAP2 POP POP SWAP3 SWAP2 POP POP JUMP JUMPDEST PUSH1 0x0 DUP2 CALLDATALOAD SWAP1 POP PUSH2 0x56C7 DUP2 PUSH2 0x7451 JUMP JUMPDEST SWAP3 SWAP2 POP POP JUMP JUMPDEST PUSH1 0x0 DUP2 MLOAD SWAP1 POP PUSH2 0x56DC DUP2 PUSH2 0x7451 JUMP JUMPDEST SWAP3 SWAP2 POP POP JUMP JUMPDEST PUSH1 0x0 PUSH1 0x20 DUP3 DUP5 SUB SLT ISZERO PUSH2 0x56F4 JUMPI PUSH1 0x0 DUP1 REVERT JUMPDEST PUSH1 0x0 PUSH2 0x5702 DUP5 DUP3 DUP6 ADD PUSH2 0x5548 JUMP JUMPDEST SWAP2 POP POP SWAP3 SWAP2 POP POP JUMP JUMPDEST PUSH1 0x0 DUP1 PUSH1 0x40 DUP4 DUP6 SUB SLT ISZERO PUSH2 0x571E JUMPI PUSH1 0x0 DUP1 REVERT JUMPDEST PUSH1 0x0 PUSH2 0x572C DUP6 DUP3 DUP7 ADD PUSH2 0x5548 JUMP JUMPDEST SWAP3 POP POP PUSH1 0x20 PUSH2 0x573D DUP6 DUP3 DUP7 ADD PUSH2 0x5548 JUMP JUMPDEST SWAP2 POP POP SWAP3 POP SWAP3 SWAP1 POP JUMP JUMPDEST PUSH1 0x0 DUP1 PUSH1 0x0 PUSH1 0x60 DUP5 DUP7 SUB SLT ISZERO PUSH2 0x575C JUMPI PUSH1 0x0 DUP1 REVERT JUMPDEST PUSH1 0x0 PUSH2 0x576A DUP7 DUP3 DUP8 ADD PUSH2 0x5548 JUMP JUMPDEST SWAP4 POP POP PUSH1 0x20 PUSH2 0x577B DUP7 DUP3 DUP8 ADD PUSH2 0x5548 JUMP JUMPDEST SWAP3 POP POP PUSH1 0x40 PUSH2 0x578C DUP7 DUP3 DUP8 ADD PUSH2 0x56B8 JUMP JUMPDEST SWAP2 POP POP SWAP3 POP SWAP3 POP SWAP3 JUMP JUMPDEST PUSH1 0x0 DUP1 PUSH1 0x0 DUP1 PUSH1 0x0 PUSH1 0x80 DUP7 DUP9 SUB SLT ISZERO PUSH2 0x57AE JUMPI PUSH1 0x0 DUP1 REVERT JUMPDEST PUSH1 0x0 PUSH2 0x57BC DUP9 DUP3 DUP10 ADD PUSH2 0x5548 JUMP JUMPDEST SWAP6 POP POP PUSH1 0x20 PUSH2 0x57CD DUP9 DUP3 DUP10 ADD PUSH2 0x5548 JUMP JUMPDEST SWAP5 POP POP PUSH1 0x40 PUSH2 0x57DE DUP9 DUP3 DUP10 ADD PUSH2 0x56B8 JUMP JUMPDEST SWAP4 POP POP PUSH1 0x60 DUP7 ADD CALLDATALOAD PUSH8 0xFFFFFFFFFFFFFFFF DUP2 GT ISZERO PUSH2 0x57FB JUMPI PUSH1 0x0 DUP1 REVERT JUMPDEST PUSH2 0x5807 DUP9 DUP3 DUP10 ADD PUSH2 0x55DB JUMP JUMPDEST SWAP3 POP SWAP3 POP POP SWAP3 SWAP6 POP SWAP3 SWAP6 SWAP1 SWAP4 POP JUMP JUMPDEST PUSH1 0x0 DUP1 PUSH1 0x0 DUP1 PUSH1 0x80 DUP6 DUP8 SUB SLT ISZERO PUSH2 0x582C JUMPI PUSH1 0x0 DUP1 REVERT JUMPDEST PUSH1 0x0 PUSH2 0x583A DUP8 DUP3 DUP9 ADD PUSH2 0x5548 JUMP JUMPDEST SWAP5 POP POP PUSH1 0x20 PUSH2 0x584B DUP8 DUP3 DUP9 ADD PUSH2 0x5548 JUMP JUMPDEST SWAP4 POP POP PUSH1 0x40 PUSH2 0x585C DUP8 DUP3 DUP9 ADD PUSH2 0x56B8 JUMP JUMPDEST SWAP3 POP POP PUSH1 0x60 DUP6 ADD CALLDATALOAD PUSH8 0xFFFFFFFFFFFFFFFF DUP2 GT ISZERO PUSH2 0x5879 JUMPI PUSH1 0x0 DUP1 REVERT JUMPDEST PUSH2 0x5885 DUP8 DUP3 DUP9 ADD PUSH2 0x5625 JUMP JUMPDEST SWAP2 POP POP SWAP3 SWAP6 SWAP2 SWAP5 POP SWAP3 POP JUMP JUMPDEST PUSH1 0x0 DUP1 PUSH1 0x40 DUP4 DUP6 SUB SLT ISZERO PUSH2 0x58A4 JUMPI PUSH1 0x0 DUP1 REVERT JUMPDEST PUSH1 0x0 PUSH2 0x58B2 DUP6 DUP3 DUP7 ADD PUSH2 0x5548 JUMP JUMPDEST SWAP3 POP POP PUSH1 0x20 PUSH2 0x58C3 DUP6 DUP3 DUP7 ADD PUSH2 0x5587 JUMP JUMPDEST SWAP2 POP POP SWAP3 POP SWAP3 SWAP1 POP JUMP JUMPDEST PUSH1 0x0 DUP1 PUSH1 0x40 DUP4 DUP6 SUB SLT ISZERO PUSH2 0x58E0 JUMPI PUSH1 0x0 DUP1 REVERT JUMPDEST PUSH1 0x0 PUSH2 0x58EE DUP6 DUP3 DUP7 ADD PUSH2 0x5548 JUMP JUMPDEST SWAP3 POP POP PUSH1 0x20 PUSH2 0x58FF DUP6 DUP3 DUP7 ADD PUSH2 0x56B8 JUMP JUMPDEST SWAP2 POP POP SWAP3 POP SWAP3 SWAP1 POP JUMP JUMPDEST PUSH1 0x0 PUSH1 0x20 DUP3 DUP5 SUB SLT ISZERO PUSH2 0x591B JUMPI PUSH1 0x0 DUP1 REVERT JUMPDEST PUSH1 0x0 DUP3 ADD CALLDATALOAD PUSH8 0xFFFFFFFFFFFFFFFF DUP2 GT ISZERO PUSH2 0x5935 JUMPI PUSH1 0x0 DUP1 REVERT JUMPDEST PUSH2 0x5941 DUP5 DUP3 DUP6 ADD PUSH2 0x555D JUMP JUMPDEST SWAP2 POP POP SWAP3 SWAP2 POP POP JUMP JUMPDEST PUSH1 0x0 PUSH1 0x20 DUP3 DUP5 SUB SLT ISZERO PUSH2 0x595C JUMPI PUSH1 0x0 DUP1 REVERT JUMPDEST PUSH1 0x0 PUSH2 0x596A DUP5 DUP3 DUP6 ADD PUSH2 0x559C JUMP JUMPDEST SWAP2 POP POP SWAP3 SWAP2 POP POP JUMP JUMPDEST PUSH1 0x0 PUSH1 0x20 DUP3 DUP5 SUB SLT ISZERO PUSH2 0x5985 JUMPI PUSH1 0x0 DUP1 REVERT JUMPDEST PUSH1 0x0 PUSH2 0x5993 DUP5 DUP3 DUP6 ADD PUSH2 0x55B1 JUMP JUMPDEST SWAP2 POP POP SWAP3 SWAP2 POP POP JUMP JUMPDEST PUSH1 0x0 PUSH1 0x20 DUP3 DUP5 SUB SLT ISZERO PUSH2 0x59AE JUMPI PUSH1 0x0 DUP1 REVERT JUMPDEST PUSH1 0x0 PUSH2 0x59BC DUP5 DUP3 DUP6 ADD PUSH2 0x55C6 JUMP JUMPDEST SWAP2 POP POP SWAP3 SWAP2 POP POP JUMP JUMPDEST PUSH1 0x0 PUSH1 0x20 DUP3 DUP5 SUB SLT ISZERO PUSH2 0x59D7 JUMPI PUSH1 0x0 DUP1 REVERT JUMPDEST PUSH1 0x0 PUSH2 0x59E5 DUP5 DUP3 DUP6 ADD PUSH2 0x564F JUMP JUMPDEST SWAP2 POP POP SWAP3 SWAP2 POP POP JUMP JUMPDEST PUSH1 0x0 DUP1 PUSH1 0x40 DUP4 DUP6 SUB SLT ISZERO PUSH2 0x5A01 JUMPI PUSH1 0x0 DUP1 REVERT JUMPDEST PUSH1 0x0 PUSH2 0x5A0F DUP6 DUP3 DUP7 ADD PUSH2 0x5664 JUMP JUMPDEST SWAP3 POP POP PUSH1 0x20 PUSH2 0x5A20 DUP6 DUP3 DUP7 ADD PUSH2 0x56B8 JUMP JUMPDEST SWAP2 POP POP SWAP3 POP SWAP3 SWAP1 POP JUMP JUMPDEST PUSH1 0x0 DUP1 PUSH1 0x40 DUP4 DUP6 SUB SLT ISZERO PUSH2 0x5A3D JUMPI PUSH1 0x0 DUP1 REVERT JUMPDEST PUSH1 0x0 PUSH2 0x5A4B DUP6 DUP3 DUP7 ADD PUSH2 0x5679 JUMP JUMPDEST SWAP3 POP POP PUSH1 0x20 PUSH2 0x5A5C DUP6 DUP3 DUP7 ADD PUSH2 0x5679 JUMP JUMPDEST SWAP2 POP POP SWAP3 POP SWAP3 SWAP1 POP JUMP JUMPDEST PUSH1 0x0 PUSH1 0x20 DUP3 DUP5 SUB SLT ISZERO PUSH2 0x5A78 JUMPI PUSH1 0x0 DUP1 REVERT JUMPDEST PUSH1 0x0 PUSH2 0x5A86 DUP5 DUP3 DUP6 ADD PUSH2 0x56B8 JUMP JUMPDEST SWAP2 POP POP SWAP3 SWAP2 POP POP JUMP JUMPDEST PUSH1 0x0 PUSH1 0x20 DUP3 DUP5 SUB SLT ISZERO PUSH2 0x5AA1 JUMPI PUSH1 0x0 DUP1 REVERT JUMPDEST PUSH1 0x0 PUSH2 0x5AAF DUP5 DUP3 DUP6 ADD PUSH2 0x56CD JUMP JUMPDEST SWAP2 POP POP SWAP3 SWAP2 POP POP JUMP JUMPDEST PUSH1 0x0 DUP1 PUSH1 0x40 DUP4 DUP6 SUB SLT ISZERO PUSH2 0x5ACB JUMPI PUSH1 0x0 DUP1 REVERT JUMPDEST PUSH1 0x0 PUSH2 0x5AD9 DUP6 DUP3 DUP7 ADD PUSH2 0x56B8 JUMP JUMPDEST SWAP3 POP POP PUSH1 0x20 PUSH2 0x5AEA DUP6 DUP3 DUP7 ADD PUSH2 0x5548 JUMP JUMPDEST SWAP2 POP POP SWAP3 POP SWAP3 SWAP1 POP JUMP JUMPDEST PUSH1 0x0 DUP1 PUSH1 0x40 DUP4 DUP6 SUB SLT ISZERO PUSH2 0x5B07 JUMPI PUSH1 0x0 DUP1 REVERT JUMPDEST PUSH1 0x0 PUSH2 0x5B15 DUP6 DUP3 DUP7 ADD PUSH2 0x56B8 JUMP JUMPDEST SWAP3 POP POP PUSH1 0x20 PUSH2 0x5B26 DUP6 DUP3 DUP7 ADD PUSH2 0x5587 JUMP JUMPDEST SWAP2 POP POP SWAP3 POP SWAP3 SWAP1 POP JUMP JUMPDEST PUSH1 0x0 DUP1 PUSH1 0x40 DUP4 DUP6 SUB SLT ISZERO PUSH2 0x5B43 JUMPI PUSH1 0x0 DUP1 REVERT JUMPDEST PUSH1 0x0 PUSH2 0x5B51 DUP6 DUP3 DUP7 ADD PUSH2 0x56B8 JUMP JUMPDEST SWAP3 POP POP PUSH1 0x20 DUP4 ADD CALLDATALOAD PUSH8 0xFFFFFFFFFFFFFFFF DUP2 GT ISZERO PUSH2 0x5B6E JUMPI PUSH1 0x0 DUP1 REVERT JUMPDEST PUSH2 0x5B7A DUP6 DUP3 DUP7 ADD PUSH2 0x568E JUMP JUMPDEST SWAP2 POP POP SWAP3 POP SWAP3 SWAP1 POP JUMP JUMPDEST PUSH1 0x0 DUP1 PUSH1 0x40 DUP4 DUP6 SUB SLT ISZERO PUSH2 0x5B97 JUMPI PUSH1 0x0 DUP1 REVERT JUMPDEST PUSH1 0x0 PUSH2 0x5BA5 DUP6 DUP3 DUP7 ADD PUSH2 0x56B8 JUMP JUMPDEST SWAP3 POP POP PUSH1 0x20 PUSH2 0x5BB6 DUP6 DUP3 DUP7 ADD PUSH2 0x56B8 JUMP JUMPDEST SWAP2 POP POP SWAP3 POP SWAP3 SWAP1 POP JUMP JUMPDEST PUSH1 0x0 PUSH2 0x5BCC DUP4 DUP4 PUSH2 0x5D88 JUMP JUMPDEST PUSH1 0x20 DUP4 ADD SWAP1 POP SWAP3 SWAP2 POP POP JUMP JUMPDEST PUSH1 0x0 PUSH2 0x5BE4 DUP4 DUP4 PUSH2 0x5D97 JUMP JUMPDEST PUSH1 0x20 DUP4 ADD SWAP1 POP SWAP3 SWAP2 POP POP JUMP JUMPDEST PUSH1 0x0 PUSH2 0x5BFC DUP4 DUP4 PUSH2 0x60C7 JUMP JUMPDEST PUSH1 0x20 DUP4 ADD SWAP1 POP SWAP3 SWAP2 POP POP JUMP JUMPDEST PUSH2 0x5C11 DUP2 PUSH2 0x6B5E JUMP JUMPDEST DUP3 MSTORE POP POP JUMP JUMPDEST PUSH1 0x0 PUSH2 0x5C22 DUP3 PUSH2 0x665C JUMP JUMPDEST PUSH2 0x5C2C DUP2 DUP6 PUSH2 0x66BA JUMP JUMPDEST SWAP4 POP PUSH2 0x5C37 DUP4 PUSH2 0x662C JUMP JUMPDEST DUP1 PUSH1 0x0 JUMPDEST DUP4 DUP2 LT ISZERO PUSH2 0x5C68 JUMPI DUP2 MLOAD PUSH2 0x5C4F DUP9 DUP3 PUSH2 0x5BC0 JUMP JUMPDEST SWAP8 POP PUSH2 0x5C5A DUP4 PUSH2 0x6693 JUMP JUMPDEST SWAP3 POP POP PUSH1 0x1 DUP2 ADD SWAP1 POP PUSH2 0x5C3B JUMP JUMPDEST POP DUP6 SWAP4 POP POP POP POP SWAP3 SWAP2 POP POP JUMP JUMPDEST PUSH1 0x0 PUSH2 0x5C80 DUP3 PUSH2 0x6667 JUMP JUMPDEST PUSH2 0x5C8A DUP2 DUP6 PUSH2 0x66BA JUMP JUMPDEST SWAP4 POP PUSH2 0x5C95 DUP4 PUSH2 0x663C JUMP JUMPDEST DUP1 PUSH1 0x0 JUMPDEST DUP4 DUP2 LT ISZERO PUSH2 0x5CC6 JUMPI DUP2 MLOAD PUSH2 0x5CAD DUP9 DUP3 PUSH2 0x5BD8 JUMP JUMPDEST SWAP8 POP PUSH2 0x5CB8 DUP4 PUSH2 0x66A0 JUMP JUMPDEST SWAP3 POP POP PUSH1 0x1 DUP2 ADD SWAP1 POP PUSH2 0x5C99 JUMP JUMPDEST POP DUP6 SWAP4 POP POP POP POP SWAP3 SWAP2 POP POP JUMP JUMPDEST PUSH1 0x0 PUSH2 0x5CDE DUP3 PUSH2 0x6672 JUMP JUMPDEST PUSH2 0x5CE8 DUP2 DUP6 PUSH2 0x66CB JUMP JUMPDEST SWAP4 POP PUSH2 0x5CF3 DUP4 PUSH2 0x664C JUMP JUMPDEST DUP1 PUSH1 0x0 JUMPDEST DUP4 DUP2 LT ISZERO PUSH2 0x5D24 JUMPI DUP2 MLOAD PUSH2 0x5D0B DUP9 DUP3 PUSH2 0x5BF0 JUMP JUMPDEST SWAP8 POP PUSH2 0x5D16 DUP4 PUSH2 0x66AD JUMP JUMPDEST SWAP3 POP POP PUSH1 0x1 DUP2 ADD SWAP1 POP PUSH2 0x5CF7 JUMP JUMPDEST POP DUP6 SWAP4 POP POP POP POP SWAP3 SWAP2 POP POP JUMP JUMPDEST PUSH2 0x5D3A DUP2 PUSH2 0x6B70 JUMP JUMPDEST DUP3 MSTORE POP POP JUMP JUMPDEST PUSH2 0x5D49 DUP2 PUSH2 0x6B7C JUMP JUMPDEST DUP3 MSTORE POP POP JUMP JUMPDEST PUSH1 0x0 PUSH2 0x5D5A DUP3 PUSH2 0x667D JUMP JUMPDEST PUSH2 0x5D64 DUP2 DUP6 PUSH2 0x66DC JUMP JUMPDEST SWAP4 POP PUSH2 0x5D74 DUP2 DUP6 PUSH1 0x20 DUP7 ADD PUSH2 0x6C88 JUMP JUMPDEST PUSH2 0x5D7D DUP2 PUSH2 0x6ED6 JUMP JUMPDEST DUP5 ADD SWAP2 POP POP SWAP3 SWAP2 POP POP JUMP JUMPDEST PUSH2 0x5D91 DUP2 PUSH2 0x6C1F JUMP JUMPDEST DUP3 MSTORE POP POP JUMP JUMPDEST PUSH2 0x5DA0 DUP2 PUSH2 0x6C43 JUMP JUMPDEST DUP3 MSTORE POP POP JUMP JUMPDEST PUSH2 0x5DAF DUP2 PUSH2 0x6BCC JUMP JUMPDEST DUP3 MSTORE POP POP JUMP JUMPDEST PUSH2 0x5DBE DUP2 PUSH2 0x6C67 JUMP JUMPDEST DUP3 MSTORE POP POP JUMP JUMPDEST PUSH1 0x0 PUSH2 0x5DCF DUP3 PUSH2 0x6688 JUMP JUMPDEST PUSH2 0x5DD9 DUP2 DUP6 PUSH2 0x66F8 JUMP JUMPDEST SWAP4 POP PUSH2 0x5DE9 DUP2 DUP6 PUSH1 0x20 DUP7 ADD PUSH2 0x6C88 JUMP JUMPDEST PUSH2 0x5DF2 DUP2 PUSH2 0x6ED6 JUMP JUMPDEST DUP5 ADD SWAP2 POP POP SWAP3 SWAP2 POP POP JUMP JUMPDEST PUSH1 0x0 PUSH2 0x5E08 DUP3 PUSH2 0x6688 JUMP JUMPDEST PUSH2 0x5E12 DUP2 DUP6 PUSH2 0x6709 JUMP JUMPDEST SWAP4 POP PUSH2 0x5E22 DUP2 DUP6 PUSH1 0x20 DUP7 ADD PUSH2 0x6C88 JUMP JUMPDEST DUP1 DUP5 ADD SWAP2 POP POP SWAP3 SWAP2 POP POP JUMP JUMPDEST PUSH1 0x0 PUSH2 0x5E3B PUSH1 0x32 DUP4 PUSH2 0x66F8 JUMP JUMPDEST SWAP2 POP PUSH2 0x5E46 DUP3 PUSH2 0x6EF4 JUMP JUMPDEST PUSH1 0x40 DUP3 ADD SWAP1 POP SWAP2 SWAP1 POP JUMP JUMPDEST PUSH1 0x0 PUSH2 0x5E5E PUSH1 0x26 DUP4 PUSH2 0x66F8 JUMP JUMPDEST SWAP2 POP PUSH2 0x5E69 DUP3 PUSH2 0x6F43 JUMP JUMPDEST PUSH1 0x40 DUP3 ADD SWAP1 POP SWAP2 SWAP1 POP JUMP JUMPDEST PUSH1 0x0 PUSH2 0x5E81 PUSH1 0x1C DUP4 PUSH2 0x66F8 JUMP JUMPDEST SWAP2 POP PUSH2 0x5E8C DUP3 PUSH2 0x6F92 JUMP JUMPDEST PUSH1 0x20 DUP3 ADD SWAP1 POP SWAP2 SWAP1 POP JUMP JUMPDEST PUSH1 0x0 PUSH2 0x5EA4 PUSH1 0x24 DUP4 PUSH2 0x66F8 JUMP JUMPDEST SWAP2 POP PUSH2 0x5EAF DUP3 PUSH2 0x6FBB JUMP JUMPDEST PUSH1 0x40 DUP3 ADD SWAP1 POP SWAP2 SWAP1 POP JUMP JUMPDEST PUSH1 0x0 PUSH2 0x5EC7 PUSH1 0x19 DUP4 PUSH2 0x66F8 JUMP JUMPDEST SWAP2 POP PUSH2 0x5ED2 DUP3 PUSH2 0x700A JUMP JUMPDEST PUSH1 0x20 DUP3 ADD SWAP1 POP SWAP2 SWAP1 POP JUMP JUMPDEST PUSH1 0x0 PUSH2 0x5EEA PUSH1 0x3A DUP4 PUSH2 0x66F8 JUMP JUMPDEST SWAP2 POP PUSH2 0x5EF5 DUP3 PUSH2 0x7033 JUMP JUMPDEST PUSH1 0x40 DUP3 ADD SWAP1 POP SWAP2 SWAP1 POP JUMP JUMPDEST PUSH1 0x0 PUSH2 0x5F0D PUSH1 0x1D DUP4 PUSH2 0x66F8 JUMP JUMPDEST SWAP2 POP PUSH2 0x5F18 DUP3 PUSH2 0x7082 JUMP JUMPDEST PUSH1 0x20 DUP3 ADD SWAP1 POP SWAP2 SWAP1 POP JUMP JUMPDEST PUSH1 0x0 PUSH2 0x5F30 PUSH1 0x2C DUP4 PUSH2 0x66F8 JUMP JUMPDEST SWAP2 POP PUSH2 0x5F3B DUP3 PUSH2 0x70AB JUMP JUMPDEST PUSH1 0x40 DUP3 ADD SWAP1 POP SWAP2 SWAP1 POP JUMP JUMPDEST PUSH1 0x0 PUSH2 0x5F53 PUSH1 0x38 DUP4 PUSH2 0x66F8 JUMP JUMPDEST SWAP2 POP PUSH2 0x5F5E DUP3 PUSH2 0x70FA JUMP JUMPDEST PUSH1 0x40 DUP3 ADD SWAP1 POP SWAP2 SWAP1 POP JUMP JUMPDEST PUSH1 0x0 PUSH2 0x5F76 PUSH1 0x2A DUP4 PUSH2 0x66F8 JUMP JUMPDEST SWAP2 POP PUSH2 0x5F81 DUP3 PUSH2 0x7149 JUMP JUMPDEST PUSH1 0x40 DUP3 ADD SWAP1 POP SWAP2 SWAP1 POP JUMP JUMPDEST PUSH1 0x0 PUSH2 0x5F99 PUSH1 0x29 DUP4 PUSH2 0x66F8 JUMP JUMPDEST SWAP2 POP PUSH2 0x5FA4 DUP3 PUSH2 0x7198 JUMP JUMPDEST PUSH1 0x40 DUP3 ADD SWAP1 POP SWAP2 SWAP1 POP JUMP JUMPDEST PUSH1 0x0 PUSH2 0x5FBC PUSH1 0x20 DUP4 PUSH2 0x66F8 JUMP JUMPDEST SWAP2 POP PUSH2 0x5FC7 DUP3 PUSH2 0x71E7 JUMP JUMPDEST PUSH1 0x20 DUP3 ADD SWAP1 POP SWAP2 SWAP1 POP JUMP JUMPDEST PUSH1 0x0 PUSH2 0x5FDF PUSH1 0x2C DUP4 PUSH2 0x66F8 JUMP JUMPDEST SWAP2 POP PUSH2 0x5FEA DUP3 PUSH2 0x7210 JUMP JUMPDEST PUSH1 0x40 DUP3 ADD SWAP1 POP SWAP2 SWAP1 POP JUMP JUMPDEST PUSH1 0x0 PUSH2 0x6002 PUSH1 0x20 DUP4 PUSH2 0x66F8 JUMP JUMPDEST SWAP2 POP PUSH2 0x600D DUP3 PUSH2 0x725F JUMP JUMPDEST PUSH1 0x20 DUP3 ADD SWAP1 POP SWAP2 SWAP1 POP JUMP JUMPDEST PUSH1 0x0 PUSH2 0x6025 PUSH1 0x29 DUP4 PUSH2 0x66F8 JUMP JUMPDEST SWAP2 POP PUSH2 0x6030 DUP3 PUSH2 0x7288 JUMP JUMPDEST PUSH1 0x40 DUP3 ADD SWAP1 POP SWAP2 SWAP1 POP JUMP JUMPDEST PUSH1 0x0 PUSH2 0x6048 PUSH1 0x2F DUP4 PUSH2 0x66F8 JUMP JUMPDEST SWAP2 POP PUSH2 0x6053 DUP3 PUSH2 0x72D7 JUMP JUMPDEST PUSH1 0x40 DUP3 ADD SWAP1 POP SWAP2 SWAP1 POP JUMP JUMPDEST PUSH1 0x0 PUSH2 0x606B PUSH1 0x21 DUP4 PUSH2 0x66F8 JUMP JUMPDEST SWAP2 POP PUSH2 0x6076 DUP3 PUSH2 0x7326 JUMP JUMPDEST PUSH1 0x40 DUP3 ADD SWAP1 POP SWAP2 SWAP1 POP JUMP JUMPDEST PUSH1 0x0 PUSH2 0x608E PUSH1 0x0 DUP4 PUSH2 0x66ED JUMP JUMPDEST SWAP2 POP PUSH2 0x6099 DUP3 PUSH2 0x7375 JUMP JUMPDEST PUSH1 0x0 DUP3 ADD SWAP1 POP SWAP2 SWAP1 POP JUMP JUMPDEST PUSH1 0x0 PUSH2 0x60B1 PUSH1 0x31 DUP4 PUSH2 0x66F8 JUMP JUMPDEST SWAP2 POP PUSH2 0x60BC DUP3 PUSH2 0x7378 JUMP JUMPDEST PUSH1 0x40 DUP3 ADD SWAP1 POP SWAP2 SWAP1 POP JUMP JUMPDEST PUSH2 0x60D0 DUP2 PUSH2 0x6C15 JUMP JUMPDEST DUP3 MSTORE POP POP JUMP JUMPDEST PUSH2 0x60DF DUP2 PUSH2 0x6C15 JUMP JUMPDEST DUP3 MSTORE POP POP JUMP JUMPDEST PUSH1 0x0 PUSH2 0x60F1 DUP3 DUP6 PUSH2 0x5DFD JUMP JUMPDEST SWAP2 POP PUSH2 0x60FD DUP3 DUP5 PUSH2 0x5DFD JUMP JUMPDEST SWAP2 POP DUP2 SWAP1 POP SWAP4 SWAP3 POP POP POP JUMP JUMPDEST PUSH1 0x0 PUSH2 0x6114 DUP3 PUSH2 0x6081 JUMP JUMPDEST SWAP2 POP DUP2 SWAP1 POP SWAP2 SWAP1 POP JUMP JUMPDEST PUSH1 0x0 PUSH1 0x20 DUP3 ADD SWAP1 POP PUSH2 0x6133 PUSH1 0x0 DUP4 ADD DUP5 PUSH2 0x5C08 JUMP JUMPDEST SWAP3 SWAP2 POP POP JUMP JUMPDEST PUSH1 0x0 PUSH1 0x60 DUP3 ADD SWAP1 POP PUSH2 0x614E PUSH1 0x0 DUP4 ADD DUP7 PUSH2 0x5C08 JUMP JUMPDEST PUSH2 0x615B PUSH1 0x20 DUP4 ADD DUP6 PUSH2 0x5C08 JUMP JUMPDEST PUSH2 0x6168 PUSH1 0x40 DUP4 ADD DUP5 PUSH2 0x60D6 JUMP JUMPDEST SWAP5 SWAP4 POP POP POP POP JUMP JUMPDEST PUSH1 0x0 PUSH1 0x80 DUP3 ADD SWAP1 POP PUSH2 0x6185 PUSH1 0x0 DUP4 ADD DUP8 PUSH2 0x5C08 JUMP JUMPDEST PUSH2 0x6192 PUSH1 0x20 DUP4 ADD DUP7 PUSH2 0x5C08 JUMP JUMPDEST PUSH2 0x619F PUSH1 0x40 DUP4 ADD DUP6 PUSH2 0x60D6 JUMP JUMPDEST DUP2 DUP2 SUB PUSH1 0x60 DUP4 ADD MSTORE PUSH2 0x61B1 DUP2 DUP5 PUSH2 0x5D4F JUMP JUMPDEST SWAP1 POP SWAP6 SWAP5 POP POP POP POP POP JUMP JUMPDEST PUSH1 0x0 PUSH1 0x40 DUP3 ADD SWAP1 POP PUSH2 0x61D1 PUSH1 0x0 DUP4 ADD DUP6 PUSH2 0x5C08 JUMP JUMPDEST PUSH2 0x61DE PUSH1 0x20 DUP4 ADD DUP5 PUSH2 0x5DB5 JUMP JUMPDEST SWAP4 SWAP3 POP POP POP JUMP JUMPDEST PUSH1 0x0 PUSH1 0x40 DUP3 ADD SWAP1 POP PUSH2 0x61FA PUSH1 0x0 DUP4 ADD DUP6 PUSH2 0x5C08 JUMP JUMPDEST PUSH2 0x6207 PUSH1 0x20 DUP4 ADD DUP5 PUSH2 0x60D6 JUMP JUMPDEST SWAP4 SWAP3 POP POP POP JUMP JUMPDEST PUSH1 0x0 PUSH1 0x20 DUP3 ADD SWAP1 POP DUP2 DUP2 SUB PUSH1 0x0 DUP4 ADD MSTORE PUSH2 0x6228 DUP2 DUP5 PUSH2 0x5C17 JUMP JUMPDEST SWAP1 POP SWAP3 SWAP2 POP POP JUMP JUMPDEST PUSH1 0x0 PUSH1 0x20 DUP3 ADD SWAP1 POP DUP2 DUP2 SUB PUSH1 0x0 DUP4 ADD MSTORE PUSH2 0x624A DUP2 DUP5 PUSH2 0x5C75 JUMP JUMPDEST SWAP1 POP SWAP3 SWAP2 POP POP JUMP JUMPDEST PUSH1 0x0 PUSH1 0x20 DUP3 ADD SWAP1 POP DUP2 DUP2 SUB PUSH1 0x0 DUP4 ADD MSTORE PUSH2 0x626C DUP2 DUP5 PUSH2 0x5CD3 JUMP JUMPDEST SWAP1 POP SWAP3 SWAP2 POP POP JUMP JUMPDEST PUSH1 0x0 PUSH1 0x20 DUP3 ADD SWAP1 POP PUSH2 0x6289 PUSH1 0x0 DUP4 ADD DUP5 PUSH2 0x5D31 JUMP JUMPDEST SWAP3 SWAP2 POP POP JUMP JUMPDEST PUSH1 0x0 PUSH1 0x20 DUP3 ADD SWAP1 POP PUSH2 0x62A4 PUSH1 0x0 DUP4 ADD DUP5 PUSH2 0x5D40 JUMP JUMPDEST SWAP3 SWAP2 POP POP JUMP JUMPDEST PUSH1 0x0 PUSH1 0x40 DUP3 ADD SWAP1 POP PUSH2 0x62BF PUSH1 0x0 DUP4 ADD DUP6 PUSH2 0x5DA6 JUMP JUMPDEST PUSH2 0x62CC PUSH1 0x20 DUP4 ADD DUP5 PUSH2 0x5DA6 JUMP JUMPDEST SWAP4 SWAP3 POP POP POP JUMP JUMPDEST PUSH1 0x0 PUSH1 0x20 DUP3 ADD SWAP1 POP DUP2 DUP2 SUB PUSH1 0x0 DUP4 ADD MSTORE PUSH2 0x62ED DUP2 DUP5 PUSH2 0x5DC4 JUMP JUMPDEST SWAP1 POP SWAP3 SWAP2 POP POP JUMP JUMPDEST PUSH1 0x0 PUSH1 0x20 DUP3 ADD SWAP1 POP DUP2 DUP2 SUB PUSH1 0x0 DUP4 ADD MSTORE PUSH2 0x630E DUP2 PUSH2 0x5E2E JUMP JUMPDEST SWAP1 POP SWAP2 SWAP1 POP JUMP JUMPDEST PUSH1 0x0 PUSH1 0x20 DUP3 ADD SWAP1 POP DUP2 DUP2 SUB PUSH1 0x0 DUP4 ADD MSTORE PUSH2 0x632E DUP2 PUSH2 0x5E51 JUMP JUMPDEST SWAP1 POP SWAP2 SWAP1 POP JUMP JUMPDEST PUSH1 0x0 PUSH1 0x20 DUP3 ADD SWAP1 POP DUP2 DUP2 SUB PUSH1 0x0 DUP4 ADD MSTORE PUSH2 0x634E DUP2 PUSH2 0x5E74 JUMP JUMPDEST SWAP1 POP SWAP2 SWAP1 POP JUMP JUMPDEST PUSH1 0x0 PUSH1 0x20 DUP3 ADD SWAP1 POP DUP2 DUP2 SUB PUSH1 0x0 DUP4 ADD MSTORE PUSH2 0x636E DUP2 PUSH2 0x5E97 JUMP JUMPDEST SWAP1 POP SWAP2 SWAP1 POP JUMP JUMPDEST PUSH1 0x0 PUSH1 0x20 DUP3 ADD SWAP1 POP DUP2 DUP2 SUB PUSH1 0x0 DUP4 ADD MSTORE PUSH2 0x638E DUP2 PUSH2 0x5EBA JUMP JUMPDEST SWAP1 POP SWAP2 SWAP1 POP JUMP JUMPDEST PUSH1 0x0 PUSH1 0x20 DUP3 ADD SWAP1 POP DUP2 DUP2 SUB PUSH1 0x0 DUP4 ADD MSTORE PUSH2 0x63AE DUP2 PUSH2 0x5EDD JUMP JUMPDEST SWAP1 POP SWAP2 SWAP1 POP JUMP JUMPDEST PUSH1 0x0 PUSH1 0x20 DUP3 ADD SWAP1 POP DUP2 DUP2 SUB PUSH1 0x0 DUP4 ADD MSTORE PUSH2 0x63CE DUP2 PUSH2 0x5F00 JUMP JUMPDEST SWAP1 POP SWAP2 SWAP1 POP JUMP JUMPDEST PUSH1 0x0 PUSH1 0x20 DUP3 ADD SWAP1 POP DUP2 DUP2 SUB PUSH1 0x0 DUP4 ADD MSTORE PUSH2 0x63EE DUP2 PUSH2 0x5F23 JUMP JUMPDEST SWAP1 POP SWAP2 SWAP1 POP JUMP JUMPDEST PUSH1 0x0 PUSH1 0x20 DUP3 ADD SWAP1 POP DUP2 DUP2 SUB PUSH1 0x0 DUP4 ADD MSTORE PUSH2 0x640E DUP2 PUSH2 0x5F46 JUMP JUMPDEST SWAP1 POP SWAP2 SWAP1 POP JUMP JUMPDEST PUSH1 0x0 PUSH1 0x20 DUP3 ADD SWAP1 POP DUP2 DUP2 SUB PUSH1 0x0 DUP4 ADD MSTORE PUSH2 0x642E DUP2 PUSH2 0x5F69 JUMP JUMPDEST SWAP1 POP SWAP2 SWAP1 POP JUMP JUMPDEST PUSH1 0x0 PUSH1 0x20 DUP3 ADD SWAP1 POP DUP2 DUP2 SUB PUSH1 0x0 DUP4 ADD MSTORE PUSH2 0x644E DUP2 PUSH2 0x5F8C JUMP JUMPDEST SWAP1 POP SWAP2 SWAP1 POP JUMP JUMPDEST PUSH1 0x0 PUSH1 0x20 DUP3 ADD SWAP1 POP DUP2 DUP2 SUB PUSH1 0x0 DUP4 ADD MSTORE PUSH2 0x646E DUP2 PUSH2 0x5FAF JUMP JUMPDEST SWAP1 POP SWAP2 SWAP1 POP JUMP JUMPDEST PUSH1 0x0 PUSH1 0x20 DUP3 ADD SWAP1 POP DUP2 DUP2 SUB PUSH1 0x0 DUP4 ADD MSTORE PUSH2 0x648E DUP2 PUSH2 0x5FD2 JUMP JUMPDEST SWAP1 POP SWAP2 SWAP1 POP JUMP JUMPDEST PUSH1 0x0 PUSH1 0x20 DUP3 ADD SWAP1 POP DUP2 DUP2 SUB PUSH1 0x0 DUP4 ADD MSTORE PUSH2 0x64AE DUP2 PUSH2 0x5FF5 JUMP JUMPDEST SWAP1 POP SWAP2 SWAP1 POP JUMP JUMPDEST PUSH1 0x0 PUSH1 0x20 DUP3 ADD SWAP1 POP DUP2 DUP2 SUB PUSH1 0x0 DUP4 ADD MSTORE PUSH2 0x64CE DUP2 PUSH2 0x6018 JUMP JUMPDEST SWAP1 POP SWAP2 SWAP1 POP JUMP JUMPDEST PUSH1 0x0 PUSH1 0x20 DUP3 ADD SWAP1 POP DUP2 DUP2 SUB PUSH1 0x0 DUP4 ADD MSTORE PUSH2 0x64EE DUP2 PUSH2 0x603B JUMP JUMPDEST SWAP1 POP SWAP2 SWAP1 POP JUMP JUMPDEST PUSH1 0x0 PUSH1 0x20 DUP3 ADD SWAP1 POP DUP2 DUP2 SUB PUSH1 0x0 DUP4 ADD MSTORE PUSH2 0x650E DUP2 PUSH2 0x605E JUMP JUMPDEST SWAP1 POP SWAP2 SWAP1 POP JUMP JUMPDEST PUSH1 0x0 PUSH1 0x20 DUP3 ADD SWAP1 POP DUP2 DUP2 SUB PUSH1 0x0 DUP4 ADD MSTORE PUSH2 0x652E DUP2 PUSH2 0x60A4 JUMP JUMPDEST SWAP1 POP SWAP2 SWAP1 POP JUMP JUMPDEST PUSH1 0x0 PUSH1 0x20 DUP3 ADD SWAP1 POP PUSH2 0x654A PUSH1 0x0 DUP4 ADD DUP5 PUSH2 0x60D6 JUMP JUMPDEST SWAP3 SWAP2 POP POP JUMP JUMPDEST PUSH1 0x0 PUSH1 0x40 DUP3 ADD SWAP1 POP PUSH2 0x6565 PUSH1 0x0 DUP4 ADD DUP6 PUSH2 0x60D6 JUMP JUMPDEST PUSH2 0x6572 PUSH1 0x20 DUP4 ADD DUP5 PUSH2 0x60D6 JUMP JUMPDEST SWAP4 SWAP3 POP POP POP JUMP JUMPDEST PUSH1 0x0 PUSH2 0x6583 PUSH2 0x6594 JUMP JUMPDEST SWAP1 POP PUSH2 0x658F DUP3 DUP3 PUSH2 0x6CED JUMP JUMPDEST SWAP2 SWAP1 POP JUMP JUMPDEST PUSH1 0x0 PUSH1 0x40 MLOAD SWAP1 POP SWAP1 JUMP JUMPDEST PUSH1 0x0 PUSH8 0xFFFFFFFFFFFFFFFF DUP3 GT ISZERO PUSH2 0x65B9 JUMPI PUSH2 0x65B8 PUSH2 0x6EA7 JUMP JUMPDEST JUMPDEST PUSH1 0x20 DUP3 MUL SWAP1 POP PUSH1 0x20 DUP2 ADD SWAP1 POP SWAP2 SWAP1 POP JUMP JUMPDEST PUSH1 0x0 PUSH8 0xFFFFFFFFFFFFFFFF DUP3 GT ISZERO PUSH2 0x65E5 JUMPI PUSH2 0x65E4 PUSH2 0x6EA7 JUMP JUMPDEST JUMPDEST PUSH2 0x65EE DUP3 PUSH2 0x6ED6 JUMP JUMPDEST SWAP1 POP PUSH1 0x20 DUP2 ADD SWAP1 POP SWAP2 SWAP1 POP JUMP JUMPDEST PUSH1 0x0 PUSH8 0xFFFFFFFFFFFFFFFF DUP3 GT ISZERO PUSH2 0x6616 JUMPI PUSH2 0x6615 PUSH2 0x6EA7 JUMP JUMPDEST JUMPDEST PUSH2 0x661F DUP3 PUSH2 0x6ED6 JUMP JUMPDEST SWAP1 POP PUSH1 0x20 DUP2 ADD SWAP1 POP SWAP2 SWAP1 POP JUMP JUMPDEST PUSH1 0x0 DUP2 SWAP1 POP PUSH1 0x20 DUP3 ADD SWAP1 POP SWAP2 SWAP1 POP JUMP JUMPDEST PUSH1 0x0 DUP2 SWAP1 POP PUSH1 0x20 DUP3 ADD SWAP1 POP SWAP2 SWAP1 POP JUMP JUMPDEST PUSH1 0x0 DUP2 SWAP1 POP PUSH1 0x20 DUP3 ADD SWAP1 POP SWAP2 SWAP1 POP JUMP JUMPDEST PUSH1 0x0 DUP2 MLOAD SWAP1 POP SWAP2 SWAP1 POP JUMP JUMPDEST PUSH1 0x0 DUP2 MLOAD SWAP1 POP SWAP2 SWAP1 POP JUMP JUMPDEST PUSH1 0x0 DUP2 MLOAD SWAP1 POP SWAP2 SWAP1 POP JUMP JUMPDEST PUSH1 0x0 DUP2 MLOAD SWAP1 POP SWAP2 SWAP1 POP JUMP JUMPDEST PUSH1 0x0 DUP2 MLOAD SWAP1 POP SWAP2 SWAP1 POP JUMP JUMPDEST PUSH1 0x0 PUSH1 0x20 DUP3 ADD SWAP1 POP SWAP2 SWAP1 POP JUMP JUMPDEST PUSH1 0x0 PUSH1 0x20 DUP3 ADD SWAP1 POP SWAP2 SWAP1 POP JUMP JUMPDEST PUSH1 0x0 PUSH1 0x20 DUP3 ADD SWAP1 POP SWAP2 SWAP1 POP JUMP JUMPDEST PUSH1 0x0 DUP3 DUP3 MSTORE PUSH1 0x20 DUP3 ADD SWAP1 POP SWAP3 SWAP2 POP POP JUMP JUMPDEST PUSH1 0x0 DUP3 DUP3 MSTORE PUSH1 0x20 DUP3 ADD SWAP1 POP SWAP3 SWAP2 POP POP JUMP JUMPDEST PUSH1 0x0 DUP3 DUP3 MSTORE PUSH1 0x20 DUP3 ADD SWAP1 POP SWAP3 SWAP2 POP POP JUMP JUMPDEST PUSH1 0x0 DUP2 SWAP1 POP SWAP3 SWAP2 POP POP JUMP JUMPDEST PUSH1 0x0 DUP3 DUP3 MSTORE PUSH1 0x20 DUP3 ADD SWAP1 POP SWAP3 SWAP2 POP POP JUMP JUMPDEST PUSH1 0x0 DUP2 SWAP1 POP SWAP3 SWAP2 POP POP JUMP JUMPDEST PUSH1 0x0 PUSH2 0x671F DUP3 PUSH2 0x6BD9 JUMP JUMPDEST SWAP2 POP PUSH2 0x672A DUP4 PUSH2 0x6BD9 JUMP JUMPDEST SWAP3 POP DUP3 PUSH16 0xFFFFFFFFFFFFFFFFFFFFFFFFFFFFFFFF SUB DUP3 GT ISZERO PUSH2 0x674F JUMPI PUSH2 0x674E PUSH2 0x6E1A JUMP JUMPDEST JUMPDEST DUP3 DUP3 ADD SWAP1 POP SWAP3 SWAP2 POP POP JUMP JUMPDEST PUSH1 0x0 PUSH2 0x6765 DUP3 PUSH2 0x6C15 JUMP JUMPDEST SWAP2 POP PUSH2 0x6770 DUP4 PUSH2 0x6C15 JUMP JUMPDEST SWAP3 POP DUP3 PUSH32 0xFFFFFFFFFFFFFFFFFFFFFFFFFFFFFFFFFFFFFFFFFFFFFFFFFFFFFFFFFFFFFFFF SUB DUP3 GT ISZERO PUSH2 0x67A5 JUMPI PUSH2 0x67A4 PUSH2 0x6E1A JUMP JUMPDEST JUMPDEST DUP3 DUP3 ADD SWAP1 POP SWAP3 SWAP2 POP POP JUMP JUMPDEST PUSH1 0x0 PUSH2 0x67BB DUP3 PUSH2 0x6BD9 JUMP JUMPDEST SWAP2 POP PUSH2 0x67C6 DUP4 PUSH2 0x6BD9 JUMP JUMPDEST SWAP3 POP DUP3 PUSH2 0x67D6 JUMPI PUSH2 0x67D5 PUSH2 0x6E49 JUMP JUMPDEST JUMPDEST DUP3 DUP3 DIV SWAP1 POP SWAP3 SWAP2 POP POP JUMP JUMPDEST PUSH1 0x0 PUSH2 0x67EC DUP3 PUSH2 0x6C15 JUMP JUMPDEST SWAP2 POP PUSH2 0x67F7 DUP4 PUSH2 0x6C15 JUMP JUMPDEST SWAP3 POP DUP3 PUSH2 0x6807 JUMPI PUSH2 0x6806 PUSH2 0x6E49 JUMP JUMPDEST JUMPDEST DUP3 DUP3 DIV SWAP1 POP SWAP3 SWAP2 POP POP JUMP JUMPDEST PUSH1 0x0 DUP1 DUP3 SWAP2 POP DUP4 SWAP1 POP JUMPDEST PUSH1 0x1 DUP6 GT ISZERO PUSH2 0x685C JUMPI DUP1 DUP7 DIV DUP2 GT ISZERO PUSH2 0x6838 JUMPI PUSH2 0x6837 PUSH2 0x6E1A JUMP JUMPDEST JUMPDEST PUSH1 0x1 DUP6 AND ISZERO PUSH2 0x6847 JUMPI DUP1 DUP3 MUL SWAP2 POP JUMPDEST DUP1 DUP2 MUL SWAP1 POP PUSH2 0x6855 DUP6 PUSH2 0x6EE7 JUMP JUMPDEST SWAP5 POP PUSH2 0x681C JUMP JUMPDEST SWAP5 POP SWAP5 SWAP3 POP POP POP JUMP JUMPDEST PUSH1 0x0 PUSH2 0x6870 DUP3 PUSH2 0x6C15 JUMP JUMPDEST SWAP2 POP PUSH2 0x687B DUP4 PUSH2 0x6BD9 JUMP JUMPDEST SWAP3 POP PUSH2 0x68A8 PUSH32 0xFFFFFFFFFFFFFFFFFFFFFFFFFFFFFFFFFFFFFFFFFFFFFFFFFFFFFFFFFFFFFFFF DUP5 DUP5 PUSH2 0x68FB JUMP JUMPDEST SWAP1 POP SWAP3 SWAP2 POP POP JUMP JUMPDEST PUSH1 0x0 PUSH2 0x68BB DUP3 PUSH2 0x6C15 JUMP JUMPDEST SWAP2 POP PUSH2 0x68C6 DUP4 PUSH2 0x6C15 JUMP JUMPDEST SWAP3 POP PUSH2 0x68F3 PUSH32 0xFFFFFFFFFFFFFFFFFFFFFFFFFFFFFFFFFFFFFFFFFFFFFFFFFFFFFFFFFFFFFFFF DUP5 DUP5 PUSH2 0x68FB JUMP JUMPDEST SWAP1 POP SWAP3 SWAP2 POP POP JUMP JUMPDEST PUSH1 0x0 DUP3 PUSH2 0x690B JUMPI PUSH1 0x1 SWAP1 POP PUSH2 0x69C7 JUMP JUMPDEST DUP2 PUSH2 0x6919 JUMPI PUSH1 0x0 SWAP1 POP PUSH2 0x69C7 JUMP JUMPDEST DUP2 PUSH1 0x1 DUP2 EQ PUSH2 0x692F JUMPI PUSH1 0x2 DUP2 EQ PUSH2 0x6939 JUMPI PUSH2 0x6968 JUMP JUMPDEST PUSH1 0x1 SWAP2 POP POP PUSH2 0x69C7 JUMP JUMPDEST PUSH1 0xFF DUP5 GT ISZERO PUSH2 0x694B JUMPI PUSH2 0x694A PUSH2 0x6E1A JUMP JUMPDEST JUMPDEST DUP4 PUSH1 0x2 EXP SWAP2 POP DUP5 DUP3 GT ISZERO PUSH2 0x6962 JUMPI PUSH2 0x6961 PUSH2 0x6E1A JUMP JUMPDEST JUMPDEST POP PUSH2 0x69C7 JUMP JUMPDEST POP PUSH1 0x20 DUP4 LT PUSH2 0x133 DUP4 LT AND PUSH1 0x4E DUP5 LT PUSH1 0xB DUP5 LT AND OR ISZERO PUSH2 0x699D JUMPI DUP3 DUP3 EXP SWAP1 POP DUP4 DUP2 GT ISZERO PUSH2 0x6998 JUMPI PUSH2 0x6997 PUSH2 0x6E1A JUMP JUMPDEST JUMPDEST PUSH2 0x69C7 JUMP JUMPDEST PUSH2 0x69AA DUP5 DUP5 DUP5 PUSH1 0x1 PUSH2 0x6812 JUMP JUMPDEST SWAP3 POP SWAP1 POP DUP2 DUP5 DIV DUP2 GT ISZERO PUSH2 0x69C1 JUMPI PUSH2 0x69C0 PUSH2 0x6E1A JUMP JUMPDEST JUMPDEST DUP2 DUP2 MUL SWAP1 POP JUMPDEST SWAP4 SWAP3 POP POP POP JUMP JUMPDEST PUSH1 0x0 PUSH2 0x69D9 DUP3 PUSH2 0x6BD9 JUMP JUMPDEST SWAP2 POP PUSH2 0x69E4 DUP4 PUSH2 0x6BD9 JUMP JUMPDEST SWAP3 POP DUP2 PUSH16 0xFFFFFFFFFFFFFFFFFFFFFFFFFFFFFFFF DIV DUP4 GT DUP3 ISZERO ISZERO AND ISZERO PUSH2 0x6A0D JUMPI PUSH2 0x6A0C PUSH2 0x6E1A JUMP JUMPDEST JUMPDEST DUP3 DUP3 MUL SWAP1 POP SWAP3 SWAP2 POP POP JUMP JUMPDEST PUSH1 0x0 PUSH2 0x6A23 DUP3 PUSH2 0x6C15 JUMP JUMPDEST SWAP2 POP PUSH2 0x6A2E DUP4 PUSH2 0x6C15 JUMP JUMPDEST SWAP3 POP DUP2 PUSH32 0xFFFFFFFFFFFFFFFFFFFFFFFFFFFFFFFFFFFFFFFFFFFFFFFFFFFFFFFFFFFFFFFF DIV DUP4 GT DUP3 ISZERO ISZERO AND ISZERO PUSH2 0x6A67 JUMPI PUSH2 0x6A66 PUSH2 0x6E1A JUMP JUMPDEST JUMPDEST DUP3 DUP3 MUL SWAP1 POP SWAP3 SWAP2 POP POP JUMP JUMPDEST PUSH1 0x0 PUSH2 0x6A7D DUP3 PUSH2 0x6BCC JUMP JUMPDEST SWAP2 POP PUSH2 0x6A88 DUP4 PUSH2 0x6BCC JUMP JUMPDEST SWAP3 POP DUP3 PUSH32 0xFFFFFFFFFFFFFFFFFFFFFFFFFFFFFFFF80000000000000000000000000000000 ADD DUP3 SLT PUSH1 0x0 DUP5 SLT ISZERO AND ISZERO PUSH2 0x6AC3 JUMPI PUSH2 0x6AC2 PUSH2 0x6E1A JUMP JUMPDEST JUMPDEST DUP3 PUSH16 0x7FFFFFFFFFFFFFFFFFFFFFFFFFFFFFFF ADD DUP3 SGT PUSH1 0x0 DUP5 SLT AND ISZERO PUSH2 0x6AEB JUMPI PUSH2 0x6AEA PUSH2 0x6E1A JUMP JUMPDEST JUMPDEST DUP3 DUP3 SUB SWAP1 POP SWAP3 SWAP2 POP POP JUMP JUMPDEST PUSH1 0x0 PUSH2 0x6B01 DUP3 PUSH2 0x6BD9 JUMP JUMPDEST SWAP2 POP PUSH2 0x6B0C DUP4 PUSH2 0x6BD9 JUMP JUMPDEST SWAP3 POP DUP3 DUP3 LT ISZERO PUSH2 0x6B1F JUMPI PUSH2 0x6B1E PUSH2 0x6E1A JUMP JUMPDEST JUMPDEST DUP3 DUP3 SUB SWAP1 POP SWAP3 SWAP2 POP POP JUMP JUMPDEST PUSH1 0x0 PUSH2 0x6B35 DUP3 PUSH2 0x6C15 JUMP JUMPDEST SWAP2 POP PUSH2 0x6B40 DUP4 PUSH2 0x6C15 JUMP JUMPDEST SWAP3 POP DUP3 DUP3 LT ISZERO PUSH2 0x6B53 JUMPI PUSH2 0x6B52 PUSH2 0x6E1A JUMP JUMPDEST JUMPDEST DUP3 DUP3 SUB SWAP1 POP SWAP3 SWAP2 POP POP JUMP JUMPDEST PUSH1 0x0 PUSH2 0x6B69 DUP3 PUSH2 0x6BF5 JUMP JUMPDEST SWAP1 POP SWAP2 SWAP1 POP JUMP JUMPDEST PUSH1 0x0 DUP2 ISZERO ISZERO SWAP1 POP SWAP2 SWAP1 POP JUMP JUMPDEST PUSH1 0x0 PUSH32 0xFFFFFFFF00000000000000000000000000000000000000000000000000000000 DUP3 AND SWAP1 POP SWAP2 SWAP1 POP JUMP JUMPDEST PUSH1 0x0 PUSH2 0x6BB3 DUP3 PUSH2 0x6B5E JUMP JUMPDEST SWAP1 POP SWAP2 SWAP1 POP JUMP JUMPDEST PUSH1 0x0 PUSH2 0x6BC5 DUP3 PUSH2 0x6B5E JUMP JUMPDEST SWAP1 POP SWAP2 SWAP1 POP JUMP JUMPDEST PUSH1 0x0 DUP2 PUSH1 0xF SIGNEXTEND SWAP1 POP SWAP2 SWAP1 POP JUMP JUMPDEST PUSH1 0x0 PUSH16 0xFFFFFFFFFFFFFFFFFFFFFFFFFFFFFFFF DUP3 AND SWAP1 POP SWAP2 SWAP1 POP JUMP JUMPDEST PUSH1 0x0 PUSH20 0xFFFFFFFFFFFFFFFFFFFFFFFFFFFFFFFFFFFFFFFF DUP3 AND SWAP1 POP SWAP2 SWAP1 POP JUMP JUMPDEST PUSH1 0x0 DUP2 SWAP1 POP SWAP2 SWAP1 POP JUMP JUMPDEST PUSH1 0x0 PUSH2 0x6C2A DUP3 PUSH2 0x6C31 JUMP JUMPDEST SWAP1 POP SWAP2 SWAP1 POP JUMP JUMPDEST PUSH1 0x0 PUSH2 0x6C3C DUP3 PUSH2 0x6BF5 JUMP JUMPDEST SWAP1 POP SWAP2 SWAP1 POP JUMP JUMPDEST PUSH1 0x0 PUSH2 0x6C4E DUP3 PUSH2 0x6C55 JUMP JUMPDEST SWAP1 POP SWAP2 SWAP1 POP JUMP JUMPDEST PUSH1 0x0 PUSH2 0x6C60 DUP3 PUSH2 0x6BF5 JUMP JUMPDEST SWAP1 POP SWAP2 SWAP1 POP JUMP JUMPDEST PUSH1 0x0 PUSH2 0x6C72 DUP3 PUSH2 0x6C15 JUMP JUMPDEST SWAP1 POP SWAP2 SWAP1 POP JUMP JUMPDEST DUP3 DUP2 DUP4 CALLDATACOPY PUSH1 0x0 DUP4 DUP4 ADD MSTORE POP POP POP JUMP JUMPDEST PUSH1 0x0 JUMPDEST DUP4 DUP2 LT ISZERO PUSH2 0x6CA6 JUMPI DUP1 DUP3 ADD MLOAD DUP2 DUP5 ADD MSTORE PUSH1 0x20 DUP2 ADD SWAP1 POP PUSH2 0x6C8B JUMP JUMPDEST DUP4 DUP2 GT ISZERO PUSH2 0x6CB5 JUMPI PUSH1 0x0 DUP5 DUP5 ADD MSTORE JUMPDEST POP POP POP POP JUMP JUMPDEST PUSH1 0x0 PUSH1 0x2 DUP3 DIV SWAP1 POP PUSH1 0x1 DUP3 AND DUP1 PUSH2 0x6CD3 JUMPI PUSH1 0x7F DUP3 AND SWAP2 POP JUMPDEST PUSH1 0x20 DUP3 LT DUP2 EQ ISZERO PUSH2 0x6CE7 JUMPI PUSH2 0x6CE6 PUSH2 0x6E78 JUMP JUMPDEST JUMPDEST POP SWAP2 SWAP1 POP JUMP JUMPDEST PUSH2 0x6CF6 DUP3 PUSH2 0x6ED6 JUMP JUMPDEST DUP2 ADD DUP2 DUP2 LT PUSH8 0xFFFFFFFFFFFFFFFF DUP3 GT OR ISZERO PUSH2 0x6D15 JUMPI PUSH2 0x6D14 PUSH2 0x6EA7 JUMP JUMPDEST JUMPDEST DUP1 PUSH1 0x40 MSTORE POP POP POP JUMP JUMPDEST PUSH1 0x0 PUSH2 0x6D29 DUP3 PUSH2 0x6BCC JUMP JUMPDEST SWAP2 POP PUSH16 0x7FFFFFFFFFFFFFFFFFFFFFFFFFFFFFFF DUP3 EQ ISZERO PUSH2 0x6D4C JUMPI PUSH2 0x6D4B PUSH2 0x6E1A JUMP JUMPDEST JUMPDEST PUSH1 0x1 DUP3 ADD SWAP1 POP SWAP2 SWAP1 POP JUMP JUMPDEST PUSH1 0x0 PUSH2 0x6D62 DUP3 PUSH2 0x6C15 JUMP JUMPDEST SWAP2 POP PUSH32 0xFFFFFFFFFFFFFFFFFFFFFFFFFFFFFFFFFFFFFFFFFFFFFFFFFFFFFFFFFFFFFFFF DUP3 EQ ISZERO PUSH2 0x6D95 JUMPI PUSH2 0x6D94 PUSH2 0x6E1A JUMP JUMPDEST JUMPDEST PUSH1 0x1 DUP3 ADD SWAP1 POP SWAP2 SWAP1 POP JUMP JUMPDEST PUSH1 0x0 PUSH2 0x6DAB DUP3 PUSH2 0x6C15 JUMP JUMPDEST SWAP2 POP PUSH2 0x6DB6 DUP4 PUSH2 0x6C15 JUMP JUMPDEST SWAP3 POP DUP3 PUSH2 0x6DC6 JUMPI PUSH2 0x6DC5 PUSH2 0x6E49 JUMP JUMPDEST JUMPDEST DUP3 DUP3 MOD SWAP1 POP SWAP3 SWAP2 POP POP JUMP JUMPDEST PUSH1 0x0 PUSH2 0x6DDC DUP3 PUSH2 0x6BCC JUMP JUMPDEST SWAP2 POP PUSH32 0xFFFFFFFFFFFFFFFFFFFFFFFFFFFFFFFF80000000000000000000000000000000 DUP3 EQ ISZERO PUSH2 0x6E0F JUMPI PUSH2 0x6E0E PUSH2 0x6E1A JUMP JUMPDEST JUMPDEST DUP2 PUSH1 0x0 SUB SWAP1 POP SWAP2 SWAP1 POP JUMP JUMPDEST PUSH32 0x4E487B7100000000000000000000000000000000000000000000000000000000 PUSH1 0x0 MSTORE PUSH1 0x11 PUSH1 0x4 MSTORE PUSH1 0x24 PUSH1 0x0 REVERT JUMPDEST PUSH32 0x4E487B7100000000000000000000000000000000000000000000000000000000 PUSH1 0x0 MSTORE PUSH1 0x12 PUSH1 0x4 MSTORE PUSH1 0x24 PUSH1 0x0 REVERT JUMPDEST PUSH32 0x4E487B7100000000000000000000000000000000000000000000000000000000 PUSH1 0x0 MSTORE PUSH1 0x22 PUSH1 0x4 MSTORE PUSH1 0x24 PUSH1 0x0 REVERT JUMPDEST PUSH32 0x4E487B7100000000000000000000000000000000000000000000000000000000 PUSH1 0x0 MSTORE PUSH1 0x41 PUSH1 0x4 MSTORE PUSH1 0x24 PUSH1 0x0 REVERT JUMPDEST PUSH1 0x0 PUSH1 0x1F NOT PUSH1 0x1F DUP4 ADD AND SWAP1 POP SWAP2 SWAP1 POP JUMP JUMPDEST PUSH1 0x0 DUP2 PUSH1 0x1 SHR SWAP1 POP SWAP2 SWAP1 POP JUMP JUMPDEST PUSH32 0x4552433732313A207472616E7366657220746F206E6F6E204552433732315265 PUSH1 0x0 DUP3 ADD MSTORE PUSH32 0x63656976657220696D706C656D656E7465720000000000000000000000000000 PUSH1 0x20 DUP3 ADD MSTORE POP JUMP JUMPDEST PUSH32 0x4F776E61626C653A206E6577206F776E657220697320746865207A65726F2061 PUSH1 0x0 DUP3 ADD MSTORE PUSH32 0x6464726573730000000000000000000000000000000000000000000000000000 PUSH1 0x20 DUP3 ADD MSTORE POP JUMP JUMPDEST PUSH32 0x4552433732313A20746F6B656E20616C7265616479206D696E74656400000000 PUSH1 0x0 DUP3 ADD MSTORE POP JUMP JUMPDEST PUSH32 0x4552433732313A207472616E7366657220746F20746865207A65726F20616464 PUSH1 0x0 DUP3 ADD MSTORE PUSH32 0x7265737300000000000000000000000000000000000000000000000000000000 PUSH1 0x20 DUP3 ADD MSTORE POP JUMP JUMPDEST PUSH32 0x4552433732313A20617070726F766520746F2063616C6C657200000000000000 PUSH1 0x0 DUP3 ADD MSTORE POP JUMP JUMPDEST PUSH32 0x416464726573733A20756E61626C6520746F2073656E642076616C75652C2072 PUSH1 0x0 DUP3 ADD MSTORE PUSH32 0x6563697069656E74206D61792068617665207265766572746564000000000000 PUSH1 0x20 DUP3 ADD MSTORE POP JUMP JUMPDEST PUSH32 0x416464726573733A20696E73756666696369656E742062616C616E6365000000 PUSH1 0x0 DUP3 ADD MSTORE POP JUMP JUMPDEST PUSH32 0x4552433732313A206F70657261746F7220717565727920666F72206E6F6E6578 PUSH1 0x0 DUP3 ADD MSTORE PUSH32 0x697374656E7420746F6B656E0000000000000000000000000000000000000000 PUSH1 0x20 DUP3 ADD MSTORE POP JUMP JUMPDEST PUSH32 0x4552433732313A20617070726F76652063616C6C6572206973206E6F74206F77 PUSH1 0x0 DUP3 ADD MSTORE PUSH32 0x6E6572206E6F7220617070726F76656420666F7220616C6C0000000000000000 PUSH1 0x20 DUP3 ADD MSTORE POP JUMP JUMPDEST PUSH32 0x4552433732313A2062616C616E636520717565727920666F7220746865207A65 PUSH1 0x0 DUP3 ADD MSTORE PUSH32 0x726F206164647265737300000000000000000000000000000000000000000000 PUSH1 0x20 DUP3 ADD MSTORE POP JUMP JUMPDEST PUSH32 0x4552433732313A206F776E657220717565727920666F72206E6F6E6578697374 PUSH1 0x0 DUP3 ADD MSTORE PUSH32 0x656E7420746F6B656E0000000000000000000000000000000000000000000000 PUSH1 0x20 DUP3 ADD MSTORE POP JUMP JUMPDEST PUSH32 0x4552433732313A206D696E7420746F20746865207A65726F2061646472657373 PUSH1 0x0 DUP3 ADD MSTORE POP JUMP JUMPDEST PUSH32 0x4552433732313A20617070726F76656420717565727920666F72206E6F6E6578 PUSH1 0x0 DUP3 ADD MSTORE PUSH32 0x697374656E7420746F6B656E0000000000000000000000000000000000000000 PUSH1 0x20 DUP3 ADD MSTORE POP JUMP JUMPDEST PUSH32 0x4F776E61626C653A2063616C6C6572206973206E6F7420746865206F776E6572 PUSH1 0x0 DUP3 ADD MSTORE POP JUMP JUMPDEST PUSH32 0x4552433732313A207472616E73666572206F6620746F6B656E20746861742069 PUSH1 0x0 DUP3 ADD MSTORE PUSH32 0x73206E6F74206F776E0000000000000000000000000000000000000000000000 PUSH1 0x20 DUP3 ADD MSTORE POP JUMP JUMPDEST PUSH32 0x4552433732314D657461646174613A2055524920717565727920666F72206E6F PUSH1 0x0 DUP3 ADD MSTORE PUSH32 0x6E6578697374656E7420746F6B656E0000000000000000000000000000000000 PUSH1 0x20 DUP3 ADD MSTORE POP JUMP JUMPDEST PUSH32 0x4552433732313A20617070726F76616C20746F2063757272656E74206F776E65 PUSH1 0x0 DUP3 ADD MSTORE PUSH32 0x7200000000000000000000000000000000000000000000000000000000000000 PUSH1 0x20 DUP3 ADD MSTORE POP JUMP JUMPDEST POP JUMP JUMPDEST PUSH32 0x4552433732313A207472616E736665722063616C6C6572206973206E6F74206F PUSH1 0x0 DUP3 ADD MSTORE PUSH32 0x776E6572206E6F7220617070726F766564000000000000000000000000000000 PUSH1 0x20 DUP3 ADD MSTORE POP JUMP JUMPDEST PUSH2 0x73D0 DUP2 PUSH2 0x6B5E JUMP JUMPDEST DUP2 EQ PUSH2 0x73DB JUMPI PUSH1 0x0 DUP1 REVERT JUMPDEST POP JUMP JUMPDEST PUSH2 0x73E7 DUP2 PUSH2 0x6B70 JUMP JUMPDEST DUP2 EQ PUSH2 0x73F2 JUMPI PUSH1 0x0 DUP1 REVERT JUMPDEST POP JUMP JUMPDEST PUSH2 0x73FE DUP2 PUSH2 0x6B7C JUMP JUMPDEST DUP2 EQ PUSH2 0x7409 JUMPI PUSH1 0x0 DUP1 REVERT JUMPDEST POP JUMP JUMPDEST PUSH2 0x7415 DUP2 PUSH2 0x6BA8 JUMP JUMPDEST DUP2 EQ PUSH2 0x7420 JUMPI PUSH1 0x0 DUP1 REVERT JUMPDEST POP JUMP JUMPDEST PUSH2 0x742C DUP2 PUSH2 0x6BBA JUMP JUMPDEST DUP2 EQ PUSH2 0x7437 JUMPI PUSH1 0x0 DUP1 REVERT JUMPDEST POP JUMP JUMPDEST PUSH2 0x7443 DUP2 PUSH2 0x6BCC JUMP JUMPDEST DUP2 EQ PUSH2 0x744E JUMPI PUSH1 0x0 DUP1 REVERT JUMPDEST POP JUMP JUMPDEST PUSH2 0x745A DUP2 PUSH2 0x6C15 JUMP JUMPDEST DUP2 EQ PUSH2 0x7465 JUMPI PUSH1 0x0 DUP1 REVERT JUMPDEST POP JUMP INVALID LOG2 PUSH5 0x6970667358 0x22 SLT KECCAK256 0x4B 0x49 SWAP14 DUP10 CALLCODE 0x2C PUSH4 0xD92267D9 AND POP PUSH15 0x76597AEF5B3C8978C09C21BD652529 EQ SUB REVERT PUSH5 0x736F6C6343 STOP ADDMOD ADD STOP CALLER "
		},
		"gasEstimates": {
			"creation": {
				"codeDepositCost": "5970800",
				"executionCost": "infinite",
				"totalCost": "infinite"
			},
			"external": {
				"addressOrder(address,bool)": "4833",
				"allBee()": "infinite",
				"allBee(address)": "infinite",
				"approve(address,uint256)": "infinite",
				"balanceOf(address)": "1691",
				"beePriceInfo(uint256)": "infinite",
				"bees(uint256)": "infinite",
				"claimBee(uint256)": "infinite",
				"claimBeeFor(uint256,address)": "infinite",
				"claimableBee()": "infinite",
				"collectedAmountForEnlarge()": "1197",
				"dispatchHoney()": "infinite",
				"distanceToCenter(int128,int128)": "infinite",
				"distanceToCenter(uint256)": "infinite",
				"enlarge(string[])": "infinite",
				"enlargePrice()": "infinite",
				"getApproved(uint256)": "2651",
				"honeyCooldown()": "1218",
				"honeyTime()": "1241",
				"idToPositon(uint256)": "infinite",
				"isApprovedForAll(address,address)": "infinite",
				"name()": "infinite",
				"onERC721Received(address,address,uint256,bytes)": "infinite",
				"owner()": "1312",
				"ownerOf(uint256)": "1789",
				"participateToEnlargeHive(uint256)": "infinite",
				"partipantToEnlarge(uint256)": "2424",
				"partipationToEnlarge(address)": "1583",
				"placeBuyOrder(uint256,uint256)": "infinite",
				"placeSellOrder(uint256,uint256)": "infinite",
				"placeTokenSellOrder(uint256,uint256)": "infinite",
				"placeTokenbuyOrder(uint256,uint256)": "infinite",
				"positionToId(int128,int128)": "infinite",
				"removeOrder(uint256)": "infinite",
				"renameBee(uint256,string)": "infinite",
				"renounceOwnership()": "24399",
				"reservedAmount()": "1247",
				"reservedERC20Amount(address)": "2512",
				"reservedERC721(address,uint256)": "1946",
				"safeTransferFrom(address,address,uint256)": "infinite",
				"safeTransferFrom(address,address,uint256,bytes)": "infinite",
				"setApprovalForAll(address,bool)": "infinite",
				"subWithdraw()": "infinite",
				"subWithdrawERC20()": "infinite",
				"supportsInterface(bytes4)": "820",
				"symbol()": "infinite",
				"tokenOrder(uint256,bool)": "infinite",
				"tokenURI(uint256)": "2141",
				"transferFrom(address,address,uint256)": "infinite",
				"transferOwnership(address)": "24747",
				"withdraw(uint256)": "infinite",
				"withdrawAll()": "infinite",
				"withdrawAllERC20(address)": "infinite",
				"withdrawERC20(address,uint256)": "infinite",
				"withdrawERC721(address,uint256)": "infinite"
			}
		},
		"methodIdentifiers": {
			"addressOrder(address,bool)": "fcde2638",
			"allBee()": "eb5671d8",
			"allBee(address)": "382c2a22",
			"approve(address,uint256)": "095ea7b3",
			"balanceOf(address)": "70a08231",
			"beePriceInfo(uint256)": "89525d7e",
			"bees(uint256)": "7b993679",
			"claimBee(uint256)": "aaafbd00",
			"claimBeeFor(uint256,address)": "44ca1495",
			"claimableBee()": "427a3bd3",
			"collectedAmountForEnlarge()": "9e65b01a",
			"dispatchHoney()": "d64b2f62",
			"distanceToCenter(int128,int128)": "657d128a",
			"distanceToCenter(uint256)": "638f1d2a",
			"enlarge(string[])": "3050ad20",
			"enlargePrice()": "0b6889c7",
			"getApproved(uint256)": "081812fc",
			"honeyCooldown()": "d19893cf",
			"honeyTime()": "3536e614",
			"idToPositon(uint256)": "881d43d5",
			"isApprovedForAll(address,address)": "e985e9c5",
			"name()": "06fdde03",
			"onERC721Received(address,address,uint256,bytes)": "150b7a02",
			"owner()": "8da5cb5b",
			"ownerOf(uint256)": "6352211e",
			"participateToEnlargeHive(uint256)": "3c3a0c7b",
			"partipantToEnlarge(uint256)": "8c7939c2",
			"partipationToEnlarge(address)": "1f066933",
			"placeBuyOrder(uint256,uint256)": "ee36d4ab",
			"placeSellOrder(uint256,uint256)": "a4406bcd",
			"placeTokenSellOrder(uint256,uint256)": "cce95e56",
			"placeTokenbuyOrder(uint256,uint256)": "c13159bc",
			"positionToId(int128,int128)": "a547d2e1",
			"removeOrder(uint256)": "9645337a",
			"renameBee(uint256,string)": "65595153",
			"renounceOwnership()": "715018a6",
			"reservedAmount()": "f92c45b7",
			"reservedERC20Amount(address)": "e38c2660",
			"reservedERC721(address,uint256)": "4789dd64",
			"safeTransferFrom(address,address,uint256)": "42842e0e",
			"safeTransferFrom(address,address,uint256,bytes)": "b88d4fde",
			"setApprovalForAll(address,bool)": "a22cb465",
			"subWithdraw()": "b994d278",
			"subWithdrawERC20()": "33df66da",
			"supportsInterface(bytes4)": "01ffc9a7",
			"symbol()": "95d89b41",
			"tokenOrder(uint256,bool)": "7a35110f",
			"tokenURI(uint256)": "c87b56dd",
			"transferFrom(address,address,uint256)": "23b872dd",
			"transferOwnership(address)": "f2fde38b",
			"withdraw(uint256)": "2e1a7d4d",
			"withdrawAll()": "853828b6",
			"withdrawAllERC20(address)": "857abbd4",
			"withdrawERC20(address,uint256)": "a1db9782",
			"withdrawERC721(address,uint256)": "f3e414f8"
		}
	},
	"abi": [
		{
			"inputs": [
				{
					"internalType": "address",
					"name": "honeyAdress_",
					"type": "address"
				},
				{
					"internalType": "string[]",
					"name": "firstBeesName_",
					"type": "string[]"
				},
				{
					"internalType": "uint128",
					"name": "hiveSize_",
					"type": "uint128"
				},
				{
					"internalType": "uint256",
					"name": "baseClaimPrice_",
					"type": "uint256"
				},
				{
					"internalType": "uint256",
					"name": "honeyCooldown_",
					"type": "uint256"
				},
				{
					"internalType": "uint256",
					"name": "enlargeBasePrice_",
					"type": "uint256"
				}
			],
			"stateMutability": "nonpayable",
			"type": "constructor"
		},
		{
			"anonymous": false,
			"inputs": [
				{
					"indexed": true,
					"internalType": "address",
					"name": "owner",
					"type": "address"
				},
				{
					"indexed": true,
					"internalType": "address",
					"name": "approved",
					"type": "address"
				},
				{
					"indexed": true,
					"internalType": "uint256",
					"name": "tokenId",
					"type": "uint256"
				}
			],
			"name": "Approval",
			"type": "event"
		},
		{
			"anonymous": false,
			"inputs": [
				{
					"indexed": true,
					"internalType": "address",
					"name": "owner",
					"type": "address"
				},
				{
					"indexed": true,
					"internalType": "address",
					"name": "operator",
					"type": "address"
				},
				{
					"indexed": false,
					"internalType": "bool",
					"name": "approved",
					"type": "bool"
				}
			],
			"name": "ApprovalForAll",
			"type": "event"
		},
		{
			"anonymous": false,
			"inputs": [
				{
					"indexed": true,
					"internalType": "address",
					"name": "previousOwner",
					"type": "address"
				},
				{
					"indexed": true,
					"internalType": "address",
					"name": "newOwner",
					"type": "address"
				}
			],
			"name": "OwnershipTransferred",
			"type": "event"
		},
		{
			"anonymous": false,
			"inputs": [
				{
					"indexed": true,
					"internalType": "address",
					"name": "from",
					"type": "address"
				},
				{
					"indexed": true,
					"internalType": "address",
					"name": "to",
					"type": "address"
				},
				{
					"indexed": true,
					"internalType": "uint256",
					"name": "tokenId",
					"type": "uint256"
				}
			],
			"name": "Transfer",
			"type": "event"
		},
		{
			"inputs": [
				{
					"internalType": "address",
					"name": "add",
					"type": "address"
				},
				{
					"internalType": "bool",
					"name": "withToken",
					"type": "bool"
				}
			],
			"name": "addressOrder",
			"outputs": [
				{
					"internalType": "uint256[]",
					"name": "",
					"type": "uint256[]"
				}
			],
			"stateMutability": "view",
			"type": "function"
		},
		{
			"inputs": [
				{
					"internalType": "address",
					"name": "beeOwner",
					"type": "address"
				}
			],
			"name": "allBee",
			"outputs": [
				{
					"internalType": "uint256[]",
					"name": "",
					"type": "uint256[]"
				}
			],
			"stateMutability": "view",
			"type": "function"
		},
		{
			"inputs": [],
			"name": "allBee",
			"outputs": [
				{
					"internalType": "uint256[]",
					"name": "",
					"type": "uint256[]"
				}
			],
			"stateMutability": "view",
			"type": "function"
		},
		{
			"inputs": [
				{
					"internalType": "address",
					"name": "to",
					"type": "address"
				},
				{
					"internalType": "uint256",
					"name": "tokenId",
					"type": "uint256"
				}
			],
			"name": "approve",
			"outputs": [],
			"stateMutability": "nonpayable",
			"type": "function"
		},
		{
			"inputs": [
				{
					"internalType": "address",
					"name": "owner",
					"type": "address"
				}
			],
			"name": "balanceOf",
			"outputs": [
				{
					"internalType": "uint256",
					"name": "",
					"type": "uint256"
				}
			],
			"stateMutability": "view",
			"type": "function"
		},
		{
			"inputs": [
				{
					"internalType": "uint256",
					"name": "beeId",
					"type": "uint256"
				}
			],
			"name": "beePriceInfo",
			"outputs": [
				{
					"internalType": "uint256",
					"name": "",
					"type": "uint256"
				},
				{
					"internalType": "uint256",
					"name": "",
					"type": "uint256"
				}
			],
			"stateMutability": "view",
			"type": "function"
		},
		{
			"inputs": [
				{
					"internalType": "uint256",
					"name": "",
					"type": "uint256"
				}
			],
			"name": "bees",
			"outputs": [
				{
					"internalType": "string",
					"name": "name",
					"type": "string"
				}
			],
			"stateMutability": "view",
			"type": "function"
		},
		{
			"inputs": [
				{
					"internalType": "uint256",
					"name": "beeId",
					"type": "uint256"
				}
			],
			"name": "claimBee",
			"outputs": [],
			"stateMutability": "payable",
			"type": "function"
		},
		{
			"inputs": [
				{
					"internalType": "uint256",
					"name": "beeId",
					"type": "uint256"
				},
				{
					"internalType": "address",
					"name": "to",
					"type": "address"
				}
			],
			"name": "claimBeeFor",
			"outputs": [],
			"stateMutability": "payable",
			"type": "function"
		},
		{
			"inputs": [],
			"name": "claimableBee",
			"outputs": [
				{
					"internalType": "uint256[]",
					"name": "",
					"type": "uint256[]"
				}
			],
			"stateMutability": "view",
			"type": "function"
		},
		{
			"inputs": [],
			"name": "collectedAmountForEnlarge",
			"outputs": [
				{
					"internalType": "uint256",
					"name": "",
					"type": "uint256"
				}
			],
			"stateMutability": "view",
			"type": "function"
		},
		{
			"inputs": [],
			"name": "dispatchHoney",
			"outputs": [
				{
					"internalType": "uint256",
					"name": "",
					"type": "uint256"
				}
			],
			"stateMutability": "nonpayable",
			"type": "function"
		},
		{
			"inputs": [
				{
					"internalType": "uint256",
					"name": "id",
					"type": "uint256"
				}
			],
			"name": "distanceToCenter",
			"outputs": [
				{
					"internalType": "uint256",
					"name": "",
					"type": "uint256"
				}
			],
			"stateMutability": "pure",
			"type": "function"
		},
		{
			"inputs": [
				{
					"internalType": "int128",
					"name": "x",
					"type": "int128"
				},
				{
					"internalType": "int128",
					"name": "z",
					"type": "int128"
				}
			],
			"name": "distanceToCenter",
			"outputs": [
				{
					"internalType": "uint256",
					"name": "",
					"type": "uint256"
				}
			],
			"stateMutability": "pure",
			"type": "function"
		},
		{
			"inputs": [
				{
					"internalType": "string[]",
					"name": "beeNames",
					"type": "string[]"
				}
			],
			"name": "enlarge",
			"outputs": [],
			"stateMutability": "nonpayable",
			"type": "function"
		},
		{
			"inputs": [],
			"name": "enlargePrice",
			"outputs": [
				{
					"internalType": "uint256",
					"name": "",
					"type": "uint256"
				}
			],
			"stateMutability": "view",
			"type": "function"
		},
		{
			"inputs": [
				{
					"internalType": "uint256",
					"name": "tokenId",
					"type": "uint256"
				}
			],
			"name": "getApproved",
			"outputs": [
				{
					"internalType": "address",
					"name": "",
					"type": "address"
				}
			],
			"stateMutability": "view",
			"type": "function"
		},
		{
			"inputs": [],
			"name": "honeyCooldown",
			"outputs": [
				{
					"internalType": "uint256",
					"name": "",
					"type": "uint256"
				}
			],
			"stateMutability": "view",
			"type": "function"
		},
		{
			"inputs": [],
			"name": "honeyTime",
			"outputs": [
				{
					"internalType": "uint256",
					"name": "",
					"type": "uint256"
				}
			],
			"stateMutability": "view",
			"type": "function"
		},
		{
			"inputs": [
				{
					"internalType": "uint256",
					"name": "id",
					"type": "uint256"
				}
			],
			"name": "idToPositon",
			"outputs": [
				{
					"internalType": "int128",
					"name": "",
					"type": "int128"
				},
				{
					"internalType": "int128",
					"name": "",
					"type": "int128"
				}
			],
			"stateMutability": "pure",
			"type": "function"
		},
		{
			"inputs": [
				{
					"internalType": "address",
					"name": "owner",
					"type": "address"
				},
				{
					"internalType": "address",
					"name": "operator",
					"type": "address"
				}
			],
			"name": "isApprovedForAll",
			"outputs": [
				{
					"internalType": "bool",
					"name": "",
					"type": "bool"
				}
			],
			"stateMutability": "view",
			"type": "function"
		},
		{
			"inputs": [],
			"name": "name",
			"outputs": [
				{
					"internalType": "string",
					"name": "",
					"type": "string"
				}
			],
			"stateMutability": "view",
			"type": "function"
		},
		{
			"inputs": [
				{
					"internalType": "address",
					"name": "",
					"type": "address"
				},
				{
					"internalType": "address",
					"name": "",
					"type": "address"
				},
				{
					"internalType": "uint256",
					"name": "",
					"type": "uint256"
				},
				{
					"internalType": "bytes",
					"name": "",
					"type": "bytes"
				}
			],
			"name": "onERC721Received",
			"outputs": [
				{
					"internalType": "bytes4",
					"name": "",
					"type": "bytes4"
				}
			],
			"stateMutability": "nonpayable",
			"type": "function"
		},
		{
			"inputs": [],
			"name": "owner",
			"outputs": [
				{
					"internalType": "address",
					"name": "",
					"type": "address"
				}
			],
			"stateMutability": "view",
			"type": "function"
		},
		{
			"inputs": [
				{
					"internalType": "uint256",
					"name": "tokenId",
					"type": "uint256"
				}
			],
			"name": "ownerOf",
			"outputs": [
				{
					"internalType": "address",
					"name": "",
					"type": "address"
				}
			],
			"stateMutability": "view",
			"type": "function"
		},
		{
			"inputs": [
				{
					"internalType": "uint256",
					"name": "amount",
					"type": "uint256"
				}
			],
			"name": "participateToEnlargeHive",
			"outputs": [],
			"stateMutability": "nonpayable",
			"type": "function"
		},
		{
			"inputs": [
				{
					"internalType": "uint256",
					"name": "",
					"type": "uint256"
				}
			],
			"name": "partipantToEnlarge",
			"outputs": [
				{
					"internalType": "address",
					"name": "",
					"type": "address"
				}
			],
			"stateMutability": "view",
			"type": "function"
		},
		{
			"inputs": [
				{
					"internalType": "address",
					"name": "",
					"type": "address"
				}
			],
			"name": "partipationToEnlarge",
			"outputs": [
				{
					"internalType": "uint256",
					"name": "",
					"type": "uint256"
				}
			],
			"stateMutability": "view",
			"type": "function"
		},
		{
			"inputs": [
				{
					"internalType": "uint256",
					"name": "tokenId",
					"type": "uint256"
				},
				{
					"internalType": "uint256",
					"name": "amount",
					"type": "uint256"
				}
			],
			"name": "placeBuyOrder",
			"outputs": [
				{
					"internalType": "uint256",
					"name": "",
					"type": "uint256"
				}
			],
			"stateMutability": "nonpayable",
			"type": "function"
		},
		{
			"inputs": [
				{
					"internalType": "uint256",
					"name": "tokenId",
					"type": "uint256"
				},
				{
					"internalType": "uint256",
					"name": "amount",
					"type": "uint256"
				}
			],
			"name": "placeSellOrder",
			"outputs": [
				{
					"internalType": "uint256",
					"name": "",
					"type": "uint256"
				}
			],
			"stateMutability": "nonpayable",
			"type": "function"
		},
		{
			"inputs": [
				{
					"internalType": "uint256",
					"name": "tokenId",
					"type": "uint256"
				},
				{
					"internalType": "uint256",
					"name": "amount",
					"type": "uint256"
				}
			],
			"name": "placeTokenSellOrder",
			"outputs": [
				{
					"internalType": "uint256",
					"name": "",
					"type": "uint256"
				}
			],
			"stateMutability": "nonpayable",
			"type": "function"
		},
		{
			"inputs": [
				{
					"internalType": "uint256",
					"name": "tokenId",
					"type": "uint256"
				},
				{
					"internalType": "uint256",
					"name": "amount",
					"type": "uint256"
				}
			],
			"name": "placeTokenbuyOrder",
			"outputs": [
				{
					"internalType": "uint256",
					"name": "",
					"type": "uint256"
				}
			],
			"stateMutability": "nonpayable",
			"type": "function"
		},
		{
			"inputs": [
				{
					"internalType": "int128",
					"name": "x",
					"type": "int128"
				},
				{
					"internalType": "int128",
					"name": "z",
					"type": "int128"
				}
			],
			"name": "positionToId",
			"outputs": [
				{
					"internalType": "uint256",
					"name": "",
					"type": "uint256"
				}
			],
			"stateMutability": "pure",
			"type": "function"
		},
		{
			"inputs": [
				{
					"internalType": "uint256",
					"name": "orderId",
					"type": "uint256"
				}
			],
			"name": "removeOrder",
			"outputs": [],
			"stateMutability": "nonpayable",
			"type": "function"
		},
		{
			"inputs": [
				{
					"internalType": "uint256",
					"name": "beeId",
					"type": "uint256"
				},
				{
					"internalType": "string",
					"name": "newName",
					"type": "string"
				}
			],
			"name": "renameBee",
			"outputs": [],
			"stateMutability": "nonpayable",
			"type": "function"
		},
		{
			"inputs": [],
			"name": "renounceOwnership",
			"outputs": [],
			"stateMutability": "nonpayable",
			"type": "function"
		},
		{
			"inputs": [],
			"name": "reservedAmount",
			"outputs": [
				{
					"internalType": "uint256",
					"name": "",
					"type": "uint256"
				}
			],
			"stateMutability": "view",
			"type": "function"
		},
		{
			"inputs": [
				{
					"internalType": "contract IERC20",
					"name": "token",
					"type": "address"
				}
			],
			"name": "reservedERC20Amount",
			"outputs": [
				{
					"internalType": "uint256",
					"name": "",
					"type": "uint256"
				}
			],
			"stateMutability": "view",
			"type": "function"
		},
		{
			"inputs": [
				{
					"internalType": "contract IERC721",
					"name": "token",
					"type": "address"
				},
				{
					"internalType": "uint256",
					"name": "id",
					"type": "uint256"
				}
			],
			"name": "reservedERC721",
			"outputs": [
				{
					"internalType": "bool",
					"name": "",
					"type": "bool"
				}
			],
			"stateMutability": "view",
			"type": "function"
		},
		{
			"inputs": [
				{
					"internalType": "address",
					"name": "from",
					"type": "address"
				},
				{
					"internalType": "address",
					"name": "to",
					"type": "address"
				},
				{
					"internalType": "uint256",
					"name": "tokenId",
					"type": "uint256"
				}
			],
			"name": "safeTransferFrom",
			"outputs": [],
			"stateMutability": "nonpayable",
			"type": "function"
		},
		{
			"inputs": [
				{
					"internalType": "address",
					"name": "from",
					"type": "address"
				},
				{
					"internalType": "address",
					"name": "to",
					"type": "address"
				},
				{
					"internalType": "uint256",
					"name": "tokenId",
					"type": "uint256"
				},
				{
					"internalType": "bytes",
					"name": "_data",
					"type": "bytes"
				}
			],
			"name": "safeTransferFrom",
			"outputs": [],
			"stateMutability": "nonpayable",
			"type": "function"
		},
		{
			"inputs": [
				{
					"internalType": "address",
					"name": "operator",
					"type": "address"
				},
				{
					"internalType": "bool",
					"name": "approved",
					"type": "bool"
				}
			],
			"name": "setApprovalForAll",
			"outputs": [],
			"stateMutability": "nonpayable",
			"type": "function"
		},
		{
			"inputs": [],
			"name": "subWithdraw",
			"outputs": [
				{
					"internalType": "contract Withdraw[]",
					"name": "",
					"type": "address[]"
				}
			],
			"stateMutability": "view",
			"type": "function"
		},
		{
			"inputs": [],
			"name": "subWithdrawERC20",
			"outputs": [
				{
					"internalType": "contract WithdrawERC20[]",
					"name": "",
					"type": "address[]"
				}
			],
			"stateMutability": "view",
			"type": "function"
		},
		{
			"inputs": [
				{
					"internalType": "bytes4",
					"name": "interfaceId",
					"type": "bytes4"
				}
			],
			"name": "supportsInterface",
			"outputs": [
				{
					"internalType": "bool",
					"name": "",
					"type": "bool"
				}
			],
			"stateMutability": "view",
			"type": "function"
		},
		{
			"inputs": [],
			"name": "symbol",
			"outputs": [
				{
					"internalType": "string",
					"name": "",
					"type": "string"
				}
			],
			"stateMutability": "view",
			"type": "function"
		},
		{
			"inputs": [
				{
					"internalType": "uint256",
					"name": "tokenId",
					"type": "uint256"
				},
				{
					"internalType": "bool",
					"name": "withToken",
					"type": "bool"
				}
			],
			"name": "tokenOrder",
			"outputs": [
				{
					"internalType": "uint256[]",
					"name": "",
					"type": "uint256[]"
				}
			],
			"stateMutability": "view",
			"type": "function"
		},
		{
			"inputs": [
				{
					"internalType": "uint256",
					"name": "tokenId",
					"type": "uint256"
				}
			],
			"name": "tokenURI",
			"outputs": [
				{
					"internalType": "string",
					"name": "",
					"type": "string"
				}
			],
			"stateMutability": "view",
			"type": "function"
		},
		{
			"inputs": [
				{
					"internalType": "address",
					"name": "from",
					"type": "address"
				},
				{
					"internalType": "address",
					"name": "to",
					"type": "address"
				},
				{
					"internalType": "uint256",
					"name": "tokenId",
					"type": "uint256"
				}
			],
			"name": "transferFrom",
			"outputs": [],
			"stateMutability": "nonpayable",
			"type": "function"
		},
		{
			"inputs": [
				{
					"internalType": "address",
					"name": "newOwner",
					"type": "address"
				}
			],
			"name": "transferOwnership",
			"outputs": [],
			"stateMutability": "nonpayable",
			"type": "function"
		},
		{
			"inputs": [
				{
					"internalType": "uint256",
					"name": "maxAmount",
					"type": "uint256"
				}
			],
			"name": "withdraw",
			"outputs": [
				{
					"internalType": "uint256",
					"name": "",
					"type": "uint256"
				}
			],
			"stateMutability": "nonpayable",
			"type": "function"
		},
		{
			"inputs": [],
			"name": "withdrawAll",
			"outputs": [
				{
					"internalType": "uint256",
					"name": "",
					"type": "uint256"
				}
			],
			"stateMutability": "nonpayable",
			"type": "function"
		},
		{
			"inputs": [
				{
					"internalType": "address",
					"name": "add",
					"type": "address"
				}
			],
			"name": "withdrawAllERC20",
			"outputs": [
				{
					"internalType": "uint256",
					"name": "",
					"type": "uint256"
				}
			],
			"stateMutability": "nonpayable",
			"type": "function"
		},
		{
			"inputs": [
				{
					"internalType": "address",
					"name": "add",
					"type": "address"
				},
				{
					"internalType": "uint256",
					"name": "maxAmount",
					"type": "uint256"
				}
			],
			"name": "withdrawERC20",
			"outputs": [
				{
					"internalType": "uint256",
					"name": "",
					"type": "uint256"
				}
			],
			"stateMutability": "nonpayable",
			"type": "function"
		},
		{
			"inputs": [
				{
					"internalType": "address",
					"name": "add",
					"type": "address"
				},
				{
					"internalType": "uint256",
					"name": "id",
					"type": "uint256"
				}
			],
			"name": "withdrawERC721",
			"outputs": [],
			"stateMutability": "nonpayable",
			"type": "function"
		}
	]
}