{
  "contractName": "Hive",
  "abi": [
    {
      "inputs": [
        {
          "internalType": "address",
          "name": "honeyAdress_",
          "type": "address"
        },
        {
          "internalType": "string[]",
          "name": "firstBeesName_",
          "type": "string[]"
        },
        {
          "internalType": "uint128",
          "name": "hiveSize_",
          "type": "uint128"
        },
        {
          "internalType": "uint256",
          "name": "baseClaimPrice_",
          "type": "uint256"
        },
        {
          "internalType": "uint256",
          "name": "honeyCooldown_",
          "type": "uint256"
        }
      ],
      "stateMutability": "nonpayable",
      "type": "constructor"
    },
    {
      "anonymous": false,
      "inputs": [
        {
          "indexed": true,
          "internalType": "address",
          "name": "owner",
          "type": "address"
        },
        {
          "indexed": true,
          "internalType": "address",
          "name": "approved",
          "type": "address"
        },
        {
          "indexed": true,
          "internalType": "uint256",
          "name": "tokenId",
          "type": "uint256"
        }
      ],
      "name": "Approval",
      "type": "event"
    },
    {
      "anonymous": false,
      "inputs": [
        {
          "indexed": true,
          "internalType": "address",
          "name": "owner",
          "type": "address"
        },
        {
          "indexed": true,
          "internalType": "address",
          "name": "operator",
          "type": "address"
        },
        {
          "indexed": false,
          "internalType": "bool",
          "name": "approved",
          "type": "bool"
        }
      ],
      "name": "ApprovalForAll",
      "type": "event"
    },
    {
      "anonymous": false,
      "inputs": [
        {
          "indexed": true,
          "internalType": "address",
          "name": "previousOwner",
          "type": "address"
        },
        {
          "indexed": true,
          "internalType": "address",
          "name": "newOwner",
          "type": "address"
        }
      ],
      "name": "OwnershipTransferred",
      "type": "event"
    },
    {
      "anonymous": false,
      "inputs": [
        {
          "indexed": true,
          "internalType": "address",
          "name": "from",
          "type": "address"
        },
        {
          "indexed": true,
          "internalType": "address",
          "name": "to",
          "type": "address"
        },
        {
          "indexed": true,
          "internalType": "uint256",
          "name": "tokenId",
          "type": "uint256"
        }
      ],
      "name": "Transfer",
      "type": "event"
    },
    {
      "inputs": [
        {
          "internalType": "address",
          "name": "add",
          "type": "address"
        },
        {
          "internalType": "bool",
          "name": "withToken",
          "type": "bool"
        }
      ],
      "name": "addressOrder",
      "outputs": [
        {
          "internalType": "uint256[]",
          "name": "",
          "type": "uint256[]"
        }
      ],
      "stateMutability": "view",
      "type": "function"
    },
    {
      "inputs": [
        {
          "internalType": "address",
          "name": "to",
          "type": "address"
        },
        {
          "internalType": "uint256",
          "name": "tokenId",
          "type": "uint256"
        }
      ],
      "name": "approve",
      "outputs": [],
      "stateMutability": "nonpayable",
      "type": "function"
    },
    {
      "inputs": [
        {
          "internalType": "address",
          "name": "owner",
          "type": "address"
        }
      ],
      "name": "balanceOf",
      "outputs": [
        {
          "internalType": "uint256",
          "name": "",
          "type": "uint256"
        }
      ],
      "stateMutability": "view",
      "type": "function"
    },
    {
      "inputs": [
        {
          "internalType": "uint256",
          "name": "",
          "type": "uint256"
        }
      ],
      "name": "bees",
      "outputs": [
        {
          "internalType": "string",
          "name": "name",
          "type": "string"
        }
      ],
      "stateMutability": "view",
      "type": "function"
    },
    {
      "inputs": [
        {
          "internalType": "uint256",
          "name": "tokenId",
          "type": "uint256"
        }
      ],
      "name": "getApproved",
      "outputs": [
        {
          "internalType": "address",
          "name": "",
          "type": "address"
        }
      ],
      "stateMutability": "view",
      "type": "function"
    },
    {
      "inputs": [],
      "name": "honeyCooldown",
      "outputs": [
        {
          "internalType": "uint256",
          "name": "",
          "type": "uint256"
        }
      ],
      "stateMutability": "view",
      "type": "function"
    },
    {
      "inputs": [],
      "name": "honeyTime",
      "outputs": [
        {
          "internalType": "uint256",
          "name": "",
          "type": "uint256"
        }
      ],
      "stateMutability": "view",
      "type": "function"
    },
    {
      "inputs": [
        {
          "internalType": "address",
          "name": "owner",
          "type": "address"
        },
        {
          "internalType": "address",
          "name": "operator",
          "type": "address"
        }
      ],
      "name": "isApprovedForAll",
      "outputs": [
        {
          "internalType": "bool",
          "name": "",
          "type": "bool"
        }
      ],
      "stateMutability": "view",
      "type": "function"
    },
    {
      "inputs": [],
      "name": "name",
      "outputs": [
        {
          "internalType": "string",
          "name": "",
          "type": "string"
        }
      ],
      "stateMutability": "view",
      "type": "function"
    },
    {
      "inputs": [
        {
          "internalType": "address",
          "name": "",
          "type": "address"
        },
        {
          "internalType": "address",
          "name": "",
          "type": "address"
        },
        {
          "internalType": "uint256",
          "name": "",
          "type": "uint256"
        },
        {
          "internalType": "bytes",
          "name": "",
          "type": "bytes"
        }
      ],
      "name": "onERC721Received",
      "outputs": [
        {
          "internalType": "bytes4",
          "name": "",
          "type": "bytes4"
        }
      ],
      "stateMutability": "nonpayable",
      "type": "function"
    },
    {
      "inputs": [],
      "name": "owner",
      "outputs": [
        {
          "internalType": "address",
          "name": "",
          "type": "address"
        }
      ],
      "stateMutability": "view",
      "type": "function"
    },
    {
      "inputs": [
        {
          "internalType": "uint256",
          "name": "tokenId",
          "type": "uint256"
        }
      ],
      "name": "ownerOf",
      "outputs": [
        {
          "internalType": "address",
          "name": "",
          "type": "address"
        }
      ],
      "stateMutability": "view",
      "type": "function"
    },
    {
      "inputs": [
        {
          "internalType": "uint256",
          "name": "tokenId",
          "type": "uint256"
        },
        {
          "internalType": "uint256",
          "name": "amount",
          "type": "uint256"
        }
      ],
      "name": "placeBuyOrder",
      "outputs": [
        {
          "internalType": "uint256",
          "name": "",
          "type": "uint256"
        }
      ],
      "stateMutability": "nonpayable",
      "type": "function"
    },
    {
      "inputs": [
        {
          "internalType": "uint256",
          "name": "tokenId",
          "type": "uint256"
        },
        {
          "internalType": "uint256",
          "name": "amount",
          "type": "uint256"
        }
      ],
      "name": "placeSellOrder",
      "outputs": [
        {
          "internalType": "uint256",
          "name": "",
          "type": "uint256"
        }
      ],
      "stateMutability": "nonpayable",
      "type": "function"
    },
    {
      "inputs": [
        {
          "internalType": "uint256",
          "name": "tokenId",
          "type": "uint256"
        },
        {
          "internalType": "uint256",
          "name": "amount",
          "type": "uint256"
        }
      ],
      "name": "placeTokenSellOrder",
      "outputs": [
        {
          "internalType": "uint256",
          "name": "",
          "type": "uint256"
        }
      ],
      "stateMutability": "nonpayable",
      "type": "function"
    },
    {
      "inputs": [
        {
          "internalType": "uint256",
          "name": "tokenId",
          "type": "uint256"
        },
        {
          "internalType": "uint256",
          "name": "amount",
          "type": "uint256"
        }
      ],
      "name": "placeTokenbuyOrder",
      "outputs": [
        {
          "internalType": "uint256",
          "name": "",
          "type": "uint256"
        }
      ],
      "stateMutability": "nonpayable",
      "type": "function"
    },
    {
      "inputs": [
        {
          "internalType": "uint256",
          "name": "orderId",
          "type": "uint256"
        }
      ],
      "name": "removeOrder",
      "outputs": [],
      "stateMutability": "nonpayable",
      "type": "function"
    },
    {
      "inputs": [],
      "name": "renounceOwnership",
      "outputs": [],
      "stateMutability": "nonpayable",
      "type": "function"
    },
    {
      "inputs": [],
      "name": "reservedAmount",
      "outputs": [
        {
          "internalType": "uint256",
          "name": "",
          "type": "uint256"
        }
      ],
      "stateMutability": "view",
      "type": "function"
    },
    {
      "inputs": [
        {
          "internalType": "contract IERC20",
          "name": "token",
          "type": "address"
        }
      ],
      "name": "reservedERC20Amount",
      "outputs": [
        {
          "internalType": "uint256",
          "name": "",
          "type": "uint256"
        }
      ],
      "stateMutability": "view",
      "type": "function"
    },
    {
      "inputs": [
        {
          "internalType": "contract IERC721",
          "name": "token",
          "type": "address"
        },
        {
          "internalType": "uint256",
          "name": "id",
          "type": "uint256"
        }
      ],
      "name": "reservedERC721",
      "outputs": [
        {
          "internalType": "bool",
          "name": "",
          "type": "bool"
        }
      ],
      "stateMutability": "view",
      "type": "function"
    },
    {
      "inputs": [
        {
          "internalType": "address",
          "name": "from",
          "type": "address"
        },
        {
          "internalType": "address",
          "name": "to",
          "type": "address"
        },
        {
          "internalType": "uint256",
          "name": "tokenId",
          "type": "uint256"
        }
      ],
      "name": "safeTransferFrom",
      "outputs": [],
      "stateMutability": "nonpayable",
      "type": "function"
    },
    {
      "inputs": [
        {
          "internalType": "address",
          "name": "from",
          "type": "address"
        },
        {
          "internalType": "address",
          "name": "to",
          "type": "address"
        },
        {
          "internalType": "uint256",
          "name": "tokenId",
          "type": "uint256"
        },
        {
          "internalType": "bytes",
          "name": "_data",
          "type": "bytes"
        }
      ],
      "name": "safeTransferFrom",
      "outputs": [],
      "stateMutability": "nonpayable",
      "type": "function"
    },
    {
      "inputs": [
        {
          "internalType": "address",
          "name": "operator",
          "type": "address"
        },
        {
          "internalType": "bool",
          "name": "approved",
          "type": "bool"
        }
      ],
      "name": "setApprovalForAll",
      "outputs": [],
      "stateMutability": "nonpayable",
      "type": "function"
    },
    {
      "inputs": [
        {
          "internalType": "bytes4",
          "name": "interfaceId",
          "type": "bytes4"
        }
      ],
      "name": "supportsInterface",
      "outputs": [
        {
          "internalType": "bool",
          "name": "",
          "type": "bool"
        }
      ],
      "stateMutability": "view",
      "type": "function"
    },
    {
      "inputs": [],
      "name": "symbol",
      "outputs": [
        {
          "internalType": "string",
          "name": "",
          "type": "string"
        }
      ],
      "stateMutability": "view",
      "type": "function"
    },
    {
      "inputs": [
        {
          "internalType": "uint256",
          "name": "tokenId",
          "type": "uint256"
        },
        {
          "internalType": "bool",
          "name": "withToken",
          "type": "bool"
        }
      ],
      "name": "tokenOrder",
      "outputs": [
        {
          "internalType": "uint256[]",
          "name": "",
          "type": "uint256[]"
        }
      ],
      "stateMutability": "view",
      "type": "function"
    },
    {
      "inputs": [
        {
          "internalType": "uint256",
          "name": "tokenId",
          "type": "uint256"
        }
      ],
      "name": "tokenURI",
      "outputs": [
        {
          "internalType": "string",
          "name": "",
          "type": "string"
        }
      ],
      "stateMutability": "view",
      "type": "function"
    },
    {
      "inputs": [
        {
          "internalType": "address",
          "name": "from",
          "type": "address"
        },
        {
          "internalType": "address",
          "name": "to",
          "type": "address"
        },
        {
          "internalType": "uint256",
          "name": "tokenId",
          "type": "uint256"
        }
      ],
      "name": "transferFrom",
      "outputs": [],
      "stateMutability": "nonpayable",
      "type": "function"
    },
    {
      "inputs": [
        {
          "internalType": "address",
          "name": "newOwner",
          "type": "address"
        }
      ],
      "name": "transferOwnership",
      "outputs": [],
      "stateMutability": "nonpayable",
      "type": "function"
    },
    {
      "inputs": [
        {
          "internalType": "uint256",
          "name": "maxAmount",
          "type": "uint256"
        }
      ],
      "name": "withdraw",
      "outputs": [
        {
          "internalType": "uint256",
          "name": "",
          "type": "uint256"
        }
      ],
      "stateMutability": "nonpayable",
      "type": "function"
    },
    {
      "inputs": [],
      "name": "withdrawAll",
      "outputs": [
        {
          "internalType": "uint256",
          "name": "",
          "type": "uint256"
        }
      ],
      "stateMutability": "nonpayable",
      "type": "function"
    },
    {
      "inputs": [
        {
          "internalType": "address",
          "name": "add",
          "type": "address"
        }
      ],
      "name": "withdrawAllERC20",
      "outputs": [
        {
          "internalType": "uint256",
          "name": "",
          "type": "uint256"
        }
      ],
      "stateMutability": "nonpayable",
      "type": "function"
    },
    {
      "inputs": [
        {
          "internalType": "address",
          "name": "add",
          "type": "address"
        },
        {
          "internalType": "uint256",
          "name": "maxAmount",
          "type": "uint256"
        }
      ],
      "name": "withdrawERC20",
      "outputs": [
        {
          "internalType": "uint256",
          "name": "",
          "type": "uint256"
        }
      ],
      "stateMutability": "nonpayable",
      "type": "function"
    },
    {
      "inputs": [
        {
          "internalType": "address",
          "name": "add",
          "type": "address"
        },
        {
          "internalType": "uint256",
          "name": "id",
          "type": "uint256"
        }
      ],
      "name": "withdrawERC721",
      "outputs": [],
      "stateMutability": "nonpayable",
      "type": "function"
    },
    {
      "inputs": [],
      "name": "dispatchHoney",
      "outputs": [
        {
          "internalType": "uint256",
          "name": "",
          "type": "uint256"
        }
      ],
      "stateMutability": "nonpayable",
      "type": "function"
    },
    {
      "inputs": [],
      "name": "claimableBee",
      "outputs": [
        {
          "internalType": "uint256[]",
          "name": "",
          "type": "uint256[]"
        }
      ],
      "stateMutability": "view",
      "type": "function"
    },
    {
      "inputs": [
        {
          "internalType": "address",
          "name": "beeOwner",
          "type": "address"
        }
      ],
      "name": "allBee",
      "outputs": [
        {
          "internalType": "uint256[]",
          "name": "",
          "type": "uint256[]"
        }
      ],
      "stateMutability": "view",
      "type": "function"
    },
    {
      "inputs": [],
      "name": "allBee",
      "outputs": [
        {
          "internalType": "uint256[]",
          "name": "",
          "type": "uint256[]"
        }
      ],
      "stateMutability": "view",
      "type": "function"
    },
    {
      "inputs": [
        {
          "internalType": "uint256",
          "name": "beeId",
          "type": "uint256"
        },
        {
          "internalType": "string",
          "name": "newName",
          "type": "string"
        }
      ],
      "name": "renameBee",
      "outputs": [],
      "stateMutability": "nonpayable",
      "type": "function"
    },
    {
      "inputs": [
        {
          "internalType": "uint256",
          "name": "beeId",
          "type": "uint256"
        }
      ],
      "name": "claimBee",
      "outputs": [],
      "stateMutability": "payable",
      "type": "function"
    },
    {
      "inputs": [
        {
          "internalType": "uint256",
          "name": "beeId",
          "type": "uint256"
        },
        {
          "internalType": "address",
          "name": "to",
          "type": "address"
        }
      ],
      "name": "claimBeeFor",
      "outputs": [],
      "stateMutability": "payable",
      "type": "function"
    },
    {
      "inputs": [
        {
          "internalType": "uint256",
          "name": "beeId",
          "type": "uint256"
        }
      ],
      "name": "beePriceInfo",
      "outputs": [
        {
          "internalType": "uint256",
          "name": "",
          "type": "uint256"
        },
        {
          "internalType": "uint256",
          "name": "",
          "type": "uint256"
        }
      ],
      "stateMutability": "view",
      "type": "function"
    },
    {
      "inputs": [
        {
          "internalType": "uint256",
          "name": "id",
          "type": "uint256"
        }
      ],
      "name": "idToPositon",
      "outputs": [
        {
          "internalType": "int128",
          "name": "",
          "type": "int128"
        },
        {
          "internalType": "int128",
          "name": "",
          "type": "int128"
        }
      ],
      "stateMutability": "pure",
      "type": "function"
    },
    {
      "inputs": [
        {
          "internalType": "int128",
          "name": "x",
          "type": "int128"
        },
        {
          "internalType": "int128",
          "name": "z",
          "type": "int128"
        }
      ],
      "name": "positionToId",
      "outputs": [
        {
          "internalType": "uint256",
          "name": "",
          "type": "uint256"
        }
      ],
      "stateMutability": "pure",
      "type": "function"
    },
    {
      "inputs": [
        {
          "internalType": "uint256",
          "name": "id",
          "type": "uint256"
        }
      ],
      "name": "distanceToCenter",
      "outputs": [
        {
          "internalType": "uint256",
          "name": "",
          "type": "uint256"
        }
      ],
      "stateMutability": "pure",
      "type": "function"
    },
    {
      "inputs": [
        {
          "internalType": "int128",
          "name": "x",
          "type": "int128"
        },
        {
          "internalType": "int128",
          "name": "z",
          "type": "int128"
        }
      ],
      "name": "distanceToCenter",
      "outputs": [
        {
          "internalType": "uint256",
          "name": "",
          "type": "uint256"
        }
      ],
      "stateMutability": "pure",
      "type": "function"
    },
    {
      "inputs": [],
      "name": "subWithdraw",
      "outputs": [
        {
          "internalType": "contract Withdraw[]",
          "name": "",
          "type": "address[]"
        }
      ],
      "stateMutability": "view",
      "type": "function"
    },
    {
      "inputs": [],
      "name": "subWithdrawERC20",
      "outputs": [
        {
          "internalType": "contract WithdrawERC20[]",
          "name": "",
          "type": "address[]"
        }
      ],
      "stateMutability": "view",
      "type": "function"
    }
  ],
  "bytecode": "0x608060405260016008556000600a556000601060006101000a8154816fffffffffffffffffffffffffffffffff02191690836fffffffffffffffffffffffffffffffff16021790555060006011553480156200005a57600080fd5b5060405162007a3c38038062007a3c833981810160405281019062000080919062000bf4565b6040518060400160405280600381526020017f42656500000000000000000000000000000000000000000000000000000000008152506040518060400160405280600381526020017f4245450000000000000000000000000000000000000000000000000000000000815250868282816000908051906020019062000107929190620009d0565b50806001908051906020019062000120929190620009d0565b5050506000620001356200032d60201b60201c565b905080600660006101000a81548173ffffffffffffffffffffffffffffffffffffffff021916908373ffffffffffffffffffffffffffffffffffffffff1602179055508073ffffffffffffffffffffffffffffffffffffffff16600073ffffffffffffffffffffffffffffffffffffffff167f8be0079c531659141344cd1fd0a4f28419497f9722a3daafe3b4186f6b6457e060405160405180910390a35080600760006101000a81548173ffffffffffffffffffffffffffffffffffffffff021916908373ffffffffffffffffffffffffffffffffffffffff16021790555050505084600d60006101000a81548173ffffffffffffffffffffffffffffffffffffffff021916908373ffffffffffffffffffffffffffffffffffffffff160217905550806013819055506013546013546013544262000276919062000ea2565b62000282919062000f2b565b6200028e919062000e0d565b60128190555081600f81905550620002f184600081518110620002da577f4e487b7100000000000000000000000000000000000000000000000000000000600052603260045260246000fd5b60200260200101516000806200033560201b60201c565b6000836fffffffffffffffffffffffffffffffff16111562000322576200032183856001620003c160201b60201c565b5b5050505050620013e0565b600033905090565b60006200034983836200065760201b60201c565b90506200035d30826200069760201b60201c565b604051806020016040528085815250600e600083815260200190815260200160002060008201518160000190805190602001906200039d929190620009d0565b5090505060116000815480929190620003b690620011d7565b919050555050505050565b601060009054906101000a90046fffffffffffffffffffffffffffffffff166fffffffffffffffffffffffffffffffff16836fffffffffffffffffffffffffffffffff16116200041057600080fd5b600083600f0b136200042157600080fd5b60066002601060009054906101000a90046fffffffffffffffffffffffffffffffff16856200045191906200101a565b856001601060009054906101000a90046fffffffffffffffffffffffffffffffff166200047f919062000dc0565b6200048b919062000dc0565b62000497919062000eda565b620004a3919062000e6a565b620004af919062000eda565b6fffffffffffffffffffffffffffffffff16818351620004d0919062001055565b14620004db57600080fd5b600083620004e99062001225565b90505b83600f0b81600f0b136200061857600084620005089062001225565b90505b84600f0b81600f0b13620006015760006200052d83836200087d60201b60201c565b9050601060009054906101000a90046fffffffffffffffffffffffffffffffff166fffffffffffffffffffffffffffffffff1681118015620005815750856fffffffffffffffffffffffffffffffff168111155b15620005ea57620005e98585806200059990620011d7565b965081518110620005d3577f4e487b7100000000000000000000000000000000000000000000000000000000600052603260045260246000fd5b602002602001015184846200033560201b60201c565b5b508080620005f89062001199565b9150506200050b565b5080806200060f9062001199565b915050620004ec565b5082601060006101000a8154816fffffffffffffffffffffffffffffffff02191690836fffffffffffffffffffffffffffffffff160217905550505050565b6000816fffffffffffffffffffffffffffffffff166080846fffffffffffffffffffffffffffffffff16901b6200068f919062000e0d565b905092915050565b600073ffffffffffffffffffffffffffffffffffffffff168273ffffffffffffffffffffffffffffffffffffffff1614156200070a576040517f08c379a0000000000000000000000000000000000000000000000000000000008152600401620007019062000cff565b60405180910390fd5b6200071b816200095f60201b60201c565b156200075e576040517f08c379a0000000000000000000000000000000000000000000000000000000008152600401620007559062000cdd565b60405180910390fd5b6200077260008383620009cb60201b60201c565b6001600360008473ffffffffffffffffffffffffffffffffffffffff1673ffffffffffffffffffffffffffffffffffffffff1681526020019081526020016000206000828254620007c4919062000e0d565b92505081905550816002600083815260200190815260200160002060006101000a81548173ffffffffffffffffffffffffffffffffffffffff021916908373ffffffffffffffffffffffffffffffffffffffff160217905550808273ffffffffffffffffffffffffffffffffffffffff16600073ffffffffffffffffffffffffffffffffffffffff167fddf252ad1be2c89b69c2b068fc378daa952ba7f163c4a11628f55a4df523b3ef60405160405180910390a45050565b60008082846200088d9062001225565b62000899919062000f8c565b9050600084600f0b13620008b95783620008b39062001225565b620008bb565b835b9350600081600f0b13620008db5780620008d59062001225565b620008dd565b805b9050600083600f0b13620008fd5782620008f79062001225565b620008ff565b825b925080600f0b84600f0b136200092c5782600f0b81600f0b1362000924578262000926565b805b62000944565b82600f0b84600f0b1362000941578262000943565b835b5b6fffffffffffffffffffffffffffffffff1691505092915050565b60008073ffffffffffffffffffffffffffffffffffffffff166002600084815260200190815260200160002060009054906101000a900473ffffffffffffffffffffffffffffffffffffffff1673ffffffffffffffffffffffffffffffffffffffff1614159050919050565b505050565b828054620009de906200112d565b90600052602060002090601f01602090048101928262000a02576000855562000a4e565b82601f1062000a1d57805160ff191683800117855562000a4e565b8280016001018555821562000a4e579182015b8281111562000a4d57825182559160200191906001019062000a30565b5b50905062000a5d919062000a61565b5090565b5b8082111562000a7c57600081600090555060010162000a62565b5090565b600062000a9762000a918462000d4a565b62000d21565b9050808382526020820190508285602086028201111562000ab757600080fd5b60005b8581101562000b0657815167ffffffffffffffff81111562000adb57600080fd5b80860162000aea898262000b99565b8552602085019450602084019350505060018101905062000aba565b5050509392505050565b600062000b2762000b218462000d79565b62000d21565b90508281526020810184848401111562000b4057600080fd5b62000b4d848285620010f7565b509392505050565b60008151905062000b668162001392565b92915050565b600082601f83011262000b7e57600080fd5b815162000b9084826020860162000a80565b91505092915050565b600082601f83011262000bab57600080fd5b815162000bbd84826020860162000b10565b91505092915050565b60008151905062000bd781620013ac565b92915050565b60008151905062000bee81620013c6565b92915050565b600080600080600060a0868803121562000c0d57600080fd5b600062000c1d8882890162000b55565b955050602086015167ffffffffffffffff81111562000c3b57600080fd5b62000c498882890162000b6c565b945050604062000c5c8882890162000bc6565b935050606062000c6f8882890162000bdd565b925050608062000c828882890162000bdd565b9150509295509295909350565b600062000c9e601c8362000daf565b915062000cab8262001340565b602082019050919050565b600062000cc560208362000daf565b915062000cd28262001369565b602082019050919050565b6000602082019050818103600083015262000cf88162000c8f565b9050919050565b6000602082019050818103600083015262000d1a8162000cb6565b9050919050565b600062000d2d62000d40565b905062000d3b828262001163565b919050565b6000604051905090565b600067ffffffffffffffff82111562000d685762000d6762001300565b5b602082029050602081019050919050565b600067ffffffffffffffff82111562000d975762000d9662001300565b5b62000da2826200132f565b9050602081019050919050565b600082825260208201905092915050565b600062000dcd82620010b1565b915062000dda83620010b1565b9250826fffffffffffffffffffffffffffffffff0382111562000e025762000e0162001273565b5b828201905092915050565b600062000e1a82620010ed565b915062000e2783620010ed565b9250827fffffffffffffffffffffffffffffffffffffffffffffffffffffffffffffffff0382111562000e5f5762000e5e62001273565b5b828201905092915050565b600062000e7782620010b1565b915062000e8483620010b1565b92508262000e975762000e96620012a2565b5b828204905092915050565b600062000eaf82620010ed565b915062000ebc83620010ed565b92508262000ecf5762000ece620012a2565b5b828204905092915050565b600062000ee782620010b1565b915062000ef483620010b1565b9250816fffffffffffffffffffffffffffffffff048311821515161562000f205762000f1f62001273565b5b828202905092915050565b600062000f3882620010ed565b915062000f4583620010ed565b9250817fffffffffffffffffffffffffffffffffffffffffffffffffffffffffffffffff048311821515161562000f815762000f8062001273565b5b828202905092915050565b600062000f9982620010a4565b915062000fa683620010a4565b9250827fffffffffffffffffffffffffffffffff800000000000000000000000000000000182126000841215161562000fe45762000fe362001273565b5b826f7fffffffffffffffffffffffffffffff0182136000841216156200100f576200100e62001273565b5b828203905092915050565b60006200102782620010b1565b91506200103483620010b1565b9250828210156200104a576200104962001273565b5b828203905092915050565b60006200106282620010ed565b91506200106f83620010ed565b92508282101562001085576200108462001273565b5b828203905092915050565b60006200109d82620010cd565b9050919050565b600081600f0b9050919050565b60006fffffffffffffffffffffffffffffffff82169050919050565b600073ffffffffffffffffffffffffffffffffffffffff82169050919050565b6000819050919050565b60005b8381101562001117578082015181840152602081019050620010fa565b8381111562001127576000848401525b50505050565b600060028204905060018216806200114657607f821691505b602082108114156200115d576200115c620012d1565b5b50919050565b6200116e826200132f565b810181811067ffffffffffffffff8211171562001190576200118f62001300565b5b80604052505050565b6000620011a682620010a4565b91506f7fffffffffffffffffffffffffffffff821415620011cc57620011cb62001273565b5b600182019050919050565b6000620011e482620010ed565b91507fffffffffffffffffffffffffffffffffffffffffffffffffffffffffffffffff8214156200121a576200121962001273565b5b600182019050919050565b60006200123282620010a4565b91507fffffffffffffffffffffffffffffffff8000000000000000000000000000000082141562001268576200126762001273565b5b816000039050919050565b7f4e487b7100000000000000000000000000000000000000000000000000000000600052601160045260246000fd5b7f4e487b7100000000000000000000000000000000000000000000000000000000600052601260045260246000fd5b7f4e487b7100000000000000000000000000000000000000000000000000000000600052602260045260246000fd5b7f4e487b7100000000000000000000000000000000000000000000000000000000600052604160045260246000fd5b6000601f19601f8301169050919050565b7f4552433732313a20746f6b656e20616c7265616479206d696e74656400000000600082015250565b7f4552433732313a206d696e7420746f20746865207a65726f2061646472657373600082015250565b6200139d8162001090565b8114620013a957600080fd5b50565b620013b781620010b1565b8114620013c357600080fd5b50565b620013d181620010ed565b8114620013dd57600080fd5b50565b61664c80620013f06000396000f3fe6080604052600436106102ae5760003560e01c8063881d43d511610175578063c13159bc116100dc578063e985e9c511610095578063f2fde38b1161006f578063f2fde38b14610bb4578063f3e414f814610bdd578063f92c45b714610c06578063fcde263814610c31576102ae565b8063e985e9c514610b0f578063eb5671d814610b4c578063ee36d4ab14610b77576102ae565b8063c13159bc146109c5578063c87b56dd14610a02578063cce95e5614610a3f578063d19893cf14610a7c578063d64b2f6214610aa7578063e38c266014610ad2576102ae565b8063a22cb4651161012e578063a22cb465146108b2578063a4406bcd146108db578063a547d2e114610918578063aaafbd0014610955578063b88d4fde14610971578063b994d2781461099a576102ae565b8063881d43d51461077a57806389525d7e146107b85780638da5cb5b146107f657806395d89b41146108215780639645337a1461084c578063a1db978214610875576102ae565b806344ca14951161021957806370a08231116101d257806370a0823114610644578063715018a6146106815780637a35110f146106985780637b993679146106d5578063853828b614610712578063857abbd41461073d576102ae565b806344ca14951461050b5780634789dd64146105275780636352211e14610564578063638f1d2a146105a157806365595153146105de578063657d128a14610607576102ae565b80632e1a7d4d1161026b5780632e1a7d4d146103e757806333df66da146104245780633536e6141461044f578063382c2a221461047a578063427a3bd3146104b757806342842e0e146104e2576102ae565b806301ffc9a7146102b357806306fdde03146102f0578063081812fc1461031b578063095ea7b314610358578063150b7a021461038157806323b872dd146103be575b600080fd5b3480156102bf57600080fd5b506102da60048036038101906102d59190614d81565b610c6e565b6040516102e7919061563c565b60405180910390f35b3480156102fc57600080fd5b50610305610d50565b604051610312919061569b565b60405180910390f35b34801561032757600080fd5b50610342600480360381019061033d9190614e74565b610de2565b60405161034f91906154e6565b60405180910390f35b34801561036457600080fd5b5061037f600480360381019061037a9190614d1c565b610e67565b005b34801561038d57600080fd5b506103a860048036038101906103a39190614be5565b610f7f565b6040516103b59190615657565b60405180910390f35b3480156103ca57600080fd5b506103e560048036038101906103e09190614b96565b610f94565b005b3480156103f357600080fd5b5061040e60048036038101906104099190614e74565b610ff4565b60405161041b91906158bd565b60405180910390f35b34801561043057600080fd5b50610439611082565b60405161044691906155d6565b60405180910390f35b34801561045b57600080fd5b50610464611196565b60405161047191906158bd565b60405180910390f35b34801561048657600080fd5b506104a1600480360381019061049c9190614b31565b61119c565b6040516104ae919061561a565b60405180910390f35b3480156104c357600080fd5b506104cc6114a9565b6040516104d9919061561a565b60405180910390f35b3480156104ee57600080fd5b5061050960048036038101906105049190614b96565b61176b565b005b61052560048036038101906105209190614ec6565b61178b565b005b34801561053357600080fd5b5061054e60048036038101906105499190614dfc565b611799565b60405161055b919061563c565b60405180910390f35b34801561057057600080fd5b5061058b60048036038101906105869190614e74565b611845565b60405161059891906154e6565b60405180910390f35b3480156105ad57600080fd5b506105c860048036038101906105c39190614e74565b6118f7565b6040516105d591906158bd565b60405180910390f35b3480156105ea57600080fd5b5061060560048036038101906106009190614f3e565b61191c565b005b34801561061357600080fd5b5061062e60048036038101906106299190614e38565b611994565b60405161063b91906158bd565b60405180910390f35b34801561065057600080fd5b5061066b60048036038101906106669190614b31565b611a60565b60405161067891906158bd565b60405180910390f35b34801561068d57600080fd5b50610696611b18565b005b3480156106a457600080fd5b506106bf60048036038101906106ba9190614f02565b611c55565b6040516106cc919061561a565b60405180910390f35b3480156106e157600080fd5b506106fc60048036038101906106f79190614e74565b611c69565b604051610709919061569b565b60405180910390f35b34801561071e57600080fd5b50610727611d0f565b60405161073491906158bd565b60405180910390f35b34801561074957600080fd5b50610764600480360381019061075f9190614b31565b611ea9565b60405161077191906158bd565b60405180910390f35b34801561078657600080fd5b506107a1600480360381019061079c9190614e74565b612051565b6040516107af929190615672565b60405180910390f35b3480156107c457600080fd5b506107df60048036038101906107da9190614e74565b612063565b6040516107ed9291906158d8565b60405180910390f35b34801561080257600080fd5b5061080b612118565b60405161081891906154e6565b60405180910390f35b34801561082d57600080fd5b50610836612142565b604051610843919061569b565b60405180910390f35b34801561085857600080fd5b50610873600480360381019061086e9190614e74565b6121d4565b005b34801561088157600080fd5b5061089c60048036038101906108979190614d1c565b612257565b6040516108a991906158bd565b60405180910390f35b3480156108be57600080fd5b506108d960048036038101906108d49190614ce0565b6122e7565b005b3480156108e757600080fd5b5061090260048036038101906108fd9190614f92565b612468565b60405161090f91906158bd565b60405180910390f35b34801561092457600080fd5b5061093f600480360381019061093a9190614e38565b612480565b60405161094c91906158bd565b60405180910390f35b61096f600480360381019061096a9190614e74565b6124be565b005b34801561097d57600080fd5b5061099860048036038101906109939190614c65565b6124d2565b005b3480156109a657600080fd5b506109af612534565b6040516109bc91906155f8565b60405180910390f35b3480156109d157600080fd5b506109ec60048036038101906109e79190614f92565b612648565b6040516109f991906158bd565b60405180910390f35b348015610a0e57600080fd5b50610a296004803603810190610a249190614e74565b612660565b604051610a36919061569b565b60405180910390f35b348015610a4b57600080fd5b50610a666004803603810190610a619190614f92565b612707565b604051610a7391906158bd565b60405180910390f35b348015610a8857600080fd5b50610a9161271e565b604051610a9e91906158bd565b60405180910390f35b348015610ab357600080fd5b50610abc612724565b604051610ac991906158bd565b60405180910390f35b348015610ade57600080fd5b50610af96004803603810190610af49190614dd3565b6127ff565b604051610b0691906158bd565b60405180910390f35b348015610b1b57600080fd5b50610b366004803603810190610b319190614b5a565b61286b565b604051610b43919061563c565b60405180910390f35b348015610b5857600080fd5b50610b616128ff565b604051610b6e919061561a565b60405180910390f35b348015610b8357600080fd5b50610b9e6004803603810190610b999190614f92565b612910565b604051610bab91906158bd565b60405180910390f35b348015610bc057600080fd5b50610bdb6004803603810190610bd69190614b31565b612927565b005b348015610be957600080fd5b50610c046004803603810190610bff9190614d1c565b612ad3565b005b348015610c1257600080fd5b50610c1b612b5d565b604051610c2891906158bd565b60405180910390f35b348015610c3d57600080fd5b50610c586004803603810190610c539190614ce0565b612b67565b604051610c65919061561a565b60405180910390f35b60007f80ac58cd000000000000000000000000000000000000000000000000000000007bffffffffffffffffffffffffffffffffffffffffffffffffffffffff1916827bffffffffffffffffffffffffffffffffffffffffffffffffffffffff19161480610d3957507f5b5e139f000000000000000000000000000000000000000000000000000000007bffffffffffffffffffffffffffffffffffffffffffffffffffffffff1916827bffffffffffffffffffffffffffffffffffffffffffffffffffffffff1916145b80610d495750610d4882612b7b565b5b9050919050565b606060008054610d5f90615ebb565b80601f0160208091040260200160405190810160405280929190818152602001828054610d8b90615ebb565b8015610dd85780601f10610dad57610100808354040283529160200191610dd8565b820191906000526020600020905b815481529060010190602001808311610dbb57829003601f168201915b5050505050905090565b6000610ded82612be5565b610e2c576040517f08c379a0000000000000000000000000000000000000000000000000000000008152600401610e23906157fd565b60405180910390fd5b6004600083815260200190815260200160002060009054906101000a900473ffffffffffffffffffffffffffffffffffffffff169050919050565b6000610e7282611845565b90508073ffffffffffffffffffffffffffffffffffffffff168373ffffffffffffffffffffffffffffffffffffffff161415610ee3576040517f08c379a0000000000000000000000000000000000000000000000000000000008152600401610eda9061587d565b60405180910390fd5b8073ffffffffffffffffffffffffffffffffffffffff16610f02612c51565b73ffffffffffffffffffffffffffffffffffffffff161480610f315750610f3081610f2b612c51565b61286b565b5b610f70576040517f08c379a0000000000000000000000000000000000000000000000000000000008152600401610f679061579d565b60405180910390fd5b610f7a8383612c59565b505050565b600063150b7a0260e01b905095945050505050565b610fa5610f9f612c51565b82612d12565b610fe4576040517f08c379a0000000000000000000000000000000000000000000000000000000008152600401610fdb9061589d565b60405180910390fd5b610fef838383612df0565b505050565b6000610ffe612c51565b73ffffffffffffffffffffffffffffffffffffffff1661101c612118565b73ffffffffffffffffffffffffffffffffffffffff1614611072576040517f08c379a00000000000000000000000000000000000000000000000000000000081526004016110699061581d565b60405180910390fd5b61107b8261304c565b9050919050565b60606000600167ffffffffffffffff8111156110c7577f4e487b7100000000000000000000000000000000000000000000000000000000600052604160045260246000fd5b6040519080825280602002602001820160405280156110f55781602001602082028036833780820191505090505b509050600d60009054906101000a900473ffffffffffffffffffffffffffffffffffffffff1681600081518110611155577f4e487b7100000000000000000000000000000000000000000000000000000000600052603260045260246000fd5b602002602001019073ffffffffffffffffffffffffffffffffffffffff16908173ffffffffffffffffffffffffffffffffffffffff16815250508091505090565b60125481565b606080600073ffffffffffffffffffffffffffffffffffffffff168373ffffffffffffffffffffffffffffffffffffffff16141561124c5760115467ffffffffffffffff811115611216577f4e487b7100000000000000000000000000000000000000000000000000000000600052604160045260246000fd5b6040519080825280602002602001820160405280156112445781602001602082028036833780820191505090505b5090506112c6565b61125583611a60565b67ffffffffffffffff811115611294577f4e487b7100000000000000000000000000000000000000000000000000000000600052604160045260246000fd5b6040519080825280602002602001820160405280156112c25781602001602082028036833780820191505090505b5090505b600080601060009054906101000a90046fffffffffffffffffffffffffffffffff166112f190615fd1565b90505b601060009054906101000a90046fffffffffffffffffffffffffffffffff16600f0b81600f0b131580156113285750825182105b1561149e576000601060009054906101000a90046fffffffffffffffffffffffffffffffff1661135790615fd1565b90505b601060009054906101000a90046fffffffffffffffffffffffffffffffff16600f0b81600f0b1315801561138e5750835183145b1561148a57600061139f8383612480565b90506113aa81612be5565b1561147657600073ffffffffffffffffffffffffffffffffffffffff168773ffffffffffffffffffffffffffffffffffffffff16148061141d57506113ee81611845565b73ffffffffffffffffffffffffffffffffffffffff168773ffffffffffffffffffffffffffffffffffffffff16145b15611475578085858061142f90615f57565b965081518110611468577f4e487b7100000000000000000000000000000000000000000000000000000000600052603260045260246000fd5b6020026020010181815250505b5b50808061148290615f1e565b91505061135a565b50808061149690615f1e565b9150506112f4565b508192505050919050565b606060006114b63061119c565b90506000805b825181101561158f57600073ffffffffffffffffffffffffffffffffffffffff16600c600085848151811061151a577f4e487b7100000000000000000000000000000000000000000000000000000000600052603260045260246000fd5b6020026020010151815260200190815260200160002060009054906101000a900473ffffffffffffffffffffffffffffffffffffffff1673ffffffffffffffffffffffffffffffffffffffff16141561157c57818061157890615f57565b9250505b808061158790615f57565b9150506114bc565b5060008167ffffffffffffffff8111156115d2577f4e487b7100000000000000000000000000000000000000000000000000000000600052604160045260246000fd5b6040519080825280602002602001820160405280156116005781602001602082028036833780820191505090505b5090506000915060005b835181101561176157600073ffffffffffffffffffffffffffffffffffffffff16600c6000868481518110611668577f4e487b7100000000000000000000000000000000000000000000000000000000600052603260045260246000fd5b6020026020010151815260200190815260200160002060009054906101000a900473ffffffffffffffffffffffffffffffffffffffff1673ffffffffffffffffffffffffffffffffffffffff16141561174e578381815181106116f4577f4e487b7100000000000000000000000000000000000000000000000000000000600052603260045260246000fd5b602002602001015182848061170890615f57565b955081518110611741577f4e487b7100000000000000000000000000000000000000000000000000000000600052603260045260246000fd5b6020026020010181815250505b808061175990615f57565b91505061160a565b5080935050505090565b611786838383604051806020016040528060008152506124d2565b505050565b61179582826130b3565b5050565b60003073ffffffffffffffffffffffffffffffffffffffff168373ffffffffffffffffffffffffffffffffffffffff16141561183a57600073ffffffffffffffffffffffffffffffffffffffff16600c600084815260200190815260200160002060009054906101000a900473ffffffffffffffffffffffffffffffffffffffff1673ffffffffffffffffffffffffffffffffffffffff161415905061183f565b600090505b92915050565b6000806002600084815260200190815260200160002060009054906101000a900473ffffffffffffffffffffffffffffffffffffffff169050600073ffffffffffffffffffffffffffffffffffffffff168173ffffffffffffffffffffffffffffffffffffffff1614156118ee576040517f08c379a00000000000000000000000000000000000000000000000000000000081526004016118e5906157dd565b60405180910390fd5b80915050919050565b600080600061190584612051565b915091506119138282611994565b92505050919050565b8161192681611845565b73ffffffffffffffffffffffffffffffffffffffff16611944612c51565b73ffffffffffffffffffffffffffffffffffffffff161461196457600080fd5b81600e6000858152602001908152602001600020600001908051906020019061198e9291906148a2565b50505050565b60008082846119a290615fd1565b6119ac9190615cc2565b9050600084600f0b136119c857836119c390615fd1565b6119ca565b835b9350600081600f0b136119e657806119e190615fd1565b6119e8565b805b9050600083600f0b13611a0457826119ff90615fd1565b611a06565b825b925080600f0b84600f0b13611a2f5782600f0b81600f0b13611a285782611a2a565b805b611a45565b82600f0b84600f0b13611a425782611a44565b835b5b6fffffffffffffffffffffffffffffffff1691505092915050565b60008073ffffffffffffffffffffffffffffffffffffffff168273ffffffffffffffffffffffffffffffffffffffff161415611ad1576040517f08c379a0000000000000000000000000000000000000000000000000000000008152600401611ac8906157bd565b60405180910390fd5b600360008373ffffffffffffffffffffffffffffffffffffffff1673ffffffffffffffffffffffffffffffffffffffff168152602001908152602001600020549050919050565b611b20612c51565b73ffffffffffffffffffffffffffffffffffffffff16611b3e612118565b73ffffffffffffffffffffffffffffffffffffffff1614611b94576040517f08c379a0000000000000000000000000000000000000000000000000000000008152600401611b8b9061581d565b60405180910390fd5b600073ffffffffffffffffffffffffffffffffffffffff16600660009054906101000a900473ffffffffffffffffffffffffffffffffffffffff1673ffffffffffffffffffffffffffffffffffffffff167f8be0079c531659141344cd1fd0a4f28419497f9722a3daafe3b4186f6b6457e060405160405180910390a36000600660006101000a81548173ffffffffffffffffffffffffffffffffffffffff021916908373ffffffffffffffffffffffffffffffffffffffff160217905550565b6060611c61838361326c565b905092915050565b600e602052806000526040600020600091509050806000018054611c8c90615ebb565b80601f0160208091040260200160405190810160405280929190818152602001828054611cb890615ebb565b8015611d055780601f10611cda57610100808354040283529160200191611d05565b820191906000526020600020905b815481529060010190602001808311611ce857829003601f168201915b5050505050905081565b6000611d19612c51565b73ffffffffffffffffffffffffffffffffffffffff16611d37612118565b73ffffffffffffffffffffffffffffffffffffffff1614611d8d576040517f08c379a0000000000000000000000000000000000000000000000000000000008152600401611d849061581d565b60405180910390fd5b6000611d97612534565b905060005b8151811015611e7957818181518110611dde577f4e487b7100000000000000000000000000000000000000000000000000000000600052603260045260246000fd5b602002602001015173ffffffffffffffffffffffffffffffffffffffff1663853828b66040518163ffffffff1660e01b8152600401602060405180830381600087803b158015611e2d57600080fd5b505af1158015611e41573d6000803e3d6000fd5b505050506040513d601f19601f82011682018060405250810190611e659190614e9d565b508080611e7190615f57565b915050611d9c565b50611ea37fffffffffffffffffffffffffffffffffffffffffffffffffffffffffffffffff61304c565b91505090565b6000611eb3612c51565b73ffffffffffffffffffffffffffffffffffffffff16611ed1612118565b73ffffffffffffffffffffffffffffffffffffffff1614611f27576040517f08c379a0000000000000000000000000000000000000000000000000000000008152600401611f1e9061581d565b60405180910390fd5b6000611f31611082565b905060005b815181101561201e57818181518110611f78577f4e487b7100000000000000000000000000000000000000000000000000000000600052603260045260246000fd5b602002602001015173ffffffffffffffffffffffffffffffffffffffff1663857abbd4856040518263ffffffff1660e01b8152600401611fb891906154e6565b602060405180830381600087803b158015611fd257600080fd5b505af1158015611fe6573d6000803e3d6000fd5b505050506040513d601f19601f8201168201806040525081019061200a9190614e9d565b50808061201690615f57565b915050611f36565b50612049837fffffffffffffffffffffffffffffffffffffffffffffffffffffffffffffffff61351b565b915050919050565b600080608083901c8391509150915091565b6000806000612071846118f7565b9050601060009054906101000a90046fffffffffffffffffffffffffffffffff166fffffffffffffffffffffffffffffffff168111156120b457600090506120f3565b80601060009054906101000a90046fffffffffffffffffffffffffffffffff166fffffffffffffffffffffffffffffffff166120f09190615d46565b90505b808160026121019190615b4a565b600f5461210e9190615c68565b9250925050915091565b6000600660009054906101000a900473ffffffffffffffffffffffffffffffffffffffff16905090565b60606001805461215190615ebb565b80601f016020809104026020016040519081016040528092919081815260200182805461217d90615ebb565b80156121ca5780601f1061219f576101008083540402835291602001916121ca565b820191906000526020600020905b8154815290600101906020018083116121ad57829003601f168201915b5050505050905090565b6121dc612c51565b73ffffffffffffffffffffffffffffffffffffffff166009600083815260200190815260200160002060000160019054906101000a900473ffffffffffffffffffffffffffffffffffffffff1673ffffffffffffffffffffffffffffffffffffffff161461224957600080fd5b61225481600161371c565b50565b6000612261612c51565b73ffffffffffffffffffffffffffffffffffffffff1661227f612118565b73ffffffffffffffffffffffffffffffffffffffff16146122d5576040517f08c379a00000000000000000000000000000000000000000000000000000000081526004016122cc9061581d565b60405180910390fd5b6122df838361351b565b905092915050565b6122ef612c51565b73ffffffffffffffffffffffffffffffffffffffff168273ffffffffffffffffffffffffffffffffffffffff16141561235d576040517f08c379a00000000000000000000000000000000000000000000000000000000081526004016123549061571d565b60405180910390fd5b806005600061236a612c51565b73ffffffffffffffffffffffffffffffffffffffff1673ffffffffffffffffffffffffffffffffffffffff16815260200190815260200160002060008473ffffffffffffffffffffffffffffffffffffffff1673ffffffffffffffffffffffffffffffffffffffff16815260200190815260200160002060006101000a81548160ff0219169083151502179055508173ffffffffffffffffffffffffffffffffffffffff16612417612c51565b73ffffffffffffffffffffffffffffffffffffffff167f17307eab39ab6107e8899845ad3d59bd9653f200f220920489ca2b5937696c318360405161245c919061563c565b60405180910390a35050565b6000612478600160008486613a5d565b905092915050565b6000816fffffffffffffffffffffffffffffffff166080846fffffffffffffffffffffffffffffffff16901b6124b69190615a70565b905092915050565b6124cf816124ca612c51565b6130b3565b50565b6124e36124dd612c51565b83612d12565b612522576040517f08c379a00000000000000000000000000000000000000000000000000000000081526004016125199061589d565b60405180910390fd5b61252e84848484613d68565b50505050565b60606000600167ffffffffffffffff811115612579577f4e487b7100000000000000000000000000000000000000000000000000000000600052604160045260246000fd5b6040519080825280602002602001820160405280156125a75781602001602082028036833780820191505090505b509050600d60009054906101000a900473ffffffffffffffffffffffffffffffffffffffff1681600081518110612607577f4e487b7100000000000000000000000000000000000000000000000000000000600052603260045260246000fd5b602002602001019073ffffffffffffffffffffffffffffffffffffffff16908173ffffffffffffffffffffffffffffffffffffffff16815250508091505090565b6000612658600060018486613a5d565b905092915050565b606061266b82612be5565b6126aa576040517f08c379a00000000000000000000000000000000000000000000000000000000081526004016126a19061585d565b60405180910390fd5b60006126b4613dc4565b905060008151116126d457604051806020016040528060008152506126ff565b806126de84613ddb565b6040516020016126ef9291906154ad565b6040516020818303038152906040525b915050919050565b60006127166001808486613a5d565b905092915050565b60135481565b6000601254421161273457600080fd5b601354601260008282546127489190615a70565b92505081905550600d60009054906101000a900473ffffffffffffffffffffffffffffffffffffffff1673ffffffffffffffffffffffffffffffffffffffff166340c10f19612795612c51565b600a6040518363ffffffff1660e01b81526004016127b4929190615584565b600060405180830381600087803b1580156127ce57600080fd5b505af11580156127e2573d6000803e3d6000fd5b50505050600a6127f0613f88565b6127fa9190615a70565b905090565b60008173ffffffffffffffffffffffffffffffffffffffff16600760009054906101000a900473ffffffffffffffffffffffffffffffffffffffff1673ffffffffffffffffffffffffffffffffffffffff16141561286157600b549050612866565b600090505b919050565b6000600560008473ffffffffffffffffffffffffffffffffffffffff1673ffffffffffffffffffffffffffffffffffffffff16815260200190815260200160002060008373ffffffffffffffffffffffffffffffffffffffff1673ffffffffffffffffffffffffffffffffffffffff16815260200190815260200160002060009054906101000a900460ff16905092915050565b606061290b600061119c565b905090565b600061291f6000808486613a5d565b905092915050565b61292f612c51565b73ffffffffffffffffffffffffffffffffffffffff1661294d612118565b73ffffffffffffffffffffffffffffffffffffffff16146129a3576040517f08c379a000000000000000000000000000000000000000000000000000000000815260040161299a9061581d565b60405180910390fd5b600073ffffffffffffffffffffffffffffffffffffffff168173ffffffffffffffffffffffffffffffffffffffff161415612a13576040517f08c379a0000000000000000000000000000000000000000000000000000000008152600401612a0a906156dd565b60405180910390fd5b8073ffffffffffffffffffffffffffffffffffffffff16600660009054906101000a900473ffffffffffffffffffffffffffffffffffffffff1673ffffffffffffffffffffffffffffffffffffffff167f8be0079c531659141344cd1fd0a4f28419497f9722a3daafe3b4186f6b6457e060405160405180910390a380600660006101000a81548173ffffffffffffffffffffffffffffffffffffffff021916908373ffffffffffffffffffffffffffffffffffffffff16021790555050565b612adb612c51565b73ffffffffffffffffffffffffffffffffffffffff16612af9612118565b73ffffffffffffffffffffffffffffffffffffffff1614612b4f576040517f08c379a0000000000000000000000000000000000000000000000000000000008152600401612b469061581d565b60405180910390fd5b612b598282614184565b5050565b6000600a54905090565b6060612b7383836142bc565b905092915050565b60007f01ffc9a7000000000000000000000000000000000000000000000000000000007bffffffffffffffffffffffffffffffffffffffffffffffffffffffff1916827bffffffffffffffffffffffffffffffffffffffffffffffffffffffff1916149050919050565b60008073ffffffffffffffffffffffffffffffffffffffff166002600084815260200190815260200160002060009054906101000a900473ffffffffffffffffffffffffffffffffffffffff1673ffffffffffffffffffffffffffffffffffffffff1614159050919050565b600033905090565b816004600083815260200190815260200160002060006101000a81548173ffffffffffffffffffffffffffffffffffffffff021916908373ffffffffffffffffffffffffffffffffffffffff160217905550808273ffffffffffffffffffffffffffffffffffffffff16612ccc83611845565b73ffffffffffffffffffffffffffffffffffffffff167f8c5be1e5ebec7d5bd14f71427d1e84f3dd0314c0f7b2291e5b200ac8c7c3b92560405160405180910390a45050565b6000612d1d82612be5565b612d5c576040517f08c379a0000000000000000000000000000000000000000000000000000000008152600401612d539061577d565b60405180910390fd5b6000612d6783611845565b90508073ffffffffffffffffffffffffffffffffffffffff168473ffffffffffffffffffffffffffffffffffffffff161480612dd657508373ffffffffffffffffffffffffffffffffffffffff16612dbe84610de2565b73ffffffffffffffffffffffffffffffffffffffff16145b80612de75750612de6818561286b565b5b91505092915050565b8273ffffffffffffffffffffffffffffffffffffffff16612e1082611845565b73ffffffffffffffffffffffffffffffffffffffff1614612e66576040517f08c379a0000000000000000000000000000000000000000000000000000000008152600401612e5d9061583d565b60405180910390fd5b600073ffffffffffffffffffffffffffffffffffffffff168273ffffffffffffffffffffffffffffffffffffffff161415612ed6576040517f08c379a0000000000000000000000000000000000000000000000000000000008152600401612ecd906156fd565b60405180910390fd5b612ee183838361455f565b612eec600082612c59565b6001600360008573ffffffffffffffffffffffffffffffffffffffff1673ffffffffffffffffffffffffffffffffffffffff1681526020019081526020016000206000828254612f3c9190615d46565b925050819055506001600360008473ffffffffffffffffffffffffffffffffffffffff1673ffffffffffffffffffffffffffffffffffffffff1681526020019081526020016000206000828254612f939190615a70565b92505081905550816002600083815260200190815260200160002060006101000a81548173ffffffffffffffffffffffffffffffffffffffff021916908373ffffffffffffffffffffffffffffffffffffffff160217905550808273ffffffffffffffffffffffffffffffffffffffff168473ffffffffffffffffffffffffffffffffffffffff167fddf252ad1be2c89b69c2b068fc378daa952ba7f163c4a11628f55a4df523b3ef60405160405180910390a4505050565b600080613057612b5d565b476130629190615d46565b905080831015613070578290505b60008111156130aa576130a981613085612118565b73ffffffffffffffffffffffffffffffffffffffff1661456490919063ffffffff16565b5b80915050919050565b3073ffffffffffffffffffffffffffffffffffffffff166130d383611845565b73ffffffffffffffffffffffffffffffffffffffff16146130f357600080fd5b600073ffffffffffffffffffffffffffffffffffffffff16600c600084815260200190815260200160002060009054906101000a900473ffffffffffffffffffffffffffffffffffffffff1673ffffffffffffffffffffffffffffffffffffffff161461315f57600080fd5b60008061316b84612063565b915091508034101561317c57600080fd5b803411156131c0576131bf81346131939190615d46565b61319b612c51565b73ffffffffffffffffffffffffffffffffffffffff1661456490919063ffffffff16565b5b6131cb30848661176b565b600d60009054906101000a900473ffffffffffffffffffffffffffffffffffffffff1673ffffffffffffffffffffffffffffffffffffffff166340c10f19846001856132179190615a70565b6040518363ffffffff1660e01b81526004016132349291906155ad565b600060405180830381600087803b15801561324e57600080fd5b505af1158015613262573d6000803e3d6000fd5b5050505050505050565b6060600080600190505b60085481101561336157600073ffffffffffffffffffffffffffffffffffffffff166009600083815260200190815260200160002060000160019054906101000a900473ffffffffffffffffffffffffffffffffffffffff1673ffffffffffffffffffffffffffffffffffffffff16141580156133085750846009600083815260200190815260200160002060020154145b801561333a57508315156009600083815260200190815260200160002060000160159054906101000a900460ff161515145b1561334e57818061334a90615f57565b9250505b808061335990615f57565b915050613276565b5060008167ffffffffffffffff8111156133a4577f4e487b7100000000000000000000000000000000000000000000000000000000600052604160045260246000fd5b6040519080825280602002602001820160405280156133d25781602001602082028036833780820191505090505b509050600091506000600190505b60085481101561350f57600073ffffffffffffffffffffffffffffffffffffffff166009600083815260200190815260200160002060000160019054906101000a900473ffffffffffffffffffffffffffffffffffffffff1673ffffffffffffffffffffffffffffffffffffffff16141580156134725750856009600083815260200190815260200160002060020154145b80156134a457508415156009600083815260200190815260200160002060000160159054906101000a900460ff161515145b156134fc57808284806134b690615f57565b9550815181106134ef577f4e487b7100000000000000000000000000000000000000000000000000000000600052603260045260246000fd5b6020026020010181815250505b808061350790615f57565b9150506133e0565b50809250505092915050565b6000613525612c51565b73ffffffffffffffffffffffffffffffffffffffff16613543612118565b73ffffffffffffffffffffffffffffffffffffffff1614613599576040517f08c379a00000000000000000000000000000000000000000000000000000000081526004016135909061581d565b60405180910390fd5b6135b88373ffffffffffffffffffffffffffffffffffffffff16614658565b6135c157600080fd5b600083905060006135d1826127ff565b8273ffffffffffffffffffffffffffffffffffffffff166370a08231306040518263ffffffff1660e01b815260040161360a91906154e6565b60206040518083038186803b15801561362257600080fd5b505afa158015613636573d6000803e3d6000fd5b505050506040513d601f19601f8201168201806040525081019061365a9190614e9d565b6136649190615d46565b905080841015613672578390505b6000811115613711578173ffffffffffffffffffffffffffffffffffffffff1663a9059cbb61369f612118565b836040518363ffffffff1660e01b81526004016136bd9291906155ad565b602060405180830381600087803b1580156136d757600080fd5b505af11580156136eb573d6000803e3d6000fd5b505050506040513d601f19601f8201168201806040525081019061370f9190614d58565b505b809250505092915050565b80156139e4576009600083815260200190815260200160002060000160009054906101000a900460ff1615613803576137b2306009600085815260200190815260200160002060000160019054906101000a900473ffffffffffffffffffffffffffffffffffffffff16600960008681526020019081526020016000206002015460405180602001604052806000815250613d68565b600c60006009600085815260200190815260200160002060020154815260200190815260200160002060006101000a81549073ffffffffffffffffffffffffffffffffffffffff02191690556139e3565b6009600083815260200190815260200160002060000160159054906101000a900460ff161561393d57600760009054906101000a900473ffffffffffffffffffffffffffffffffffffffff1673ffffffffffffffffffffffffffffffffffffffff166333bebb77306009600086815260200190815260200160002060000160019054906101000a900473ffffffffffffffffffffffffffffffffffffffff1660096000878152602001908152602001600020600101546040518463ffffffff1660e01b81526004016138d793929190615501565b600060405180830381600087803b1580156138f157600080fd5b505af1158015613905573d6000803e3d6000fd5b505050506009600083815260200190815260200160002060010154600b60008282546139319190615d46565b925050819055506139e2565b6139b260096000848152602001908152602001600020600101546009600085815260200190815260200160002060000160019054906101000a900473ffffffffffffffffffffffffffffffffffffffff1673ffffffffffffffffffffffffffffffffffffffff1661456490919063ffffffff16565b6009600083815260200190815260200160002060010154600a60008282546139da9190615d46565b925050819055505b5b5b60096000838152602001908152602001600020600080820160006101000a81549060ff02191690556000820160016101000a81549073ffffffffffffffffffffffffffffffffffffffff02191690556000820160156101000a81549060ff02191690556001820160009055600282016000905550505050565b6000808311613a6b57600080fd5b6040518060a001604052808615158152602001613a86612c51565b73ffffffffffffffffffffffffffffffffffffffff1681526020018515158152602001848152602001838152506009600060086000815480929190613aca90615f57565b91905055815260200190815260200160002060008201518160000160006101000a81548160ff02191690831515021790555060208201518160000160016101000a81548173ffffffffffffffffffffffffffffffffffffffff021916908373ffffffffffffffffffffffffffffffffffffffff16021790555060408201518160000160156101000a81548160ff02191690831515021790555060608201518160010155608082015181600201559050508415613c6c57600073ffffffffffffffffffffffffffffffffffffffff16600c600084815260200190815260200160002060009054906101000a900473ffffffffffffffffffffffffffffffffffffffff1673ffffffffffffffffffffffffffffffffffffffff1614613bec57600080fd5b613c0e613bf7612c51565b308460405180602001604052806000815250613d68565b613c16612c51565b600c600084815260200190815260200160002060006101000a81548173ffffffffffffffffffffffffffffffffffffffff021916908373ffffffffffffffffffffffffffffffffffffffff160217905550613d4f565b8315613d2857600760009054906101000a900473ffffffffffffffffffffffffffffffffffffffff1673ffffffffffffffffffffffffffffffffffffffff166333bebb77613cb8612c51565b30866040518463ffffffff1660e01b8152600401613cd893929190615501565b600060405180830381600087803b158015613cf257600080fd5b505af1158015613d06573d6000803e3d6000fd5b5050505082600b6000828254613d1c9190615a70565b92505081905550613d4e565b823414613d3457600080fd5b82600a6000828254613d469190615a70565b925050819055505b5b6001600854613d5e9190615d46565b9050949350505050565b613d73848484612df0565b613d7f8484848461466b565b613dbe576040517f08c379a0000000000000000000000000000000000000000000000000000000008152600401613db5906156bd565b60405180910390fd5b50505050565b606060405180602001604052806000815250905090565b60606000821415613e23576040518060400160405280600181526020017f30000000000000000000000000000000000000000000000000000000000000008152509050613f83565b600082905060005b60008214613e55578080613e3e90615f57565b915050600a82613e4e9190615ac6565b9150613e2b565b60008167ffffffffffffffff811115613e97577f4e487b7100000000000000000000000000000000000000000000000000000000600052604160045260246000fd5b6040519080825280601f01601f191660200182016040528015613ec95781602001600182028036833780820191505090505b5090505b60008514613f7c57600182613ee29190615d46565b9150600a85613ef19190615fa0565b6030613efd9190615a70565b60f81b818381518110613f39577f4e487b7100000000000000000000000000000000000000000000000000000000600052603260045260246000fd5b60200101907effffffffffffffffffffffffffffffffffffffffffffffffffffffffffffff1916908160001a905350600a85613f759190615ac6565b9450613ecd565b8093505050505b919050565b600080600090506000601060009054906101000a90046fffffffffffffffffffffffffffffffff16613fb990615fd1565b90505b601060009054906101000a90046fffffffffffffffffffffffffffffffff16600f0b81600f0b1361417c576000601060009054906101000a90046fffffffffffffffffffffffffffffffff1661401190615fd1565b90505b601060009054906101000a90046fffffffffffffffffffffffffffffffff16600f0b81600f0b1361416857600061404b8383612480565b9050600061405882614802565b9050600073ffffffffffffffffffffffffffffffffffffffff168173ffffffffffffffffffffffffffffffffffffffff161461415357600061409983612063565b509050600d60009054906101000a900473ffffffffffffffffffffffffffffffffffffffff1673ffffffffffffffffffffffffffffffffffffffff166340c10f19836001846140e89190615a70565b6040518363ffffffff1660e01b81526004016141059291906155ad565b600060405180830381600087803b15801561411f57600080fd5b505af1158015614133573d6000803e3d6000fd5b505050506001816141449190615a70565b8661414f9190615a70565b9550505b5050808061416090615f1e565b915050614014565b50808061417490615f1e565b915050613fbc565b508091505090565b61418c612c51565b73ffffffffffffffffffffffffffffffffffffffff166141aa612118565b73ffffffffffffffffffffffffffffffffffffffff1614614200576040517f08c379a00000000000000000000000000000000000000000000000000000000081526004016141f79061581d565b60405180910390fd5b61421f8273ffffffffffffffffffffffffffffffffffffffff16614658565b61422857600080fd5b60008290506142378183611799565b1561424157600080fd5b8073ffffffffffffffffffffffffffffffffffffffff166342842e0e30614266612118565b856040518463ffffffff1660e01b815260040161428593929190615501565b600060405180830381600087803b15801561429f57600080fd5b505af11580156142b3573d6000803e3d6000fd5b50505050505050565b6060600073ffffffffffffffffffffffffffffffffffffffff168373ffffffffffffffffffffffffffffffffffffffff1614156142f857600080fd5b600080600190505b6008548110156143c8578473ffffffffffffffffffffffffffffffffffffffff166009600083815260200190815260200160002060000160019054906101000a900473ffffffffffffffffffffffffffffffffffffffff1673ffffffffffffffffffffffffffffffffffffffff161480156143a157508315156009600083815260200190815260200160002060000160159054906101000a900460ff161515145b156143b55781806143b190615f57565b9250505b80806143c090615f57565b915050614300565b5060008167ffffffffffffffff81111561440b577f4e487b7100000000000000000000000000000000000000000000000000000000600052604160045260246000fd5b6040519080825280602002602001820160405280156144395781602001602082028036833780820191505090505b509050600091506000600190505b600854811015614553578573ffffffffffffffffffffffffffffffffffffffff166009600083815260200190815260200160002060000160019054906101000a900473ffffffffffffffffffffffffffffffffffffffff1673ffffffffffffffffffffffffffffffffffffffff161480156144e857508415156009600083815260200190815260200160002060000160159054906101000a900460ff161515145b1561454057808284806144fa90615f57565b955081518110614533577f4e487b7100000000000000000000000000000000000000000000000000000000600052603260045260246000fd5b6020026020010181815250505b808061454b90615f57565b915050614447565b50809250505092915050565b505050565b804710156145a7576040517f08c379a000000000000000000000000000000000000000000000000000000000815260040161459e9061575d565b60405180910390fd5b60008273ffffffffffffffffffffffffffffffffffffffff16826040516145cd906154d1565b60006040518083038185875af1925050503d806000811461460a576040519150601f19603f3d011682016040523d82523d6000602084013e61460f565b606091505b5050905080614653576040517f08c379a000000000000000000000000000000000000000000000000000000000815260040161464a9061573d565b60405180910390fd5b505050565b600080823b905060008111915050919050565b600061468c8473ffffffffffffffffffffffffffffffffffffffff16614658565b156147f5578373ffffffffffffffffffffffffffffffffffffffff1663150b7a026146b5612c51565b8786866040518563ffffffff1660e01b81526004016146d79493929190615538565b602060405180830381600087803b1580156146f157600080fd5b505af192505050801561472257506040513d601f19601f8201168201806040525081019061471f9190614daa565b60015b6147a5573d8060008114614752576040519150601f19603f3d011682016040523d82523d6000602084013e614757565b606091505b5060008151141561479d576040517f08c379a0000000000000000000000000000000000000000000000000000000008152600401614794906156bd565b60405180910390fd5b805181602001fd5b63150b7a0260e01b7bffffffffffffffffffffffffffffffffffffffffffffffffffffffff1916817bffffffffffffffffffffffffffffffffffffffffffffffffffffffff1916149150506147fa565b600190505b949350505050565b600061480d82612be5565b61481a576000905061489d565b3073ffffffffffffffffffffffffffffffffffffffff1661483a83611845565b73ffffffffffffffffffffffffffffffffffffffff16141561489157600c600083815260200190815260200160002060009054906101000a900473ffffffffffffffffffffffffffffffffffffffff16905061489d565b61489a82611845565b90505b919050565b8280546148ae90615ebb565b90600052602060002090601f0160209004810192826148d05760008555614917565b82601f106148e957805160ff1916838001178555614917565b82800160010185558215614917579182015b828111156149165782518255916020019190600101906148fb565b5b5090506149249190614928565b5090565b5b80821115614941576000816000905550600101614929565b5090565b600061495861495384615926565b615901565b90508281526020810184848401111561497057600080fd5b61497b848285615e79565b509392505050565b600061499661499184615957565b615901565b9050828152602081018484840111156149ae57600080fd5b6149b9848285615e79565b509392505050565b6000813590506149d081616575565b92915050565b6000813590506149e58161658c565b92915050565b6000815190506149fa8161658c565b92915050565b600081359050614a0f816165a3565b92915050565b600081519050614a24816165a3565b92915050565b60008083601f840112614a3c57600080fd5b8235905067ffffffffffffffff811115614a5557600080fd5b602083019150836001820283011115614a6d57600080fd5b9250929050565b600082601f830112614a8557600080fd5b8135614a95848260208601614945565b91505092915050565b600081359050614aad816165ba565b92915050565b600081359050614ac2816165d1565b92915050565b600081359050614ad7816165e8565b92915050565b600082601f830112614aee57600080fd5b8135614afe848260208601614983565b91505092915050565b600081359050614b16816165ff565b92915050565b600081519050614b2b816165ff565b92915050565b600060208284031215614b4357600080fd5b6000614b51848285016149c1565b91505092915050565b60008060408385031215614b6d57600080fd5b6000614b7b858286016149c1565b9250506020614b8c858286016149c1565b9150509250929050565b600080600060608486031215614bab57600080fd5b6000614bb9868287016149c1565b9350506020614bca868287016149c1565b9250506040614bdb86828701614b07565b9150509250925092565b600080600080600060808688031215614bfd57600080fd5b6000614c0b888289016149c1565b9550506020614c1c888289016149c1565b9450506040614c2d88828901614b07565b935050606086013567ffffffffffffffff811115614c4a57600080fd5b614c5688828901614a2a565b92509250509295509295909350565b60008060008060808587031215614c7b57600080fd5b6000614c89878288016149c1565b9450506020614c9a878288016149c1565b9350506040614cab87828801614b07565b925050606085013567ffffffffffffffff811115614cc857600080fd5b614cd487828801614a74565b91505092959194509250565b60008060408385031215614cf357600080fd5b6000614d01858286016149c1565b9250506020614d12858286016149d6565b9150509250929050565b60008060408385031215614d2f57600080fd5b6000614d3d858286016149c1565b9250506020614d4e85828601614b07565b9150509250929050565b600060208284031215614d6a57600080fd5b6000614d78848285016149eb565b91505092915050565b600060208284031215614d9357600080fd5b6000614da184828501614a00565b91505092915050565b600060208284031215614dbc57600080fd5b6000614dca84828501614a15565b91505092915050565b600060208284031215614de557600080fd5b6000614df384828501614a9e565b91505092915050565b60008060408385031215614e0f57600080fd5b6000614e1d85828601614ab3565b9250506020614e2e85828601614b07565b9150509250929050565b60008060408385031215614e4b57600080fd5b6000614e5985828601614ac8565b9250506020614e6a85828601614ac8565b9150509250929050565b600060208284031215614e8657600080fd5b6000614e9484828501614b07565b91505092915050565b600060208284031215614eaf57600080fd5b6000614ebd84828501614b1c565b91505092915050565b60008060408385031215614ed957600080fd5b6000614ee785828601614b07565b9250506020614ef8858286016149c1565b9150509250929050565b60008060408385031215614f1557600080fd5b6000614f2385828601614b07565b9250506020614f34858286016149d6565b9150509250929050565b60008060408385031215614f5157600080fd5b6000614f5f85828601614b07565b925050602083013567ffffffffffffffff811115614f7c57600080fd5b614f8885828601614add565b9150509250929050565b60008060408385031215614fa557600080fd5b6000614fb385828601614b07565b9250506020614fc485828601614b07565b9150509250929050565b6000614fda8383615196565b60208301905092915050565b6000614ff283836151a5565b60208301905092915050565b600061500a838361548f565b60208301905092915050565b61501f81615d7a565b82525050565b6000615030826159b8565b61503a8185615a16565b935061504583615988565b8060005b8381101561507657815161505d8882614fce565b9750615068836159ef565b925050600181019050615049565b5085935050505092915050565b600061508e826159c3565b6150988185615a16565b93506150a383615998565b8060005b838110156150d45781516150bb8882614fe6565b97506150c6836159fc565b9250506001810190506150a7565b5085935050505092915050565b60006150ec826159ce565b6150f68185615a27565b9350615101836159a8565b8060005b838110156151325781516151198882614ffe565b975061512483615a09565b925050600181019050615105565b5085935050505092915050565b61514881615d8c565b82525050565b61515781615d98565b82525050565b6000615168826159d9565b6151728185615a38565b9350615182818560208601615e88565b61518b816160d6565b840191505092915050565b61519f81615e1f565b82525050565b6151ae81615e43565b82525050565b6151bd81615de8565b82525050565b6151cc81615e67565b82525050565b60006151dd826159e4565b6151e78185615a54565b93506151f7818560208601615e88565b615200816160d6565b840191505092915050565b6000615216826159e4565b6152208185615a65565b9350615230818560208601615e88565b80840191505092915050565b6000615249603283615a54565b9150615254826160f4565b604082019050919050565b600061526c602683615a54565b915061527782616143565b604082019050919050565b600061528f602483615a54565b915061529a82616192565b604082019050919050565b60006152b2601983615a54565b91506152bd826161e1565b602082019050919050565b60006152d5603a83615a54565b91506152e08261620a565b604082019050919050565b60006152f8601d83615a54565b915061530382616259565b602082019050919050565b600061531b602c83615a54565b915061532682616282565b604082019050919050565b600061533e603883615a54565b9150615349826162d1565b604082019050919050565b6000615361602a83615a54565b915061536c82616320565b604082019050919050565b6000615384602983615a54565b915061538f8261636f565b604082019050919050565b60006153a7602c83615a54565b91506153b2826163be565b604082019050919050565b60006153ca602083615a54565b91506153d58261640d565b602082019050919050565b60006153ed602983615a54565b91506153f882616436565b604082019050919050565b6000615410602f83615a54565b915061541b82616485565b604082019050919050565b6000615433602183615a54565b915061543e826164d4565b604082019050919050565b6000615456600083615a49565b915061546182616523565b600082019050919050565b6000615479603183615a54565b915061548482616526565b604082019050919050565b61549881615e15565b82525050565b6154a781615e15565b82525050565b60006154b9828561520b565b91506154c5828461520b565b91508190509392505050565b60006154dc82615449565b9150819050919050565b60006020820190506154fb6000830184615016565b92915050565b60006060820190506155166000830186615016565b6155236020830185615016565b615530604083018461549e565b949350505050565b600060808201905061554d6000830187615016565b61555a6020830186615016565b615567604083018561549e565b8181036060830152615579818461515d565b905095945050505050565b60006040820190506155996000830185615016565b6155a660208301846151c3565b9392505050565b60006040820190506155c26000830185615016565b6155cf602083018461549e565b9392505050565b600060208201905081810360008301526155f08184615025565b905092915050565b600060208201905081810360008301526156128184615083565b905092915050565b6000602082019050818103600083015261563481846150e1565b905092915050565b6000602082019050615651600083018461513f565b92915050565b600060208201905061566c600083018461514e565b92915050565b600060408201905061568760008301856151b4565b61569460208301846151b4565b9392505050565b600060208201905081810360008301526156b581846151d2565b905092915050565b600060208201905081810360008301526156d68161523c565b9050919050565b600060208201905081810360008301526156f68161525f565b9050919050565b6000602082019050818103600083015261571681615282565b9050919050565b60006020820190508181036000830152615736816152a5565b9050919050565b60006020820190508181036000830152615756816152c8565b9050919050565b60006020820190508181036000830152615776816152eb565b9050919050565b600060208201905081810360008301526157968161530e565b9050919050565b600060208201905081810360008301526157b681615331565b9050919050565b600060208201905081810360008301526157d681615354565b9050919050565b600060208201905081810360008301526157f681615377565b9050919050565b600060208201905081810360008301526158168161539a565b9050919050565b60006020820190508181036000830152615836816153bd565b9050919050565b60006020820190508181036000830152615856816153e0565b9050919050565b6000602082019050818103600083015261587681615403565b9050919050565b6000602082019050818103600083015261589681615426565b9050919050565b600060208201905081810360008301526158b68161546c565b9050919050565b60006020820190506158d2600083018461549e565b92915050565b60006040820190506158ed600083018561549e565b6158fa602083018461549e565b9392505050565b600061590b61591c565b90506159178282615eed565b919050565b6000604051905090565b600067ffffffffffffffff821115615941576159406160a7565b5b61594a826160d6565b9050602081019050919050565b600067ffffffffffffffff821115615972576159716160a7565b5b61597b826160d6565b9050602081019050919050565b6000819050602082019050919050565b6000819050602082019050919050565b6000819050602082019050919050565b600081519050919050565b600081519050919050565b600081519050919050565b600081519050919050565b600081519050919050565b6000602082019050919050565b6000602082019050919050565b6000602082019050919050565b600082825260208201905092915050565b600082825260208201905092915050565b600082825260208201905092915050565b600081905092915050565b600082825260208201905092915050565b600081905092915050565b6000615a7b82615e15565b9150615a8683615e15565b9250827fffffffffffffffffffffffffffffffffffffffffffffffffffffffffffffffff03821115615abb57615aba61601a565b5b828201905092915050565b6000615ad182615e15565b9150615adc83615e15565b925082615aec57615aeb616049565b5b828204905092915050565b6000808291508390505b6001851115615b4157808604811115615b1d57615b1c61601a565b5b6001851615615b2c5780820291505b8081029050615b3a856160e7565b9450615b01565b94509492505050565b6000615b5582615e15565b9150615b6083615e15565b9250615b8d7fffffffffffffffffffffffffffffffffffffffffffffffffffffffffffffffff8484615b95565b905092915050565b600082615ba55760019050615c61565b81615bb35760009050615c61565b8160018114615bc95760028114615bd357615c02565b6001915050615c61565b60ff841115615be557615be461601a565b5b8360020a915084821115615bfc57615bfb61601a565b5b50615c61565b5060208310610133831016604e8410600b8410161715615c375782820a905083811115615c3257615c3161601a565b5b615c61565b615c448484846001615af7565b92509050818404811115615c5b57615c5a61601a565b5b81810290505b9392505050565b6000615c7382615e15565b9150615c7e83615e15565b9250817fffffffffffffffffffffffffffffffffffffffffffffffffffffffffffffffff0483118215151615615cb757615cb661601a565b5b828202905092915050565b6000615ccd82615de8565b9150615cd883615de8565b9250827fffffffffffffffffffffffffffffffff8000000000000000000000000000000001821260008412151615615d1357615d1261601a565b5b826f7fffffffffffffffffffffffffffffff018213600084121615615d3b57615d3a61601a565b5b828203905092915050565b6000615d5182615e15565b9150615d5c83615e15565b925082821015615d6f57615d6e61601a565b5b828203905092915050565b6000615d8582615df5565b9050919050565b60008115159050919050565b60007fffffffff0000000000000000000000000000000000000000000000000000000082169050919050565b6000615dcf82615d7a565b9050919050565b6000615de182615d7a565b9050919050565b600081600f0b9050919050565b600073ffffffffffffffffffffffffffffffffffffffff82169050919050565b6000819050919050565b6000615e2a82615e31565b9050919050565b6000615e3c82615df5565b9050919050565b6000615e4e82615e55565b9050919050565b6000615e6082615df5565b9050919050565b6000615e7282615e15565b9050919050565b82818337600083830152505050565b60005b83811015615ea6578082015181840152602081019050615e8b565b83811115615eb5576000848401525b50505050565b60006002820490506001821680615ed357607f821691505b60208210811415615ee757615ee6616078565b5b50919050565b615ef6826160d6565b810181811067ffffffffffffffff82111715615f1557615f146160a7565b5b80604052505050565b6000615f2982615de8565b91506f7fffffffffffffffffffffffffffffff821415615f4c57615f4b61601a565b5b600182019050919050565b6000615f6282615e15565b91507fffffffffffffffffffffffffffffffffffffffffffffffffffffffffffffffff821415615f9557615f9461601a565b5b600182019050919050565b6000615fab82615e15565b9150615fb683615e15565b925082615fc657615fc5616049565b5b828206905092915050565b6000615fdc82615de8565b91507fffffffffffffffffffffffffffffffff8000000000000000000000000000000082141561600f5761600e61601a565b5b816000039050919050565b7f4e487b7100000000000000000000000000000000000000000000000000000000600052601160045260246000fd5b7f4e487b7100000000000000000000000000000000000000000000000000000000600052601260045260246000fd5b7f4e487b7100000000000000000000000000000000000000000000000000000000600052602260045260246000fd5b7f4e487b7100000000000000000000000000000000000000000000000000000000600052604160045260246000fd5b6000601f19601f8301169050919050565b60008160011c9050919050565b7f4552433732313a207472616e7366657220746f206e6f6e20455243373231526560008201527f63656976657220696d706c656d656e7465720000000000000000000000000000602082015250565b7f4f776e61626c653a206e6577206f776e657220697320746865207a65726f206160008201527f6464726573730000000000000000000000000000000000000000000000000000602082015250565b7f4552433732313a207472616e7366657220746f20746865207a65726f2061646460008201527f7265737300000000000000000000000000000000000000000000000000000000602082015250565b7f4552433732313a20617070726f766520746f2063616c6c657200000000000000600082015250565b7f416464726573733a20756e61626c6520746f2073656e642076616c75652c207260008201527f6563697069656e74206d61792068617665207265766572746564000000000000602082015250565b7f416464726573733a20696e73756666696369656e742062616c616e6365000000600082015250565b7f4552433732313a206f70657261746f7220717565727920666f72206e6f6e657860008201527f697374656e7420746f6b656e0000000000000000000000000000000000000000602082015250565b7f4552433732313a20617070726f76652063616c6c6572206973206e6f74206f7760008201527f6e6572206e6f7220617070726f76656420666f7220616c6c0000000000000000602082015250565b7f4552433732313a2062616c616e636520717565727920666f7220746865207a6560008201527f726f206164647265737300000000000000000000000000000000000000000000602082015250565b7f4552433732313a206f776e657220717565727920666f72206e6f6e657869737460008201527f656e7420746f6b656e0000000000000000000000000000000000000000000000602082015250565b7f4552433732313a20617070726f76656420717565727920666f72206e6f6e657860008201527f697374656e7420746f6b656e0000000000000000000000000000000000000000602082015250565b7f4f776e61626c653a2063616c6c6572206973206e6f7420746865206f776e6572600082015250565b7f4552433732313a207472616e73666572206f6620746f6b656e2074686174206960008201527f73206e6f74206f776e0000000000000000000000000000000000000000000000602082015250565b7f4552433732314d657461646174613a2055524920717565727920666f72206e6f60008201527f6e6578697374656e7420746f6b656e0000000000000000000000000000000000602082015250565b7f4552433732313a20617070726f76616c20746f2063757272656e74206f776e6560008201527f7200000000000000000000000000000000000000000000000000000000000000602082015250565b50565b7f4552433732313a207472616e736665722063616c6c6572206973206e6f74206f60008201527f776e6572206e6f7220617070726f766564000000000000000000000000000000602082015250565b61657e81615d7a565b811461658957600080fd5b50565b61659581615d8c565b81146165a057600080fd5b50565b6165ac81615d98565b81146165b757600080fd5b50565b6165c381615dc4565b81146165ce57600080fd5b50565b6165da81615dd6565b81146165e557600080fd5b50565b6165f181615de8565b81146165fc57600080fd5b50565b61660881615e15565b811461661357600080fd5b5056fea2646970667358221220bb47137af835f5234099c9b219f5b7f69a5f98abbd3dee64ddb1d6183d2b903264736f6c63430008040033",
  "immutableReferences": {},
  "source": "// SPDX-License-Identifier: MIT\r\n\r\npragma solidity ^0.8.0;\r\n\r\nimport \"../token/ERC721/extensions/MarketableERC721.sol\";\r\nimport \"./Honey.sol\";\r\n\r\ncontract Hive is MarketableERC721{\r\n    using Address for address;\r\n    using Address for address payable;\r\n    \r\n    struct Bee{\r\n        string name;\r\n    }\r\n    \r\n    Honey internal honey;\r\n    mapping(uint256 => Bee) public bees;\r\n    uint256 baseClaimPrice;\r\n    uint128 internal hiveSize = 0;\r\n    uint256 totalBee = 0;\r\n    uint256 public honeyTime;\r\n    uint256 public honeyCooldown;\r\n    \r\n    constructor(address honeyAdress_, string[] memory firstBeesName_, uint128 hiveSize_, uint256 baseClaimPrice_, uint256 honeyCooldown_) MarketableERC721(\"Bee\", \"BEE\", honeyAdress_){\r\n        honey = Honey(honeyAdress_);\r\n        honeyCooldown = honeyCooldown_;\r\n        honeyTime = (block.timestamp / honeyCooldown) * honeyCooldown + honeyCooldown;\r\n        baseClaimPrice = baseClaimPrice_;\r\n        _createBee(firstBeesName_[0], 0, 0);\r\n        if(hiveSize_ > 0){\r\n            _enlargeHive(hiveSize_, firstBeesName_, 1);\r\n        }\r\n    }\r\n    \r\n    function dispatchHoney() external returns(uint256){\r\n        require(block.timestamp > honeyTime);\r\n        honeyTime += honeyCooldown;\r\n        honey.mint(_msgSender(), 10);\r\n        return _dispatchHoney() + 10;\r\n        \r\n    }\r\n    \r\n    function claimableBee() public view returns(uint256[] memory){\r\n        uint256[] memory ownedBees = allBee(address(this));\r\n        uint256 count = 0;\r\n        for(uint256 i = 0; i < ownedBees.length; i++){\r\n            if(_reservedToken[ownedBees[i]] == address(0)){\r\n                count++;\r\n            }\r\n        }\r\n        \r\n        uint256[] memory result = new uint256[](count);\r\n        count = 0;\r\n        for(uint256 i = 0; i < ownedBees.length; i++){\r\n            if(_reservedToken[ownedBees[i]] == address(0)){\r\n                result[count++] = ownedBees[i];\r\n            }\r\n        }\r\n        return result;\r\n    }\r\n    \r\n    function allBee() public view returns(uint256[] memory){\r\n        return allBee(address(0));\r\n    }\r\n    \r\n    function allBee(address beeOwner) public view returns(uint256[] memory){\r\n        uint256[] memory result;\r\n        if(beeOwner == address(0)){\r\n            result = new uint256[](totalBee);\r\n        }\r\n        else{\r\n            result = new uint256[](balanceOf(beeOwner));\r\n        }\r\n        uint256 count = 0;\r\n        for(int128 x = -int128(hiveSize); (x <= int128(hiveSize) && count < result.length); x++){\r\n            for(int128 z = -int128(hiveSize); (z <= int128(hiveSize) && count == result.length); z++){\r\n                uint256 beeId = positionToId(x,z);\r\n                if(_exists(beeId)){\r\n                    if(beeOwner == address(0) || beeOwner == ownerOf(beeId)){\r\n                        result[count++] = beeId;\r\n                    }\r\n                }\r\n            }\r\n        }\r\n        return result;\r\n    }\r\n    \r\n    function renameBee(uint256 beeId, string memory newName) external senderIsOwner(beeId){\r\n        bees[beeId].name = newName;\r\n    }\r\n    \r\n    function claimBee(uint256 beeId) external payable{\r\n        _claimBeeFor(beeId, _msgSender());\r\n    }\r\n    \r\n    function claimBeeFor(uint256 beeId, address to) external payable{\r\n       _claimBeeFor(beeId, to);\r\n    }\r\n    \r\n    function beePriceInfo(uint256 beeId) public view returns(uint256, uint256){\r\n        uint256 factor = distanceToCenter(beeId);\r\n        if(factor > hiveSize){\r\n            factor = 0;\r\n        }\r\n        else {\r\n            factor = hiveSize - factor;\r\n        }\r\n        return (factor, baseClaimPrice * (2**factor));\r\n    }\r\n    \r\n    function idToPositon(uint256 id) public pure returns(int128, int128){\r\n        return (int128(uint128(id >> 128)), int128(uint128(id)));\r\n    }\r\n    \r\n    function positionToId(int128 x, int128 z) public pure returns(uint256){\r\n        return (uint256(uint128(x)) << 128) + uint256(uint128(z)); \r\n    }\r\n    \r\n    function distanceToCenter(uint256 id) public pure returns(uint256){\r\n        (int128 x, int128 z) = idToPositon(id);\r\n        return distanceToCenter(x, z);\r\n    } \r\n    \r\n    function distanceToCenter(int128 x, int128 z) public pure returns(uint256){\r\n        int128 y = - x - z;\r\n        x = x > 0 ? x : -x;\r\n        y = y > 0 ? y : -y;\r\n        z = z > 0 ? z : -z;\r\n        return uint128(x > y ? (x > z ? x : z) : (y > z ? y : z));\r\n    } \r\n    \r\n    modifier senderIsOwner(uint256 id){\r\n        require(_msgSender() == ownerOf(id));\r\n        _;\r\n    }\r\n    \r\n    function _createBee(string memory name, int128 x, int128 z) private{\r\n        uint256 id = positionToId(x,z);\r\n        _mint(address(this), id);\r\n        bees[id] = Bee(name);\r\n        totalBee++;\r\n    }\r\n    \r\n    function _claimBeeFor(uint256 beeId, address to) internal{\r\n        require(ownerOf(beeId) == address(this));\r\n        require(_reservedToken[beeId] == address(0));\r\n        (uint256 factor, uint256 price) = beePriceInfo(beeId);\r\n        require(msg.value >= price);\r\n        if(msg.value > price){\r\n            payable(_msgSender()).sendValue(msg.value - price);\r\n        }\r\n        \r\n        safeTransferFrom(address(this), to, beeId);\r\n        honey.mint(to,factor+1);\r\n    }\r\n    \r\n    function _enlargeHive(uint128 newSize, string[] memory newBees, uint256 offset) internal{\r\n        require(newSize > hiveSize);\r\n        require(int128(newSize) > 0);\r\n        require(newBees.length - offset == (hiveSize+1+newSize)*(newSize-hiveSize)/2*6);\r\n        for(int128 x = -int128(newSize); x <= int128(newSize); x++){\r\n            for(int128 z = -int128(newSize); z <= int128(newSize); z++){\r\n                uint256 distance = distanceToCenter(x, z);\r\n                if(distance > hiveSize && distance <= newSize){\r\n                    _createBee(newBees[offset++],x,z);\r\n                }\r\n            }\r\n        }\r\n        hiveSize = newSize;\r\n    }\r\n    \r\n    function _realOwnerOfBee(uint256 beeId) internal view returns(address){\r\n        if(!_exists(beeId)){\r\n            return address(0);\r\n        }\r\n        if(ownerOf(beeId) == address(this)){\r\n            return _reservedToken[beeId];\r\n        }\r\n        else{\r\n            return ownerOf(beeId);\r\n        }\r\n    }\r\n    \r\n    function _dispatchHoney() internal virtual returns(uint256){\r\n        uint256 total = 0;\r\n        for(int128 x = -int128(hiveSize); x <= int128(hiveSize) ; x++){\r\n            for(int128 z = -int128(hiveSize); z <= int128(hiveSize); z++){\r\n                uint256 beeId = positionToId(x,z);\r\n                address realOwner = _realOwnerOfBee(beeId);\r\n                if(realOwner != address(0)){\r\n                    (uint256 factor,) = beePriceInfo(beeId);\r\n                    honey.mint(realOwner, factor + 1);\r\n                    total += (factor + 1);\r\n                }\r\n            }\r\n        }\r\n        return total;\r\n    }\r\n    \r\n    function subWithdraw() public virtual override view returns(Withdraw[] memory){\r\n        Withdraw[] memory subs =  new Withdraw[](1);\r\n        subs[0] = Withdraw(honey);\r\n        return subs;\r\n    }\r\n    \r\n    function subWithdrawERC20() public virtual override view returns(WithdrawERC20[] memory){\r\n        WithdrawERC20[] memory subs =  new WithdrawERC20[](1);\r\n        subs[0] = WithdrawERC20(honey);\r\n        return subs;\r\n    }\r\n}",
  "sourcePath": "C:\\Users\\Lucas\\cryptobee\\contracts\\hive\\Hive.sol",
  "compiler": {
    "name": "solc",
    "version": "0.8.4+commit.c7e474f2.Emscripten.clang"
  },
  "schemaVersion": "3.3.4",
  "updatedAt": "2021-04-25T17:52:15.643Z",
  "devdoc": {
    "kind": "dev",
    "methods": {
      "approve(address,uint256)": {
        "details": "See {IERC721-approve}."
      },
      "balanceOf(address)": {
        "details": "See {IERC721-balanceOf}."
      },
      "getApproved(uint256)": {
        "details": "See {IERC721-getApproved}."
      },
      "isApprovedForAll(address,address)": {
        "details": "See {IERC721-isApprovedForAll}."
      },
      "name()": {
        "details": "See {IERC721Metadata-name}."
      },
      "owner()": {
        "details": "Returns the address of the current owner."
      },
      "ownerOf(uint256)": {
        "details": "See {IERC721-ownerOf}."
      },
      "renounceOwnership()": {
        "details": "Leaves the contract without owner. It will not be possible to call `onlyOwner` functions anymore. Can only be called by the current owner. NOTE: Renouncing ownership will leave the contract without an owner, thereby removing any functionality that is only available to the owner."
      },
      "safeTransferFrom(address,address,uint256)": {
        "details": "See {IERC721-safeTransferFrom}."
      },
      "safeTransferFrom(address,address,uint256,bytes)": {
        "details": "See {IERC721-safeTransferFrom}."
      },
      "setApprovalForAll(address,bool)": {
        "details": "See {IERC721-setApprovalForAll}."
      },
      "supportsInterface(bytes4)": {
        "details": "See {IERC165-supportsInterface}."
      },
      "symbol()": {
        "details": "See {IERC721Metadata-symbol}."
      },
      "tokenURI(uint256)": {
        "details": "See {IERC721Metadata-tokenURI}."
      },
      "transferFrom(address,address,uint256)": {
        "details": "See {IERC721-transferFrom}."
      },
      "transferOwnership(address)": {
        "details": "Transfers ownership of the contract to a new account (`newOwner`). Can only be called by the current owner."
      }
    },
    "version": 1
  },
  "userdoc": {
    "kind": "user",
    "methods": {},
    "version": 1
  }
}