{
  "contractName": "Honey",
  "abi": [
    {
      "inputs": [],
      "stateMutability": "nonpayable",
      "type": "constructor"
    },
    {
      "anonymous": false,
      "inputs": [
        {
          "indexed": true,
          "internalType": "address",
          "name": "owner",
          "type": "address"
        },
        {
          "indexed": true,
          "internalType": "address",
          "name": "spender",
          "type": "address"
        },
        {
          "indexed": false,
          "internalType": "uint256",
          "name": "value",
          "type": "uint256"
        }
      ],
      "name": "Approval",
      "type": "event"
    },
    {
      "anonymous": false,
      "inputs": [
        {
          "indexed": true,
          "internalType": "address",
          "name": "previousOwner",
          "type": "address"
        },
        {
          "indexed": true,
          "internalType": "address",
          "name": "newOwner",
          "type": "address"
        }
      ],
      "name": "OwnershipTransferred",
      "type": "event"
    },
    {
      "anonymous": false,
      "inputs": [
        {
          "indexed": true,
          "internalType": "address",
          "name": "from",
          "type": "address"
        },
        {
          "indexed": true,
          "internalType": "address",
          "name": "to",
          "type": "address"
        },
        {
          "indexed": false,
          "internalType": "uint256",
          "name": "value",
          "type": "uint256"
        }
      ],
      "name": "Transfer",
      "type": "event"
    },
    {
      "inputs": [
        {
          "internalType": "address",
          "name": "add",
          "type": "address"
        }
      ],
      "name": "addressOrders",
      "outputs": [
        {
          "internalType": "uint256[]",
          "name": "",
          "type": "uint256[]"
        },
        {
          "internalType": "uint256[]",
          "name": "",
          "type": "uint256[]"
        }
      ],
      "stateMutability": "view",
      "type": "function"
    },
    {
      "inputs": [
        {
          "internalType": "address",
          "name": "owner",
          "type": "address"
        },
        {
          "internalType": "address",
          "name": "spender",
          "type": "address"
        }
      ],
      "name": "allowance",
      "outputs": [
        {
          "internalType": "uint256",
          "name": "",
          "type": "uint256"
        }
      ],
      "stateMutability": "view",
      "type": "function"
    },
    {
      "inputs": [
        {
          "internalType": "address",
          "name": "spender",
          "type": "address"
        },
        {
          "internalType": "uint256",
          "name": "amount",
          "type": "uint256"
        }
      ],
      "name": "approve",
      "outputs": [
        {
          "internalType": "bool",
          "name": "",
          "type": "bool"
        }
      ],
      "stateMutability": "nonpayable",
      "type": "function"
    },
    {
      "inputs": [
        {
          "internalType": "address",
          "name": "account",
          "type": "address"
        }
      ],
      "name": "balanceOf",
      "outputs": [
        {
          "internalType": "uint256",
          "name": "",
          "type": "uint256"
        }
      ],
      "stateMutability": "view",
      "type": "function"
    },
    {
      "inputs": [
        {
          "internalType": "address",
          "name": "account",
          "type": "address"
        },
        {
          "internalType": "uint256",
          "name": "amount",
          "type": "uint256"
        }
      ],
      "name": "burn",
      "outputs": [],
      "stateMutability": "nonpayable",
      "type": "function"
    },
    {
      "inputs": [
        {
          "internalType": "uint256",
          "name": "maxPrice",
          "type": "uint256"
        }
      ],
      "name": "buy",
      "outputs": [
        {
          "internalType": "uint256",
          "name": "",
          "type": "uint256"
        },
        {
          "internalType": "uint256",
          "name": "",
          "type": "uint256"
        }
      ],
      "stateMutability": "payable",
      "type": "function"
    },
    {
      "inputs": [
        {
          "internalType": "uint256",
          "name": "amount",
          "type": "uint256"
        },
        {
          "internalType": "uint256",
          "name": "maxPrice",
          "type": "uint256"
        },
        {
          "internalType": "bool",
          "name": "forceAll",
          "type": "bool"
        }
      ],
      "name": "buyAmount",
      "outputs": [
        {
          "internalType": "uint256",
          "name": "",
          "type": "uint256"
        },
        {
          "internalType": "uint256",
          "name": "",
          "type": "uint256"
        }
      ],
      "stateMutability": "payable",
      "type": "function"
    },
    {
      "inputs": [],
      "name": "buyOrders",
      "outputs": [
        {
          "internalType": "uint256[]",
          "name": "",
          "type": "uint256[]"
        }
      ],
      "stateMutability": "view",
      "type": "function"
    },
    {
      "inputs": [],
      "name": "decimals",
      "outputs": [
        {
          "internalType": "uint8",
          "name": "",
          "type": "uint8"
        }
      ],
      "stateMutability": "pure",
      "type": "function"
    },
    {
      "inputs": [
        {
          "internalType": "address",
          "name": "spender",
          "type": "address"
        },
        {
          "internalType": "uint256",
          "name": "subtractedValue",
          "type": "uint256"
        }
      ],
      "name": "decreaseAllowance",
      "outputs": [
        {
          "internalType": "bool",
          "name": "",
          "type": "bool"
        }
      ],
      "stateMutability": "nonpayable",
      "type": "function"
    },
    {
      "inputs": [],
      "name": "firstBuyId",
      "outputs": [
        {
          "internalType": "uint256",
          "name": "",
          "type": "uint256"
        }
      ],
      "stateMutability": "view",
      "type": "function"
    },
    {
      "inputs": [],
      "name": "firstSellId",
      "outputs": [
        {
          "internalType": "uint256",
          "name": "",
          "type": "uint256"
        }
      ],
      "stateMutability": "view",
      "type": "function"
    },
    {
      "inputs": [
        {
          "internalType": "uint256",
          "name": "orderId",
          "type": "uint256"
        }
      ],
      "name": "forceRemoveOrder",
      "outputs": [],
      "stateMutability": "nonpayable",
      "type": "function"
    },
    {
      "inputs": [
        {
          "internalType": "address",
          "name": "from",
          "type": "address"
        },
        {
          "internalType": "address",
          "name": "to",
          "type": "address"
        },
        {
          "internalType": "uint256",
          "name": "amount",
          "type": "uint256"
        }
      ],
      "name": "forceTransfer",
      "outputs": [],
      "stateMutability": "nonpayable",
      "type": "function"
    },
    {
      "inputs": [
        {
          "internalType": "address",
          "name": "spender",
          "type": "address"
        },
        {
          "internalType": "uint256",
          "name": "addedValue",
          "type": "uint256"
        }
      ],
      "name": "increaseAllowance",
      "outputs": [
        {
          "internalType": "bool",
          "name": "",
          "type": "bool"
        }
      ],
      "stateMutability": "nonpayable",
      "type": "function"
    },
    {
      "inputs": [
        {
          "internalType": "address",
          "name": "account",
          "type": "address"
        },
        {
          "internalType": "uint256",
          "name": "amount",
          "type": "uint256"
        }
      ],
      "name": "mint",
      "outputs": [],
      "stateMutability": "nonpayable",
      "type": "function"
    },
    {
      "inputs": [],
      "name": "name",
      "outputs": [
        {
          "internalType": "string",
          "name": "",
          "type": "string"
        }
      ],
      "stateMutability": "view",
      "type": "function"
    },
    {
      "inputs": [
        {
          "internalType": "uint256",
          "name": "",
          "type": "uint256"
        }
      ],
      "name": "orders",
      "outputs": [
        {
          "internalType": "bool",
          "name": "sell",
          "type": "bool"
        },
        {
          "internalType": "address",
          "name": "owner",
          "type": "address"
        },
        {
          "internalType": "uint256",
          "name": "amount",
          "type": "uint256"
        },
        {
          "internalType": "uint256",
          "name": "price",
          "type": "uint256"
        },
        {
          "internalType": "uint256",
          "name": "previous",
          "type": "uint256"
        },
        {
          "internalType": "uint256",
          "name": "next",
          "type": "uint256"
        }
      ],
      "stateMutability": "view",
      "type": "function"
    },
    {
      "inputs": [],
      "name": "owner",
      "outputs": [
        {
          "internalType": "address",
          "name": "",
          "type": "address"
        }
      ],
      "stateMutability": "view",
      "type": "function"
    },
    {
      "inputs": [
        {
          "internalType": "uint256",
          "name": "amount",
          "type": "uint256"
        },
        {
          "internalType": "uint256",
          "name": "price",
          "type": "uint256"
        }
      ],
      "name": "placeBuyOrder",
      "outputs": [
        {
          "internalType": "uint256",
          "name": "",
          "type": "uint256"
        }
      ],
      "stateMutability": "payable",
      "type": "function"
    },
    {
      "inputs": [
        {
          "internalType": "uint256",
          "name": "amount",
          "type": "uint256"
        },
        {
          "internalType": "uint256",
          "name": "price",
          "type": "uint256"
        }
      ],
      "name": "placeSellOrder",
      "outputs": [
        {
          "internalType": "uint256",
          "name": "",
          "type": "uint256"
        }
      ],
      "stateMutability": "nonpayable",
      "type": "function"
    },
    {
      "inputs": [
        {
          "internalType": "uint256",
          "name": "orderId",
          "type": "uint256"
        }
      ],
      "name": "removeOrder",
      "outputs": [],
      "stateMutability": "nonpayable",
      "type": "function"
    },
    {
      "inputs": [],
      "name": "renounceOwnership",
      "outputs": [],
      "stateMutability": "nonpayable",
      "type": "function"
    },
    {
      "inputs": [],
      "name": "reservedAmount",
      "outputs": [
        {
          "internalType": "uint256",
          "name": "",
          "type": "uint256"
        }
      ],
      "stateMutability": "view",
      "type": "function"
    },
    {
      "inputs": [
        {
          "internalType": "contract IERC20",
          "name": "token",
          "type": "address"
        }
      ],
      "name": "reservedERC20Amount",
      "outputs": [
        {
          "internalType": "uint256",
          "name": "",
          "type": "uint256"
        }
      ],
      "stateMutability": "view",
      "type": "function"
    },
    {
      "inputs": [
        {
          "internalType": "uint256",
          "name": "amount",
          "type": "uint256"
        },
        {
          "internalType": "uint256",
          "name": "minPrice",
          "type": "uint256"
        },
        {
          "internalType": "bool",
          "name": "forceAll",
          "type": "bool"
        }
      ],
      "name": "sell",
      "outputs": [
        {
          "internalType": "uint256",
          "name": "",
          "type": "uint256"
        },
        {
          "internalType": "uint256",
          "name": "",
          "type": "uint256"
        }
      ],
      "stateMutability": "nonpayable",
      "type": "function"
    },
    {
      "inputs": [],
      "name": "sellOrders",
      "outputs": [
        {
          "internalType": "uint256[]",
          "name": "",
          "type": "uint256[]"
        }
      ],
      "stateMutability": "view",
      "type": "function"
    },
    {
      "inputs": [],
      "name": "subWithdraw",
      "outputs": [
        {
          "internalType": "contract Withdraw[]",
          "name": "",
          "type": "address[]"
        }
      ],
      "stateMutability": "view",
      "type": "function"
    },
    {
      "inputs": [],
      "name": "subWithdrawERC20",
      "outputs": [
        {
          "internalType": "contract WithdrawERC20[]",
          "name": "",
          "type": "address[]"
        }
      ],
      "stateMutability": "view",
      "type": "function"
    },
    {
      "inputs": [],
      "name": "symbol",
      "outputs": [
        {
          "internalType": "string",
          "name": "",
          "type": "string"
        }
      ],
      "stateMutability": "view",
      "type": "function"
    },
    {
      "inputs": [],
      "name": "totalSupply",
      "outputs": [
        {
          "internalType": "uint256",
          "name": "",
          "type": "uint256"
        }
      ],
      "stateMutability": "view",
      "type": "function"
    },
    {
      "inputs": [
        {
          "internalType": "address",
          "name": "recipient",
          "type": "address"
        },
        {
          "internalType": "uint256",
          "name": "amount",
          "type": "uint256"
        }
      ],
      "name": "transfer",
      "outputs": [
        {
          "internalType": "bool",
          "name": "",
          "type": "bool"
        }
      ],
      "stateMutability": "nonpayable",
      "type": "function"
    },
    {
      "inputs": [
        {
          "internalType": "address",
          "name": "sender",
          "type": "address"
        },
        {
          "internalType": "address",
          "name": "recipient",
          "type": "address"
        },
        {
          "internalType": "uint256",
          "name": "amount",
          "type": "uint256"
        }
      ],
      "name": "transferFrom",
      "outputs": [
        {
          "internalType": "bool",
          "name": "",
          "type": "bool"
        }
      ],
      "stateMutability": "nonpayable",
      "type": "function"
    },
    {
      "inputs": [
        {
          "internalType": "address",
          "name": "newOwner",
          "type": "address"
        }
      ],
      "name": "transferOwnership",
      "outputs": [],
      "stateMutability": "nonpayable",
      "type": "function"
    },
    {
      "inputs": [
        {
          "internalType": "uint256",
          "name": "maxAmount",
          "type": "uint256"
        }
      ],
      "name": "withdraw",
      "outputs": [
        {
          "internalType": "uint256",
          "name": "",
          "type": "uint256"
        }
      ],
      "stateMutability": "nonpayable",
      "type": "function"
    },
    {
      "inputs": [],
      "name": "withdrawAll",
      "outputs": [
        {
          "internalType": "uint256",
          "name": "",
          "type": "uint256"
        }
      ],
      "stateMutability": "nonpayable",
      "type": "function"
    },
    {
      "inputs": [
        {
          "internalType": "address",
          "name": "add",
          "type": "address"
        }
      ],
      "name": "withdrawAllERC20",
      "outputs": [
        {
          "internalType": "uint256",
          "name": "",
          "type": "uint256"
        }
      ],
      "stateMutability": "nonpayable",
      "type": "function"
    },
    {
      "inputs": [
        {
          "internalType": "address",
          "name": "add",
          "type": "address"
        },
        {
          "internalType": "uint256",
          "name": "maxAmount",
          "type": "uint256"
        }
      ],
      "name": "withdrawERC20",
      "outputs": [
        {
          "internalType": "uint256",
          "name": "",
          "type": "uint256"
        }
      ],
      "stateMutability": "nonpayable",
      "type": "function"
    },
    {
      "inputs": [],
      "name": "withdrawToken",
      "outputs": [
        {
          "internalType": "uint256",
          "name": "",
          "type": "uint256"
        }
      ],
      "stateMutability": "nonpayable",
      "type": "function"
    }
  ],
  "bytecode": "0x60806040526001600655600060085560006009556000600a556000600b553480156200002a57600080fd5b506040518060400160405280600581526020017f486f6e65790000000000000000000000000000000000000000000000000000008152506040518060400160405280600381526020017f484e590000000000000000000000000000000000000000000000000000000000815250818181818160039080519060200190620000b392919062000192565b508060049080519060200190620000cc92919062000192565b5050506000620000e16200018a60201b60201c565b905080600560006101000a81548173ffffffffffffffffffffffffffffffffffffffff021916908373ffffffffffffffffffffffffffffffffffffffff1602179055508073ffffffffffffffffffffffffffffffffffffffff16600073ffffffffffffffffffffffffffffffffffffffff167f8be0079c531659141344cd1fd0a4f28419497f9722a3daafe3b4186f6b6457e060405160405180910390a35050505050620002a7565b600033905090565b828054620001a09062000242565b90600052602060002090601f016020900481019282620001c4576000855562000210565b82601f10620001df57805160ff191683800117855562000210565b8280016001018555821562000210579182015b828111156200020f578251825591602001919060010190620001f2565b5b5090506200021f919062000223565b5090565b5b808211156200023e57600081600090555060010162000224565b5090565b600060028204905060018216806200025b57607f821691505b6020821081141562000272576200027162000278565b5b50919050565b7f4e487b7100000000000000000000000000000000000000000000000000000000600052602260045260246000fd5b6147d680620002b76000396000f3fe6080604052600436106102305760003560e01c80638da5cb5b1161012e578063b994d278116100ab578063dd62ed3e1161006f578063dd62ed3e146108ca578063e38c266014610907578063ee36d4ab14610944578063f2fde38b14610974578063f92c45b71461099d57610230565b8063b994d278146107ed578063beb4696614610818578063ca628c7814610843578063d21e3f611461086e578063d96a094a1461089957610230565b8063a4406bcd116100f2578063a4406bcd146106b6578063a457c2d7146106f3578063a85c38ef14610730578063a9059cbb14610772578063b78affdc146107af57610230565b80638da5cb5b146105d157806395d89b41146105fc5780639645337a146106275780639dc29fac14610650578063a1db97821461067957610230565b806333df66da116101bc578063715018a611610180578063715018a6146104e3578063844f0b11146104fa578063853828b61461052b578063857abbd4146105565780638ab1a5d41461059357610230565b806333df66da146103ea578063395093511461041557806340c10f19146104525780636421f7291461047b57806370a08231146104a657610230565b806323b872dd1161020357806323b872dd146102f1578063259f4fd01461032e5780632e1a7d4d14610359578063313ce5671461039657806333bebb77146103c157610230565b806306fdde0314610235578063095ea7b31461026057806318160ddd1461029d5780631e09bc5c146102c8575b600080fd5b34801561024157600080fd5b5061024a6109c8565b6040516102579190613d4f565b60405180910390f35b34801561026c57600080fd5b5061028760048036038101906102829190613661565b610a5a565b6040516102949190613cd3565b60405180910390f35b3480156102a957600080fd5b506102b2610a78565b6040516102bf9190613f31565b60405180910390f35b3480156102d457600080fd5b506102ef60048036038101906102ea91906136ef565b610a82565b005b3480156102fd57600080fd5b5061031860048036038101906103139190613612565b610b0a565b6040516103259190613cd3565b60405180910390f35b34801561033a57600080fd5b50610343610c0b565b6040516103509190613f31565b60405180910390f35b34801561036557600080fd5b50610380600480360381019061037b91906136ef565b610c11565b60405161038d9190613f31565b60405180910390f35b3480156103a257600080fd5b506103ab610c9f565b6040516103b89190613f75565b60405180910390f35b3480156103cd57600080fd5b506103e860048036038101906103e39190613612565b610ca4565b005b3480156103f657600080fd5b506103ff610d30565b60405161040c9190613c36565b60405180910390f35b34801561042157600080fd5b5061043c60048036038101906104379190613661565b610da7565b6040516104499190613cd3565b60405180910390f35b34801561045e57600080fd5b5061047960048036038101906104749190613661565b610e53565b005b34801561048757600080fd5b50610490610edd565b60405161049d9190613f31565b60405180910390f35b3480156104b257600080fd5b506104cd60048036038101906104c891906135ad565b610ee3565b6040516104da9190613f31565b60405180910390f35b3480156104ef57600080fd5b506104f8610f2b565b005b610514600480360381019061050f919061377d565b611068565b604051610522929190613f4c565b60405180910390f35b34801561053757600080fd5b506105406110e8565b60405161054d9190613f31565b60405180910390f35b34801561056257600080fd5b5061057d600480360381019061057891906135ad565b611282565b60405161058a9190613f31565b60405180910390f35b34801561059f57600080fd5b506105ba60048036038101906105b5919061377d565b61142a565b6040516105c8929190613f4c565b60405180910390f35b3480156105dd57600080fd5b506105e661146e565b6040516105f39190613bf2565b60405180910390f35b34801561060857600080fd5b50610611611498565b60405161061e9190613d4f565b60405180910390f35b34801561063357600080fd5b5061064e600480360381019061064991906136ef565b61152a565b005b34801561065c57600080fd5b5061067760048036038101906106729190613661565b6115ab565b005b34801561068557600080fd5b506106a0600480360381019061069b9190613661565b611635565b6040516106ad9190613f31565b60405180910390f35b3480156106c257600080fd5b506106dd60048036038101906106d89190613741565b6116c5565b6040516106ea9190613f31565b60405180910390f35b3480156106ff57600080fd5b5061071a60048036038101906107159190613661565b61174a565b6040516107279190613cd3565b60405180910390f35b34801561073c57600080fd5b50610757600480360381019061075291906136ef565b61183e565b60405161076996959493929190613cee565b60405180910390f35b34801561077e57600080fd5b5061079960048036038101906107949190613661565b6118a7565b6040516107a69190613cd3565b60405180910390f35b3480156107bb57600080fd5b506107d660048036038101906107d191906135ad565b6118c5565b6040516107e4929190613c9c565b60405180910390f35b3480156107f957600080fd5b506108026118e7565b60405161080f9190613c58565b60405180910390f35b34801561082457600080fd5b5061082d61195e565b60405161083a9190613c7a565b60405180910390f35b34801561084f57600080fd5b50610858611970565b6040516108659190613f31565b60405180910390f35b34801561087a57600080fd5b50610883611a1d565b6040516108909190613c7a565b60405180910390f35b6108b360048036038101906108ae91906136ef565b611a30565b6040516108c1929190613f4c565b60405180910390f35b3480156108d657600080fd5b506108f160048036038101906108ec91906135d6565b611a68565b6040516108fe9190613f31565b60405180910390f35b34801561091357600080fd5b5061092e600480360381019061092991906136c6565b611aef565b60405161093b9190613f31565b60405180910390f35b61095e60048036038101906109599190613741565b611b39565b60405161096b9190613f31565b60405180910390f35b34801561098057600080fd5b5061099b600480360381019061099691906135ad565b611c2b565b005b3480156109a957600080fd5b506109b2611dd7565b6040516109bf9190613f31565b60405180910390f35b6060600380546109d790614248565b80601f0160208091040260200160405190810160405280929190818152602001828054610a0390614248565b8015610a505780601f10610a2557610100808354040283529160200191610a50565b820191906000526020600020905b815481529060010190602001808311610a3357829003601f168201915b5050505050905090565b6000610a6e610a67611de1565b8484611de9565b6001905092915050565b6000600254905090565b610a8a611de1565b73ffffffffffffffffffffffffffffffffffffffff16610aa861146e565b73ffffffffffffffffffffffffffffffffffffffff1614610afe576040517f08c379a0000000000000000000000000000000000000000000000000000000008152600401610af590613e71565b60405180910390fd5b610b0781611fb4565b50565b6000610b178484846121b4565b6000600160008673ffffffffffffffffffffffffffffffffffffffff1673ffffffffffffffffffffffffffffffffffffffff1681526020019081526020016000206000610b62611de1565b73ffffffffffffffffffffffffffffffffffffffff1673ffffffffffffffffffffffffffffffffffffffff16815260200190815260200160002054905082811015610be2576040517f08c379a0000000000000000000000000000000000000000000000000000000008152600401610bd990613e51565b60405180910390fd5b610bff85610bee611de1565b8584610bfa9190614132565b611de9565b60019150509392505050565b60095481565b6000610c1b611de1565b73ffffffffffffffffffffffffffffffffffffffff16610c3961146e565b73ffffffffffffffffffffffffffffffffffffffff1614610c8f576040517f08c379a0000000000000000000000000000000000000000000000000000000008152600401610c8690613e71565b60405180910390fd5b610c9882612433565b9050919050565b600090565b610cac611de1565b73ffffffffffffffffffffffffffffffffffffffff16610cca61146e565b73ffffffffffffffffffffffffffffffffffffffff1614610d20576040517f08c379a0000000000000000000000000000000000000000000000000000000008152600401610d1790613e71565b60405180910390fd5b610d2b8383836121b4565b505050565b6060600067ffffffffffffffff811115610d73577f4e487b7100000000000000000000000000000000000000000000000000000000600052604160045260246000fd5b604051908082528060200260200182016040528015610da15781602001602082028036833780820191505090505b50905090565b6000610e49610db4611de1565b848460016000610dc2611de1565b73ffffffffffffffffffffffffffffffffffffffff1673ffffffffffffffffffffffffffffffffffffffff16815260200190815260200160002060008873ffffffffffffffffffffffffffffffffffffffff1673ffffffffffffffffffffffffffffffffffffffff16815260200190815260200160002054610e449190614051565b611de9565b6001905092915050565b610e5b611de1565b73ffffffffffffffffffffffffffffffffffffffff16610e7961146e565b73ffffffffffffffffffffffffffffffffffffffff1614610ecf576040517f08c379a0000000000000000000000000000000000000000000000000000000008152600401610ec690613e71565b60405180910390fd5b610ed9828261249a565b5050565b60085481565b60008060008373ffffffffffffffffffffffffffffffffffffffff1673ffffffffffffffffffffffffffffffffffffffff168152602001908152602001600020549050919050565b610f33611de1565b73ffffffffffffffffffffffffffffffffffffffff16610f5161146e565b73ffffffffffffffffffffffffffffffffffffffff1614610fa7576040517f08c379a0000000000000000000000000000000000000000000000000000000008152600401610f9e90613e71565b60405180910390fd5b600073ffffffffffffffffffffffffffffffffffffffff16600560009054906101000a900473ffffffffffffffffffffffffffffffffffffffff1673ffffffffffffffffffffffffffffffffffffffff167f8be0079c531659141344cd1fd0a4f28419497f9722a3daafe3b4186f6b6457e060405160405180910390a36000600560006101000a81548173ffffffffffffffffffffffffffffffffffffffff021916908373ffffffffffffffffffffffffffffffffffffffff160217905550565b6000806000806110798787346125ee565b915091506000821161108a57600080fd5b841561109d5781821461109c57600080fd5b5b6110d881346110ac9190614132565b6110b4611de1565b73ffffffffffffffffffffffffffffffffffffffff1661290290919063ffffffff16565b8181935093505050935093915050565b60006110f2611de1565b73ffffffffffffffffffffffffffffffffffffffff1661111061146e565b73ffffffffffffffffffffffffffffffffffffffff1614611166576040517f08c379a000000000000000000000000000000000000000000000000000000000815260040161115d90613e71565b60405180910390fd5b60006111706118e7565b905060005b8151811015611252578181815181106111b7577f4e487b7100000000000000000000000000000000000000000000000000000000600052603260045260246000fd5b602002602001015173ffffffffffffffffffffffffffffffffffffffff1663853828b66040518163ffffffff1660e01b8152600401602060405180830381600087803b15801561120657600080fd5b505af115801561121a573d6000803e3d6000fd5b505050506040513d601f19601f8201168201806040525081019061123e9190613718565b50808061124a9061427a565b915050611175565b5061127c7fffffffffffffffffffffffffffffffffffffffffffffffffffffffffffffffff612433565b91505090565b600061128c611de1565b73ffffffffffffffffffffffffffffffffffffffff166112aa61146e565b73ffffffffffffffffffffffffffffffffffffffff1614611300576040517f08c379a00000000000000000000000000000000000000000000000000000000081526004016112f790613e71565b60405180910390fd5b600061130a610d30565b905060005b81518110156113f757818181518110611351577f4e487b7100000000000000000000000000000000000000000000000000000000600052603260045260246000fd5b602002602001015173ffffffffffffffffffffffffffffffffffffffff1663857abbd4856040518263ffffffff1660e01b81526004016113919190613bf2565b602060405180830381600087803b1580156113ab57600080fd5b505af11580156113bf573d6000803e3d6000fd5b505050506040513d601f19601f820116820180604052508101906113e39190613718565b5080806113ef9061427a565b91505061130f565b50611422837fffffffffffffffffffffffffffffffffffffffffffffffffffffffffffffffff6129f6565b915050919050565b60008060008061143a8787612bf7565b915091506000821161144b57600080fd5b841561145e5786811461145d57600080fd5b5b8181935093505050935093915050565b6000600560009054906101000a900473ffffffffffffffffffffffffffffffffffffffff16905090565b6060600480546114a790614248565b80601f01602080910402602001604051908101604052809291908181526020018280546114d390614248565b80156115205780601f106114f557610100808354040283529160200191611520565b820191906000526020600020905b81548152906001019060200180831161150357829003601f168201915b5050505050905090565b611532611de1565b73ffffffffffffffffffffffffffffffffffffffff166007600083815260200190815260200160002060000160019054906101000a900473ffffffffffffffffffffffffffffffffffffffff1673ffffffffffffffffffffffffffffffffffffffff161461159f57600080fd5b6115a881611fb4565b50565b6115b3611de1565b73ffffffffffffffffffffffffffffffffffffffff166115d161146e565b73ffffffffffffffffffffffffffffffffffffffff1614611627576040517f08c379a000000000000000000000000000000000000000000000000000000000815260040161161e90613e71565b60405180910390fd5b6116318282612e5a565b5050565b600061163f611de1565b73ffffffffffffffffffffffffffffffffffffffff1661165d61146e565b73ffffffffffffffffffffffffffffffffffffffff16146116b3576040517f08c379a00000000000000000000000000000000000000000000000000000000081526004016116aa90613e71565b60405180910390fd5b6116bd83836129f6565b905092915050565b60008083116116d357600080fd5b600082116116e057600080fd5b60006116ec8484612bf7565b91505080846116fb9190614132565b9350600084111561173e5761171030856118a7565b5083600b60008282546117239190614051565b925050819055506117368484600161302e565b915050611744565b60009150505b92915050565b60008060016000611759611de1565b73ffffffffffffffffffffffffffffffffffffffff1673ffffffffffffffffffffffffffffffffffffffff16815260200190815260200160002060008573ffffffffffffffffffffffffffffffffffffffff1673ffffffffffffffffffffffffffffffffffffffff16815260200190815260200160002054905082811015611816576040517f08c379a000000000000000000000000000000000000000000000000000000000815260040161180d90613ef1565b60405180910390fd5b611833611821611de1565b85858461182e9190614132565b611de9565b600191505092915050565b60076020528060005260406000206000915090508060000160009054906101000a900460ff16908060000160019054906101000a900473ffffffffffffffffffffffffffffffffffffffff16908060010154908060020154908060030154908060040154905086565b60006118bb6118b4611de1565b84846121b4565b6001905092915050565b6060806118d3600184613277565b6118de600085613277565b91509150915091565b6060600067ffffffffffffffff81111561192a577f4e487b7100000000000000000000000000000000000000000000000000000000600052604160045260246000fd5b6040519080825280602002602001820160405280156119585781602001602082028036833780820191505090505b50905090565b606061196b600080613277565b905090565b600061197a611de1565b73ffffffffffffffffffffffffffffffffffffffff1661199861146e565b73ffffffffffffffffffffffffffffffffffffffff16146119ee576040517f08c379a00000000000000000000000000000000000000000000000000000000081526004016119e590613e71565b60405180910390fd5b611a18307fffffffffffffffffffffffffffffffffffffffffffffffffffffffffffffffff6129f6565b905090565b6060611a2b60016000613277565b905090565b600080611a5f7fffffffffffffffffffffffffffffffffffffffffffffffffffffffffffffffff846000611068565b91509150915091565b6000600160008473ffffffffffffffffffffffffffffffffffffffff1673ffffffffffffffffffffffffffffffffffffffff16815260200190815260200160002060008373ffffffffffffffffffffffffffffffffffffffff1673ffffffffffffffffffffffffffffffffffffffff16815260200190815260200160002054905092915050565b60003073ffffffffffffffffffffffffffffffffffffffff168273ffffffffffffffffffffffffffffffffffffffff161415611b2f57600b549050611b34565b600090505b919050565b6000808311611b4757600080fd5b60008211611b5457600080fd5b8183611b6091906140d8565b3414611b6b57600080fd5b600080611b798585346125ee565b915091508185611b899190614132565b9450611bdc8486611b9a91906140d8565b8234611ba69190614132565b611bb09190614132565b611bb8611de1565b73ffffffffffffffffffffffffffffffffffffffff1661290290919063ffffffff16565b6000851115611c1e578385611bf191906140d8565b600a6000828254611c029190614051565b92505081905550611c158585600061302e565b92505050611c25565b6000925050505b92915050565b611c33611de1565b73ffffffffffffffffffffffffffffffffffffffff16611c5161146e565b73ffffffffffffffffffffffffffffffffffffffff1614611ca7576040517f08c379a0000000000000000000000000000000000000000000000000000000008152600401611c9e90613e71565b60405180910390fd5b600073ffffffffffffffffffffffffffffffffffffffff168173ffffffffffffffffffffffffffffffffffffffff161415611d17576040517f08c379a0000000000000000000000000000000000000000000000000000000008152600401611d0e90613db1565b60405180910390fd5b8073ffffffffffffffffffffffffffffffffffffffff16600560009054906101000a900473ffffffffffffffffffffffffffffffffffffffff1673ffffffffffffffffffffffffffffffffffffffff167f8be0079c531659141344cd1fd0a4f28419497f9722a3daafe3b4186f6b6457e060405160405180910390a380600560006101000a81548173ffffffffffffffffffffffffffffffffffffffff021916908373ffffffffffffffffffffffffffffffffffffffff16021790555050565b6000600a54905090565b600033905090565b600073ffffffffffffffffffffffffffffffffffffffff168373ffffffffffffffffffffffffffffffffffffffff161415611e59576040517f08c379a0000000000000000000000000000000000000000000000000000000008152600401611e5090613ed1565b60405180910390fd5b600073ffffffffffffffffffffffffffffffffffffffff168273ffffffffffffffffffffffffffffffffffffffff161415611ec9576040517f08c379a0000000000000000000000000000000000000000000000000000000008152600401611ec090613dd1565b60405180910390fd5b80600160008573ffffffffffffffffffffffffffffffffffffffff1673ffffffffffffffffffffffffffffffffffffffff16815260200190815260200160002060008473ffffffffffffffffffffffffffffffffffffffff1673ffffffffffffffffffffffffffffffffffffffff168152602001908152602001600020819055508173ffffffffffffffffffffffffffffffffffffffff168373ffffffffffffffffffffffffffffffffffffffff167f8c5be1e5ebec7d5bd14f71427d1e84f3dd0314c0f7b2291e5b200ac8c7c3b92583604051611fa79190613f31565b60405180910390a3505050565b6000600760008381526020019081526020016000209050600081600301541415612010578060000160009054906101000a900460ff1615611fff57806004015460088190555061200b565b80600401546009819055505b612034565b80600401546007600083600301548152602001908152602001600020600401819055505b60008160040154146120645780600301546007600083600401548152602001908152602001600020600301819055505b60076000838152602001908152602001600020600080820160006101000a81549060ff02191690556000820160016101000a81549073ffffffffffffffffffffffffffffffffffffffff0219169055600182016000905560028201600090556003820160009055600482016000905550508060000160009054906101000a900460ff16156121415761211f308260000160019054906101000a900473ffffffffffffffffffffffffffffffffffffffff1683600101546121b4565b8060010154600b60008282546121359190614132565b925050819055506121b0565b61219281600101548260000160019054906101000a900473ffffffffffffffffffffffffffffffffffffffff1673ffffffffffffffffffffffffffffffffffffffff1661290290919063ffffffff16565b8060010154600a60008282546121a89190614132565b925050819055505b5050565b600073ffffffffffffffffffffffffffffffffffffffff168373ffffffffffffffffffffffffffffffffffffffff161415612224576040517f08c379a000000000000000000000000000000000000000000000000000000000815260040161221b90613eb1565b60405180910390fd5b600073ffffffffffffffffffffffffffffffffffffffff168273ffffffffffffffffffffffffffffffffffffffff161415612294576040517f08c379a000000000000000000000000000000000000000000000000000000000815260040161228b90613d71565b60405180910390fd5b61229f838383613517565b60008060008573ffffffffffffffffffffffffffffffffffffffff1673ffffffffffffffffffffffffffffffffffffffff16815260200190815260200160002054905081811015612325576040517f08c379a000000000000000000000000000000000000000000000000000000000815260040161231c90613df1565b60405180910390fd5b81816123319190614132565b6000808673ffffffffffffffffffffffffffffffffffffffff1673ffffffffffffffffffffffffffffffffffffffff16815260200190815260200160002081905550816000808573ffffffffffffffffffffffffffffffffffffffff1673ffffffffffffffffffffffffffffffffffffffff16815260200190815260200160002060008282546123c19190614051565b925050819055508273ffffffffffffffffffffffffffffffffffffffff168473ffffffffffffffffffffffffffffffffffffffff167fddf252ad1be2c89b69c2b068fc378daa952ba7f163c4a11628f55a4df523b3ef846040516124259190613f31565b60405180910390a350505050565b60008061243e611dd7565b476124499190614132565b905080831015612457578290505b6000811115612491576124908161246c61146e565b73ffffffffffffffffffffffffffffffffffffffff1661290290919063ffffffff16565b5b80915050919050565b600073ffffffffffffffffffffffffffffffffffffffff168273ffffffffffffffffffffffffffffffffffffffff16141561250a576040517f08c379a000000000000000000000000000000000000000000000000000000000815260040161250190613f11565b60405180910390fd5b61251660008383613517565b80600260008282546125289190614051565b92505081905550806000808473ffffffffffffffffffffffffffffffffffffffff1673ffffffffffffffffffffffffffffffffffffffff168152602001908152602001600020600082825461257d9190614051565b925050819055508173ffffffffffffffffffffffffffffffffffffffff16600073ffffffffffffffffffffffffffffffffffffffff167fddf252ad1be2c89b69c2b068fc378daa952ba7f163c4a11628f55a4df523b3ef836040516125e29190613f31565b60405180910390a35050565b600080600085116125fe57600080fd5b6000841161260b57600080fd5b6000600a8661261a91906140a7565b866126259190614051565b90506000849050600060085490505b600081141580156126455750600083115b15612865576000600760008381526020019081526020016000209050612669611de1565b73ffffffffffffffffffffffffffffffffffffffff168160000160019054906101000a900473ffffffffffffffffffffffffffffffffffffffff1673ffffffffffffffffffffffffffffffffffffffff16146128585787816002015411156126d15750612865565b60008160020154846126e391906140a7565b90508481106126f257846126f4565b805b90506000811415612706575050612865565b80826001015410156127b3578160020154826001015461272691906140d8565b846127319190614132565b93508160010154856127439190614132565b94506127a58260020154836001015461275c91906140d8565b8360000160019054906101000a900473ffffffffffffffffffffffffffffffffffffffff1673ffffffffffffffffffffffffffffffffffffffff1661290290919063ffffffff16565b6127ae83611fb4565b612856565b80856127bf9190614132565b94508160020154816127d191906140d8565b846127dc9190614132565b9350808260010160008282546127f29190614132565b9250508190555061285582600201548261280c91906140d8565b8360000160019054906101000a900473ffffffffffffffffffffffffffffffffffffffff1673ffffffffffffffffffffffffffffffffffffffff1661290290919063ffffffff16565b5b505b8060040154915050612634565b600083600a8a61287591906140a7565b8a6128809190614051565b61288a9190614132565b905080600b600082825461289e9190614132565b925050819055506128ce306128b1611de1565b600b846128be91906140a7565b846128c99190614132565b6121b4565b600b816128db91906140a7565b816128e69190614132565b83886128f29190614132565b9550955050505050935093915050565b80471015612945576040517f08c379a000000000000000000000000000000000000000000000000000000000815260040161293c90613e31565b60405180910390fd5b60008273ffffffffffffffffffffffffffffffffffffffff168260405161296b90613bdd565b60006040518083038185875af1925050503d80600081146129a8576040519150601f19603f3d011682016040523d82523d6000602084013e6129ad565b606091505b50509050806129f1576040517f08c379a00000000000000000000000000000000000000000000000000000000081526004016129e890613e11565b60405180910390fd5b505050565b6000612a00611de1565b73ffffffffffffffffffffffffffffffffffffffff16612a1e61146e565b73ffffffffffffffffffffffffffffffffffffffff1614612a74576040517f08c379a0000000000000000000000000000000000000000000000000000000008152600401612a6b90613e71565b60405180910390fd5b612a938373ffffffffffffffffffffffffffffffffffffffff1661351c565b612a9c57600080fd5b60008390506000612aac82611aef565b8273ffffffffffffffffffffffffffffffffffffffff166370a08231306040518263ffffffff1660e01b8152600401612ae59190613bf2565b60206040518083038186803b158015612afd57600080fd5b505afa158015612b11573d6000803e3d6000fd5b505050506040513d601f19601f82011682018060405250810190612b359190613718565b612b3f9190614132565b905080841015612b4d578390505b6000811115612bec578173ffffffffffffffffffffffffffffffffffffffff1663a9059cbb612b7a61146e565b836040518363ffffffff1660e01b8152600401612b98929190613c0d565b602060405180830381600087803b158015612bb257600080fd5b505af1158015612bc6573d6000803e3d6000fd5b505050506040513d601f19601f82011682018060405250810190612bea919061369d565b505b809250505092915050565b60008060008411612c0757600080fd5b60008311612c1457600080fd5b600080859050600060095490505b60008114158015612c34575060008214155b15612dc8576000600760008381526020019081526020016000209050612c58611de1565b73ffffffffffffffffffffffffffffffffffffffff168160000160019054906101000a900473ffffffffffffffffffffffffffffffffffffffff1673ffffffffffffffffffffffffffffffffffffffff1614612dbb578681600201541015612cc05750612dc8565b8281600101541015612d4757806001015483612cdc9190614132565b925080600201548160010154612cf291906140d8565b84612cfd9190614051565b9350612d39612d0a611de1565b8260000160019054906101000a900473ffffffffffffffffffffffffffffffffffffffff1683600101546121b4565b612d4282611fb4565b612dba565b806002015483612d5791906140d8565b84612d629190614051565b93506000925082816001016000828254612d7c9190614132565b92505081905550612db9612d8e611de1565b8260000160019054906101000a900473ffffffffffffffffffffffffffffffffffffffff16856121b4565b5b5b8060040154915050612c22565b82600a6000828254612dda9190614132565b92505081905550612e28600b84612df191906140a7565b84612dfc9190614132565b612e04611de1565b73ffffffffffffffffffffffffffffffffffffffff1661290290919063ffffffff16565b600b83612e3591906140a7565b83612e409190614132565b8288612e4c9190614132565b945094505050509250929050565b600073ffffffffffffffffffffffffffffffffffffffff168273ffffffffffffffffffffffffffffffffffffffff161415612eca576040517f08c379a0000000000000000000000000000000000000000000000000000000008152600401612ec190613e91565b60405180910390fd5b612ed682600083613517565b60008060008473ffffffffffffffffffffffffffffffffffffffff1673ffffffffffffffffffffffffffffffffffffffff16815260200190815260200160002054905081811015612f5c576040517f08c379a0000000000000000000000000000000000000000000000000000000008152600401612f5390613d91565b60405180910390fd5b8181612f689190614132565b6000808573ffffffffffffffffffffffffffffffffffffffff1673ffffffffffffffffffffffffffffffffffffffff168152602001908152602001600020819055508160026000828254612fbc9190614132565b92505081905550600073ffffffffffffffffffffffffffffffffffffffff168373ffffffffffffffffffffffffffffffffffffffff167fddf252ad1be2c89b69c2b068fc378daa952ba7f163c4a11628f55a4df523b3ef846040516130219190613f31565b60405180910390a3505050565b6000806040518060c00160405280841515815260200161304c611de1565b73ffffffffffffffffffffffffffffffffffffffff16815260200186815260200185815260200160008152602001600081525090506000600660008154809291906130969061427a565b919050559050816007600083815260200190815260200160002060008201518160000160006101000a81548160ff02191690831515021790555060208201518160000160016101000a81548173ffffffffffffffffffffffffffffffffffffffff021916908373ffffffffffffffffffffffffffffffffffffffff16021790555060408201518160010155606082015181600201556080820151816003015560a082015181600401559050506000808561315257600954613156565b6008545b90505b600081141580156131a55750856131895786600760008381526020019081526020016000206002015410156131a4565b86600760008381526020019081526020016000206002015411155b5b156131cb5780915060076000828152602001908152602001600020600401549050613159565b816007600085815260200190815260200160002060030181905550806007600085815260200190815260200160002060040181905550600082141561322957851561321c5782600881905550613224565b826009819055505b613245565b8260076000848152602001908152602001600020600401819055505b60008114613269578260076000838152602001908152602001600020600301819055505b829450505050509392505050565b60606000836132885760095461328c565b6008545b905060005b6000821461336757600073ffffffffffffffffffffffffffffffffffffffff168473ffffffffffffffffffffffffffffffffffffffff16148061333557506007600083815260200190815260200160002060000160019054906101000a900473ffffffffffffffffffffffffffffffffffffffff1673ffffffffffffffffffffffffffffffffffffffff168473ffffffffffffffffffffffffffffffffffffffff16145b156133495780806133459061427a565b9150505b60076000838152602001908152602001600020600401549150613291565b60008167ffffffffffffffff8111156133a9577f4e487b7100000000000000000000000000000000000000000000000000000000600052604160045260246000fd5b6040519080825280602002602001820160405280156133d75781602001602082028036833780820191505090505b509050856133e7576009546133eb565b6008545b925060005b6000841461350a57600073ffffffffffffffffffffffffffffffffffffffff168673ffffffffffffffffffffffffffffffffffffffff16148061349457506007600085815260200190815260200160002060000160019054906101000a900473ffffffffffffffffffffffffffffffffffffffff1673ffffffffffffffffffffffffffffffffffffffff168673ffffffffffffffffffffffffffffffffffffffff16145b156134ec57838282806134a69061427a565b9350815181106134df577f4e487b7100000000000000000000000000000000000000000000000000000000600052603260045260246000fd5b6020026020010181815250505b600760008581526020019081526020016000206004015493506133f0565b8194505050505092915050565b505050565b600080823b905060008111915050919050565b60008135905061353e81614744565b92915050565b6000813590506135538161475b565b92915050565b6000815190506135688161475b565b92915050565b60008135905061357d81614772565b92915050565b60008135905061359281614789565b92915050565b6000815190506135a781614789565b92915050565b6000602082840312156135bf57600080fd5b60006135cd8482850161352f565b91505092915050565b600080604083850312156135e957600080fd5b60006135f78582860161352f565b92505060206136088582860161352f565b9150509250929050565b60008060006060848603121561362757600080fd5b60006136358682870161352f565b93505060206136468682870161352f565b925050604061365786828701613583565b9150509250925092565b6000806040838503121561367457600080fd5b60006136828582860161352f565b925050602061369385828601613583565b9150509250929050565b6000602082840312156136af57600080fd5b60006136bd84828501613559565b91505092915050565b6000602082840312156136d857600080fd5b60006136e68482850161356e565b91505092915050565b60006020828403121561370157600080fd5b600061370f84828501613583565b91505092915050565b60006020828403121561372a57600080fd5b600061373884828501613598565b91505092915050565b6000806040838503121561375457600080fd5b600061376285828601613583565b925050602061377385828601613583565b9150509250929050565b60008060006060848603121561379257600080fd5b60006137a086828701613583565b93505060206137b186828701613583565b92505060406137c286828701613544565b9150509250925092565b60006137d8838361394c565b60208301905092915050565b60006137f0838361395b565b60208301905092915050565b60006138088383613bb0565b60208301905092915050565b61381d81614166565b82525050565b600061382e82613fc0565b6138388185614013565b935061384383613f90565b8060005b8381101561387457815161385b88826137cc565b975061386683613fec565b925050600181019050613847565b5085935050505092915050565b600061388c82613fcb565b6138968185614013565b93506138a183613fa0565b8060005b838110156138d25781516138b988826137e4565b97506138c483613ff9565b9250506001810190506138a5565b5085935050505092915050565b60006138ea82613fd6565b6138f48185614024565b93506138ff83613fb0565b8060005b8381101561393057815161391788826137fc565b975061392283614006565b925050600181019050613903565b5085935050505092915050565b61394681614178565b82525050565b613955816141cd565b82525050565b613964816141f1565b82525050565b600061397582613fe1565b61397f8185614040565b935061398f818560208601614215565b61399881614350565b840191505092915050565b60006139b0602383614040565b91506139bb82614361565b604082019050919050565b60006139d3602283614040565b91506139de826143b0565b604082019050919050565b60006139f6602683614040565b9150613a01826143ff565b604082019050919050565b6000613a19602283614040565b9150613a248261444e565b604082019050919050565b6000613a3c602683614040565b9150613a478261449d565b604082019050919050565b6000613a5f603a83614040565b9150613a6a826144ec565b604082019050919050565b6000613a82601d83614040565b9150613a8d8261453b565b602082019050919050565b6000613aa5602883614040565b9150613ab082614564565b604082019050919050565b6000613ac8602083614040565b9150613ad3826145b3565b602082019050919050565b6000613aeb602183614040565b9150613af6826145dc565b604082019050919050565b6000613b0e602583614040565b9150613b198261462b565b604082019050919050565b6000613b31600083614035565b9150613b3c8261467a565b600082019050919050565b6000613b54602483614040565b9150613b5f8261467d565b604082019050919050565b6000613b77602583614040565b9150613b82826146cc565b604082019050919050565b6000613b9a601f83614040565b9150613ba58261471b565b602082019050919050565b613bb9816141b6565b82525050565b613bc8816141b6565b82525050565b613bd7816141c0565b82525050565b6000613be882613b24565b9150819050919050565b6000602082019050613c076000830184613814565b92915050565b6000604082019050613c226000830185613814565b613c2f6020830184613bbf565b9392505050565b60006020820190508181036000830152613c508184613823565b905092915050565b60006020820190508181036000830152613c728184613881565b905092915050565b60006020820190508181036000830152613c9481846138df565b905092915050565b60006040820190508181036000830152613cb681856138df565b90508181036020830152613cca81846138df565b90509392505050565b6000602082019050613ce8600083018461393d565b92915050565b600060c082019050613d03600083018961393d565b613d106020830188613814565b613d1d6040830187613bbf565b613d2a6060830186613bbf565b613d376080830185613bbf565b613d4460a0830184613bbf565b979650505050505050565b60006020820190508181036000830152613d69818461396a565b905092915050565b60006020820190508181036000830152613d8a816139a3565b9050919050565b60006020820190508181036000830152613daa816139c6565b9050919050565b60006020820190508181036000830152613dca816139e9565b9050919050565b60006020820190508181036000830152613dea81613a0c565b9050919050565b60006020820190508181036000830152613e0a81613a2f565b9050919050565b60006020820190508181036000830152613e2a81613a52565b9050919050565b60006020820190508181036000830152613e4a81613a75565b9050919050565b60006020820190508181036000830152613e6a81613a98565b9050919050565b60006020820190508181036000830152613e8a81613abb565b9050919050565b60006020820190508181036000830152613eaa81613ade565b9050919050565b60006020820190508181036000830152613eca81613b01565b9050919050565b60006020820190508181036000830152613eea81613b47565b9050919050565b60006020820190508181036000830152613f0a81613b6a565b9050919050565b60006020820190508181036000830152613f2a81613b8d565b9050919050565b6000602082019050613f466000830184613bbf565b92915050565b6000604082019050613f616000830185613bbf565b613f6e6020830184613bbf565b9392505050565b6000602082019050613f8a6000830184613bce565b92915050565b6000819050602082019050919050565b6000819050602082019050919050565b6000819050602082019050919050565b600081519050919050565b600081519050919050565b600081519050919050565b600081519050919050565b6000602082019050919050565b6000602082019050919050565b6000602082019050919050565b600082825260208201905092915050565b600082825260208201905092915050565b600081905092915050565b600082825260208201905092915050565b600061405c826141b6565b9150614067836141b6565b9250827fffffffffffffffffffffffffffffffffffffffffffffffffffffffffffffffff0382111561409c5761409b6142c3565b5b828201905092915050565b60006140b2826141b6565b91506140bd836141b6565b9250826140cd576140cc6142f2565b5b828204905092915050565b60006140e3826141b6565b91506140ee836141b6565b9250817fffffffffffffffffffffffffffffffffffffffffffffffffffffffffffffffff0483118215151615614127576141266142c3565b5b828202905092915050565b600061413d826141b6565b9150614148836141b6565b92508282101561415b5761415a6142c3565b5b828203905092915050565b600061417182614196565b9050919050565b60008115159050919050565b600061418f82614166565b9050919050565b600073ffffffffffffffffffffffffffffffffffffffff82169050919050565b6000819050919050565b600060ff82169050919050565b60006141d8826141df565b9050919050565b60006141ea82614196565b9050919050565b60006141fc82614203565b9050919050565b600061420e82614196565b9050919050565b60005b83811015614233578082015181840152602081019050614218565b83811115614242576000848401525b50505050565b6000600282049050600182168061426057607f821691505b6020821081141561427457614273614321565b5b50919050565b6000614285826141b6565b91507fffffffffffffffffffffffffffffffffffffffffffffffffffffffffffffffff8214156142b8576142b76142c3565b5b600182019050919050565b7f4e487b7100000000000000000000000000000000000000000000000000000000600052601160045260246000fd5b7f4e487b7100000000000000000000000000000000000000000000000000000000600052601260045260246000fd5b7f4e487b7100000000000000000000000000000000000000000000000000000000600052602260045260246000fd5b6000601f19601f8301169050919050565b7f45524332303a207472616e7366657220746f20746865207a65726f206164647260008201527f6573730000000000000000000000000000000000000000000000000000000000602082015250565b7f45524332303a206275726e20616d6f756e7420657863656564732062616c616e60008201527f6365000000000000000000000000000000000000000000000000000000000000602082015250565b7f4f776e61626c653a206e6577206f776e657220697320746865207a65726f206160008201527f6464726573730000000000000000000000000000000000000000000000000000602082015250565b7f45524332303a20617070726f766520746f20746865207a65726f20616464726560008201527f7373000000000000000000000000000000000000000000000000000000000000602082015250565b7f45524332303a207472616e7366657220616d6f756e742065786365656473206260008201527f616c616e63650000000000000000000000000000000000000000000000000000602082015250565b7f416464726573733a20756e61626c6520746f2073656e642076616c75652c207260008201527f6563697069656e74206d61792068617665207265766572746564000000000000602082015250565b7f416464726573733a20696e73756666696369656e742062616c616e6365000000600082015250565b7f45524332303a207472616e7366657220616d6f756e742065786365656473206160008201527f6c6c6f77616e6365000000000000000000000000000000000000000000000000602082015250565b7f4f776e61626c653a2063616c6c6572206973206e6f7420746865206f776e6572600082015250565b7f45524332303a206275726e2066726f6d20746865207a65726f2061646472657360008201527f7300000000000000000000000000000000000000000000000000000000000000602082015250565b7f45524332303a207472616e736665722066726f6d20746865207a65726f20616460008201527f6472657373000000000000000000000000000000000000000000000000000000602082015250565b50565b7f45524332303a20617070726f76652066726f6d20746865207a65726f2061646460008201527f7265737300000000000000000000000000000000000000000000000000000000602082015250565b7f45524332303a2064656372656173656420616c6c6f77616e63652062656c6f7760008201527f207a65726f000000000000000000000000000000000000000000000000000000602082015250565b7f45524332303a206d696e7420746f20746865207a65726f206164647265737300600082015250565b61474d81614166565b811461475857600080fd5b50565b61476481614178565b811461476f57600080fd5b50565b61477b81614184565b811461478657600080fd5b50565b614792816141b6565b811461479d57600080fd5b5056fea2646970667358221220e1aa2a6814a075303b5932acb7e7a2c61dd5bc041d7f0c2e2bae20f651acda9664736f6c63430008040033",
  "immutableReferences": {},
  "source": "// SPDX-License-Identifier: MIT\r\n\r\npragma solidity ^0.8.0;\r\n\r\nimport \"../token/ERC20/extensions/MarketableERC20.sol\";\r\n\r\ncontract Honey is MarketableERC20{\r\n    constructor() MarketableERC20(\"Honey\", \"HNY\"){}\r\n}",
  "sourcePath": "C:\\Users\\Lucas\\cryptobee\\contracts\\hive\\Honey.sol",
  "compiler": {
    "name": "solc",
    "version": "0.8.4+commit.c7e474f2.Emscripten.clang"
  },
  "schemaVersion": "3.3.4",
  "updatedAt": "2021-04-25T17:52:15.673Z",
  "devdoc": {
    "kind": "dev",
    "methods": {
      "allowance(address,address)": {
        "details": "See {IERC20-allowance}."
      },
      "approve(address,uint256)": {
        "details": "See {IERC20-approve}. Requirements: - `spender` cannot be the zero address."
      },
      "balanceOf(address)": {
        "details": "See {IERC20-balanceOf}."
      },
      "decimals()": {
        "details": "Returns the number of decimals used to get its user representation. For example, if `decimals` equals `2`, a balance of `505` tokens should be displayed to a user as `5,05` (`505 / 10 ** 2`). Tokens usually opt for a value of 18, imitating the relationship between Ether and Wei. This is the value {ERC20} uses, unless this function is overridden; NOTE: This information is only used for _display_ purposes: it in no way affects any of the arithmetic of the contract, including {IERC20-balanceOf} and {IERC20-transfer}."
      },
      "decreaseAllowance(address,uint256)": {
        "details": "Atomically decreases the allowance granted to `spender` by the caller. This is an alternative to {approve} that can be used as a mitigation for problems described in {IERC20-approve}. Emits an {Approval} event indicating the updated allowance. Requirements: - `spender` cannot be the zero address. - `spender` must have allowance for the caller of at least `subtractedValue`."
      },
      "increaseAllowance(address,uint256)": {
        "details": "Atomically increases the allowance granted to `spender` by the caller. This is an alternative to {approve} that can be used as a mitigation for problems described in {IERC20-approve}. Emits an {Approval} event indicating the updated allowance. Requirements: - `spender` cannot be the zero address."
      },
      "name()": {
        "details": "Returns the name of the token."
      },
      "owner()": {
        "details": "Returns the address of the current owner."
      },
      "renounceOwnership()": {
        "details": "Leaves the contract without owner. It will not be possible to call `onlyOwner` functions anymore. Can only be called by the current owner. NOTE: Renouncing ownership will leave the contract without an owner, thereby removing any functionality that is only available to the owner."
      },
      "symbol()": {
        "details": "Returns the symbol of the token, usually a shorter version of the name."
      },
      "totalSupply()": {
        "details": "See {IERC20-totalSupply}."
      },
      "transfer(address,uint256)": {
        "details": "See {IERC20-transfer}. Requirements: - `recipient` cannot be the zero address. - the caller must have a balance of at least `amount`."
      },
      "transferFrom(address,address,uint256)": {
        "details": "See {IERC20-transferFrom}. Emits an {Approval} event indicating the updated allowance. This is not required by the EIP. See the note at the beginning of {ERC20}. Requirements: - `sender` and `recipient` cannot be the zero address. - `sender` must have a balance of at least `amount`. - the caller must have allowance for ``sender``'s tokens of at least `amount`."
      },
      "transferOwnership(address)": {
        "details": "Transfers ownership of the contract to a new account (`newOwner`). Can only be called by the current owner."
      }
    },
    "version": 1
  },
  "userdoc": {
    "kind": "user",
    "methods": {},
    "version": 1
  }
}