{
  "contractName": "MarketableERC721",
  "abi": [
    {
      "inputs": [
        {
          "internalType": "string",
          "name": "name_",
          "type": "string"
        },
        {
          "internalType": "string",
          "name": "symbol_",
          "type": "string"
        },
        {
          "internalType": "address",
          "name": "tokenAdress",
          "type": "address"
        }
      ],
      "stateMutability": "nonpayable",
      "type": "constructor"
    },
    {
      "anonymous": false,
      "inputs": [
        {
          "indexed": true,
          "internalType": "address",
          "name": "owner",
          "type": "address"
        },
        {
          "indexed": true,
          "internalType": "address",
          "name": "approved",
          "type": "address"
        },
        {
          "indexed": true,
          "internalType": "uint256",
          "name": "tokenId",
          "type": "uint256"
        }
      ],
      "name": "Approval",
      "type": "event"
    },
    {
      "anonymous": false,
      "inputs": [
        {
          "indexed": true,
          "internalType": "address",
          "name": "owner",
          "type": "address"
        },
        {
          "indexed": true,
          "internalType": "address",
          "name": "operator",
          "type": "address"
        },
        {
          "indexed": false,
          "internalType": "bool",
          "name": "approved",
          "type": "bool"
        }
      ],
      "name": "ApprovalForAll",
      "type": "event"
    },
    {
      "anonymous": false,
      "inputs": [
        {
          "indexed": true,
          "internalType": "address",
          "name": "previousOwner",
          "type": "address"
        },
        {
          "indexed": true,
          "internalType": "address",
          "name": "newOwner",
          "type": "address"
        }
      ],
      "name": "OwnershipTransferred",
      "type": "event"
    },
    {
      "anonymous": false,
      "inputs": [
        {
          "indexed": true,
          "internalType": "address",
          "name": "from",
          "type": "address"
        },
        {
          "indexed": true,
          "internalType": "address",
          "name": "to",
          "type": "address"
        },
        {
          "indexed": true,
          "internalType": "uint256",
          "name": "tokenId",
          "type": "uint256"
        }
      ],
      "name": "Transfer",
      "type": "event"
    },
    {
      "inputs": [
        {
          "internalType": "address",
          "name": "to",
          "type": "address"
        },
        {
          "internalType": "uint256",
          "name": "tokenId",
          "type": "uint256"
        }
      ],
      "name": "approve",
      "outputs": [],
      "stateMutability": "nonpayable",
      "type": "function"
    },
    {
      "inputs": [
        {
          "internalType": "address",
          "name": "owner",
          "type": "address"
        }
      ],
      "name": "balanceOf",
      "outputs": [
        {
          "internalType": "uint256",
          "name": "",
          "type": "uint256"
        }
      ],
      "stateMutability": "view",
      "type": "function"
    },
    {
      "inputs": [
        {
          "internalType": "uint256",
          "name": "tokenId",
          "type": "uint256"
        }
      ],
      "name": "getApproved",
      "outputs": [
        {
          "internalType": "address",
          "name": "",
          "type": "address"
        }
      ],
      "stateMutability": "view",
      "type": "function"
    },
    {
      "inputs": [
        {
          "internalType": "address",
          "name": "owner",
          "type": "address"
        },
        {
          "internalType": "address",
          "name": "operator",
          "type": "address"
        }
      ],
      "name": "isApprovedForAll",
      "outputs": [
        {
          "internalType": "bool",
          "name": "",
          "type": "bool"
        }
      ],
      "stateMutability": "view",
      "type": "function"
    },
    {
      "inputs": [],
      "name": "name",
      "outputs": [
        {
          "internalType": "string",
          "name": "",
          "type": "string"
        }
      ],
      "stateMutability": "view",
      "type": "function"
    },
    {
      "inputs": [
        {
          "internalType": "address",
          "name": "",
          "type": "address"
        },
        {
          "internalType": "address",
          "name": "",
          "type": "address"
        },
        {
          "internalType": "uint256",
          "name": "",
          "type": "uint256"
        },
        {
          "internalType": "bytes",
          "name": "",
          "type": "bytes"
        }
      ],
      "name": "onERC721Received",
      "outputs": [
        {
          "internalType": "bytes4",
          "name": "",
          "type": "bytes4"
        }
      ],
      "stateMutability": "nonpayable",
      "type": "function"
    },
    {
      "inputs": [],
      "name": "owner",
      "outputs": [
        {
          "internalType": "address",
          "name": "",
          "type": "address"
        }
      ],
      "stateMutability": "view",
      "type": "function"
    },
    {
      "inputs": [
        {
          "internalType": "uint256",
          "name": "tokenId",
          "type": "uint256"
        }
      ],
      "name": "ownerOf",
      "outputs": [
        {
          "internalType": "address",
          "name": "",
          "type": "address"
        }
      ],
      "stateMutability": "view",
      "type": "function"
    },
    {
      "inputs": [],
      "name": "renounceOwnership",
      "outputs": [],
      "stateMutability": "nonpayable",
      "type": "function"
    },
    {
      "inputs": [
        {
          "internalType": "address",
          "name": "from",
          "type": "address"
        },
        {
          "internalType": "address",
          "name": "to",
          "type": "address"
        },
        {
          "internalType": "uint256",
          "name": "tokenId",
          "type": "uint256"
        }
      ],
      "name": "safeTransferFrom",
      "outputs": [],
      "stateMutability": "nonpayable",
      "type": "function"
    },
    {
      "inputs": [
        {
          "internalType": "address",
          "name": "from",
          "type": "address"
        },
        {
          "internalType": "address",
          "name": "to",
          "type": "address"
        },
        {
          "internalType": "uint256",
          "name": "tokenId",
          "type": "uint256"
        },
        {
          "internalType": "bytes",
          "name": "_data",
          "type": "bytes"
        }
      ],
      "name": "safeTransferFrom",
      "outputs": [],
      "stateMutability": "nonpayable",
      "type": "function"
    },
    {
      "inputs": [
        {
          "internalType": "address",
          "name": "operator",
          "type": "address"
        },
        {
          "internalType": "bool",
          "name": "approved",
          "type": "bool"
        }
      ],
      "name": "setApprovalForAll",
      "outputs": [],
      "stateMutability": "nonpayable",
      "type": "function"
    },
    {
      "inputs": [],
      "name": "subWithdraw",
      "outputs": [
        {
          "internalType": "contract Withdraw[]",
          "name": "",
          "type": "address[]"
        }
      ],
      "stateMutability": "view",
      "type": "function"
    },
    {
      "inputs": [],
      "name": "subWithdrawERC20",
      "outputs": [
        {
          "internalType": "contract WithdrawERC20[]",
          "name": "",
          "type": "address[]"
        }
      ],
      "stateMutability": "view",
      "type": "function"
    },
    {
      "inputs": [
        {
          "internalType": "bytes4",
          "name": "interfaceId",
          "type": "bytes4"
        }
      ],
      "name": "supportsInterface",
      "outputs": [
        {
          "internalType": "bool",
          "name": "",
          "type": "bool"
        }
      ],
      "stateMutability": "view",
      "type": "function"
    },
    {
      "inputs": [],
      "name": "symbol",
      "outputs": [
        {
          "internalType": "string",
          "name": "",
          "type": "string"
        }
      ],
      "stateMutability": "view",
      "type": "function"
    },
    {
      "inputs": [
        {
          "internalType": "uint256",
          "name": "tokenId",
          "type": "uint256"
        }
      ],
      "name": "tokenURI",
      "outputs": [
        {
          "internalType": "string",
          "name": "",
          "type": "string"
        }
      ],
      "stateMutability": "view",
      "type": "function"
    },
    {
      "inputs": [
        {
          "internalType": "address",
          "name": "from",
          "type": "address"
        },
        {
          "internalType": "address",
          "name": "to",
          "type": "address"
        },
        {
          "internalType": "uint256",
          "name": "tokenId",
          "type": "uint256"
        }
      ],
      "name": "transferFrom",
      "outputs": [],
      "stateMutability": "nonpayable",
      "type": "function"
    },
    {
      "inputs": [
        {
          "internalType": "address",
          "name": "newOwner",
          "type": "address"
        }
      ],
      "name": "transferOwnership",
      "outputs": [],
      "stateMutability": "nonpayable",
      "type": "function"
    },
    {
      "inputs": [
        {
          "internalType": "uint256",
          "name": "maxAmount",
          "type": "uint256"
        }
      ],
      "name": "withdraw",
      "outputs": [
        {
          "internalType": "uint256",
          "name": "",
          "type": "uint256"
        }
      ],
      "stateMutability": "nonpayable",
      "type": "function"
    },
    {
      "inputs": [],
      "name": "withdrawAll",
      "outputs": [
        {
          "internalType": "uint256",
          "name": "",
          "type": "uint256"
        }
      ],
      "stateMutability": "nonpayable",
      "type": "function"
    },
    {
      "inputs": [
        {
          "internalType": "address",
          "name": "add",
          "type": "address"
        }
      ],
      "name": "withdrawAllERC20",
      "outputs": [
        {
          "internalType": "uint256",
          "name": "",
          "type": "uint256"
        }
      ],
      "stateMutability": "nonpayable",
      "type": "function"
    },
    {
      "inputs": [
        {
          "internalType": "address",
          "name": "add",
          "type": "address"
        },
        {
          "internalType": "uint256",
          "name": "maxAmount",
          "type": "uint256"
        }
      ],
      "name": "withdrawERC20",
      "outputs": [
        {
          "internalType": "uint256",
          "name": "",
          "type": "uint256"
        }
      ],
      "stateMutability": "nonpayable",
      "type": "function"
    },
    {
      "inputs": [
        {
          "internalType": "address",
          "name": "add",
          "type": "address"
        },
        {
          "internalType": "uint256",
          "name": "id",
          "type": "uint256"
        }
      ],
      "name": "withdrawERC721",
      "outputs": [],
      "stateMutability": "nonpayable",
      "type": "function"
    },
    {
      "inputs": [
        {
          "internalType": "uint256",
          "name": "tokenId",
          "type": "uint256"
        },
        {
          "internalType": "uint256",
          "name": "amount",
          "type": "uint256"
        }
      ],
      "name": "placeSellOrder",
      "outputs": [
        {
          "internalType": "uint256",
          "name": "",
          "type": "uint256"
        }
      ],
      "stateMutability": "nonpayable",
      "type": "function"
    },
    {
      "inputs": [
        {
          "internalType": "uint256",
          "name": "tokenId",
          "type": "uint256"
        },
        {
          "internalType": "uint256",
          "name": "amount",
          "type": "uint256"
        }
      ],
      "name": "placeTokenSellOrder",
      "outputs": [
        {
          "internalType": "uint256",
          "name": "",
          "type": "uint256"
        }
      ],
      "stateMutability": "nonpayable",
      "type": "function"
    },
    {
      "inputs": [
        {
          "internalType": "uint256",
          "name": "tokenId",
          "type": "uint256"
        },
        {
          "internalType": "uint256",
          "name": "amount",
          "type": "uint256"
        }
      ],
      "name": "placeBuyOrder",
      "outputs": [
        {
          "internalType": "uint256",
          "name": "",
          "type": "uint256"
        }
      ],
      "stateMutability": "nonpayable",
      "type": "function"
    },
    {
      "inputs": [
        {
          "internalType": "uint256",
          "name": "tokenId",
          "type": "uint256"
        },
        {
          "internalType": "uint256",
          "name": "amount",
          "type": "uint256"
        }
      ],
      "name": "placeTokenbuyOrder",
      "outputs": [
        {
          "internalType": "uint256",
          "name": "",
          "type": "uint256"
        }
      ],
      "stateMutability": "nonpayable",
      "type": "function"
    },
    {
      "inputs": [
        {
          "internalType": "uint256",
          "name": "orderId",
          "type": "uint256"
        }
      ],
      "name": "removeOrder",
      "outputs": [],
      "stateMutability": "nonpayable",
      "type": "function"
    },
    {
      "inputs": [
        {
          "internalType": "uint256",
          "name": "tokenId",
          "type": "uint256"
        },
        {
          "internalType": "bool",
          "name": "withToken",
          "type": "bool"
        }
      ],
      "name": "tokenOrder",
      "outputs": [
        {
          "internalType": "uint256[]",
          "name": "",
          "type": "uint256[]"
        }
      ],
      "stateMutability": "view",
      "type": "function"
    },
    {
      "inputs": [
        {
          "internalType": "address",
          "name": "add",
          "type": "address"
        },
        {
          "internalType": "bool",
          "name": "withToken",
          "type": "bool"
        }
      ],
      "name": "addressOrder",
      "outputs": [
        {
          "internalType": "uint256[]",
          "name": "",
          "type": "uint256[]"
        }
      ],
      "stateMutability": "view",
      "type": "function"
    },
    {
      "inputs": [],
      "name": "reservedAmount",
      "outputs": [
        {
          "internalType": "uint256",
          "name": "",
          "type": "uint256"
        }
      ],
      "stateMutability": "view",
      "type": "function"
    },
    {
      "inputs": [
        {
          "internalType": "contract IERC20",
          "name": "token",
          "type": "address"
        }
      ],
      "name": "reservedERC20Amount",
      "outputs": [
        {
          "internalType": "uint256",
          "name": "",
          "type": "uint256"
        }
      ],
      "stateMutability": "view",
      "type": "function"
    },
    {
      "inputs": [
        {
          "internalType": "contract IERC721",
          "name": "token",
          "type": "address"
        },
        {
          "internalType": "uint256",
          "name": "id",
          "type": "uint256"
        }
      ],
      "name": "reservedERC721",
      "outputs": [
        {
          "internalType": "bool",
          "name": "",
          "type": "bool"
        }
      ],
      "stateMutability": "view",
      "type": "function"
    }
  ],
  "bytecode": "0x608060405260016008556000600a553480156200001b57600080fd5b50604051620050b8380380620050b88339818101604052810190620000419190620002b3565b828281600090805190602001906200005b9291906200017a565b508060019080519060200190620000749291906200017a565b5050506000620000896200017260201b60201c565b905080600660006101000a81548173ffffffffffffffffffffffffffffffffffffffff021916908373ffffffffffffffffffffffffffffffffffffffff1602179055508073ffffffffffffffffffffffffffffffffffffffff16600073ffffffffffffffffffffffffffffffffffffffff167f8be0079c531659141344cd1fd0a4f28419497f9722a3daafe3b4186f6b6457e060405160405180910390a35080600760006101000a81548173ffffffffffffffffffffffffffffffffffffffff021916908373ffffffffffffffffffffffffffffffffffffffff160217905550505050620004f9565b600033905090565b828054620001889062000404565b90600052602060002090601f016020900481019282620001ac5760008555620001f8565b82601f10620001c757805160ff1916838001178555620001f8565b82800160010185558215620001f8579182015b82811115620001f7578251825591602001919060010190620001da565b5b5090506200020791906200020b565b5090565b5b80821115620002265760008160009055506001016200020c565b5090565b6000620002416200023b8462000364565b6200033b565b9050828152602081018484840111156200025a57600080fd5b62000267848285620003ce565b509392505050565b6000815190506200028081620004df565b92915050565b600082601f8301126200029857600080fd5b8151620002aa8482602086016200022a565b91505092915050565b600080600060608486031215620002c957600080fd5b600084015167ffffffffffffffff811115620002e457600080fd5b620002f28682870162000286565b935050602084015167ffffffffffffffff8111156200031057600080fd5b6200031e8682870162000286565b925050604062000331868287016200026f565b9150509250925092565b6000620003476200035a565b90506200035582826200043a565b919050565b6000604051905090565b600067ffffffffffffffff8211156200038257620003816200049f565b5b6200038d82620004ce565b9050602081019050919050565b6000620003a782620003ae565b9050919050565b600073ffffffffffffffffffffffffffffffffffffffff82169050919050565b60005b83811015620003ee578082015181840152602081019050620003d1565b83811115620003fe576000848401525b50505050565b600060028204905060018216806200041d57607f821691505b6020821081141562000434576200043362000470565b5b50919050565b6200044582620004ce565b810181811067ffffffffffffffff821117156200046757620004666200049f565b5b80604052505050565b7f4e487b7100000000000000000000000000000000000000000000000000000000600052602260045260246000fd5b7f4e487b7100000000000000000000000000000000000000000000000000000000600052604160045260246000fd5b6000601f19601f8301169050919050565b620004ea816200039a565b8114620004f657600080fd5b50565b614baf80620005096000396000f3fe608060405234801561001057600080fd5b50600436106102065760003560e01c806395d89b411161011a578063c87b56dd116100ad578063ee36d4ab1161007c578063ee36d4ab14610671578063f2fde38b146106a1578063f3e414f8146106bd578063f92c45b7146106d9578063fcde2638146106f757610206565b8063c87b56dd146105b1578063cce95e56146105e1578063e38c266014610611578063e985e9c51461064157610206565b8063a4406bcd116100e9578063a4406bcd14610517578063b88d4fde14610547578063b994d27814610563578063c13159bc1461058157610206565b806395d89b41146104915780639645337a146104af578063a1db9782146104cb578063a22cb465146104fb57610206565b806342842e0e1161019d578063715018a61161016c578063715018a6146103eb5780637a35110f146103f5578063853828b614610425578063857abbd4146104435780638da5cb5b1461047357610206565b806342842e0e1461033f5780634789dd641461035b5780636352211e1461038b57806370a08231146103bb57610206565b8063150b7a02116101d9578063150b7a02146102a557806323b872dd146102d55780632e1a7d4d146102f157806333df66da1461032157610206565b806301ffc9a71461020b57806306fdde031461023b578063081812fc14610259578063095ea7b314610289575b600080fd5b6102256004803603810190610220919061378e565b610727565b6040516102329190613f36565b60405180910390f35b610243610809565b6040516102509190613f6c565b60405180910390f35b610273600480360381019061026e9190613845565b61089b565b6040516102809190613e09565b60405180910390f35b6102a3600480360381019061029e9190613729565b610920565b005b6102bf60048036038101906102ba91906135f2565b610a38565b6040516102cc9190613f51565b60405180910390f35b6102ef60048036038101906102ea91906135a3565b610a4d565b005b61030b60048036038101906103069190613845565b610aad565b604051610318919061418e565b60405180910390f35b610329610b3b565b6040516103369190613ed0565b60405180910390f35b610359600480360381019061035491906135a3565b610bb2565b005b61037560048036038101906103709190613809565b610bd2565b6040516103829190613f36565b60405180910390f35b6103a560048036038101906103a09190613845565b610c7e565b6040516103b29190613e09565b60405180910390f35b6103d560048036038101906103d0919061353e565b610d30565b6040516103e2919061418e565b60405180910390f35b6103f3610de8565b005b61040f600480360381019061040a9190613897565b610f25565b60405161041c9190613f14565b60405180910390f35b61042d610f39565b60405161043a919061418e565b60405180910390f35b61045d6004803603810190610458919061353e565b6110d3565b60405161046a919061418e565b60405180910390f35b61047b61127b565b6040516104889190613e09565b60405180910390f35b6104996112a5565b6040516104a69190613f6c565b60405180910390f35b6104c960048036038101906104c49190613845565b611337565b005b6104e560048036038101906104e09190613729565b6113ba565b6040516104f2919061418e565b60405180910390f35b610515600480360381019061051091906136ed565b61144a565b005b610531600480360381019061052c91906138d3565b6115cb565b60405161053e919061418e565b60405180910390f35b610561600480360381019061055c9190613672565b6115e3565b005b61056b611645565b6040516105789190613ef2565b60405180910390f35b61059b600480360381019061059691906138d3565b6116bc565b6040516105a8919061418e565b60405180910390f35b6105cb60048036038101906105c69190613845565b6116d4565b6040516105d89190613f6c565b60405180910390f35b6105fb60048036038101906105f691906138d3565b61177b565b604051610608919061418e565b60405180910390f35b61062b600480360381019061062691906137e0565b611792565b604051610638919061418e565b60405180910390f35b61065b60048036038101906106569190613567565b6117fe565b6040516106689190613f36565b60405180910390f35b61068b600480360381019061068691906138d3565b611892565b604051610698919061418e565b60405180910390f35b6106bb60048036038101906106b6919061353e565b6118a9565b005b6106d760048036038101906106d29190613729565b611a55565b005b6106e1611adf565b6040516106ee919061418e565b60405180910390f35b610711600480360381019061070c91906136ed565b611ae9565b60405161071e9190613f14565b60405180910390f35b60007f80ac58cd000000000000000000000000000000000000000000000000000000007bffffffffffffffffffffffffffffffffffffffffffffffffffffffff1916827bffffffffffffffffffffffffffffffffffffffffffffffffffffffff191614806107f257507f5b5e139f000000000000000000000000000000000000000000000000000000007bffffffffffffffffffffffffffffffffffffffffffffffffffffffff1916827bffffffffffffffffffffffffffffffffffffffffffffffffffffffff1916145b80610802575061080182611afd565b5b9050919050565b606060008054610818906144c4565b80601f0160208091040260200160405190810160405280929190818152602001828054610844906144c4565b80156108915780601f1061086657610100808354040283529160200191610891565b820191906000526020600020905b81548152906001019060200180831161087457829003601f168201915b5050505050905090565b60006108a682611b67565b6108e5576040517f08c379a00000000000000000000000000000000000000000000000000000000081526004016108dc906140ce565b60405180910390fd5b6004600083815260200190815260200160002060009054906101000a900473ffffffffffffffffffffffffffffffffffffffff169050919050565b600061092b82610c7e565b90508073ffffffffffffffffffffffffffffffffffffffff168373ffffffffffffffffffffffffffffffffffffffff16141561099c576040517f08c379a00000000000000000000000000000000000000000000000000000000081526004016109939061414e565b60405180910390fd5b8073ffffffffffffffffffffffffffffffffffffffff166109bb611bd3565b73ffffffffffffffffffffffffffffffffffffffff1614806109ea57506109e9816109e4611bd3565b6117fe565b5b610a29576040517f08c379a0000000000000000000000000000000000000000000000000000000008152600401610a209061406e565b60405180910390fd5b610a338383611bdb565b505050565b600063150b7a0260e01b905095945050505050565b610a5e610a58611bd3565b82611c94565b610a9d576040517f08c379a0000000000000000000000000000000000000000000000000000000008152600401610a949061416e565b60405180910390fd5b610aa8838383611d72565b505050565b6000610ab7611bd3565b73ffffffffffffffffffffffffffffffffffffffff16610ad561127b565b73ffffffffffffffffffffffffffffffffffffffff1614610b2b576040517f08c379a0000000000000000000000000000000000000000000000000000000008152600401610b22906140ee565b60405180910390fd5b610b3482611fce565b9050919050565b6060600067ffffffffffffffff811115610b7e577f4e487b7100000000000000000000000000000000000000000000000000000000600052604160045260246000fd5b604051908082528060200260200182016040528015610bac5781602001602082028036833780820191505090505b50905090565b610bcd838383604051806020016040528060008152506115e3565b505050565b60003073ffffffffffffffffffffffffffffffffffffffff168373ffffffffffffffffffffffffffffffffffffffff161415610c7357600073ffffffffffffffffffffffffffffffffffffffff16600c600084815260200190815260200160002060009054906101000a900473ffffffffffffffffffffffffffffffffffffffff1673ffffffffffffffffffffffffffffffffffffffff1614159050610c78565b600090505b92915050565b6000806002600084815260200190815260200160002060009054906101000a900473ffffffffffffffffffffffffffffffffffffffff169050600073ffffffffffffffffffffffffffffffffffffffff168173ffffffffffffffffffffffffffffffffffffffff161415610d27576040517f08c379a0000000000000000000000000000000000000000000000000000000008152600401610d1e906140ae565b60405180910390fd5b80915050919050565b60008073ffffffffffffffffffffffffffffffffffffffff168273ffffffffffffffffffffffffffffffffffffffff161415610da1576040517f08c379a0000000000000000000000000000000000000000000000000000000008152600401610d989061408e565b60405180910390fd5b600360008373ffffffffffffffffffffffffffffffffffffffff1673ffffffffffffffffffffffffffffffffffffffff168152602001908152602001600020549050919050565b610df0611bd3565b73ffffffffffffffffffffffffffffffffffffffff16610e0e61127b565b73ffffffffffffffffffffffffffffffffffffffff1614610e64576040517f08c379a0000000000000000000000000000000000000000000000000000000008152600401610e5b906140ee565b60405180910390fd5b600073ffffffffffffffffffffffffffffffffffffffff16600660009054906101000a900473ffffffffffffffffffffffffffffffffffffffff1673ffffffffffffffffffffffffffffffffffffffff167f8be0079c531659141344cd1fd0a4f28419497f9722a3daafe3b4186f6b6457e060405160405180910390a36000600660006101000a81548173ffffffffffffffffffffffffffffffffffffffff021916908373ffffffffffffffffffffffffffffffffffffffff160217905550565b6060610f318383612035565b905092915050565b6000610f43611bd3565b73ffffffffffffffffffffffffffffffffffffffff16610f6161127b565b73ffffffffffffffffffffffffffffffffffffffff1614610fb7576040517f08c379a0000000000000000000000000000000000000000000000000000000008152600401610fae906140ee565b60405180910390fd5b6000610fc1611645565b905060005b81518110156110a357818181518110611008577f4e487b7100000000000000000000000000000000000000000000000000000000600052603260045260246000fd5b602002602001015173ffffffffffffffffffffffffffffffffffffffff1663853828b66040518163ffffffff1660e01b8152600401602060405180830381600087803b15801561105757600080fd5b505af115801561106b573d6000803e3d6000fd5b505050506040513d601f19601f8201168201806040525081019061108f919061386e565b50808061109b90614527565b915050610fc6565b506110cd7fffffffffffffffffffffffffffffffffffffffffffffffffffffffffffffffff611fce565b91505090565b60006110dd611bd3565b73ffffffffffffffffffffffffffffffffffffffff166110fb61127b565b73ffffffffffffffffffffffffffffffffffffffff1614611151576040517f08c379a0000000000000000000000000000000000000000000000000000000008152600401611148906140ee565b60405180910390fd5b600061115b610b3b565b905060005b8151811015611248578181815181106111a2577f4e487b7100000000000000000000000000000000000000000000000000000000600052603260045260246000fd5b602002602001015173ffffffffffffffffffffffffffffffffffffffff1663857abbd4856040518263ffffffff1660e01b81526004016111e29190613e09565b602060405180830381600087803b1580156111fc57600080fd5b505af1158015611210573d6000803e3d6000fd5b505050506040513d601f19601f82011682018060405250810190611234919061386e565b50808061124090614527565b915050611160565b50611273837fffffffffffffffffffffffffffffffffffffffffffffffffffffffffffffffff6122e4565b915050919050565b6000600660009054906101000a900473ffffffffffffffffffffffffffffffffffffffff16905090565b6060600180546112b4906144c4565b80601f01602080910402602001604051908101604052809291908181526020018280546112e0906144c4565b801561132d5780601f106113025761010080835404028352916020019161132d565b820191906000526020600020905b81548152906001019060200180831161131057829003601f168201915b5050505050905090565b61133f611bd3565b73ffffffffffffffffffffffffffffffffffffffff166009600083815260200190815260200160002060000160019054906101000a900473ffffffffffffffffffffffffffffffffffffffff1673ffffffffffffffffffffffffffffffffffffffff16146113ac57600080fd5b6113b78160016124e5565b50565b60006113c4611bd3565b73ffffffffffffffffffffffffffffffffffffffff166113e261127b565b73ffffffffffffffffffffffffffffffffffffffff1614611438576040517f08c379a000000000000000000000000000000000000000000000000000000000815260040161142f906140ee565b60405180910390fd5b61144283836122e4565b905092915050565b611452611bd3565b73ffffffffffffffffffffffffffffffffffffffff168273ffffffffffffffffffffffffffffffffffffffff1614156114c0576040517f08c379a00000000000000000000000000000000000000000000000000000000081526004016114b790613fee565b60405180910390fd5b80600560006114cd611bd3565b73ffffffffffffffffffffffffffffffffffffffff1673ffffffffffffffffffffffffffffffffffffffff16815260200190815260200160002060008473ffffffffffffffffffffffffffffffffffffffff1673ffffffffffffffffffffffffffffffffffffffff16815260200190815260200160002060006101000a81548160ff0219169083151502179055508173ffffffffffffffffffffffffffffffffffffffff1661157a611bd3565b73ffffffffffffffffffffffffffffffffffffffff167f17307eab39ab6107e8899845ad3d59bd9653f200f220920489ca2b5937696c31836040516115bf9190613f36565b60405180910390a35050565b60006115db600160008486612826565b905092915050565b6115f46115ee611bd3565b83611c94565b611633576040517f08c379a000000000000000000000000000000000000000000000000000000000815260040161162a9061416e565b60405180910390fd5b61163f84848484612b31565b50505050565b6060600067ffffffffffffffff811115611688577f4e487b7100000000000000000000000000000000000000000000000000000000600052604160045260246000fd5b6040519080825280602002602001820160405280156116b65781602001602082028036833780820191505090505b50905090565b60006116cc600060018486612826565b905092915050565b60606116df82611b67565b61171e576040517f08c379a00000000000000000000000000000000000000000000000000000000081526004016117159061412e565b60405180910390fd5b6000611728612b8d565b905060008151116117485760405180602001604052806000815250611773565b8061175284612ba4565b604051602001611763929190613dd0565b6040516020818303038152906040525b915050919050565b600061178a6001808486612826565b905092915050565b60008173ffffffffffffffffffffffffffffffffffffffff16600760009054906101000a900473ffffffffffffffffffffffffffffffffffffffff1673ffffffffffffffffffffffffffffffffffffffff1614156117f457600b5490506117f9565b600090505b919050565b6000600560008473ffffffffffffffffffffffffffffffffffffffff1673ffffffffffffffffffffffffffffffffffffffff16815260200190815260200160002060008373ffffffffffffffffffffffffffffffffffffffff1673ffffffffffffffffffffffffffffffffffffffff16815260200190815260200160002060009054906101000a900460ff16905092915050565b60006118a16000808486612826565b905092915050565b6118b1611bd3565b73ffffffffffffffffffffffffffffffffffffffff166118cf61127b565b73ffffffffffffffffffffffffffffffffffffffff1614611925576040517f08c379a000000000000000000000000000000000000000000000000000000000815260040161191c906140ee565b60405180910390fd5b600073ffffffffffffffffffffffffffffffffffffffff168173ffffffffffffffffffffffffffffffffffffffff161415611995576040517f08c379a000000000000000000000000000000000000000000000000000000000815260040161198c90613fae565b60405180910390fd5b8073ffffffffffffffffffffffffffffffffffffffff16600660009054906101000a900473ffffffffffffffffffffffffffffffffffffffff1673ffffffffffffffffffffffffffffffffffffffff167f8be0079c531659141344cd1fd0a4f28419497f9722a3daafe3b4186f6b6457e060405160405180910390a380600660006101000a81548173ffffffffffffffffffffffffffffffffffffffff021916908373ffffffffffffffffffffffffffffffffffffffff16021790555050565b611a5d611bd3565b73ffffffffffffffffffffffffffffffffffffffff16611a7b61127b565b73ffffffffffffffffffffffffffffffffffffffff1614611ad1576040517f08c379a0000000000000000000000000000000000000000000000000000000008152600401611ac8906140ee565b60405180910390fd5b611adb8282612d51565b5050565b6000600a54905090565b6060611af58383612e89565b905092915050565b60007f01ffc9a7000000000000000000000000000000000000000000000000000000007bffffffffffffffffffffffffffffffffffffffffffffffffffffffff1916827bffffffffffffffffffffffffffffffffffffffffffffffffffffffff1916149050919050565b60008073ffffffffffffffffffffffffffffffffffffffff166002600084815260200190815260200160002060009054906101000a900473ffffffffffffffffffffffffffffffffffffffff1673ffffffffffffffffffffffffffffffffffffffff1614159050919050565b600033905090565b816004600083815260200190815260200160002060006101000a81548173ffffffffffffffffffffffffffffffffffffffff021916908373ffffffffffffffffffffffffffffffffffffffff160217905550808273ffffffffffffffffffffffffffffffffffffffff16611c4e83610c7e565b73ffffffffffffffffffffffffffffffffffffffff167f8c5be1e5ebec7d5bd14f71427d1e84f3dd0314c0f7b2291e5b200ac8c7c3b92560405160405180910390a45050565b6000611c9f82611b67565b611cde576040517f08c379a0000000000000000000000000000000000000000000000000000000008152600401611cd59061404e565b60405180910390fd5b6000611ce983610c7e565b90508073ffffffffffffffffffffffffffffffffffffffff168473ffffffffffffffffffffffffffffffffffffffff161480611d5857508373ffffffffffffffffffffffffffffffffffffffff16611d408461089b565b73ffffffffffffffffffffffffffffffffffffffff16145b80611d695750611d6881856117fe565b5b91505092915050565b8273ffffffffffffffffffffffffffffffffffffffff16611d9282610c7e565b73ffffffffffffffffffffffffffffffffffffffff1614611de8576040517f08c379a0000000000000000000000000000000000000000000000000000000008152600401611ddf9061410e565b60405180910390fd5b600073ffffffffffffffffffffffffffffffffffffffff168273ffffffffffffffffffffffffffffffffffffffff161415611e58576040517f08c379a0000000000000000000000000000000000000000000000000000000008152600401611e4f90613fce565b60405180910390fd5b611e6383838361312c565b611e6e600082611bdb565b6001600360008573ffffffffffffffffffffffffffffffffffffffff1673ffffffffffffffffffffffffffffffffffffffff1681526020019081526020016000206000828254611ebe919061436e565b925050819055506001600360008473ffffffffffffffffffffffffffffffffffffffff1673ffffffffffffffffffffffffffffffffffffffff1681526020019081526020016000206000828254611f1591906142e7565b92505081905550816002600083815260200190815260200160002060006101000a81548173ffffffffffffffffffffffffffffffffffffffff021916908373ffffffffffffffffffffffffffffffffffffffff160217905550808273ffffffffffffffffffffffffffffffffffffffff168473ffffffffffffffffffffffffffffffffffffffff167fddf252ad1be2c89b69c2b068fc378daa952ba7f163c4a11628f55a4df523b3ef60405160405180910390a4505050565b600080611fd9611adf565b47611fe4919061436e565b905080831015611ff2578290505b600081111561202c5761202b8161200761127b565b73ffffffffffffffffffffffffffffffffffffffff1661313190919063ffffffff16565b5b80915050919050565b6060600080600190505b60085481101561212a57600073ffffffffffffffffffffffffffffffffffffffff166009600083815260200190815260200160002060000160019054906101000a900473ffffffffffffffffffffffffffffffffffffffff1673ffffffffffffffffffffffffffffffffffffffff16141580156120d15750846009600083815260200190815260200160002060020154145b801561210357508315156009600083815260200190815260200160002060000160159054906101000a900460ff161515145b1561211757818061211390614527565b9250505b808061212290614527565b91505061203f565b5060008167ffffffffffffffff81111561216d577f4e487b7100000000000000000000000000000000000000000000000000000000600052604160045260246000fd5b60405190808252806020026020018201604052801561219b5781602001602082028036833780820191505090505b509050600091506000600190505b6008548110156122d857600073ffffffffffffffffffffffffffffffffffffffff166009600083815260200190815260200160002060000160019054906101000a900473ffffffffffffffffffffffffffffffffffffffff1673ffffffffffffffffffffffffffffffffffffffff161415801561223b5750856009600083815260200190815260200160002060020154145b801561226d57508415156009600083815260200190815260200160002060000160159054906101000a900460ff161515145b156122c5578082848061227f90614527565b9550815181106122b8577f4e487b7100000000000000000000000000000000000000000000000000000000600052603260045260246000fd5b6020026020010181815250505b80806122d090614527565b9150506121a9565b50809250505092915050565b60006122ee611bd3565b73ffffffffffffffffffffffffffffffffffffffff1661230c61127b565b73ffffffffffffffffffffffffffffffffffffffff1614612362576040517f08c379a0000000000000000000000000000000000000000000000000000000008152600401612359906140ee565b60405180910390fd5b6123818373ffffffffffffffffffffffffffffffffffffffff16613225565b61238a57600080fd5b6000839050600061239a82611792565b8273ffffffffffffffffffffffffffffffffffffffff166370a08231306040518263ffffffff1660e01b81526004016123d39190613e09565b60206040518083038186803b1580156123eb57600080fd5b505afa1580156123ff573d6000803e3d6000fd5b505050506040513d601f19601f82011682018060405250810190612423919061386e565b61242d919061436e565b90508084101561243b578390505b60008111156124da578173ffffffffffffffffffffffffffffffffffffffff1663a9059cbb61246861127b565b836040518363ffffffff1660e01b8152600401612486929190613ea7565b602060405180830381600087803b1580156124a057600080fd5b505af11580156124b4573d6000803e3d6000fd5b505050506040513d601f19601f820116820180604052508101906124d89190613765565b505b809250505092915050565b80156127ad576009600083815260200190815260200160002060000160009054906101000a900460ff16156125cc5761257b306009600085815260200190815260200160002060000160019054906101000a900473ffffffffffffffffffffffffffffffffffffffff16600960008681526020019081526020016000206002015460405180602001604052806000815250612b31565b600c60006009600085815260200190815260200160002060020154815260200190815260200160002060006101000a81549073ffffffffffffffffffffffffffffffffffffffff02191690556127ac565b6009600083815260200190815260200160002060000160159054906101000a900460ff161561270657600760009054906101000a900473ffffffffffffffffffffffffffffffffffffffff1673ffffffffffffffffffffffffffffffffffffffff166333bebb77306009600086815260200190815260200160002060000160019054906101000a900473ffffffffffffffffffffffffffffffffffffffff1660096000878152602001908152602001600020600101546040518463ffffffff1660e01b81526004016126a093929190613e24565b600060405180830381600087803b1580156126ba57600080fd5b505af11580156126ce573d6000803e3d6000fd5b505050506009600083815260200190815260200160002060010154600b60008282546126fa919061436e565b925050819055506127ab565b61277b60096000848152602001908152602001600020600101546009600085815260200190815260200160002060000160019054906101000a900473ffffffffffffffffffffffffffffffffffffffff1673ffffffffffffffffffffffffffffffffffffffff1661313190919063ffffffff16565b6009600083815260200190815260200160002060010154600a60008282546127a3919061436e565b925050819055505b5b5b60096000838152602001908152602001600020600080820160006101000a81549060ff02191690556000820160016101000a81549073ffffffffffffffffffffffffffffffffffffffff02191690556000820160156101000a81549060ff02191690556001820160009055600282016000905550505050565b600080831161283457600080fd5b6040518060a00160405280861515815260200161284f611bd3565b73ffffffffffffffffffffffffffffffffffffffff168152602001851515815260200184815260200183815250600960006008600081548092919061289390614527565b91905055815260200190815260200160002060008201518160000160006101000a81548160ff02191690831515021790555060208201518160000160016101000a81548173ffffffffffffffffffffffffffffffffffffffff021916908373ffffffffffffffffffffffffffffffffffffffff16021790555060408201518160000160156101000a81548160ff02191690831515021790555060608201518160010155608082015181600201559050508415612a3557600073ffffffffffffffffffffffffffffffffffffffff16600c600084815260200190815260200160002060009054906101000a900473ffffffffffffffffffffffffffffffffffffffff1673ffffffffffffffffffffffffffffffffffffffff16146129b557600080fd5b6129d76129c0611bd3565b308460405180602001604052806000815250612b31565b6129df611bd3565b600c600084815260200190815260200160002060006101000a81548173ffffffffffffffffffffffffffffffffffffffff021916908373ffffffffffffffffffffffffffffffffffffffff160217905550612b18565b8315612af157600760009054906101000a900473ffffffffffffffffffffffffffffffffffffffff1673ffffffffffffffffffffffffffffffffffffffff166333bebb77612a81611bd3565b30866040518463ffffffff1660e01b8152600401612aa193929190613e24565b600060405180830381600087803b158015612abb57600080fd5b505af1158015612acf573d6000803e3d6000fd5b5050505082600b6000828254612ae591906142e7565b92505081905550612b17565b823414612afd57600080fd5b82600a6000828254612b0f91906142e7565b925050819055505b5b6001600854612b27919061436e565b9050949350505050565b612b3c848484611d72565b612b4884848484613238565b612b87576040517f08c379a0000000000000000000000000000000000000000000000000000000008152600401612b7e90613f8e565b60405180910390fd5b50505050565b606060405180602001604052806000815250905090565b60606000821415612bec576040518060400160405280600181526020017f30000000000000000000000000000000000000000000000000000000000000008152509050612d4c565b600082905060005b60008214612c1e578080612c0790614527565b915050600a82612c17919061433d565b9150612bf4565b60008167ffffffffffffffff811115612c60577f4e487b7100000000000000000000000000000000000000000000000000000000600052604160045260246000fd5b6040519080825280601f01601f191660200182016040528015612c925781602001600182028036833780820191505090505b5090505b60008514612d4557600182612cab919061436e565b9150600a85612cba9190614570565b6030612cc691906142e7565b60f81b818381518110612d02577f4e487b7100000000000000000000000000000000000000000000000000000000600052603260045260246000fd5b60200101907effffffffffffffffffffffffffffffffffffffffffffffffffffffffffffff1916908160001a905350600a85612d3e919061433d565b9450612c96565b8093505050505b919050565b612d59611bd3565b73ffffffffffffffffffffffffffffffffffffffff16612d7761127b565b73ffffffffffffffffffffffffffffffffffffffff1614612dcd576040517f08c379a0000000000000000000000000000000000000000000000000000000008152600401612dc4906140ee565b60405180910390fd5b612dec8273ffffffffffffffffffffffffffffffffffffffff16613225565b612df557600080fd5b6000829050612e048183610bd2565b15612e0e57600080fd5b8073ffffffffffffffffffffffffffffffffffffffff166342842e0e30612e3361127b565b856040518463ffffffff1660e01b8152600401612e5293929190613e24565b600060405180830381600087803b158015612e6c57600080fd5b505af1158015612e80573d6000803e3d6000fd5b50505050505050565b6060600073ffffffffffffffffffffffffffffffffffffffff168373ffffffffffffffffffffffffffffffffffffffff161415612ec557600080fd5b600080600190505b600854811015612f95578473ffffffffffffffffffffffffffffffffffffffff166009600083815260200190815260200160002060000160019054906101000a900473ffffffffffffffffffffffffffffffffffffffff1673ffffffffffffffffffffffffffffffffffffffff16148015612f6e57508315156009600083815260200190815260200160002060000160159054906101000a900460ff161515145b15612f82578180612f7e90614527565b9250505b8080612f8d90614527565b915050612ecd565b5060008167ffffffffffffffff811115612fd8577f4e487b7100000000000000000000000000000000000000000000000000000000600052604160045260246000fd5b6040519080825280602002602001820160405280156130065781602001602082028036833780820191505090505b509050600091506000600190505b600854811015613120578573ffffffffffffffffffffffffffffffffffffffff166009600083815260200190815260200160002060000160019054906101000a900473ffffffffffffffffffffffffffffffffffffffff1673ffffffffffffffffffffffffffffffffffffffff161480156130b557508415156009600083815260200190815260200160002060000160159054906101000a900460ff161515145b1561310d57808284806130c790614527565b955081518110613100577f4e487b7100000000000000000000000000000000000000000000000000000000600052603260045260246000fd5b6020026020010181815250505b808061311890614527565b915050613014565b50809250505092915050565b505050565b80471015613174576040517f08c379a000000000000000000000000000000000000000000000000000000000815260040161316b9061402e565b60405180910390fd5b60008273ffffffffffffffffffffffffffffffffffffffff168260405161319a90613df4565b60006040518083038185875af1925050503d80600081146131d7576040519150601f19603f3d011682016040523d82523d6000602084013e6131dc565b606091505b5050905080613220576040517f08c379a00000000000000000000000000000000000000000000000000000000081526004016132179061400e565b60405180910390fd5b505050565b600080823b905060008111915050919050565b60006132598473ffffffffffffffffffffffffffffffffffffffff16613225565b156133c2578373ffffffffffffffffffffffffffffffffffffffff1663150b7a02613282611bd3565b8786866040518563ffffffff1660e01b81526004016132a49493929190613e5b565b602060405180830381600087803b1580156132be57600080fd5b505af19250505080156132ef57506040513d601f19601f820116820180604052508101906132ec91906137b7565b60015b613372573d806000811461331f576040519150601f19603f3d011682016040523d82523d6000602084013e613324565b606091505b5060008151141561336a576040517f08c379a000000000000000000000000000000000000000000000000000000000815260040161336190613f8e565b60405180910390fd5b805181602001fd5b63150b7a0260e01b7bffffffffffffffffffffffffffffffffffffffffffffffffffffffff1916817bffffffffffffffffffffffffffffffffffffffffffffffffffffffff1916149150506133c7565b600190505b949350505050565b60006133e26133dd846141ce565b6141a9565b9050828152602081018484840111156133fa57600080fd5b613405848285614482565b509392505050565b60008135905061341c81614aef565b92915050565b60008135905061343181614b06565b92915050565b60008151905061344681614b06565b92915050565b60008135905061345b81614b1d565b92915050565b60008151905061347081614b1d565b92915050565b60008083601f84011261348857600080fd5b8235905067ffffffffffffffff8111156134a157600080fd5b6020830191508360018202830111156134b957600080fd5b9250929050565b600082601f8301126134d157600080fd5b81356134e18482602086016133cf565b91505092915050565b6000813590506134f981614b34565b92915050565b60008135905061350e81614b4b565b92915050565b60008135905061352381614b62565b92915050565b60008151905061353881614b62565b92915050565b60006020828403121561355057600080fd5b600061355e8482850161340d565b91505092915050565b6000806040838503121561357a57600080fd5b60006135888582860161340d565b92505060206135998582860161340d565b9150509250929050565b6000806000606084860312156135b857600080fd5b60006135c68682870161340d565b93505060206135d78682870161340d565b92505060406135e886828701613514565b9150509250925092565b60008060008060006080868803121561360a57600080fd5b60006136188882890161340d565b95505060206136298882890161340d565b945050604061363a88828901613514565b935050606086013567ffffffffffffffff81111561365757600080fd5b61366388828901613476565b92509250509295509295909350565b6000806000806080858703121561368857600080fd5b60006136968782880161340d565b94505060206136a78782880161340d565b93505060406136b887828801613514565b925050606085013567ffffffffffffffff8111156136d557600080fd5b6136e1878288016134c0565b91505092959194509250565b6000806040838503121561370057600080fd5b600061370e8582860161340d565b925050602061371f85828601613422565b9150509250929050565b6000806040838503121561373c57600080fd5b600061374a8582860161340d565b925050602061375b85828601613514565b9150509250929050565b60006020828403121561377757600080fd5b600061378584828501613437565b91505092915050565b6000602082840312156137a057600080fd5b60006137ae8482850161344c565b91505092915050565b6000602082840312156137c957600080fd5b60006137d784828501613461565b91505092915050565b6000602082840312156137f257600080fd5b6000613800848285016134ea565b91505092915050565b6000806040838503121561381c57600080fd5b600061382a858286016134ff565b925050602061383b85828601613514565b9150509250929050565b60006020828403121561385757600080fd5b600061386584828501613514565b91505092915050565b60006020828403121561388057600080fd5b600061388e84828501613529565b91505092915050565b600080604083850312156138aa57600080fd5b60006138b885828601613514565b92505060206138c985828601613422565b9150509250929050565b600080604083850312156138e657600080fd5b60006138f485828601613514565b925050602061390585828601613514565b9150509250929050565b600061391b8383613ad7565b60208301905092915050565b60006139338383613ae6565b60208301905092915050565b600061394b8383613db2565b60208301905092915050565b613960816143a2565b82525050565b60006139718261422f565b61397b818561428d565b9350613986836141ff565b8060005b838110156139b757815161399e888261390f565b97506139a983614266565b92505060018101905061398a565b5085935050505092915050565b60006139cf8261423a565b6139d9818561428d565b93506139e48361420f565b8060005b83811015613a155781516139fc8882613927565b9750613a0783614273565b9250506001810190506139e8565b5085935050505092915050565b6000613a2d82614245565b613a37818561429e565b9350613a428361421f565b8060005b83811015613a73578151613a5a888261393f565b9750613a6583614280565b925050600181019050613a46565b5085935050505092915050565b613a89816143b4565b82525050565b613a98816143c0565b82525050565b6000613aa982614250565b613ab381856142af565b9350613ac3818560208601614491565b613acc8161465d565b840191505092915050565b613ae08161443a565b82525050565b613aef8161445e565b82525050565b6000613b008261425b565b613b0a81856142cb565b9350613b1a818560208601614491565b613b238161465d565b840191505092915050565b6000613b398261425b565b613b4381856142dc565b9350613b53818560208601614491565b80840191505092915050565b6000613b6c6032836142cb565b9150613b778261466e565b604082019050919050565b6000613b8f6026836142cb565b9150613b9a826146bd565b604082019050919050565b6000613bb26024836142cb565b9150613bbd8261470c565b604082019050919050565b6000613bd56019836142cb565b9150613be08261475b565b602082019050919050565b6000613bf8603a836142cb565b9150613c0382614784565b604082019050919050565b6000613c1b601d836142cb565b9150613c26826147d3565b602082019050919050565b6000613c3e602c836142cb565b9150613c49826147fc565b604082019050919050565b6000613c616038836142cb565b9150613c6c8261484b565b604082019050919050565b6000613c84602a836142cb565b9150613c8f8261489a565b604082019050919050565b6000613ca76029836142cb565b9150613cb2826148e9565b604082019050919050565b6000613cca602c836142cb565b9150613cd582614938565b604082019050919050565b6000613ced6020836142cb565b9150613cf882614987565b602082019050919050565b6000613d106029836142cb565b9150613d1b826149b0565b604082019050919050565b6000613d33602f836142cb565b9150613d3e826149ff565b604082019050919050565b6000613d566021836142cb565b9150613d6182614a4e565b604082019050919050565b6000613d796000836142c0565b9150613d8482614a9d565b600082019050919050565b6000613d9c6031836142cb565b9150613da782614aa0565b604082019050919050565b613dbb81614430565b82525050565b613dca81614430565b82525050565b6000613ddc8285613b2e565b9150613de88284613b2e565b91508190509392505050565b6000613dff82613d6c565b9150819050919050565b6000602082019050613e1e6000830184613957565b92915050565b6000606082019050613e396000830186613957565b613e466020830185613957565b613e536040830184613dc1565b949350505050565b6000608082019050613e706000830187613957565b613e7d6020830186613957565b613e8a6040830185613dc1565b8181036060830152613e9c8184613a9e565b905095945050505050565b6000604082019050613ebc6000830185613957565b613ec96020830184613dc1565b9392505050565b60006020820190508181036000830152613eea8184613966565b905092915050565b60006020820190508181036000830152613f0c81846139c4565b905092915050565b60006020820190508181036000830152613f2e8184613a22565b905092915050565b6000602082019050613f4b6000830184613a80565b92915050565b6000602082019050613f666000830184613a8f565b92915050565b60006020820190508181036000830152613f868184613af5565b905092915050565b60006020820190508181036000830152613fa781613b5f565b9050919050565b60006020820190508181036000830152613fc781613b82565b9050919050565b60006020820190508181036000830152613fe781613ba5565b9050919050565b6000602082019050818103600083015261400781613bc8565b9050919050565b6000602082019050818103600083015261402781613beb565b9050919050565b6000602082019050818103600083015261404781613c0e565b9050919050565b6000602082019050818103600083015261406781613c31565b9050919050565b6000602082019050818103600083015261408781613c54565b9050919050565b600060208201905081810360008301526140a781613c77565b9050919050565b600060208201905081810360008301526140c781613c9a565b9050919050565b600060208201905081810360008301526140e781613cbd565b9050919050565b6000602082019050818103600083015261410781613ce0565b9050919050565b6000602082019050818103600083015261412781613d03565b9050919050565b6000602082019050818103600083015261414781613d26565b9050919050565b6000602082019050818103600083015261416781613d49565b9050919050565b6000602082019050818103600083015261418781613d8f565b9050919050565b60006020820190506141a36000830184613dc1565b92915050565b60006141b36141c4565b90506141bf82826144f6565b919050565b6000604051905090565b600067ffffffffffffffff8211156141e9576141e861462e565b5b6141f28261465d565b9050602081019050919050565b6000819050602082019050919050565b6000819050602082019050919050565b6000819050602082019050919050565b600081519050919050565b600081519050919050565b600081519050919050565b600081519050919050565b600081519050919050565b6000602082019050919050565b6000602082019050919050565b6000602082019050919050565b600082825260208201905092915050565b600082825260208201905092915050565b600082825260208201905092915050565b600081905092915050565b600082825260208201905092915050565b600081905092915050565b60006142f282614430565b91506142fd83614430565b9250827fffffffffffffffffffffffffffffffffffffffffffffffffffffffffffffffff03821115614332576143316145a1565b5b828201905092915050565b600061434882614430565b915061435383614430565b925082614363576143626145d0565b5b828204905092915050565b600061437982614430565b915061438483614430565b925082821015614397576143966145a1565b5b828203905092915050565b60006143ad82614410565b9050919050565b60008115159050919050565b60007fffffffff0000000000000000000000000000000000000000000000000000000082169050919050565b60006143f7826143a2565b9050919050565b6000614409826143a2565b9050919050565b600073ffffffffffffffffffffffffffffffffffffffff82169050919050565b6000819050919050565b60006144458261444c565b9050919050565b600061445782614410565b9050919050565b600061446982614470565b9050919050565b600061447b82614410565b9050919050565b82818337600083830152505050565b60005b838110156144af578082015181840152602081019050614494565b838111156144be576000848401525b50505050565b600060028204905060018216806144dc57607f821691505b602082108114156144f0576144ef6145ff565b5b50919050565b6144ff8261465d565b810181811067ffffffffffffffff8211171561451e5761451d61462e565b5b80604052505050565b600061453282614430565b91507fffffffffffffffffffffffffffffffffffffffffffffffffffffffffffffffff821415614565576145646145a1565b5b600182019050919050565b600061457b82614430565b915061458683614430565b925082614596576145956145d0565b5b828206905092915050565b7f4e487b7100000000000000000000000000000000000000000000000000000000600052601160045260246000fd5b7f4e487b7100000000000000000000000000000000000000000000000000000000600052601260045260246000fd5b7f4e487b7100000000000000000000000000000000000000000000000000000000600052602260045260246000fd5b7f4e487b7100000000000000000000000000000000000000000000000000000000600052604160045260246000fd5b6000601f19601f8301169050919050565b7f4552433732313a207472616e7366657220746f206e6f6e20455243373231526560008201527f63656976657220696d706c656d656e7465720000000000000000000000000000602082015250565b7f4f776e61626c653a206e6577206f776e657220697320746865207a65726f206160008201527f6464726573730000000000000000000000000000000000000000000000000000602082015250565b7f4552433732313a207472616e7366657220746f20746865207a65726f2061646460008201527f7265737300000000000000000000000000000000000000000000000000000000602082015250565b7f4552433732313a20617070726f766520746f2063616c6c657200000000000000600082015250565b7f416464726573733a20756e61626c6520746f2073656e642076616c75652c207260008201527f6563697069656e74206d61792068617665207265766572746564000000000000602082015250565b7f416464726573733a20696e73756666696369656e742062616c616e6365000000600082015250565b7f4552433732313a206f70657261746f7220717565727920666f72206e6f6e657860008201527f697374656e7420746f6b656e0000000000000000000000000000000000000000602082015250565b7f4552433732313a20617070726f76652063616c6c6572206973206e6f74206f7760008201527f6e6572206e6f7220617070726f76656420666f7220616c6c0000000000000000602082015250565b7f4552433732313a2062616c616e636520717565727920666f7220746865207a6560008201527f726f206164647265737300000000000000000000000000000000000000000000602082015250565b7f4552433732313a206f776e657220717565727920666f72206e6f6e657869737460008201527f656e7420746f6b656e0000000000000000000000000000000000000000000000602082015250565b7f4552433732313a20617070726f76656420717565727920666f72206e6f6e657860008201527f697374656e7420746f6b656e0000000000000000000000000000000000000000602082015250565b7f4f776e61626c653a2063616c6c6572206973206e6f7420746865206f776e6572600082015250565b7f4552433732313a207472616e73666572206f6620746f6b656e2074686174206960008201527f73206e6f74206f776e0000000000000000000000000000000000000000000000602082015250565b7f4552433732314d657461646174613a2055524920717565727920666f72206e6f60008201527f6e6578697374656e7420746f6b656e0000000000000000000000000000000000602082015250565b7f4552433732313a20617070726f76616c20746f2063757272656e74206f776e6560008201527f7200000000000000000000000000000000000000000000000000000000000000602082015250565b50565b7f4552433732313a207472616e736665722063616c6c6572206973206e6f74206f60008201527f776e6572206e6f7220617070726f766564000000000000000000000000000000602082015250565b614af8816143a2565b8114614b0357600080fd5b50565b614b0f816143b4565b8114614b1a57600080fd5b50565b614b26816143c0565b8114614b3157600080fd5b50565b614b3d816143ec565b8114614b4857600080fd5b50565b614b54816143fe565b8114614b5f57600080fd5b50565b614b6b81614430565b8114614b7657600080fd5b5056fea2646970667358221220eb64ae5958b24f6086633f664b9f1ee5cad7120325810b736eeaee21d5acd8d364736f6c63430008040033",
  "immutableReferences": {},
  "source": "// SPDX-License-Identifier: MIT\r\n\r\npragma solidity ^0.8.0;\r\n\r\nimport \"../ERC721.sol\";\r\nimport \"../IERC721.sol\";\r\nimport \"../utils/WithdrawERC721.sol\";\r\nimport \"../../ERC20/IERC20.sol\";\r\nimport \"../../ERC20/utils/WithdrawERC20.sol\";\r\nimport \"../../ERC20/extensions/OwnableERC20.sol\";\r\nimport \"../../../access/Ownable.sol\";\r\nimport \"../../../access/Withdraw.sol\";\r\n\r\ncontract MarketableERC721 is ERC721, Ownable, Withdraw, WithdrawERC20, WithdrawERC721{\r\n    using Address for address;\r\n    using Address for address payable;\r\n    \r\n    struct Order{\r\n        bool sell;\r\n        address owner;\r\n        bool withToken;\r\n        uint256 amount;\r\n        uint256 tokenId;\r\n    }\r\n    \r\n    OwnableERC20 fungibleToken;\r\n    \r\n    uint256 nextId = 1;\r\n    mapping(uint256 => Order) orders;\r\n    \r\n    uint256 private _reservedAmount = 0;\r\n    uint256 private _reservedERC20;\r\n    mapping(uint256 => address) _reservedToken;\r\n    \r\n    constructor (string memory name_, string memory symbol_, address tokenAdress) ERC721(name_, symbol_){\r\n        fungibleToken = OwnableERC20(tokenAdress);\r\n    }\r\n    \r\n    function placeSellOrder(uint256 tokenId, uint256 amount) public returns(uint256){\r\n        return _placeOrder(true, false, amount, tokenId);\r\n    }\r\n    \r\n    function placeTokenSellOrder(uint256 tokenId, uint256 amount) public returns(uint256){\r\n        return _placeOrder(true, true, amount, tokenId);\r\n    }\r\n    \r\n    function placeBuyOrder(uint256 tokenId, uint256 amount) public returns(uint256){\r\n        return _placeOrder(false, false, amount, tokenId);\r\n    }\r\n    \r\n    function placeTokenbuyOrder(uint256 tokenId, uint256 amount) public returns(uint256){\r\n        return _placeOrder(false, true, amount, tokenId);\r\n    }\r\n    \r\n    function removeOrder(uint256 orderId) public{\r\n        require(orders[orderId].owner == _msgSender());\r\n        _removeOrder(orderId, true);\r\n    }\r\n    \r\n    function tokenOrder(uint256 tokenId, bool withToken) external view returns(uint256[] memory){\r\n        return _tokenOrder(tokenId, withToken);\r\n    }\r\n    \r\n    function addressOrder(address add, bool withToken) external view returns(uint256[] memory){\r\n        return _addressOrder(add, withToken);\r\n    }\r\n    \r\n    function reservedAmount() public override view returns(uint256){\r\n        return _reservedAmount;\r\n    }\r\n    \r\n    function reservedERC20Amount(IERC20 token) public override view returns(uint256){\r\n        if(address(fungibleToken) == address(token)){\r\n            return _reservedERC20;\r\n        }\r\n        else {\r\n            return 0;\r\n        }\r\n    }\r\n    \r\n    function reservedERC721(IERC721 token, uint256 id) public override view returns(bool){\r\n        if(address(token) == address(this)){\r\n            return _reservedToken[id] != address(0);\r\n        }\r\n        else {\r\n            return false;\r\n        }\r\n    }\r\n    \r\n    function _sell(uint256 orderId) private{\r\n        require(orders[orderId].owner != address(0));\r\n        require(!orders[orderId].sell);\r\n        \r\n        _safeTransfer(_msgSender(), orders[orderId].owner, orders[orderId].tokenId, \"\");\r\n        if(orders[orderId].withToken){\r\n            fungibleToken.transfer(_msgSender(), orders[orderId].amount - orders[orderId].amount / 11);\r\n            _reservedERC20 -= orders[orderId].amount;\r\n        }\r\n        else{\r\n            payable(_msgSender()).sendValue(orders[orderId].amount - orders[orderId].amount / 11);\r\n            _reservedAmount -= orders[orderId].amount;\r\n        }\r\n        _removeOrder(orderId, false);\r\n    }\r\n    \r\n    function _buy(uint256 orderId) private{\r\n        require(orders[orderId].owner != address(0));\r\n        require(orders[orderId].sell);\r\n            \r\n        _safeTransfer(orders[orderId].owner, _msgSender(), orders[orderId].tokenId, \"\");\r\n        delete _reservedToken[orders[orderId].tokenId];\r\n        if(orders[orderId].withToken){\r\n            if(orders[orderId].amount / 10 > 0){\r\n                fungibleToken.forceTransfer(_msgSender(), address(this), orders[orderId].amount / 10);\r\n            }\r\n            fungibleToken.forceTransfer(_msgSender(), orders[orderId].owner, orders[orderId].amount);\r\n        }\r\n        else{\r\n            require(msg.value == orders[orderId].amount + orders[orderId].amount / 10);\r\n            payable(orders[orderId].owner).sendValue(orders[orderId].amount);\r\n        }\r\n        _removeOrder(orderId, false);\r\n    }\r\n    \r\n    function _removeOrder(uint256 orderId, bool refund) private{\r\n        if(refund){\r\n            if (orders[orderId].sell){\r\n                _safeTransfer(address(this), orders[orderId].owner, orders[orderId].tokenId, \"\");\r\n                delete _reservedToken[orders[orderId].tokenId];\r\n            }\r\n            else {\r\n                if(orders[orderId].withToken){\r\n                    fungibleToken.forceTransfer(address(this), orders[orderId].owner, orders[orderId].amount);\r\n                    _reservedERC20 -= orders[orderId].amount;\r\n                }\r\n                else{\r\n                    payable(orders[orderId].owner).sendValue(orders[orderId].amount);\r\n                    _reservedAmount -= orders[orderId].amount;\r\n                }\r\n            }\r\n        }\r\n        delete orders[orderId];\r\n    }\r\n    \r\n    function _placeOrder(bool sell, bool withToken, uint256 amount, uint256 tokenId) private returns(uint256){\r\n        require(amount > 0);\r\n        orders[nextId++] = Order(sell, _msgSender(), withToken, amount, tokenId);\r\n        if(sell){\r\n            require(_reservedToken[tokenId] == address(0));\r\n            _safeTransfer(_msgSender(), address(this), tokenId, \"\");\r\n            _reservedToken[tokenId] = _msgSender();\r\n        }\r\n        else{\r\n            if(withToken){\r\n                fungibleToken.forceTransfer(_msgSender(), address(this), amount);\r\n                _reservedERC20 += amount;\r\n            }\r\n            else{\r\n                require(msg.value == amount);\r\n                _reservedAmount += amount;\r\n            }\r\n        }\r\n        return nextId - 1;\r\n    }\r\n    \r\n    function _tokenOrder(uint256 tokenId, bool withToken) private view returns(uint256[] memory){\r\n        uint256 count = 0;\r\n        for(uint256 id = 1; id < nextId; id++){\r\n            if(orders[id].owner != address(0) && orders[id].tokenId == tokenId && orders[id].withToken == withToken ){\r\n                count++;\r\n            }\r\n        }\r\n        uint256[] memory results = new uint256[](count);\r\n        count = 0;\r\n        for(uint256 id = 1; id < nextId; id++){\r\n            if(orders[id].owner != address(0) && orders[id].tokenId == tokenId && orders[id].withToken == withToken ){\r\n               results[count++] = id;\r\n            }\r\n        }\r\n        return results;\r\n    }\r\n    \r\n    \r\n    function _addressOrder(address add, bool withToken) private view returns(uint256[] memory){\r\n        require(add != address(0));\r\n        uint256 count = 0;\r\n        for(uint256 id = 1; id < nextId; id++){\r\n            if(orders[id].owner == add && orders[id].withToken == withToken ){\r\n                count++;\r\n            }\r\n        }\r\n        uint256[] memory results = new uint256[](count);\r\n        count = 0;\r\n        for(uint256 id = 1; id < nextId; id++){\r\n            if(orders[id].owner == add && orders[id].withToken == withToken ){\r\n               results[count++] = id;\r\n            }\r\n        }\r\n        return results;\r\n    }\r\n    \r\n}",
  "sourcePath": "C:\\Users\\Lucas\\cryptobee\\contracts\\token\\ERC721\\extensions\\MarketableERC721.sol",
  "compiler": {
    "name": "solc",
    "version": "0.8.4+commit.c7e474f2.Emscripten.clang"
  },
  "schemaVersion": "3.3.4",
  "updatedAt": "2021-04-25T17:52:15.778Z",
  "devdoc": {
    "kind": "dev",
    "methods": {
      "approve(address,uint256)": {
        "details": "See {IERC721-approve}."
      },
      "balanceOf(address)": {
        "details": "See {IERC721-balanceOf}."
      },
      "getApproved(uint256)": {
        "details": "See {IERC721-getApproved}."
      },
      "isApprovedForAll(address,address)": {
        "details": "See {IERC721-isApprovedForAll}."
      },
      "name()": {
        "details": "See {IERC721Metadata-name}."
      },
      "owner()": {
        "details": "Returns the address of the current owner."
      },
      "ownerOf(uint256)": {
        "details": "See {IERC721-ownerOf}."
      },
      "renounceOwnership()": {
        "details": "Leaves the contract without owner. It will not be possible to call `onlyOwner` functions anymore. Can only be called by the current owner. NOTE: Renouncing ownership will leave the contract without an owner, thereby removing any functionality that is only available to the owner."
      },
      "safeTransferFrom(address,address,uint256)": {
        "details": "See {IERC721-safeTransferFrom}."
      },
      "safeTransferFrom(address,address,uint256,bytes)": {
        "details": "See {IERC721-safeTransferFrom}."
      },
      "setApprovalForAll(address,bool)": {
        "details": "See {IERC721-setApprovalForAll}."
      },
      "supportsInterface(bytes4)": {
        "details": "See {IERC165-supportsInterface}."
      },
      "symbol()": {
        "details": "See {IERC721Metadata-symbol}."
      },
      "tokenURI(uint256)": {
        "details": "See {IERC721Metadata-tokenURI}."
      },
      "transferFrom(address,address,uint256)": {
        "details": "See {IERC721-transferFrom}."
      },
      "transferOwnership(address)": {
        "details": "Transfers ownership of the contract to a new account (`newOwner`). Can only be called by the current owner."
      }
    },
    "version": 1
  },
  "userdoc": {
    "kind": "user",
    "methods": {},
    "version": 1
  }
}