{
  "contractName": "Test",
  "abi": [
    {
      "inputs": [
        {
          "internalType": "uint256",
          "name": "id",
          "type": "uint256"
        }
      ],
      "name": "idToPositon",
      "outputs": [
        {
          "internalType": "int128",
          "name": "",
          "type": "int128"
        },
        {
          "internalType": "int128",
          "name": "",
          "type": "int128"
        }
      ],
      "stateMutability": "pure",
      "type": "function"
    },
    {
      "inputs": [
        {
          "internalType": "int128",
          "name": "x",
          "type": "int128"
        },
        {
          "internalType": "int128",
          "name": "y",
          "type": "int128"
        }
      ],
      "name": "positionToId",
      "outputs": [
        {
          "internalType": "uint256",
          "name": "",
          "type": "uint256"
        }
      ],
      "stateMutability": "pure",
      "type": "function"
    },
    {
      "inputs": [
        {
          "internalType": "int128",
          "name": "i",
          "type": "int128"
        }
      ],
      "name": "intToUint",
      "outputs": [
        {
          "internalType": "uint256",
          "name": "",
          "type": "uint256"
        }
      ],
      "stateMutability": "pure",
      "type": "function"
    },
    {
      "inputs": [
        {
          "internalType": "uint256",
          "name": "u",
          "type": "uint256"
        }
      ],
      "name": "uintToInt",
      "outputs": [
        {
          "internalType": "int128",
          "name": "",
          "type": "int128"
        }
      ],
      "stateMutability": "pure",
      "type": "function"
    },
    {
      "inputs": [
        {
          "internalType": "uint256",
          "name": "u",
          "type": "uint256"
        },
        {
          "internalType": "uint256",
          "name": "d",
          "type": "uint256"
        }
      ],
      "name": "decal",
      "outputs": [
        {
          "internalType": "uint256",
          "name": "",
          "type": "uint256"
        }
      ],
      "stateMutability": "pure",
      "type": "function"
    },
    {
      "inputs": [
        {
          "internalType": "uint256",
          "name": "u",
          "type": "uint256"
        },
        {
          "internalType": "uint256",
          "name": "d",
          "type": "uint256"
        }
      ],
      "name": "decalr",
      "outputs": [
        {
          "internalType": "uint256",
          "name": "",
          "type": "uint256"
        }
      ],
      "stateMutability": "pure",
      "type": "function"
    },
    {
      "inputs": [
        {
          "internalType": "uint256",
          "name": "a",
          "type": "uint256"
        },
        {
          "internalType": "uint256",
          "name": "b",
          "type": "uint256"
        }
      ],
      "name": "sum",
      "outputs": [
        {
          "internalType": "uint256",
          "name": "",
          "type": "uint256"
        }
      ],
      "stateMutability": "pure",
      "type": "function"
    }
  ],
  "bytecode": "0x608060405234801561001057600080fd5b506104ec806100206000396000f3fe608060405234801561001057600080fd5b506004361061007d5760003560e01c80638c5458911161005b5780638c54589114610113578063a547d2e114610143578063c19d22ad14610173578063cad0899b146101a35761007d565b8063217a78dc146100825780637791d3d8146100b2578063881d43d5146100e2575b600080fd5b61009c6004803603810190610097919061030a565b6101d3565b6040516100a9919061038d565b60405180910390f35b6100cc60048036038101906100c791906102a5565b6101dd565b6040516100d991906103d1565b60405180910390f35b6100fc60048036038101906100f7919061030a565b6101f9565b60405161010a9291906103a8565b60405180910390f35b61012d60048036038101906101289190610333565b61020b565b60405161013a91906103d1565b60405180910390f35b61015d600480360381019061015891906102ce565b610219565b60405161016a91906103d1565b60405180910390f35b61018d60048036038101906101889190610333565b610257565b60405161019a91906103d1565b60405180910390f35b6101bd60048036038101906101b89190610333565b610265565b6040516101ca91906103d1565b60405180910390f35b6000819050919050565b6000816fffffffffffffffffffffffffffffffff169050919050565b600080608083901c8391509150915091565b60008183901b905092915050565b6000816fffffffffffffffffffffffffffffffff166080846fffffffffffffffffffffffffffffffff16901b61024f91906103ec565b905092915050565b60008183901c905092915050565b6000818361027391906103ec565b905092915050565b60008135905061028a81610488565b92915050565b60008135905061029f8161049f565b92915050565b6000602082840312156102b757600080fd5b60006102c58482850161027b565b91505092915050565b600080604083850312156102e157600080fd5b60006102ef8582860161027b565b92505060206103008582860161027b565b9150509250929050565b60006020828403121561031c57600080fd5b600061032a84828501610290565b91505092915050565b6000806040838503121561034657600080fd5b600061035485828601610290565b925050602061036585828601610290565b9150509250929050565b61037881610442565b82525050565b6103878161044f565b82525050565b60006020820190506103a2600083018461036f565b92915050565b60006040820190506103bd600083018561036f565b6103ca602083018461036f565b9392505050565b60006020820190506103e6600083018461037e565b92915050565b60006103f78261044f565b91506104028361044f565b9250827fffffffffffffffffffffffffffffffffffffffffffffffffffffffffffffffff0382111561043757610436610459565b5b828201905092915050565b600081600f0b9050919050565b6000819050919050565b7f4e487b7100000000000000000000000000000000000000000000000000000000600052601160045260246000fd5b61049181610442565b811461049c57600080fd5b50565b6104a88161044f565b81146104b357600080fd5b5056fea2646970667358221220c0720c54394070a822606f8c244b2227377bbe272ae43cf1c4eab8d98afd26a764736f6c63430008040033",
  "immutableReferences": {},
  "source": "// SPDX-License-Identifier: MIT\r\n\r\npragma solidity ^0.8.0;\r\n\r\ncontract Test{\r\n    function idToPositon(uint256 id) public pure returns(int128, int128){\r\n        return (int128(uint128(id >> 128)), int128(uint128(id)));\r\n    }\r\n    \r\n    function positionToId(int128 x, int128 y) public pure returns(uint256){\r\n        return (uint256(uint128(x)) << 128) + uint256(uint128(y)); \r\n    }\r\n    \r\n    function intToUint(int128 i) public pure returns(uint256){\r\n        return uint256(uint128(i));\r\n    }\r\n    \r\n    function uintToInt(uint256 u) public pure returns(int128){\r\n        return int128(uint128(u));\r\n    }\r\n    \r\n    function decal(uint256 u, uint256 d) public pure returns(uint256){\r\n        return u << d;\r\n    }\r\n    \r\n    function decalr(uint256 u, uint256 d) public pure returns(uint256){\r\n        return u >> d;\r\n    }\r\n    \r\n    function sum(uint256 a, uint256 b) public pure returns(uint256){\r\n        return a + b;\r\n    }\r\n}",
  "sourcePath": "C:/Users/Lucas/cryptobee/contracts/Test.sol",
  "compiler": {
    "name": "solc",
    "version": "0.8.4+commit.c7e474f2.Emscripten.clang"
  },
  "schemaVersion": "3.3.4",
  "updatedAt": "2021-04-25T16:57:49.600Z",
  "devdoc": {
    "kind": "dev",
    "methods": {},
    "version": 1
  },
  "userdoc": {
    "kind": "user",
    "methods": {},
    "version": 1
  }
}