{
  "contractName": "UpgradableHive",
  "abi": [
    {
      "inputs": [
        {
          "internalType": "address",
          "name": "honeyAdress_",
          "type": "address"
        },
        {
          "internalType": "string[]",
          "name": "firstBeesName_",
          "type": "string[]"
        },
        {
          "internalType": "uint128",
          "name": "hiveSize_",
          "type": "uint128"
        },
        {
          "internalType": "uint256",
          "name": "baseClaimPrice_",
          "type": "uint256"
        },
        {
          "internalType": "uint256",
          "name": "honeyCooldown_",
          "type": "uint256"
        },
        {
          "internalType": "uint256",
          "name": "enlargeBasePrice_",
          "type": "uint256"
        }
      ],
      "stateMutability": "nonpayable",
      "type": "constructor"
    },
    {
      "anonymous": false,
      "inputs": [
        {
          "indexed": true,
          "internalType": "address",
          "name": "owner",
          "type": "address"
        },
        {
          "indexed": true,
          "internalType": "address",
          "name": "approved",
          "type": "address"
        },
        {
          "indexed": true,
          "internalType": "uint256",
          "name": "tokenId",
          "type": "uint256"
        }
      ],
      "name": "Approval",
      "type": "event"
    },
    {
      "anonymous": false,
      "inputs": [
        {
          "indexed": true,
          "internalType": "address",
          "name": "owner",
          "type": "address"
        },
        {
          "indexed": true,
          "internalType": "address",
          "name": "operator",
          "type": "address"
        },
        {
          "indexed": false,
          "internalType": "bool",
          "name": "approved",
          "type": "bool"
        }
      ],
      "name": "ApprovalForAll",
      "type": "event"
    },
    {
      "anonymous": false,
      "inputs": [
        {
          "indexed": true,
          "internalType": "address",
          "name": "previousOwner",
          "type": "address"
        },
        {
          "indexed": true,
          "internalType": "address",
          "name": "newOwner",
          "type": "address"
        }
      ],
      "name": "OwnershipTransferred",
      "type": "event"
    },
    {
      "anonymous": false,
      "inputs": [
        {
          "indexed": true,
          "internalType": "address",
          "name": "from",
          "type": "address"
        },
        {
          "indexed": true,
          "internalType": "address",
          "name": "to",
          "type": "address"
        },
        {
          "indexed": true,
          "internalType": "uint256",
          "name": "tokenId",
          "type": "uint256"
        }
      ],
      "name": "Transfer",
      "type": "event"
    },
    {
      "inputs": [
        {
          "internalType": "address",
          "name": "add",
          "type": "address"
        },
        {
          "internalType": "bool",
          "name": "withToken",
          "type": "bool"
        }
      ],
      "name": "addressOrder",
      "outputs": [
        {
          "internalType": "uint256[]",
          "name": "",
          "type": "uint256[]"
        }
      ],
      "stateMutability": "view",
      "type": "function"
    },
    {
      "inputs": [
        {
          "internalType": "address",
          "name": "beeOwner",
          "type": "address"
        }
      ],
      "name": "allBee",
      "outputs": [
        {
          "internalType": "uint256[]",
          "name": "",
          "type": "uint256[]"
        }
      ],
      "stateMutability": "view",
      "type": "function"
    },
    {
      "inputs": [],
      "name": "allBee",
      "outputs": [
        {
          "internalType": "uint256[]",
          "name": "",
          "type": "uint256[]"
        }
      ],
      "stateMutability": "view",
      "type": "function"
    },
    {
      "inputs": [
        {
          "internalType": "address",
          "name": "to",
          "type": "address"
        },
        {
          "internalType": "uint256",
          "name": "tokenId",
          "type": "uint256"
        }
      ],
      "name": "approve",
      "outputs": [],
      "stateMutability": "nonpayable",
      "type": "function"
    },
    {
      "inputs": [
        {
          "internalType": "address",
          "name": "owner",
          "type": "address"
        }
      ],
      "name": "balanceOf",
      "outputs": [
        {
          "internalType": "uint256",
          "name": "",
          "type": "uint256"
        }
      ],
      "stateMutability": "view",
      "type": "function"
    },
    {
      "inputs": [
        {
          "internalType": "uint256",
          "name": "beeId",
          "type": "uint256"
        }
      ],
      "name": "beePriceInfo",
      "outputs": [
        {
          "internalType": "uint256",
          "name": "",
          "type": "uint256"
        },
        {
          "internalType": "uint256",
          "name": "",
          "type": "uint256"
        }
      ],
      "stateMutability": "view",
      "type": "function"
    },
    {
      "inputs": [
        {
          "internalType": "uint256",
          "name": "",
          "type": "uint256"
        }
      ],
      "name": "bees",
      "outputs": [
        {
          "internalType": "string",
          "name": "name",
          "type": "string"
        }
      ],
      "stateMutability": "view",
      "type": "function"
    },
    {
      "inputs": [
        {
          "internalType": "uint256",
          "name": "beeId",
          "type": "uint256"
        }
      ],
      "name": "claimBee",
      "outputs": [],
      "stateMutability": "payable",
      "type": "function"
    },
    {
      "inputs": [
        {
          "internalType": "uint256",
          "name": "beeId",
          "type": "uint256"
        },
        {
          "internalType": "address",
          "name": "to",
          "type": "address"
        }
      ],
      "name": "claimBeeFor",
      "outputs": [],
      "stateMutability": "payable",
      "type": "function"
    },
    {
      "inputs": [],
      "name": "claimableBee",
      "outputs": [
        {
          "internalType": "uint256[]",
          "name": "",
          "type": "uint256[]"
        }
      ],
      "stateMutability": "view",
      "type": "function"
    },
    {
      "inputs": [],
      "name": "collectedAmountForEnlarge",
      "outputs": [
        {
          "internalType": "uint256",
          "name": "",
          "type": "uint256"
        }
      ],
      "stateMutability": "view",
      "type": "function"
    },
    {
      "inputs": [],
      "name": "dispatchHoney",
      "outputs": [
        {
          "internalType": "uint256",
          "name": "",
          "type": "uint256"
        }
      ],
      "stateMutability": "nonpayable",
      "type": "function"
    },
    {
      "inputs": [
        {
          "internalType": "uint256",
          "name": "id",
          "type": "uint256"
        }
      ],
      "name": "distanceToCenter",
      "outputs": [
        {
          "internalType": "uint256",
          "name": "",
          "type": "uint256"
        }
      ],
      "stateMutability": "pure",
      "type": "function"
    },
    {
      "inputs": [
        {
          "internalType": "int128",
          "name": "x",
          "type": "int128"
        },
        {
          "internalType": "int128",
          "name": "z",
          "type": "int128"
        }
      ],
      "name": "distanceToCenter",
      "outputs": [
        {
          "internalType": "uint256",
          "name": "",
          "type": "uint256"
        }
      ],
      "stateMutability": "pure",
      "type": "function"
    },
    {
      "inputs": [
        {
          "internalType": "uint256",
          "name": "tokenId",
          "type": "uint256"
        }
      ],
      "name": "getApproved",
      "outputs": [
        {
          "internalType": "address",
          "name": "",
          "type": "address"
        }
      ],
      "stateMutability": "view",
      "type": "function"
    },
    {
      "inputs": [],
      "name": "honeyCooldown",
      "outputs": [
        {
          "internalType": "uint256",
          "name": "",
          "type": "uint256"
        }
      ],
      "stateMutability": "view",
      "type": "function"
    },
    {
      "inputs": [],
      "name": "honeyTime",
      "outputs": [
        {
          "internalType": "uint256",
          "name": "",
          "type": "uint256"
        }
      ],
      "stateMutability": "view",
      "type": "function"
    },
    {
      "inputs": [
        {
          "internalType": "uint256",
          "name": "id",
          "type": "uint256"
        }
      ],
      "name": "idToPositon",
      "outputs": [
        {
          "internalType": "int128",
          "name": "",
          "type": "int128"
        },
        {
          "internalType": "int128",
          "name": "",
          "type": "int128"
        }
      ],
      "stateMutability": "pure",
      "type": "function"
    },
    {
      "inputs": [
        {
          "internalType": "address",
          "name": "owner",
          "type": "address"
        },
        {
          "internalType": "address",
          "name": "operator",
          "type": "address"
        }
      ],
      "name": "isApprovedForAll",
      "outputs": [
        {
          "internalType": "bool",
          "name": "",
          "type": "bool"
        }
      ],
      "stateMutability": "view",
      "type": "function"
    },
    {
      "inputs": [],
      "name": "name",
      "outputs": [
        {
          "internalType": "string",
          "name": "",
          "type": "string"
        }
      ],
      "stateMutability": "view",
      "type": "function"
    },
    {
      "inputs": [
        {
          "internalType": "address",
          "name": "",
          "type": "address"
        },
        {
          "internalType": "address",
          "name": "",
          "type": "address"
        },
        {
          "internalType": "uint256",
          "name": "",
          "type": "uint256"
        },
        {
          "internalType": "bytes",
          "name": "",
          "type": "bytes"
        }
      ],
      "name": "onERC721Received",
      "outputs": [
        {
          "internalType": "bytes4",
          "name": "",
          "type": "bytes4"
        }
      ],
      "stateMutability": "nonpayable",
      "type": "function"
    },
    {
      "inputs": [],
      "name": "owner",
      "outputs": [
        {
          "internalType": "address",
          "name": "",
          "type": "address"
        }
      ],
      "stateMutability": "view",
      "type": "function"
    },
    {
      "inputs": [
        {
          "internalType": "uint256",
          "name": "tokenId",
          "type": "uint256"
        }
      ],
      "name": "ownerOf",
      "outputs": [
        {
          "internalType": "address",
          "name": "",
          "type": "address"
        }
      ],
      "stateMutability": "view",
      "type": "function"
    },
    {
      "inputs": [
        {
          "internalType": "uint256",
          "name": "",
          "type": "uint256"
        }
      ],
      "name": "partipantToEnlarge",
      "outputs": [
        {
          "internalType": "address",
          "name": "",
          "type": "address"
        }
      ],
      "stateMutability": "view",
      "type": "function"
    },
    {
      "inputs": [
        {
          "internalType": "address",
          "name": "",
          "type": "address"
        }
      ],
      "name": "partipationToEnlarge",
      "outputs": [
        {
          "internalType": "uint256",
          "name": "",
          "type": "uint256"
        }
      ],
      "stateMutability": "view",
      "type": "function"
    },
    {
      "inputs": [
        {
          "internalType": "uint256",
          "name": "tokenId",
          "type": "uint256"
        },
        {
          "internalType": "uint256",
          "name": "amount",
          "type": "uint256"
        }
      ],
      "name": "placeBuyOrder",
      "outputs": [
        {
          "internalType": "uint256",
          "name": "",
          "type": "uint256"
        }
      ],
      "stateMutability": "nonpayable",
      "type": "function"
    },
    {
      "inputs": [
        {
          "internalType": "uint256",
          "name": "tokenId",
          "type": "uint256"
        },
        {
          "internalType": "uint256",
          "name": "amount",
          "type": "uint256"
        }
      ],
      "name": "placeSellOrder",
      "outputs": [
        {
          "internalType": "uint256",
          "name": "",
          "type": "uint256"
        }
      ],
      "stateMutability": "nonpayable",
      "type": "function"
    },
    {
      "inputs": [
        {
          "internalType": "uint256",
          "name": "tokenId",
          "type": "uint256"
        },
        {
          "internalType": "uint256",
          "name": "amount",
          "type": "uint256"
        }
      ],
      "name": "placeTokenSellOrder",
      "outputs": [
        {
          "internalType": "uint256",
          "name": "",
          "type": "uint256"
        }
      ],
      "stateMutability": "nonpayable",
      "type": "function"
    },
    {
      "inputs": [
        {
          "internalType": "uint256",
          "name": "tokenId",
          "type": "uint256"
        },
        {
          "internalType": "uint256",
          "name": "amount",
          "type": "uint256"
        }
      ],
      "name": "placeTokenbuyOrder",
      "outputs": [
        {
          "internalType": "uint256",
          "name": "",
          "type": "uint256"
        }
      ],
      "stateMutability": "nonpayable",
      "type": "function"
    },
    {
      "inputs": [
        {
          "internalType": "int128",
          "name": "x",
          "type": "int128"
        },
        {
          "internalType": "int128",
          "name": "z",
          "type": "int128"
        }
      ],
      "name": "positionToId",
      "outputs": [
        {
          "internalType": "uint256",
          "name": "",
          "type": "uint256"
        }
      ],
      "stateMutability": "pure",
      "type": "function"
    },
    {
      "inputs": [
        {
          "internalType": "uint256",
          "name": "orderId",
          "type": "uint256"
        }
      ],
      "name": "removeOrder",
      "outputs": [],
      "stateMutability": "nonpayable",
      "type": "function"
    },
    {
      "inputs": [
        {
          "internalType": "uint256",
          "name": "beeId",
          "type": "uint256"
        },
        {
          "internalType": "string",
          "name": "newName",
          "type": "string"
        }
      ],
      "name": "renameBee",
      "outputs": [],
      "stateMutability": "nonpayable",
      "type": "function"
    },
    {
      "inputs": [],
      "name": "renounceOwnership",
      "outputs": [],
      "stateMutability": "nonpayable",
      "type": "function"
    },
    {
      "inputs": [],
      "name": "reservedAmount",
      "outputs": [
        {
          "internalType": "uint256",
          "name": "",
          "type": "uint256"
        }
      ],
      "stateMutability": "view",
      "type": "function"
    },
    {
      "inputs": [
        {
          "internalType": "contract IERC20",
          "name": "token",
          "type": "address"
        }
      ],
      "name": "reservedERC20Amount",
      "outputs": [
        {
          "internalType": "uint256",
          "name": "",
          "type": "uint256"
        }
      ],
      "stateMutability": "view",
      "type": "function"
    },
    {
      "inputs": [
        {
          "internalType": "contract IERC721",
          "name": "token",
          "type": "address"
        },
        {
          "internalType": "uint256",
          "name": "id",
          "type": "uint256"
        }
      ],
      "name": "reservedERC721",
      "outputs": [
        {
          "internalType": "bool",
          "name": "",
          "type": "bool"
        }
      ],
      "stateMutability": "view",
      "type": "function"
    },
    {
      "inputs": [
        {
          "internalType": "address",
          "name": "from",
          "type": "address"
        },
        {
          "internalType": "address",
          "name": "to",
          "type": "address"
        },
        {
          "internalType": "uint256",
          "name": "tokenId",
          "type": "uint256"
        }
      ],
      "name": "safeTransferFrom",
      "outputs": [],
      "stateMutability": "nonpayable",
      "type": "function"
    },
    {
      "inputs": [
        {
          "internalType": "address",
          "name": "from",
          "type": "address"
        },
        {
          "internalType": "address",
          "name": "to",
          "type": "address"
        },
        {
          "internalType": "uint256",
          "name": "tokenId",
          "type": "uint256"
        },
        {
          "internalType": "bytes",
          "name": "_data",
          "type": "bytes"
        }
      ],
      "name": "safeTransferFrom",
      "outputs": [],
      "stateMutability": "nonpayable",
      "type": "function"
    },
    {
      "inputs": [
        {
          "internalType": "address",
          "name": "operator",
          "type": "address"
        },
        {
          "internalType": "bool",
          "name": "approved",
          "type": "bool"
        }
      ],
      "name": "setApprovalForAll",
      "outputs": [],
      "stateMutability": "nonpayable",
      "type": "function"
    },
    {
      "inputs": [],
      "name": "subWithdraw",
      "outputs": [
        {
          "internalType": "contract Withdraw[]",
          "name": "",
          "type": "address[]"
        }
      ],
      "stateMutability": "view",
      "type": "function"
    },
    {
      "inputs": [],
      "name": "subWithdrawERC20",
      "outputs": [
        {
          "internalType": "contract WithdrawERC20[]",
          "name": "",
          "type": "address[]"
        }
      ],
      "stateMutability": "view",
      "type": "function"
    },
    {
      "inputs": [
        {
          "internalType": "bytes4",
          "name": "interfaceId",
          "type": "bytes4"
        }
      ],
      "name": "supportsInterface",
      "outputs": [
        {
          "internalType": "bool",
          "name": "",
          "type": "bool"
        }
      ],
      "stateMutability": "view",
      "type": "function"
    },
    {
      "inputs": [],
      "name": "symbol",
      "outputs": [
        {
          "internalType": "string",
          "name": "",
          "type": "string"
        }
      ],
      "stateMutability": "view",
      "type": "function"
    },
    {
      "inputs": [
        {
          "internalType": "uint256",
          "name": "tokenId",
          "type": "uint256"
        },
        {
          "internalType": "bool",
          "name": "withToken",
          "type": "bool"
        }
      ],
      "name": "tokenOrder",
      "outputs": [
        {
          "internalType": "uint256[]",
          "name": "",
          "type": "uint256[]"
        }
      ],
      "stateMutability": "view",
      "type": "function"
    },
    {
      "inputs": [
        {
          "internalType": "uint256",
          "name": "tokenId",
          "type": "uint256"
        }
      ],
      "name": "tokenURI",
      "outputs": [
        {
          "internalType": "string",
          "name": "",
          "type": "string"
        }
      ],
      "stateMutability": "view",
      "type": "function"
    },
    {
      "inputs": [
        {
          "internalType": "address",
          "name": "from",
          "type": "address"
        },
        {
          "internalType": "address",
          "name": "to",
          "type": "address"
        },
        {
          "internalType": "uint256",
          "name": "tokenId",
          "type": "uint256"
        }
      ],
      "name": "transferFrom",
      "outputs": [],
      "stateMutability": "nonpayable",
      "type": "function"
    },
    {
      "inputs": [
        {
          "internalType": "address",
          "name": "newOwner",
          "type": "address"
        }
      ],
      "name": "transferOwnership",
      "outputs": [],
      "stateMutability": "nonpayable",
      "type": "function"
    },
    {
      "inputs": [
        {
          "internalType": "uint256",
          "name": "maxAmount",
          "type": "uint256"
        }
      ],
      "name": "withdraw",
      "outputs": [
        {
          "internalType": "uint256",
          "name": "",
          "type": "uint256"
        }
      ],
      "stateMutability": "nonpayable",
      "type": "function"
    },
    {
      "inputs": [],
      "name": "withdrawAll",
      "outputs": [
        {
          "internalType": "uint256",
          "name": "",
          "type": "uint256"
        }
      ],
      "stateMutability": "nonpayable",
      "type": "function"
    },
    {
      "inputs": [
        {
          "internalType": "address",
          "name": "add",
          "type": "address"
        }
      ],
      "name": "withdrawAllERC20",
      "outputs": [
        {
          "internalType": "uint256",
          "name": "",
          "type": "uint256"
        }
      ],
      "stateMutability": "nonpayable",
      "type": "function"
    },
    {
      "inputs": [
        {
          "internalType": "address",
          "name": "add",
          "type": "address"
        },
        {
          "internalType": "uint256",
          "name": "maxAmount",
          "type": "uint256"
        }
      ],
      "name": "withdrawERC20",
      "outputs": [
        {
          "internalType": "uint256",
          "name": "",
          "type": "uint256"
        }
      ],
      "stateMutability": "nonpayable",
      "type": "function"
    },
    {
      "inputs": [
        {
          "internalType": "address",
          "name": "add",
          "type": "address"
        },
        {
          "internalType": "uint256",
          "name": "id",
          "type": "uint256"
        }
      ],
      "name": "withdrawERC721",
      "outputs": [],
      "stateMutability": "nonpayable",
      "type": "function"
    },
    {
      "inputs": [],
      "name": "enlargePrice",
      "outputs": [
        {
          "internalType": "uint256",
          "name": "",
          "type": "uint256"
        }
      ],
      "stateMutability": "view",
      "type": "function"
    },
    {
      "inputs": [
        {
          "internalType": "uint256",
          "name": "amount",
          "type": "uint256"
        }
      ],
      "name": "participateToEnlargeHive",
      "outputs": [],
      "stateMutability": "nonpayable",
      "type": "function"
    },
    {
      "inputs": [
        {
          "internalType": "string[]",
          "name": "beeNames",
          "type": "string[]"
        }
      ],
      "name": "enlarge",
      "outputs": [],
      "stateMutability": "nonpayable",
      "type": "function"
    }
  ],
  "bytecode": "0x608060405260016008556000600a556000601060006101000a8154816fffffffffffffffffffffffffffffffff02191690836fffffffffffffffffffffffffffffffff160217905550600060115560006015553480156200005f57600080fd5b50604051620088f0380380620088f0833981810160405281019062000085919062000c19565b85858585856040518060400160405280600381526020017f42656500000000000000000000000000000000000000000000000000000000008152506040518060400160405280600381526020017f4245450000000000000000000000000000000000000000000000000000000000815250868282816000908051906020019062000111929190620009f5565b5080600190805190602001906200012a929190620009f5565b50505060006200013f6200035260201b60201c565b905080600660006101000a81548173ffffffffffffffffffffffffffffffffffffffff021916908373ffffffffffffffffffffffffffffffffffffffff1602179055508073ffffffffffffffffffffffffffffffffffffffff16600073ffffffffffffffffffffffffffffffffffffffff167f8be0079c531659141344cd1fd0a4f28419497f9722a3daafe3b4186f6b6457e060405160405180910390a35080600760006101000a81548173ffffffffffffffffffffffffffffffffffffffff021916908373ffffffffffffffffffffffffffffffffffffffff16021790555050505084600d60006101000a81548173ffffffffffffffffffffffffffffffffffffffff021916908373ffffffffffffffffffffffffffffffffffffffff160217905550806013819055506013546013546013544262000280919062000edb565b6200028c919062000f64565b62000298919062000e46565b60128190555081600f81905550620002fb84600081518110620002e4577f4e487b7100000000000000000000000000000000000000000000000000000000600052603260045260246000fd5b60200260200101516000806200035a60201b60201c565b6000836fffffffffffffffffffffffffffffffff1611156200032c576200032b83856001620003e660201b60201c565b5b5050505050600081116200033f57600080fd5b8060148190555050505050505062001419565b600033905090565b60006200036e83836200067c60201b60201c565b9050620003823082620006bc60201b60201c565b604051806020016040528085815250600e60008381526020019081526020016000206000820151816000019080519060200190620003c2929190620009f5565b5090505060116000815480929190620003db9062001210565b919050555050505050565b601060009054906101000a90046fffffffffffffffffffffffffffffffff166fffffffffffffffffffffffffffffffff16836fffffffffffffffffffffffffffffffff16116200043557600080fd5b600083600f0b136200044657600080fd5b60066002601060009054906101000a90046fffffffffffffffffffffffffffffffff168562000476919062001053565b856001601060009054906101000a90046fffffffffffffffffffffffffffffffff16620004a4919062000df9565b620004b0919062000df9565b620004bc919062000f13565b620004c8919062000ea3565b620004d4919062000f13565b6fffffffffffffffffffffffffffffffff16818351620004f591906200108e565b146200050057600080fd5b6000836200050e906200125e565b90505b83600f0b81600f0b136200063d576000846200052d906200125e565b90505b84600f0b81600f0b1362000626576000620005528383620008a260201b60201c565b9050601060009054906101000a90046fffffffffffffffffffffffffffffffff166fffffffffffffffffffffffffffffffff1681118015620005a65750856fffffffffffffffffffffffffffffffff168111155b156200060f576200060e858580620005be9062001210565b965081518110620005f8577f4e487b7100000000000000000000000000000000000000000000000000000000600052603260045260246000fd5b602002602001015184846200035a60201b60201c565b5b5080806200061d90620011d2565b91505062000530565b5080806200063490620011d2565b91505062000511565b5082601060006101000a8154816fffffffffffffffffffffffffffffffff02191690836fffffffffffffffffffffffffffffffff160217905550505050565b6000816fffffffffffffffffffffffffffffffff166080846fffffffffffffffffffffffffffffffff16901b620006b4919062000e46565b905092915050565b600073ffffffffffffffffffffffffffffffffffffffff168273ffffffffffffffffffffffffffffffffffffffff1614156200072f576040517f08c379a0000000000000000000000000000000000000000000000000000000008152600401620007269062000d38565b60405180910390fd5b62000740816200098460201b60201c565b1562000783576040517f08c379a00000000000000000000000000000000000000000000000000000000081526004016200077a9062000d16565b60405180910390fd5b6200079760008383620009f060201b60201c565b6001600360008473ffffffffffffffffffffffffffffffffffffffff1673ffffffffffffffffffffffffffffffffffffffff1681526020019081526020016000206000828254620007e9919062000e46565b92505081905550816002600083815260200190815260200160002060006101000a81548173ffffffffffffffffffffffffffffffffffffffff021916908373ffffffffffffffffffffffffffffffffffffffff160217905550808273ffffffffffffffffffffffffffffffffffffffff16600073ffffffffffffffffffffffffffffffffffffffff167fddf252ad1be2c89b69c2b068fc378daa952ba7f163c4a11628f55a4df523b3ef60405160405180910390a45050565b6000808284620008b2906200125e565b620008be919062000fc5565b9050600084600f0b13620008de5783620008d8906200125e565b620008e0565b835b9350600081600f0b13620009005780620008fa906200125e565b62000902565b805b9050600083600f0b136200092257826200091c906200125e565b62000924565b825b925080600f0b84600f0b13620009515782600f0b81600f0b136200094957826200094b565b805b62000969565b82600f0b84600f0b1362000966578262000968565b835b5b6fffffffffffffffffffffffffffffffff1691505092915050565b60008073ffffffffffffffffffffffffffffffffffffffff166002600084815260200190815260200160002060009054906101000a900473ffffffffffffffffffffffffffffffffffffffff1673ffffffffffffffffffffffffffffffffffffffff1614159050919050565b505050565b82805462000a039062001166565b90600052602060002090601f01602090048101928262000a27576000855562000a73565b82601f1062000a4257805160ff191683800117855562000a73565b8280016001018555821562000a73579182015b8281111562000a7257825182559160200191906001019062000a55565b5b50905062000a82919062000a86565b5090565b5b8082111562000aa157600081600090555060010162000a87565b5090565b600062000abc62000ab68462000d83565b62000d5a565b9050808382526020820190508285602086028201111562000adc57600080fd5b60005b8581101562000b2b57815167ffffffffffffffff81111562000b0057600080fd5b80860162000b0f898262000bbe565b8552602085019450602084019350505060018101905062000adf565b5050509392505050565b600062000b4c62000b468462000db2565b62000d5a565b90508281526020810184848401111562000b6557600080fd5b62000b7284828562001130565b509392505050565b60008151905062000b8b81620013cb565b92915050565b600082601f83011262000ba357600080fd5b815162000bb584826020860162000aa5565b91505092915050565b600082601f83011262000bd057600080fd5b815162000be284826020860162000b35565b91505092915050565b60008151905062000bfc81620013e5565b92915050565b60008151905062000c1381620013ff565b92915050565b60008060008060008060c0878903121562000c3357600080fd5b600062000c4389828a0162000b7a565b965050602087015167ffffffffffffffff81111562000c6157600080fd5b62000c6f89828a0162000b91565b955050604062000c8289828a0162000beb565b945050606062000c9589828a0162000c02565b935050608062000ca889828a0162000c02565b92505060a062000cbb89828a0162000c02565b9150509295509295509295565b600062000cd7601c8362000de8565b915062000ce48262001379565b602082019050919050565b600062000cfe60208362000de8565b915062000d0b82620013a2565b602082019050919050565b6000602082019050818103600083015262000d318162000cc8565b9050919050565b6000602082019050818103600083015262000d538162000cef565b9050919050565b600062000d6662000d79565b905062000d7482826200119c565b919050565b6000604051905090565b600067ffffffffffffffff82111562000da15762000da062001339565b5b602082029050602081019050919050565b600067ffffffffffffffff82111562000dd05762000dcf62001339565b5b62000ddb8262001368565b9050602081019050919050565b600082825260208201905092915050565b600062000e0682620010ea565b915062000e1383620010ea565b9250826fffffffffffffffffffffffffffffffff0382111562000e3b5762000e3a620012ac565b5b828201905092915050565b600062000e538262001126565b915062000e608362001126565b9250827fffffffffffffffffffffffffffffffffffffffffffffffffffffffffffffffff0382111562000e985762000e97620012ac565b5b828201905092915050565b600062000eb082620010ea565b915062000ebd83620010ea565b92508262000ed05762000ecf620012db565b5b828204905092915050565b600062000ee88262001126565b915062000ef58362001126565b92508262000f085762000f07620012db565b5b828204905092915050565b600062000f2082620010ea565b915062000f2d83620010ea565b9250816fffffffffffffffffffffffffffffffff048311821515161562000f595762000f58620012ac565b5b828202905092915050565b600062000f718262001126565b915062000f7e8362001126565b9250817fffffffffffffffffffffffffffffffffffffffffffffffffffffffffffffffff048311821515161562000fba5762000fb9620012ac565b5b828202905092915050565b600062000fd282620010dd565b915062000fdf83620010dd565b9250827fffffffffffffffffffffffffffffffff80000000000000000000000000000000018212600084121516156200101d576200101c620012ac565b5b826f7fffffffffffffffffffffffffffffff018213600084121615620010485762001047620012ac565b5b828203905092915050565b60006200106082620010ea565b91506200106d83620010ea565b925082821015620010835762001082620012ac565b5b828203905092915050565b60006200109b8262001126565b9150620010a88362001126565b925082821015620010be57620010bd620012ac565b5b828203905092915050565b6000620010d68262001106565b9050919050565b600081600f0b9050919050565b60006fffffffffffffffffffffffffffffffff82169050919050565b600073ffffffffffffffffffffffffffffffffffffffff82169050919050565b6000819050919050565b60005b838110156200115057808201518184015260208101905062001133565b8381111562001160576000848401525b50505050565b600060028204905060018216806200117f57607f821691505b602082108114156200119657620011956200130a565b5b50919050565b620011a78262001368565b810181811067ffffffffffffffff82111715620011c957620011c862001339565b5b80604052505050565b6000620011df82620010dd565b91506f7fffffffffffffffffffffffffffffff821415620012055762001204620012ac565b5b600182019050919050565b60006200121d8262001126565b91507fffffffffffffffffffffffffffffffffffffffffffffffffffffffffffffffff821415620012535762001252620012ac565b5b600182019050919050565b60006200126b82620010dd565b91507fffffffffffffffffffffffffffffffff80000000000000000000000000000000821415620012a157620012a0620012ac565b5b816000039050919050565b7f4e487b7100000000000000000000000000000000000000000000000000000000600052601160045260246000fd5b7f4e487b7100000000000000000000000000000000000000000000000000000000600052601260045260246000fd5b7f4e487b7100000000000000000000000000000000000000000000000000000000600052602260045260246000fd5b7f4e487b7100000000000000000000000000000000000000000000000000000000600052604160045260246000fd5b6000601f19601f8301169050919050565b7f4552433732313a20746f6b656e20616c7265616479206d696e74656400000000600082015250565b7f4552433732313a206d696e7420746f20746865207a65726f2061646472657373600082015250565b620013d681620010c9565b8114620013e257600080fd5b50565b620013f081620010ea565b8114620013fc57600080fd5b50565b6200140a8162001126565b81146200141657600080fd5b50565b6174c780620014296000396000f3fe6080604052600436106103505760003560e01c8063857abbd4116101c6578063b994d278116100f7578063e985e9c511610095578063f2fde38b1161006f578063f2fde38b14610d78578063f3e414f814610da1578063f92c45b714610dca578063fcde263814610df557610350565b8063e985e9c514610cd3578063eb5671d814610d10578063ee36d4ab14610d3b57610350565b8063cce95e56116100d1578063cce95e5614610c03578063d19893cf14610c40578063d64b2f6214610c6b578063e38c266014610c9657610350565b8063b994d27814610b5e578063c13159bc14610b89578063c87b56dd14610bc657610350565b80639e65b01a11610164578063a4406bcd1161013e578063a4406bcd14610a9f578063a547d2e114610adc578063aaafbd0014610b19578063b88d4fde14610b3557610350565b80639e65b01a14610a0e578063a1db978214610a39578063a22cb46514610a7657610350565b80638c7939c2116101a05780638c7939c2146109525780638da5cb5b1461098f57806395d89b41146109ba5780639645337a146109e557610350565b8063857abbd414610899578063881d43d5146108d657806389525d7e1461091457610350565b80633c3a0c7b116102a0578063655951531161023e578063715018a611610218578063715018a6146107dd5780637a35110f146107f45780637b99367914610831578063853828b61461086e57610350565b8063655951531461073a578063657d128a1461076357806370a08231146107a057610350565b806344ca14951161027a57806344ca1495146106675780634789dd64146106835780636352211e146106c0578063638f1d2a146106fd57610350565b80633c3a0c7b146105ea578063427a3bd31461061357806342842e0e1461063e57610350565b80631f0669331161030d5780633050ad20116102e75780633050ad201461052e57806333df66da146105575780633536e61414610582578063382c2a22146105ad57610350565b80631f0669331461048b57806323b872dd146104c85780632e1a7d4d146104f157610350565b806301ffc9a71461035557806306fdde0314610392578063081812fc146103bd578063095ea7b3146103fa5780630b6889c714610423578063150b7a021461044e575b600080fd5b34801561036157600080fd5b5061037c6004803603810190610377919061599c565b610e32565b604051610389919061629d565b60405180910390f35b34801561039e57600080fd5b506103a7610f14565b6040516103b491906162fc565b60405180910390f35b3480156103c957600080fd5b506103e460048036038101906103df9190615a8f565b610fa6565b6040516103f19190616147565b60405180910390f35b34801561040657600080fd5b50610421600480360381019061041c91906158f6565b61102b565b005b34801561042f57600080fd5b50610438611143565b604051610445919061655e565b60405180910390f35b34801561045a57600080fd5b50610475600480360381019061047091906157bf565b611182565b60405161048291906162b8565b60405180910390f35b34801561049757600080fd5b506104b260048036038101906104ad919061570b565b611197565b6040516104bf919061655e565b60405180910390f35b3480156104d457600080fd5b506104ef60048036038101906104ea9190615770565b6111af565b005b3480156104fd57600080fd5b5061051860048036038101906105139190615a8f565b61120f565b604051610525919061655e565b60405180910390f35b34801561053a57600080fd5b5061055560048036038101906105509190615932565b61129d565b005b34801561056357600080fd5b5061056c611448565b6040516105799190616237565b60405180910390f35b34801561058e57600080fd5b5061059761155c565b6040516105a4919061655e565b60405180910390f35b3480156105b957600080fd5b506105d460048036038101906105cf919061570b565b611562565b6040516105e1919061627b565b60405180910390f35b3480156105f657600080fd5b50610611600480360381019061060c9190615a8f565b61186f565b005b34801561061f57600080fd5b50610628611ac3565b604051610635919061627b565b60405180910390f35b34801561064a57600080fd5b5061066560048036038101906106609190615770565b611d85565b005b610681600480360381019061067c9190615ae1565b611da5565b005b34801561068f57600080fd5b506106aa60048036038101906106a59190615a17565b611db3565b6040516106b7919061629d565b60405180910390f35b3480156106cc57600080fd5b506106e760048036038101906106e29190615a8f565b611e5f565b6040516106f49190616147565b60405180910390f35b34801561070957600080fd5b50610724600480360381019061071f9190615a8f565b611f11565b604051610731919061655e565b60405180910390f35b34801561074657600080fd5b50610761600480360381019061075c9190615b59565b611f36565b005b34801561076f57600080fd5b5061078a60048036038101906107859190615a53565b611fae565b604051610797919061655e565b60405180910390f35b3480156107ac57600080fd5b506107c760048036038101906107c2919061570b565b61207a565b6040516107d4919061655e565b60405180910390f35b3480156107e957600080fd5b506107f2612132565b005b34801561080057600080fd5b5061081b60048036038101906108169190615b1d565b61226f565b604051610828919061627b565b60405180910390f35b34801561083d57600080fd5b5061085860048036038101906108539190615a8f565b612283565b60405161086591906162fc565b60405180910390f35b34801561087a57600080fd5b50610883612329565b604051610890919061655e565b60405180910390f35b3480156108a557600080fd5b506108c060048036038101906108bb919061570b565b6124c3565b6040516108cd919061655e565b60405180910390f35b3480156108e257600080fd5b506108fd60048036038101906108f89190615a8f565b61266b565b60405161090b9291906162d3565b60405180910390f35b34801561092057600080fd5b5061093b60048036038101906109369190615a8f565b61267d565b604051610949929190616579565b60405180910390f35b34801561095e57600080fd5b5061097960048036038101906109749190615a8f565b612732565b6040516109869190616147565b60405180910390f35b34801561099b57600080fd5b506109a4612771565b6040516109b19190616147565b60405180910390f35b3480156109c657600080fd5b506109cf61279b565b6040516109dc91906162fc565b60405180910390f35b3480156109f157600080fd5b50610a0c6004803603810190610a079190615a8f565b61282d565b005b348015610a1a57600080fd5b50610a236128b0565b604051610a30919061655e565b60405180910390f35b348015610a4557600080fd5b50610a606004803603810190610a5b91906158f6565b6128b6565b604051610a6d919061655e565b60405180910390f35b348015610a8257600080fd5b50610a9d6004803603810190610a9891906158ba565b612946565b005b348015610aab57600080fd5b50610ac66004803603810190610ac19190615bad565b612ac7565b604051610ad3919061655e565b60405180910390f35b348015610ae857600080fd5b50610b036004803603810190610afe9190615a53565b612adf565b604051610b10919061655e565b60405180910390f35b610b336004803603810190610b2e9190615a8f565b612b1d565b005b348015610b4157600080fd5b50610b5c6004803603810190610b57919061583f565b612b31565b005b348015610b6a57600080fd5b50610b73612b93565b604051610b809190616259565b60405180910390f35b348015610b9557600080fd5b50610bb06004803603810190610bab9190615bad565b612ca7565b604051610bbd919061655e565b60405180910390f35b348015610bd257600080fd5b50610bed6004803603810190610be89190615a8f565b612cbf565b604051610bfa91906162fc565b60405180910390f35b348015610c0f57600080fd5b50610c2a6004803603810190610c259190615bad565b612d66565b604051610c37919061655e565b60405180910390f35b348015610c4c57600080fd5b50610c55612d7d565b604051610c62919061655e565b60405180910390f35b348015610c7757600080fd5b50610c80612d83565b604051610c8d919061655e565b60405180910390f35b348015610ca257600080fd5b50610cbd6004803603810190610cb891906159ee565b612e5e565b604051610cca919061655e565b60405180910390f35b348015610cdf57600080fd5b50610cfa6004803603810190610cf59190615734565b612eca565b604051610d07919061629d565b60405180910390f35b348015610d1c57600080fd5b50610d25612f5e565b604051610d32919061627b565b60405180910390f35b348015610d4757600080fd5b50610d626004803603810190610d5d9190615bad565b612f6f565b604051610d6f919061655e565b60405180910390f35b348015610d8457600080fd5b50610d9f6004803603810190610d9a919061570b565b612f86565b005b348015610dad57600080fd5b50610dc86004803603810190610dc391906158f6565b613132565b005b348015610dd657600080fd5b50610ddf6131bc565b604051610dec919061655e565b60405180910390f35b348015610e0157600080fd5b50610e1c6004803603810190610e1791906158ba565b6131c6565b604051610e29919061627b565b60405180910390f35b60007f80ac58cd000000000000000000000000000000000000000000000000000000007bffffffffffffffffffffffffffffffffffffffffffffffffffffffff1916827bffffffffffffffffffffffffffffffffffffffffffffffffffffffff19161480610efd57507f5b5e139f000000000000000000000000000000000000000000000000000000007bffffffffffffffffffffffffffffffffffffffffffffffffffffffff1916827bffffffffffffffffffffffffffffffffffffffffffffffffffffffff1916145b80610f0d5750610f0c826131da565b5b9050919050565b606060008054610f2390616ce4565b80601f0160208091040260200160405190810160405280929190818152602001828054610f4f90616ce4565b8015610f9c5780601f10610f7157610100808354040283529160200191610f9c565b820191906000526020600020905b815481529060010190602001808311610f7f57829003601f168201915b5050505050905090565b6000610fb182613244565b610ff0576040517f08c379a0000000000000000000000000000000000000000000000000000000008152600401610fe79061649e565b60405180910390fd5b6004600083815260200190815260200160002060009054906101000a900473ffffffffffffffffffffffffffffffffffffffff169050919050565b600061103682611e5f565b90508073ffffffffffffffffffffffffffffffffffffffff168373ffffffffffffffffffffffffffffffffffffffff1614156110a7576040517f08c379a000000000000000000000000000000000000000000000000000000000815260040161109e9061651e565b60405180910390fd5b8073ffffffffffffffffffffffffffffffffffffffff166110c66132b0565b73ffffffffffffffffffffffffffffffffffffffff1614806110f557506110f4816110ef6132b0565b612eca565b5b611134576040517f08c379a000000000000000000000000000000000000000000000000000000000815260040161112b9061641e565b60405180910390fd5b61113e83836132b8565b505050565b6000601060009054906101000a90046fffffffffffffffffffffffffffffffff166002611170919061688e565b60145461117d9190616a41565b905090565b600063150b7a0260e01b905095945050505050565b60176020528060005260406000206000915090505481565b6111c06111ba6132b0565b82613371565b6111ff576040517f08c379a00000000000000000000000000000000000000000000000000000000081526004016111f69061653e565b60405180910390fd5b61120a83838361344f565b505050565b60006112196132b0565b73ffffffffffffffffffffffffffffffffffffffff16611237612771565b73ffffffffffffffffffffffffffffffffffffffff161461128d576040517f08c379a0000000000000000000000000000000000000000000000000000000008152600401611284906164be565b60405180910390fd5b611296826136ab565b9050919050565b6112a56132b0565b73ffffffffffffffffffffffffffffffffffffffff166112c3612771565b73ffffffffffffffffffffffffffffffffffffffff1614611319576040517f08c379a0000000000000000000000000000000000000000000000000000000008152600401611310906164be565b60405180910390fd5b611321611143565b6015541461132e57600080fd5b6113646001601060009054906101000a90046fffffffffffffffffffffffffffffffff1661135c919061673d565b826000613712565b600060158190555060005b6016805490508110156114365760176000601683815481106113ba577f4e487b7100000000000000000000000000000000000000000000000000000000600052603260045260246000fd5b9060005260206000200160009054906101000a900473ffffffffffffffffffffffffffffffffffffffff1673ffffffffffffffffffffffffffffffffffffffff1673ffffffffffffffffffffffffffffffffffffffff16815260200190815260200160002060009055808061142e90616d80565b91505061136f565b506016600061144591906153ab565b50565b60606000600167ffffffffffffffff81111561148d577f4e487b7100000000000000000000000000000000000000000000000000000000600052604160045260246000fd5b6040519080825280602002602001820160405280156114bb5781602001602082028036833780820191505090505b509050600d60009054906101000a900473ffffffffffffffffffffffffffffffffffffffff168160008151811061151b577f4e487b7100000000000000000000000000000000000000000000000000000000600052603260045260246000fd5b602002602001019073ffffffffffffffffffffffffffffffffffffffff16908173ffffffffffffffffffffffffffffffffffffffff16815250508091505090565b60125481565b606080600073ffffffffffffffffffffffffffffffffffffffff168373ffffffffffffffffffffffffffffffffffffffff1614156116125760115467ffffffffffffffff8111156115dc577f4e487b7100000000000000000000000000000000000000000000000000000000600052604160045260246000fd5b60405190808252806020026020018201604052801561160a5781602001602082028036833780820191505090505b50905061168c565b61161b8361207a565b67ffffffffffffffff81111561165a577f4e487b7100000000000000000000000000000000000000000000000000000000600052604160045260246000fd5b6040519080825280602002602001820160405280156116885781602001602082028036833780820191505090505b5090505b600080601060009054906101000a90046fffffffffffffffffffffffffffffffff166116b790616dfa565b90505b601060009054906101000a90046fffffffffffffffffffffffffffffffff16600f0b81600f0b131580156116ee5750825182105b15611864576000601060009054906101000a90046fffffffffffffffffffffffffffffffff1661171d90616dfa565b90505b601060009054906101000a90046fffffffffffffffffffffffffffffffff16600f0b81600f0b131580156117545750835183145b156118505760006117658383612adf565b905061177081613244565b1561183c57600073ffffffffffffffffffffffffffffffffffffffff168773ffffffffffffffffffffffffffffffffffffffff1614806117e357506117b481611e5f565b73ffffffffffffffffffffffffffffffffffffffff168773ffffffffffffffffffffffffffffffffffffffff16145b1561183b57808585806117f590616d80565b96508151811061182e577f4e487b7100000000000000000000000000000000000000000000000000000000600052603260045260246000fd5b6020026020010181815250505b5b50808061184890616d47565b915050611720565b50808061185c90616d47565b9150506116ba565b508192505050919050565b600060155461187c611143565b6118869190616b53565b905080821115611894578091505b600082116118a157600080fd5b600d60009054906101000a900473ffffffffffffffffffffffffffffffffffffffff1673ffffffffffffffffffffffffffffffffffffffff166333bebb776118e76132b0565b30856040518463ffffffff1660e01b815260040161190793929190616162565b600060405180830381600087803b15801561192157600080fd5b505af1158015611935573d6000803e3d6000fd5b50505050600d60009054906101000a900473ffffffffffffffffffffffffffffffffffffffff1673ffffffffffffffffffffffffffffffffffffffff16639dc29fac30600a85611985919061680a565b856119909190616b53565b6040518363ffffffff1660e01b81526004016119ad92919061620e565b600060405180830381600087803b1580156119c757600080fd5b505af11580156119db573d6000803e3d6000fd5b5050505081601560008282546119f19190616783565b925050819055506016611a026132b0565b9080600181540180825580915050600190039060005260206000200160009091909190916101000a81548173ffffffffffffffffffffffffffffffffffffffff021916908373ffffffffffffffffffffffffffffffffffffffff1602179055508160176000611a6f6132b0565b73ffffffffffffffffffffffffffffffffffffffff1673ffffffffffffffffffffffffffffffffffffffff1681526020019081526020016000206000828254611ab89190616783565b925050819055505050565b60606000611ad030611562565b90506000805b8251811015611ba957600073ffffffffffffffffffffffffffffffffffffffff16600c6000858481518110611b34577f4e487b7100000000000000000000000000000000000000000000000000000000600052603260045260246000fd5b6020026020010151815260200190815260200160002060009054906101000a900473ffffffffffffffffffffffffffffffffffffffff1673ffffffffffffffffffffffffffffffffffffffff161415611b96578180611b9290616d80565b9250505b8080611ba190616d80565b915050611ad6565b5060008167ffffffffffffffff811115611bec577f4e487b7100000000000000000000000000000000000000000000000000000000600052604160045260246000fd5b604051908082528060200260200182016040528015611c1a5781602001602082028036833780820191505090505b5090506000915060005b8351811015611d7b57600073ffffffffffffffffffffffffffffffffffffffff16600c6000868481518110611c82577f4e487b7100000000000000000000000000000000000000000000000000000000600052603260045260246000fd5b6020026020010151815260200190815260200160002060009054906101000a900473ffffffffffffffffffffffffffffffffffffffff1673ffffffffffffffffffffffffffffffffffffffff161415611d6857838181518110611d0e577f4e487b7100000000000000000000000000000000000000000000000000000000600052603260045260246000fd5b6020026020010151828480611d2290616d80565b955081518110611d5b577f4e487b7100000000000000000000000000000000000000000000000000000000600052603260045260246000fd5b6020026020010181815250505b8080611d7390616d80565b915050611c24565b5080935050505090565b611da083838360405180602001604052806000815250612b31565b505050565b611daf8282613976565b5050565b60003073ffffffffffffffffffffffffffffffffffffffff168373ffffffffffffffffffffffffffffffffffffffff161415611e5457600073ffffffffffffffffffffffffffffffffffffffff16600c600084815260200190815260200160002060009054906101000a900473ffffffffffffffffffffffffffffffffffffffff1673ffffffffffffffffffffffffffffffffffffffff1614159050611e59565b600090505b92915050565b6000806002600084815260200190815260200160002060009054906101000a900473ffffffffffffffffffffffffffffffffffffffff169050600073ffffffffffffffffffffffffffffffffffffffff168173ffffffffffffffffffffffffffffffffffffffff161415611f08576040517f08c379a0000000000000000000000000000000000000000000000000000000008152600401611eff9061645e565b60405180910390fd5b80915050919050565b6000806000611f1f8461266b565b91509150611f2d8282611fae565b92505050919050565b81611f4081611e5f565b73ffffffffffffffffffffffffffffffffffffffff16611f5e6132b0565b73ffffffffffffffffffffffffffffffffffffffff1614611f7e57600080fd5b81600e60008581526020019081526020016000206000019080519060200190611fa89291906153cc565b50505050565b6000808284611fbc90616dfa565b611fc69190616a9b565b9050600084600f0b13611fe25783611fdd90616dfa565b611fe4565b835b9350600081600f0b136120005780611ffb90616dfa565b612002565b805b9050600083600f0b1361201e578261201990616dfa565b612020565b825b925080600f0b84600f0b136120495782600f0b81600f0b136120425782612044565b805b61205f565b82600f0b84600f0b1361205c578261205e565b835b5b6fffffffffffffffffffffffffffffffff1691505092915050565b60008073ffffffffffffffffffffffffffffffffffffffff168273ffffffffffffffffffffffffffffffffffffffff1614156120eb576040517f08c379a00000000000000000000000000000000000000000000000000000000081526004016120e29061643e565b60405180910390fd5b600360008373ffffffffffffffffffffffffffffffffffffffff1673ffffffffffffffffffffffffffffffffffffffff168152602001908152602001600020549050919050565b61213a6132b0565b73ffffffffffffffffffffffffffffffffffffffff16612158612771565b73ffffffffffffffffffffffffffffffffffffffff16146121ae576040517f08c379a00000000000000000000000000000000000000000000000000000000081526004016121a5906164be565b60405180910390fd5b600073ffffffffffffffffffffffffffffffffffffffff16600660009054906101000a900473ffffffffffffffffffffffffffffffffffffffff1673ffffffffffffffffffffffffffffffffffffffff167f8be0079c531659141344cd1fd0a4f28419497f9722a3daafe3b4186f6b6457e060405160405180910390a36000600660006101000a81548173ffffffffffffffffffffffffffffffffffffffff021916908373ffffffffffffffffffffffffffffffffffffffff160217905550565b606061227b8383613b2f565b905092915050565b600e6020528060005260406000206000915090508060000180546122a690616ce4565b80601f01602080910402602001604051908101604052809291908181526020018280546122d290616ce4565b801561231f5780601f106122f45761010080835404028352916020019161231f565b820191906000526020600020905b81548152906001019060200180831161230257829003601f168201915b5050505050905081565b60006123336132b0565b73ffffffffffffffffffffffffffffffffffffffff16612351612771565b73ffffffffffffffffffffffffffffffffffffffff16146123a7576040517f08c379a000000000000000000000000000000000000000000000000000000000815260040161239e906164be565b60405180910390fd5b60006123b1612b93565b905060005b8151811015612493578181815181106123f8577f4e487b7100000000000000000000000000000000000000000000000000000000600052603260045260246000fd5b602002602001015173ffffffffffffffffffffffffffffffffffffffff1663853828b66040518163ffffffff1660e01b8152600401602060405180830381600087803b15801561244757600080fd5b505af115801561245b573d6000803e3d6000fd5b505050506040513d601f19601f8201168201806040525081019061247f9190615ab8565b50808061248b90616d80565b9150506123b6565b506124bd7fffffffffffffffffffffffffffffffffffffffffffffffffffffffffffffffff6136ab565b91505090565b60006124cd6132b0565b73ffffffffffffffffffffffffffffffffffffffff166124eb612771565b73ffffffffffffffffffffffffffffffffffffffff1614612541576040517f08c379a0000000000000000000000000000000000000000000000000000000008152600401612538906164be565b60405180910390fd5b600061254b611448565b905060005b815181101561263857818181518110612592577f4e487b7100000000000000000000000000000000000000000000000000000000600052603260045260246000fd5b602002602001015173ffffffffffffffffffffffffffffffffffffffff1663857abbd4856040518263ffffffff1660e01b81526004016125d29190616147565b602060405180830381600087803b1580156125ec57600080fd5b505af1158015612600573d6000803e3d6000fd5b505050506040513d601f19601f820116820180604052508101906126249190615ab8565b50808061263090616d80565b915050612550565b50612663837fffffffffffffffffffffffffffffffffffffffffffffffffffffffffffffffff613dde565b915050919050565b600080608083901c8391509150915091565b600080600061268b84611f11565b9050601060009054906101000a90046fffffffffffffffffffffffffffffffff166fffffffffffffffffffffffffffffffff168111156126ce576000905061270d565b80601060009054906101000a90046fffffffffffffffffffffffffffffffff166fffffffffffffffffffffffffffffffff1661270a9190616b53565b90505b8081600261271b91906168d9565b600f546127289190616a41565b9250925050915091565b6016818154811061274257600080fd5b906000526020600020016000915054906101000a900473ffffffffffffffffffffffffffffffffffffffff1681565b6000600660009054906101000a900473ffffffffffffffffffffffffffffffffffffffff16905090565b6060600180546127aa90616ce4565b80601f01602080910402602001604051908101604052809291908181526020018280546127d690616ce4565b80156128235780601f106127f857610100808354040283529160200191612823565b820191906000526020600020905b81548152906001019060200180831161280657829003601f168201915b5050505050905090565b6128356132b0565b73ffffffffffffffffffffffffffffffffffffffff166009600083815260200190815260200160002060000160019054906101000a900473ffffffffffffffffffffffffffffffffffffffff1673ffffffffffffffffffffffffffffffffffffffff16146128a257600080fd5b6128ad816001613fdf565b50565b60155481565b60006128c06132b0565b73ffffffffffffffffffffffffffffffffffffffff166128de612771565b73ffffffffffffffffffffffffffffffffffffffff1614612934576040517f08c379a000000000000000000000000000000000000000000000000000000000815260040161292b906164be565b60405180910390fd5b61293e8383613dde565b905092915050565b61294e6132b0565b73ffffffffffffffffffffffffffffffffffffffff168273ffffffffffffffffffffffffffffffffffffffff1614156129bc576040517f08c379a00000000000000000000000000000000000000000000000000000000081526004016129b39061639e565b60405180910390fd5b80600560006129c96132b0565b73ffffffffffffffffffffffffffffffffffffffff1673ffffffffffffffffffffffffffffffffffffffff16815260200190815260200160002060008473ffffffffffffffffffffffffffffffffffffffff1673ffffffffffffffffffffffffffffffffffffffff16815260200190815260200160002060006101000a81548160ff0219169083151502179055508173ffffffffffffffffffffffffffffffffffffffff16612a766132b0565b73ffffffffffffffffffffffffffffffffffffffff167f17307eab39ab6107e8899845ad3d59bd9653f200f220920489ca2b5937696c3183604051612abb919061629d565b60405180910390a35050565b6000612ad7600160008486614320565b905092915050565b6000816fffffffffffffffffffffffffffffffff166080846fffffffffffffffffffffffffffffffff16901b612b159190616783565b905092915050565b612b2e81612b296132b0565b613976565b50565b612b42612b3c6132b0565b83613371565b612b81576040517f08c379a0000000000000000000000000000000000000000000000000000000008152600401612b789061653e565b60405180910390fd5b612b8d8484848461462b565b50505050565b60606000600167ffffffffffffffff811115612bd8577f4e487b7100000000000000000000000000000000000000000000000000000000600052604160045260246000fd5b604051908082528060200260200182016040528015612c065781602001602082028036833780820191505090505b509050600d60009054906101000a900473ffffffffffffffffffffffffffffffffffffffff1681600081518110612c66577f4e487b7100000000000000000000000000000000000000000000000000000000600052603260045260246000fd5b602002602001019073ffffffffffffffffffffffffffffffffffffffff16908173ffffffffffffffffffffffffffffffffffffffff16815250508091505090565b6000612cb7600060018486614320565b905092915050565b6060612cca82613244565b612d09576040517f08c379a0000000000000000000000000000000000000000000000000000000008152600401612d00906164fe565b60405180910390fd5b6000612d13614687565b90506000815111612d335760405180602001604052806000815250612d5e565b80612d3d8461469e565b604051602001612d4e92919061610e565b6040516020818303038152906040525b915050919050565b6000612d756001808486614320565b905092915050565b60135481565b60006012544211612d9357600080fd5b60135460126000828254612da79190616783565b92505081905550600d60009054906101000a900473ffffffffffffffffffffffffffffffffffffffff1673ffffffffffffffffffffffffffffffffffffffff166340c10f19612df46132b0565b600a6040518363ffffffff1660e01b8152600401612e139291906161e5565b600060405180830381600087803b158015612e2d57600080fd5b505af1158015612e41573d6000803e3d6000fd5b50505050600a612e4f61484b565b612e599190616783565b905090565b60008173ffffffffffffffffffffffffffffffffffffffff16600760009054906101000a900473ffffffffffffffffffffffffffffffffffffffff1673ffffffffffffffffffffffffffffffffffffffff161415612ec057600b549050612ec5565b600090505b919050565b6000600560008473ffffffffffffffffffffffffffffffffffffffff1673ffffffffffffffffffffffffffffffffffffffff16815260200190815260200160002060008373ffffffffffffffffffffffffffffffffffffffff1673ffffffffffffffffffffffffffffffffffffffff16815260200190815260200160002060009054906101000a900460ff16905092915050565b6060612f6a6000611562565b905090565b6000612f7e6000808486614320565b905092915050565b612f8e6132b0565b73ffffffffffffffffffffffffffffffffffffffff16612fac612771565b73ffffffffffffffffffffffffffffffffffffffff1614613002576040517f08c379a0000000000000000000000000000000000000000000000000000000008152600401612ff9906164be565b60405180910390fd5b600073ffffffffffffffffffffffffffffffffffffffff168173ffffffffffffffffffffffffffffffffffffffff161415613072576040517f08c379a00000000000000000000000000000000000000000000000000000000081526004016130699061633e565b60405180910390fd5b8073ffffffffffffffffffffffffffffffffffffffff16600660009054906101000a900473ffffffffffffffffffffffffffffffffffffffff1673ffffffffffffffffffffffffffffffffffffffff167f8be0079c531659141344cd1fd0a4f28419497f9722a3daafe3b4186f6b6457e060405160405180910390a380600660006101000a81548173ffffffffffffffffffffffffffffffffffffffff021916908373ffffffffffffffffffffffffffffffffffffffff16021790555050565b61313a6132b0565b73ffffffffffffffffffffffffffffffffffffffff16613158612771565b73ffffffffffffffffffffffffffffffffffffffff16146131ae576040517f08c379a00000000000000000000000000000000000000000000000000000000081526004016131a5906164be565b60405180910390fd5b6131b88282614a47565b5050565b6000600a54905090565b60606131d28383614b7f565b905092915050565b60007f01ffc9a7000000000000000000000000000000000000000000000000000000007bffffffffffffffffffffffffffffffffffffffffffffffffffffffff1916827bffffffffffffffffffffffffffffffffffffffffffffffffffffffff1916149050919050565b60008073ffffffffffffffffffffffffffffffffffffffff166002600084815260200190815260200160002060009054906101000a900473ffffffffffffffffffffffffffffffffffffffff1673ffffffffffffffffffffffffffffffffffffffff1614159050919050565b600033905090565b816004600083815260200190815260200160002060006101000a81548173ffffffffffffffffffffffffffffffffffffffff021916908373ffffffffffffffffffffffffffffffffffffffff160217905550808273ffffffffffffffffffffffffffffffffffffffff1661332b83611e5f565b73ffffffffffffffffffffffffffffffffffffffff167f8c5be1e5ebec7d5bd14f71427d1e84f3dd0314c0f7b2291e5b200ac8c7c3b92560405160405180910390a45050565b600061337c82613244565b6133bb576040517f08c379a00000000000000000000000000000000000000000000000000000000081526004016133b2906163fe565b60405180910390fd5b60006133c683611e5f565b90508073ffffffffffffffffffffffffffffffffffffffff168473ffffffffffffffffffffffffffffffffffffffff16148061343557508373ffffffffffffffffffffffffffffffffffffffff1661341d84610fa6565b73ffffffffffffffffffffffffffffffffffffffff16145b8061344657506134458185612eca565b5b91505092915050565b8273ffffffffffffffffffffffffffffffffffffffff1661346f82611e5f565b73ffffffffffffffffffffffffffffffffffffffff16146134c5576040517f08c379a00000000000000000000000000000000000000000000000000000000081526004016134bc906164de565b60405180910390fd5b600073ffffffffffffffffffffffffffffffffffffffff168273ffffffffffffffffffffffffffffffffffffffff161415613535576040517f08c379a000000000000000000000000000000000000000000000000000000000815260040161352c9061637e565b60405180910390fd5b613540838383614e22565b61354b6000826132b8565b6001600360008573ffffffffffffffffffffffffffffffffffffffff1673ffffffffffffffffffffffffffffffffffffffff168152602001908152602001600020600082825461359b9190616b53565b925050819055506001600360008473ffffffffffffffffffffffffffffffffffffffff1673ffffffffffffffffffffffffffffffffffffffff16815260200190815260200160002060008282546135f29190616783565b92505081905550816002600083815260200190815260200160002060006101000a81548173ffffffffffffffffffffffffffffffffffffffff021916908373ffffffffffffffffffffffffffffffffffffffff160217905550808273ffffffffffffffffffffffffffffffffffffffff168473ffffffffffffffffffffffffffffffffffffffff167fddf252ad1be2c89b69c2b068fc378daa952ba7f163c4a11628f55a4df523b3ef60405160405180910390a4505050565b6000806136b66131bc565b476136c19190616b53565b9050808310156136cf578290505b600081111561370957613708816136e4612771565b73ffffffffffffffffffffffffffffffffffffffff16614e2790919063ffffffff16565b5b80915050919050565b601060009054906101000a90046fffffffffffffffffffffffffffffffff166fffffffffffffffffffffffffffffffff16836fffffffffffffffffffffffffffffffff161161376057600080fd5b600083600f0b1361377057600080fd5b60066002601060009054906101000a90046fffffffffffffffffffffffffffffffff168561379e9190616b1f565b856001601060009054906101000a90046fffffffffffffffffffffffffffffffff166137ca919061673d565b6137d4919061673d565b6137de91906169f7565b6137e891906167d9565b6137f291906169f7565b6fffffffffffffffffffffffffffffffff168183516138119190616b53565b1461381b57600080fd5b60008361382790616dfa565b90505b83600f0b81600f0b136139375760008461384390616dfa565b90505b84600f0b81600f0b1361392357600061385f8383611fae565b9050601060009054906101000a90046fffffffffffffffffffffffffffffffff166fffffffffffffffffffffffffffffffff16811180156138b25750856fffffffffffffffffffffffffffffffff168111155b1561390f5761390e8585806138c690616d80565b9650815181106138ff577f4e487b7100000000000000000000000000000000000000000000000000000000600052603260045260246000fd5b60200260200101518484614f1b565b5b50808061391b90616d47565b915050613846565b50808061392f90616d47565b91505061382a565b5082601060006101000a8154816fffffffffffffffffffffffffffffffff02191690836fffffffffffffffffffffffffffffffff160217905550505050565b3073ffffffffffffffffffffffffffffffffffffffff1661399683611e5f565b73ffffffffffffffffffffffffffffffffffffffff16146139b657600080fd5b600073ffffffffffffffffffffffffffffffffffffffff16600c600084815260200190815260200160002060009054906101000a900473ffffffffffffffffffffffffffffffffffffffff1673ffffffffffffffffffffffffffffffffffffffff1614613a2257600080fd5b600080613a2e8461267d565b9150915080341015613a3f57600080fd5b80341115613a8357613a828134613a569190616b53565b613a5e6132b0565b73ffffffffffffffffffffffffffffffffffffffff16614e2790919063ffffffff16565b5b613a8e308486611d85565b600d60009054906101000a900473ffffffffffffffffffffffffffffffffffffffff1673ffffffffffffffffffffffffffffffffffffffff166340c10f1984600185613ada9190616783565b6040518363ffffffff1660e01b8152600401613af792919061620e565b600060405180830381600087803b158015613b1157600080fd5b505af1158015613b25573d6000803e3d6000fd5b5050505050505050565b6060600080600190505b600854811015613c2457600073ffffffffffffffffffffffffffffffffffffffff166009600083815260200190815260200160002060000160019054906101000a900473ffffffffffffffffffffffffffffffffffffffff1673ffffffffffffffffffffffffffffffffffffffff1614158015613bcb5750846009600083815260200190815260200160002060020154145b8015613bfd57508315156009600083815260200190815260200160002060000160159054906101000a900460ff161515145b15613c11578180613c0d90616d80565b9250505b8080613c1c90616d80565b915050613b39565b5060008167ffffffffffffffff811115613c67577f4e487b7100000000000000000000000000000000000000000000000000000000600052604160045260246000fd5b604051908082528060200260200182016040528015613c955781602001602082028036833780820191505090505b509050600091506000600190505b600854811015613dd257600073ffffffffffffffffffffffffffffffffffffffff166009600083815260200190815260200160002060000160019054906101000a900473ffffffffffffffffffffffffffffffffffffffff1673ffffffffffffffffffffffffffffffffffffffff1614158015613d355750856009600083815260200190815260200160002060020154145b8015613d6757508415156009600083815260200190815260200160002060000160159054906101000a900460ff161515145b15613dbf5780828480613d7990616d80565b955081518110613db2577f4e487b7100000000000000000000000000000000000000000000000000000000600052603260045260246000fd5b6020026020010181815250505b8080613dca90616d80565b915050613ca3565b50809250505092915050565b6000613de86132b0565b73ffffffffffffffffffffffffffffffffffffffff16613e06612771565b73ffffffffffffffffffffffffffffffffffffffff1614613e5c576040517f08c379a0000000000000000000000000000000000000000000000000000000008152600401613e53906164be565b60405180910390fd5b613e7b8373ffffffffffffffffffffffffffffffffffffffff16614f93565b613e8457600080fd5b60008390506000613e9482612e5e565b8273ffffffffffffffffffffffffffffffffffffffff166370a08231306040518263ffffffff1660e01b8152600401613ecd9190616147565b60206040518083038186803b158015613ee557600080fd5b505afa158015613ef9573d6000803e3d6000fd5b505050506040513d601f19601f82011682018060405250810190613f1d9190615ab8565b613f279190616b53565b905080841015613f35578390505b6000811115613fd4578173ffffffffffffffffffffffffffffffffffffffff1663a9059cbb613f62612771565b836040518363ffffffff1660e01b8152600401613f8092919061620e565b602060405180830381600087803b158015613f9a57600080fd5b505af1158015613fae573d6000803e3d6000fd5b505050506040513d601f19601f82011682018060405250810190613fd29190615973565b505b809250505092915050565b80156142a7576009600083815260200190815260200160002060000160009054906101000a900460ff16156140c657614075306009600085815260200190815260200160002060000160019054906101000a900473ffffffffffffffffffffffffffffffffffffffff1660096000868152602001908152602001600020600201546040518060200160405280600081525061462b565b600c60006009600085815260200190815260200160002060020154815260200190815260200160002060006101000a81549073ffffffffffffffffffffffffffffffffffffffff02191690556142a6565b6009600083815260200190815260200160002060000160159054906101000a900460ff161561420057600760009054906101000a900473ffffffffffffffffffffffffffffffffffffffff1673ffffffffffffffffffffffffffffffffffffffff166333bebb77306009600086815260200190815260200160002060000160019054906101000a900473ffffffffffffffffffffffffffffffffffffffff1660096000878152602001908152602001600020600101546040518463ffffffff1660e01b815260040161419a93929190616162565b600060405180830381600087803b1580156141b457600080fd5b505af11580156141c8573d6000803e3d6000fd5b505050506009600083815260200190815260200160002060010154600b60008282546141f49190616b53565b925050819055506142a5565b61427560096000848152602001908152602001600020600101546009600085815260200190815260200160002060000160019054906101000a900473ffffffffffffffffffffffffffffffffffffffff1673ffffffffffffffffffffffffffffffffffffffff16614e2790919063ffffffff16565b6009600083815260200190815260200160002060010154600a600082825461429d9190616b53565b925050819055505b5b5b60096000838152602001908152602001600020600080820160006101000a81549060ff02191690556000820160016101000a81549073ffffffffffffffffffffffffffffffffffffffff02191690556000820160156101000a81549060ff02191690556001820160009055600282016000905550505050565b600080831161432e57600080fd5b6040518060a0016040528086151581526020016143496132b0565b73ffffffffffffffffffffffffffffffffffffffff168152602001851515815260200184815260200183815250600960006008600081548092919061438d90616d80565b91905055815260200190815260200160002060008201518160000160006101000a81548160ff02191690831515021790555060208201518160000160016101000a81548173ffffffffffffffffffffffffffffffffffffffff021916908373ffffffffffffffffffffffffffffffffffffffff16021790555060408201518160000160156101000a81548160ff0219169083151502179055506060820151816001015560808201518160020155905050841561452f57600073ffffffffffffffffffffffffffffffffffffffff16600c600084815260200190815260200160002060009054906101000a900473ffffffffffffffffffffffffffffffffffffffff1673ffffffffffffffffffffffffffffffffffffffff16146144af57600080fd5b6144d16144ba6132b0565b30846040518060200160405280600081525061462b565b6144d96132b0565b600c600084815260200190815260200160002060006101000a81548173ffffffffffffffffffffffffffffffffffffffff021916908373ffffffffffffffffffffffffffffffffffffffff160217905550614612565b83156145eb57600760009054906101000a900473ffffffffffffffffffffffffffffffffffffffff1673ffffffffffffffffffffffffffffffffffffffff166333bebb7761457b6132b0565b30866040518463ffffffff1660e01b815260040161459b93929190616162565b600060405180830381600087803b1580156145b557600080fd5b505af11580156145c9573d6000803e3d6000fd5b5050505082600b60008282546145df9190616783565b92505081905550614611565b8234146145f757600080fd5b82600a60008282546146099190616783565b925050819055505b5b60016008546146219190616b53565b9050949350505050565b61463684848461344f565b61464284848484614fa6565b614681576040517f08c379a00000000000000000000000000000000000000000000000000000000081526004016146789061631e565b60405180910390fd5b50505050565b606060405180602001604052806000815250905090565b606060008214156146e6576040518060400160405280600181526020017f30000000000000000000000000000000000000000000000000000000000000008152509050614846565b600082905060005b6000821461471857808061470190616d80565b915050600a82614711919061680a565b91506146ee565b60008167ffffffffffffffff81111561475a577f4e487b7100000000000000000000000000000000000000000000000000000000600052604160045260246000fd5b6040519080825280601f01601f19166020018201604052801561478c5781602001600182028036833780820191505090505b5090505b6000851461483f576001826147a59190616b53565b9150600a856147b49190616dc9565b60306147c09190616783565b60f81b8183815181106147fc577f4e487b7100000000000000000000000000000000000000000000000000000000600052603260045260246000fd5b60200101907effffffffffffffffffffffffffffffffffffffffffffffffffffffffffffff1916908160001a905350600a85614838919061680a565b9450614790565b8093505050505b919050565b600080600090506000601060009054906101000a90046fffffffffffffffffffffffffffffffff1661487c90616dfa565b90505b601060009054906101000a90046fffffffffffffffffffffffffffffffff16600f0b81600f0b13614a3f576000601060009054906101000a90046fffffffffffffffffffffffffffffffff166148d490616dfa565b90505b601060009054906101000a90046fffffffffffffffffffffffffffffffff16600f0b81600f0b13614a2b57600061490e8383612adf565b9050600061491b8261513d565b9050600073ffffffffffffffffffffffffffffffffffffffff168173ffffffffffffffffffffffffffffffffffffffff1614614a1657600061495c8361267d565b509050600d60009054906101000a900473ffffffffffffffffffffffffffffffffffffffff1673ffffffffffffffffffffffffffffffffffffffff166340c10f19836001846149ab9190616783565b6040518363ffffffff1660e01b81526004016149c892919061620e565b600060405180830381600087803b1580156149e257600080fd5b505af11580156149f6573d6000803e3d6000fd5b50505050600181614a079190616783565b86614a129190616783565b9550505b50508080614a2390616d47565b9150506148d7565b508080614a3790616d47565b91505061487f565b508091505090565b614a4f6132b0565b73ffffffffffffffffffffffffffffffffffffffff16614a6d612771565b73ffffffffffffffffffffffffffffffffffffffff1614614ac3576040517f08c379a0000000000000000000000000000000000000000000000000000000008152600401614aba906164be565b60405180910390fd5b614ae28273ffffffffffffffffffffffffffffffffffffffff16614f93565b614aeb57600080fd5b6000829050614afa8183611db3565b15614b0457600080fd5b8073ffffffffffffffffffffffffffffffffffffffff166342842e0e30614b29612771565b856040518463ffffffff1660e01b8152600401614b4893929190616162565b600060405180830381600087803b158015614b6257600080fd5b505af1158015614b76573d6000803e3d6000fd5b50505050505050565b6060600073ffffffffffffffffffffffffffffffffffffffff168373ffffffffffffffffffffffffffffffffffffffff161415614bbb57600080fd5b600080600190505b600854811015614c8b578473ffffffffffffffffffffffffffffffffffffffff166009600083815260200190815260200160002060000160019054906101000a900473ffffffffffffffffffffffffffffffffffffffff1673ffffffffffffffffffffffffffffffffffffffff16148015614c6457508315156009600083815260200190815260200160002060000160159054906101000a900460ff161515145b15614c78578180614c7490616d80565b9250505b8080614c8390616d80565b915050614bc3565b5060008167ffffffffffffffff811115614cce577f4e487b7100000000000000000000000000000000000000000000000000000000600052604160045260246000fd5b604051908082528060200260200182016040528015614cfc5781602001602082028036833780820191505090505b509050600091506000600190505b600854811015614e16578573ffffffffffffffffffffffffffffffffffffffff166009600083815260200190815260200160002060000160019054906101000a900473ffffffffffffffffffffffffffffffffffffffff1673ffffffffffffffffffffffffffffffffffffffff16148015614dab57508415156009600083815260200190815260200160002060000160159054906101000a900460ff161515145b15614e035780828480614dbd90616d80565b955081518110614df6577f4e487b7100000000000000000000000000000000000000000000000000000000600052603260045260246000fd5b6020026020010181815250505b8080614e0e90616d80565b915050614d0a565b50809250505092915050565b505050565b80471015614e6a576040517f08c379a0000000000000000000000000000000000000000000000000000000008152600401614e61906163de565b60405180910390fd5b60008273ffffffffffffffffffffffffffffffffffffffff1682604051614e9090616132565b60006040518083038185875af1925050503d8060008114614ecd576040519150601f19603f3d011682016040523d82523d6000602084013e614ed2565b606091505b5050905080614f16576040517f08c379a0000000000000000000000000000000000000000000000000000000008152600401614f0d906163be565b60405180910390fd5b505050565b6000614f278383612adf565b9050614f3330826151dd565b604051806020016040528085815250600e60008381526020019081526020016000206000820151816000019080519060200190614f719291906153cc565b5090505060116000815480929190614f8890616d80565b919050555050505050565b600080823b905060008111915050919050565b6000614fc78473ffffffffffffffffffffffffffffffffffffffff16614f93565b15615130578373ffffffffffffffffffffffffffffffffffffffff1663150b7a02614ff06132b0565b8786866040518563ffffffff1660e01b81526004016150129493929190616199565b602060405180830381600087803b15801561502c57600080fd5b505af192505050801561505d57506040513d601f19601f8201168201806040525081019061505a91906159c5565b60015b6150e0573d806000811461508d576040519150601f19603f3d011682016040523d82523d6000602084013e615092565b606091505b506000815114156150d8576040517f08c379a00000000000000000000000000000000000000000000000000000000081526004016150cf9061631e565b60405180910390fd5b805181602001fd5b63150b7a0260e01b7bffffffffffffffffffffffffffffffffffffffffffffffffffffffff1916817bffffffffffffffffffffffffffffffffffffffffffffffffffffffff191614915050615135565b600190505b949350505050565b600061514882613244565b61515557600090506151d8565b3073ffffffffffffffffffffffffffffffffffffffff1661517583611e5f565b73ffffffffffffffffffffffffffffffffffffffff1614156151cc57600c600083815260200190815260200160002060009054906101000a900473ffffffffffffffffffffffffffffffffffffffff1690506151d8565b6151d582611e5f565b90505b919050565b600073ffffffffffffffffffffffffffffffffffffffff168273ffffffffffffffffffffffffffffffffffffffff16141561524d576040517f08c379a00000000000000000000000000000000000000000000000000000000081526004016152449061647e565b60405180910390fd5b61525681613244565b15615296576040517f08c379a000000000000000000000000000000000000000000000000000000000815260040161528d9061635e565b60405180910390fd5b6152a260008383614e22565b6001600360008473ffffffffffffffffffffffffffffffffffffffff1673ffffffffffffffffffffffffffffffffffffffff16815260200190815260200160002060008282546152f29190616783565b92505081905550816002600083815260200190815260200160002060006101000a81548173ffffffffffffffffffffffffffffffffffffffff021916908373ffffffffffffffffffffffffffffffffffffffff160217905550808273ffffffffffffffffffffffffffffffffffffffff16600073ffffffffffffffffffffffffffffffffffffffff167fddf252ad1be2c89b69c2b068fc378daa952ba7f163c4a11628f55a4df523b3ef60405160405180910390a45050565b50805460008255906000526020600020908101906153c99190615452565b50565b8280546153d890616ce4565b90600052602060002090601f0160209004810192826153fa5760008555615441565b82601f1061541357805160ff1916838001178555615441565b82800160010185558215615441579182015b82811115615440578251825591602001919060010190615425565b5b50905061544e9190615452565b5090565b5b8082111561546b576000816000905550600101615453565b5090565b600061548261547d846165c7565b6165a2565b905080838252602082019050828560208602820111156154a157600080fd5b60005b858110156154eb57813567ffffffffffffffff8111156154c357600080fd5b8086016154d089826156b7565b855260208501945060208401935050506001810190506154a4565b5050509392505050565b6000615508615503846165f3565b6165a2565b90508281526020810184848401111561552057600080fd5b61552b848285616ca2565b509392505050565b600061554661554184616624565b6165a2565b90508281526020810184848401111561555e57600080fd5b615569848285616ca2565b509392505050565b600081359050615580816173f0565b92915050565b600082601f83011261559757600080fd5b81356155a784826020860161546f565b91505092915050565b6000813590506155bf81617407565b92915050565b6000815190506155d481617407565b92915050565b6000813590506155e98161741e565b92915050565b6000815190506155fe8161741e565b92915050565b60008083601f84011261561657600080fd5b8235905067ffffffffffffffff81111561562f57600080fd5b60208301915083600182028301111561564757600080fd5b9250929050565b600082601f83011261565f57600080fd5b813561566f8482602086016154f5565b91505092915050565b60008135905061568781617435565b92915050565b60008135905061569c8161744c565b92915050565b6000813590506156b181617463565b92915050565b600082601f8301126156c857600080fd5b81356156d8848260208601615533565b91505092915050565b6000813590506156f08161747a565b92915050565b6000815190506157058161747a565b92915050565b60006020828403121561571d57600080fd5b600061572b84828501615571565b91505092915050565b6000806040838503121561574757600080fd5b600061575585828601615571565b925050602061576685828601615571565b9150509250929050565b60008060006060848603121561578557600080fd5b600061579386828701615571565b93505060206157a486828701615571565b92505060406157b5868287016156e1565b9150509250925092565b6000806000806000608086880312156157d757600080fd5b60006157e588828901615571565b95505060206157f688828901615571565b9450506040615807888289016156e1565b935050606086013567ffffffffffffffff81111561582457600080fd5b61583088828901615604565b92509250509295509295909350565b6000806000806080858703121561585557600080fd5b600061586387828801615571565b945050602061587487828801615571565b9350506040615885878288016156e1565b925050606085013567ffffffffffffffff8111156158a257600080fd5b6158ae8782880161564e565b91505092959194509250565b600080604083850312156158cd57600080fd5b60006158db85828601615571565b92505060206158ec858286016155b0565b9150509250929050565b6000806040838503121561590957600080fd5b600061591785828601615571565b9250506020615928858286016156e1565b9150509250929050565b60006020828403121561594457600080fd5b600082013567ffffffffffffffff81111561595e57600080fd5b61596a84828501615586565b91505092915050565b60006020828403121561598557600080fd5b6000615993848285016155c5565b91505092915050565b6000602082840312156159ae57600080fd5b60006159bc848285016155da565b91505092915050565b6000602082840312156159d757600080fd5b60006159e5848285016155ef565b91505092915050565b600060208284031215615a0057600080fd5b6000615a0e84828501615678565b91505092915050565b60008060408385031215615a2a57600080fd5b6000615a388582860161568d565b9250506020615a49858286016156e1565b9150509250929050565b60008060408385031215615a6657600080fd5b6000615a74858286016156a2565b9250506020615a85858286016156a2565b9150509250929050565b600060208284031215615aa157600080fd5b6000615aaf848285016156e1565b91505092915050565b600060208284031215615aca57600080fd5b6000615ad8848285016156f6565b91505092915050565b60008060408385031215615af457600080fd5b6000615b02858286016156e1565b9250506020615b1385828601615571565b9150509250929050565b60008060408385031215615b3057600080fd5b6000615b3e858286016156e1565b9250506020615b4f858286016155b0565b9150509250929050565b60008060408385031215615b6c57600080fd5b6000615b7a858286016156e1565b925050602083013567ffffffffffffffff811115615b9757600080fd5b615ba3858286016156b7565b9150509250929050565b60008060408385031215615bc057600080fd5b6000615bce858286016156e1565b9250506020615bdf858286016156e1565b9150509250929050565b6000615bf58383615db1565b60208301905092915050565b6000615c0d8383615dc0565b60208301905092915050565b6000615c2583836160f0565b60208301905092915050565b615c3a81616b87565b82525050565b6000615c4b82616685565b615c5581856166e3565b9350615c6083616655565b8060005b83811015615c91578151615c788882615be9565b9750615c83836166bc565b925050600181019050615c64565b5085935050505092915050565b6000615ca982616690565b615cb381856166e3565b9350615cbe83616665565b8060005b83811015615cef578151615cd68882615c01565b9750615ce1836166c9565b925050600181019050615cc2565b5085935050505092915050565b6000615d078261669b565b615d1181856166f4565b9350615d1c83616675565b8060005b83811015615d4d578151615d348882615c19565b9750615d3f836166d6565b925050600181019050615d20565b5085935050505092915050565b615d6381616b99565b82525050565b615d7281616ba5565b82525050565b6000615d83826166a6565b615d8d8185616705565b9350615d9d818560208601616cb1565b615da681616eff565b840191505092915050565b615dba81616c48565b82525050565b615dc981616c6c565b82525050565b615dd881616bf5565b82525050565b615de781616c90565b82525050565b6000615df8826166b1565b615e028185616721565b9350615e12818560208601616cb1565b615e1b81616eff565b840191505092915050565b6000615e31826166b1565b615e3b8185616732565b9350615e4b818560208601616cb1565b80840191505092915050565b6000615e64603283616721565b9150615e6f82616f1d565b604082019050919050565b6000615e87602683616721565b9150615e9282616f6c565b604082019050919050565b6000615eaa601c83616721565b9150615eb582616fbb565b602082019050919050565b6000615ecd602483616721565b9150615ed882616fe4565b604082019050919050565b6000615ef0601983616721565b9150615efb82617033565b602082019050919050565b6000615f13603a83616721565b9150615f1e8261705c565b604082019050919050565b6000615f36601d83616721565b9150615f41826170ab565b602082019050919050565b6000615f59602c83616721565b9150615f64826170d4565b604082019050919050565b6000615f7c603883616721565b9150615f8782617123565b604082019050919050565b6000615f9f602a83616721565b9150615faa82617172565b604082019050919050565b6000615fc2602983616721565b9150615fcd826171c1565b604082019050919050565b6000615fe5602083616721565b9150615ff082617210565b602082019050919050565b6000616008602c83616721565b915061601382617239565b604082019050919050565b600061602b602083616721565b915061603682617288565b602082019050919050565b600061604e602983616721565b9150616059826172b1565b604082019050919050565b6000616071602f83616721565b915061607c82617300565b604082019050919050565b6000616094602183616721565b915061609f8261734f565b604082019050919050565b60006160b7600083616716565b91506160c28261739e565b600082019050919050565b60006160da603183616721565b91506160e5826173a1565b604082019050919050565b6160f981616c3e565b82525050565b61610881616c3e565b82525050565b600061611a8285615e26565b91506161268284615e26565b91508190509392505050565b600061613d826160aa565b9150819050919050565b600060208201905061615c6000830184615c31565b92915050565b60006060820190506161776000830186615c31565b6161846020830185615c31565b61619160408301846160ff565b949350505050565b60006080820190506161ae6000830187615c31565b6161bb6020830186615c31565b6161c860408301856160ff565b81810360608301526161da8184615d78565b905095945050505050565b60006040820190506161fa6000830185615c31565b6162076020830184615dde565b9392505050565b60006040820190506162236000830185615c31565b61623060208301846160ff565b9392505050565b600060208201905081810360008301526162518184615c40565b905092915050565b600060208201905081810360008301526162738184615c9e565b905092915050565b600060208201905081810360008301526162958184615cfc565b905092915050565b60006020820190506162b26000830184615d5a565b92915050565b60006020820190506162cd6000830184615d69565b92915050565b60006040820190506162e86000830185615dcf565b6162f56020830184615dcf565b9392505050565b600060208201905081810360008301526163168184615ded565b905092915050565b6000602082019050818103600083015261633781615e57565b9050919050565b6000602082019050818103600083015261635781615e7a565b9050919050565b6000602082019050818103600083015261637781615e9d565b9050919050565b6000602082019050818103600083015261639781615ec0565b9050919050565b600060208201905081810360008301526163b781615ee3565b9050919050565b600060208201905081810360008301526163d781615f06565b9050919050565b600060208201905081810360008301526163f781615f29565b9050919050565b6000602082019050818103600083015261641781615f4c565b9050919050565b6000602082019050818103600083015261643781615f6f565b9050919050565b6000602082019050818103600083015261645781615f92565b9050919050565b6000602082019050818103600083015261647781615fb5565b9050919050565b6000602082019050818103600083015261649781615fd8565b9050919050565b600060208201905081810360008301526164b781615ffb565b9050919050565b600060208201905081810360008301526164d78161601e565b9050919050565b600060208201905081810360008301526164f781616041565b9050919050565b6000602082019050818103600083015261651781616064565b9050919050565b6000602082019050818103600083015261653781616087565b9050919050565b60006020820190508181036000830152616557816160cd565b9050919050565b600060208201905061657360008301846160ff565b92915050565b600060408201905061658e60008301856160ff565b61659b60208301846160ff565b9392505050565b60006165ac6165bd565b90506165b88282616d16565b919050565b6000604051905090565b600067ffffffffffffffff8211156165e2576165e1616ed0565b5b602082029050602081019050919050565b600067ffffffffffffffff82111561660e5761660d616ed0565b5b61661782616eff565b9050602081019050919050565b600067ffffffffffffffff82111561663f5761663e616ed0565b5b61664882616eff565b9050602081019050919050565b6000819050602082019050919050565b6000819050602082019050919050565b6000819050602082019050919050565b600081519050919050565b600081519050919050565b600081519050919050565b600081519050919050565b600081519050919050565b6000602082019050919050565b6000602082019050919050565b6000602082019050919050565b600082825260208201905092915050565b600082825260208201905092915050565b600082825260208201905092915050565b600081905092915050565b600082825260208201905092915050565b600081905092915050565b600061674882616c02565b915061675383616c02565b9250826fffffffffffffffffffffffffffffffff0382111561677857616777616e43565b5b828201905092915050565b600061678e82616c3e565b915061679983616c3e565b9250827fffffffffffffffffffffffffffffffffffffffffffffffffffffffffffffffff038211156167ce576167cd616e43565b5b828201905092915050565b60006167e482616c02565b91506167ef83616c02565b9250826167ff576167fe616e72565b5b828204905092915050565b600061681582616c3e565b915061682083616c3e565b9250826168305761682f616e72565b5b828204905092915050565b6000808291508390505b60018511156168855780860481111561686157616860616e43565b5b60018516156168705780820291505b808102905061687e85616f10565b9450616845565b94509492505050565b600061689982616c3e565b91506168a483616c02565b92506168d17fffffffffffffffffffffffffffffffffffffffffffffffffffffffffffffffff8484616924565b905092915050565b60006168e482616c3e565b91506168ef83616c3e565b925061691c7fffffffffffffffffffffffffffffffffffffffffffffffffffffffffffffffff8484616924565b905092915050565b60008261693457600190506169f0565b8161694257600090506169f0565b8160018114616958576002811461696257616991565b60019150506169f0565b60ff84111561697457616973616e43565b5b8360020a91508482111561698b5761698a616e43565b5b506169f0565b5060208310610133831016604e8410600b84101617156169c65782820a9050838111156169c1576169c0616e43565b5b6169f0565b6169d3848484600161683b565b925090508184048111156169ea576169e9616e43565b5b81810290505b9392505050565b6000616a0282616c02565b9150616a0d83616c02565b9250816fffffffffffffffffffffffffffffffff0483118215151615616a3657616a35616e43565b5b828202905092915050565b6000616a4c82616c3e565b9150616a5783616c3e565b9250817fffffffffffffffffffffffffffffffffffffffffffffffffffffffffffffffff0483118215151615616a9057616a8f616e43565b5b828202905092915050565b6000616aa682616bf5565b9150616ab183616bf5565b9250827fffffffffffffffffffffffffffffffff8000000000000000000000000000000001821260008412151615616aec57616aeb616e43565b5b826f7fffffffffffffffffffffffffffffff018213600084121615616b1457616b13616e43565b5b828203905092915050565b6000616b2a82616c02565b9150616b3583616c02565b925082821015616b4857616b47616e43565b5b828203905092915050565b6000616b5e82616c3e565b9150616b6983616c3e565b925082821015616b7c57616b7b616e43565b5b828203905092915050565b6000616b9282616c1e565b9050919050565b60008115159050919050565b60007fffffffff0000000000000000000000000000000000000000000000000000000082169050919050565b6000616bdc82616b87565b9050919050565b6000616bee82616b87565b9050919050565b600081600f0b9050919050565b60006fffffffffffffffffffffffffffffffff82169050919050565b600073ffffffffffffffffffffffffffffffffffffffff82169050919050565b6000819050919050565b6000616c5382616c5a565b9050919050565b6000616c6582616c1e565b9050919050565b6000616c7782616c7e565b9050919050565b6000616c8982616c1e565b9050919050565b6000616c9b82616c3e565b9050919050565b82818337600083830152505050565b60005b83811015616ccf578082015181840152602081019050616cb4565b83811115616cde576000848401525b50505050565b60006002820490506001821680616cfc57607f821691505b60208210811415616d1057616d0f616ea1565b5b50919050565b616d1f82616eff565b810181811067ffffffffffffffff82111715616d3e57616d3d616ed0565b5b80604052505050565b6000616d5282616bf5565b91506f7fffffffffffffffffffffffffffffff821415616d7557616d74616e43565b5b600182019050919050565b6000616d8b82616c3e565b91507fffffffffffffffffffffffffffffffffffffffffffffffffffffffffffffffff821415616dbe57616dbd616e43565b5b600182019050919050565b6000616dd482616c3e565b9150616ddf83616c3e565b925082616def57616dee616e72565b5b828206905092915050565b6000616e0582616bf5565b91507fffffffffffffffffffffffffffffffff80000000000000000000000000000000821415616e3857616e37616e43565b5b816000039050919050565b7f4e487b7100000000000000000000000000000000000000000000000000000000600052601160045260246000fd5b7f4e487b7100000000000000000000000000000000000000000000000000000000600052601260045260246000fd5b7f4e487b7100000000000000000000000000000000000000000000000000000000600052602260045260246000fd5b7f4e487b7100000000000000000000000000000000000000000000000000000000600052604160045260246000fd5b6000601f19601f8301169050919050565b60008160011c9050919050565b7f4552433732313a207472616e7366657220746f206e6f6e20455243373231526560008201527f63656976657220696d706c656d656e7465720000000000000000000000000000602082015250565b7f4f776e61626c653a206e6577206f776e657220697320746865207a65726f206160008201527f6464726573730000000000000000000000000000000000000000000000000000602082015250565b7f4552433732313a20746f6b656e20616c7265616479206d696e74656400000000600082015250565b7f4552433732313a207472616e7366657220746f20746865207a65726f2061646460008201527f7265737300000000000000000000000000000000000000000000000000000000602082015250565b7f4552433732313a20617070726f766520746f2063616c6c657200000000000000600082015250565b7f416464726573733a20756e61626c6520746f2073656e642076616c75652c207260008201527f6563697069656e74206d61792068617665207265766572746564000000000000602082015250565b7f416464726573733a20696e73756666696369656e742062616c616e6365000000600082015250565b7f4552433732313a206f70657261746f7220717565727920666f72206e6f6e657860008201527f697374656e7420746f6b656e0000000000000000000000000000000000000000602082015250565b7f4552433732313a20617070726f76652063616c6c6572206973206e6f74206f7760008201527f6e6572206e6f7220617070726f76656420666f7220616c6c0000000000000000602082015250565b7f4552433732313a2062616c616e636520717565727920666f7220746865207a6560008201527f726f206164647265737300000000000000000000000000000000000000000000602082015250565b7f4552433732313a206f776e657220717565727920666f72206e6f6e657869737460008201527f656e7420746f6b656e0000000000000000000000000000000000000000000000602082015250565b7f4552433732313a206d696e7420746f20746865207a65726f2061646472657373600082015250565b7f4552433732313a20617070726f76656420717565727920666f72206e6f6e657860008201527f697374656e7420746f6b656e0000000000000000000000000000000000000000602082015250565b7f4f776e61626c653a2063616c6c6572206973206e6f7420746865206f776e6572600082015250565b7f4552433732313a207472616e73666572206f6620746f6b656e2074686174206960008201527f73206e6f74206f776e0000000000000000000000000000000000000000000000602082015250565b7f4552433732314d657461646174613a2055524920717565727920666f72206e6f60008201527f6e6578697374656e7420746f6b656e0000000000000000000000000000000000602082015250565b7f4552433732313a20617070726f76616c20746f2063757272656e74206f776e6560008201527f7200000000000000000000000000000000000000000000000000000000000000602082015250565b50565b7f4552433732313a207472616e736665722063616c6c6572206973206e6f74206f60008201527f776e6572206e6f7220617070726f766564000000000000000000000000000000602082015250565b6173f981616b87565b811461740457600080fd5b50565b61741081616b99565b811461741b57600080fd5b50565b61742781616ba5565b811461743257600080fd5b50565b61743e81616bd1565b811461744957600080fd5b50565b61745581616be3565b811461746057600080fd5b50565b61746c81616bf5565b811461747757600080fd5b50565b61748381616c3e565b811461748e57600080fd5b5056fea2646970667358221220bf0351617d9f15f39a43bd51263d25bbbf90863fe74566d4a0ee1daca1c4507864736f6c63430008040033",
  "immutableReferences": {},
  "source": "// SPDX-License-Identifier: MIT\n\npragma solidity ^0.8.0;\n\nimport \"./Hive.sol\";\ncontract UpgradableHive is Hive{\n    \n    uint256 enlargeBasePrice;\n    uint256 public collectedAmountForEnlarge = 0;\n    address[] public partipantToEnlarge;\n    mapping(address => uint256) public partipationToEnlarge;\n    \n    \n    constructor(address honeyAdress_, string[] memory firstBeesName_, uint128 hiveSize_, uint256 baseClaimPrice_, uint256 honeyCooldown_, uint256 enlargeBasePrice_)\n    Hive(honeyAdress_, firstBeesName_, hiveSize_, baseClaimPrice_, honeyCooldown_){\n        require(enlargeBasePrice_ > 0);\n        enlargeBasePrice = enlargeBasePrice_;\n    }\n    \n    function enlargePrice() public view returns(uint256){\n        return enlargeBasePrice * (2**hiveSize);\n    }\n    \n    function participateToEnlargeHive(uint256 amount) external{\n        uint256 remaining = enlargePrice() - collectedAmountForEnlarge;\n        if(amount > remaining){\n            amount = remaining;\n        }\n        require(amount > 0);\n        honey.forceTransfer(_msgSender(),address(this), amount);\n        honey.burn(address(this), amount - amount / 10);\n        collectedAmountForEnlarge += amount;\n        partipantToEnlarge.push(_msgSender());\n        partipationToEnlarge[_msgSender()] += amount;\n    }\n    \n    function enlarge(string[] memory beeNames) public onlyOwner{\n        require(collectedAmountForEnlarge == enlargePrice());\n        _enlargeHive(hiveSize + 1, beeNames, 0);\n        collectedAmountForEnlarge = 0;\n        for(uint256 i = 0; i < partipantToEnlarge.length; i++){\n            delete partipationToEnlarge[partipantToEnlarge[i]];\n        }\n        delete partipantToEnlarge;\n        \n    }\n    \n}",
  "sourcePath": "C:/Users/Lucas/cryptobee/contracts/hive/UpgradableHive.sol",
  "compiler": {
    "name": "solc",
    "version": "0.8.4+commit.c7e474f2.Emscripten.clang"
  },
  "schemaVersion": "3.3.4",
  "updatedAt": "2021-04-25T17:52:15.697Z",
  "devdoc": {
    "kind": "dev",
    "methods": {
      "approve(address,uint256)": {
        "details": "See {IERC721-approve}."
      },
      "balanceOf(address)": {
        "details": "See {IERC721-balanceOf}."
      },
      "getApproved(uint256)": {
        "details": "See {IERC721-getApproved}."
      },
      "isApprovedForAll(address,address)": {
        "details": "See {IERC721-isApprovedForAll}."
      },
      "name()": {
        "details": "See {IERC721Metadata-name}."
      },
      "owner()": {
        "details": "Returns the address of the current owner."
      },
      "ownerOf(uint256)": {
        "details": "See {IERC721-ownerOf}."
      },
      "renounceOwnership()": {
        "details": "Leaves the contract without owner. It will not be possible to call `onlyOwner` functions anymore. Can only be called by the current owner. NOTE: Renouncing ownership will leave the contract without an owner, thereby removing any functionality that is only available to the owner."
      },
      "safeTransferFrom(address,address,uint256)": {
        "details": "See {IERC721-safeTransferFrom}."
      },
      "safeTransferFrom(address,address,uint256,bytes)": {
        "details": "See {IERC721-safeTransferFrom}."
      },
      "setApprovalForAll(address,bool)": {
        "details": "See {IERC721-setApprovalForAll}."
      },
      "supportsInterface(bytes4)": {
        "details": "See {IERC165-supportsInterface}."
      },
      "symbol()": {
        "details": "See {IERC721Metadata-symbol}."
      },
      "tokenURI(uint256)": {
        "details": "See {IERC721Metadata-tokenURI}."
      },
      "transferFrom(address,address,uint256)": {
        "details": "See {IERC721-transferFrom}."
      },
      "transferOwnership(address)": {
        "details": "Transfers ownership of the contract to a new account (`newOwner`). Can only be called by the current owner."
      }
    },
    "version": 1
  },
  "userdoc": {
    "kind": "user",
    "methods": {},
    "version": 1
  }
}